:020000040800F2
:100000000050002099020008A1020008A502000883
:10001000A9020008AD020008B102000800000000BB
:10002000000000000000000000000000B502000811
:10003000B902000800000000BD0200084D170008CA
:10004000C5020008C5020008C5020008C502000874
:10005000C5020008C5020008C5020008C502000864
:10006000C5020008C5020008C5020008C502000854
:10007000C5020008C5020008C5020008C502000844
:10008000C5020008C5020008C5020008C502000834
:10009000C5020008C5020008C5020008C502000824
:1000A000C5020008C5020008C5020008C502000814
:1000B000C5020008C5020008C5020008C502000804
:1000C000C5020008C5020008C5020008C5020008F4
:1000D000C5020008C5020008C5020008C5020008E4
:1000E000C5020008C5020008C5020008C5020008D4
:1000F000C5020008C5020008C5020008C5020008C4
:10010000C5020008C5020008C5020008C5020008B3
:10011000C5020008C5020008C5020008C5020008A3
:10012000C5020008C5020008C5020008C502000893
:10013000C5020008C5020008C5020008C502000883
:10014000C5020008C5020008C5020008C502000873
:10015000C5020008C5020008C5020008C502000863
:10016000C5020008C5020008C5020008C502000853
:10017000C5020008C5020008C5020008C502000843
:10018000C502000800B583B000F0ECFA304B314AEC
:100190001360314A1360314B314A03E01168196032
:1001A000043304322F498B42F8D32A4B1A682E4B62
:1001B0009A4204D1284B1A682C4B9A4200D0FEE791
:1001C000234B2B4A13602B4A13602B4B02E0002277
:1001D0001A600433294A9342F9D3254B1B6813B99B
:1001E000244B1B6803B1FEE700F0C0FA01A8694682
:1001F00000F052FA224C234B1C1BA410002504E0F3
:100200001F4B53F8253098470135AC42F8DC1E4CA3
:100210001E4B1C1BA410002504E01B4B53F825307B
:1002200098470135AC42F8DC0198009901F054FB85
:100230000546174C174B1C1BA41004E0013C144B43
:1002400053F824309847002CF8DC284600F0F6F9E3
:10025000BABADECA00000020B40800200000002066
:10026000AC8A0008B80800207856341232547698C8
:10027000B808002040170020B808002044170020CC
:10028000C8020008C8020008C8020008C802000826
:10029000C8020008C802000808B5FFF773FF00BFD6
:1002A000FEE700BFFEE700BFFEE700BFFEE700BFBE
:1002B000FEE700BFFEE700BFFEE700BFFEE700BFAE
:0802C000704700BFFEE700BF1C
:1002C8002DE9F04105460E46464B984223D003F5EA
:1002D800806398421FD003F5806398421BD003F5D2
:1002E8008063984217D003F58063984213D003F5D2
:1002F800806398420FD003F5806398420BD003F5D2
:100308008063984207D003F58063984203D036484B
:10031800C12100F0C5F933681BB93348C22100F088
:10032800BFF93379032B03D92F48C32100F0B8F95B
:10033800F379022B03D92C48C42100F0B1F9002429
:100348004CE00123A34032681A409A4245D12B68F9
:100358004FEA4408032707FA08F7FF433B402B609E
:100368002A68337903FA08F313432B603379013B86
:10037800DBB2012B23D87379032B03D91A48D62172
:1003880000F08EF9AB681F40AF60AA68737903FA72
:1003980008F31343AB60B379012B03D91248DD216D
:1003A80000F07EF96A68A1B201238B4022EA0303B8
:1003B8006B606A68B3798B409BB213436B60EA68E1
:1003C800A1B2490003238B4022EA0303EB60EA68E9
:1003D800F37903FA08F31343EB6001340F2CB0D917
:1003E800BDE8F08100000240E463000838B5044627
:1003F8000D462E4B984224D003F58063984220D0B6
:1004080003F5806398421CD003F58063984218D0A6
:1004180003F58063984214D003F58063984210D0A6
:1004280003F5806398420CD003F58063984208D0A6
:1004380003F58063984204D01D484FF49B7100F087
:100448002FF96B1E9BB2012B28D9042D26D0082D1D
:1004580024D0102D22D0202D20D0402D1ED0802D2C
:100468001CD0B5F5807F19D0B5F5007F16D0B5F54D
:10047800806F13D0B5F5006F10D0B5F5805F0DD043
:10048800B5F5005F0AD0B5F5804F07D0B5F5004F38
:1004980004D0074840F2371100F002F923692B42D3
:1004A80001D0012038BD002038BD00BF0000024047
:1004B800E463000870B505460C461646364B98426C
:1004C80024D003F58063984220D003F580639842D6
:1004D8001CD003F58063984218D003F580639842D6
:1004E80014D003F58063984210D003F580639842D6
:1004F8000CD003F58063984208D003F580639842D6
:1005080004D026484FF4077100F0CAF80F2C04D91C
:10051800224840F21D2100F0C3F83EB3092E25D031
:1005280026B3012E22D0022E20D0032E1ED0042E58
:100538001CD0052E1AD0092E18D0062E16D0092E3A
:1005480014D0072E12D0082E10D0092E0ED00A2E45
:100558000CD00B2E0AD00C2E08D00D2E06D00F2E44
:1005680004D00E4840F21E2100F09AF804F0070368
:100578009B009E40E108083155F821200F2000FA21
:1005880003F322EA030345F8213055F821301E43CE
:1005980045F8216070BD00BF00000240E463000818
:1005A80038B504460D460E4B034003B920B90D4833
:1005B80040F2494100F074F8012D04D9094840F28D
:1005C8004B4100F06DF825B1074B1A6B14431C63BF
:1005D80038BD054A136B23EA0404146338BD00BF11
:1005E80000EE9B81186400080038024038B50446C4
:1005F8000D4630F0010300D120B90C4840F2844187
:1006080000F04EF8012D04D9084840F2854100F069
:1006180047F825B1064B9A6B14439C6338BD044ACE
:10062800936B23EA0404946338BD00BF1864000880
:1006380000380240FEE700BF08B5034800F056F84E
:100648000120FFF7F7FF00BF4864000808B50D4B0D
:100658001B6813B90C4A0B4B1A600A4B1A68C31C67
:1006680023F00303134409498B4206D901F076FBB2
:100678000C2303604FF0FF3008BD02490B601046A1
:1006880008BD00BFBC08002044170020004C002013
:1006980001230360014B0B60704700BF040000207A
:1006A80008B503460A460348194600F005F8FFF75F
:1006B800C3FF00BF9C6400080FB400B583B004AB4F
:1006C80053F8042B01930848802102F0C7FE011E4D
:1006D80003DD054800F03EF80146084603B05DF822
:1006E80004EB04B0704700BFC408002010B50446EE
:1006F80001F0D4FB0146204600F02CF80248012105
:1007080000F028F810BD00BF2089000810B40022AE
:100718001AE04FF06043D3F8803E13F0010F06D083
:100728004FF06043D3F8003E13F0010F01D110469B
:100738000DE04FF060431B68002BFAD004784FF0AF
:1007480060431C70013201308A42E2D308465DF8EA
:10075800044B704708B5FFF7D9FF08BD08B500F08E
:100768005BF808BD08B500F079F808BD82B0002331
:1007780001930093254A136843F480331360234B95
:100788001B6803F400330093019B01330193009B22
:100798001BB9019BB3F5A06FF1D11C4B1B6813F477
:1007A800003F02D00123009301E000230093009B47
:1007B800012B29D1154B9A689A609A6842F4004235
:1007C8009A609A6842F4A0529A60114A5A601A686C
:1007D80042F080721A600D4B1B6813F0007FFAD04C
:1007E80040F203720B4B1A60A3F580639A6822F0FB
:1007F80003029A609A6842F002029A60034B9B686F
:1008080003F00C03082BF9D102B0704700380240FE
:10081800193C4005003C024008B50D4B1A6842F0EF
:1008280001021A60002199601A6822F0847222F489
:1008380080321A60074A5A601A6822F480221A60C5
:10084800D960FFF793FF4FF00062034B9A6008BD31
:10085800003802401030002400ED00E0234B9B6874
:1008680003F00C03042B07D0082B09D0002B2DD143
:100878001F4A204B1A602CE01F4A1E4B1A6028E0C2
:100888001A4B5A685B6803F03F0312F4800F09D0D3
:10089800194AB2FBF3F2154B5B68C3F3881303FBE9
:1008A80002F208E0124AB2FBF3F3104A5168C1F3AE
:1008B800881101FB03F20D4B5B68C3F3014301335D
:1008C8005B00B2FBF3F30B4A136002E0084A094BE2
:1008D8001A60064B9B68C3F30313084AD25CD2B272
:1008E80004490B68D3400B60704700BF00380240D2
:1008F8000024F4001C00002000127A000C000020E4
:10090800F8B500F0B3F90746224B1E880A2E16D810
:10091800214B1B889E4212D3204C342505FB0646EA
:10092800708E00F085F91B4B1988CB1CF88803FBE7
:1009380000F080B205FB014100F048FAF8BD164B03
:100948001B889E4201D23E36B6B20B3EB6B2002597
:100958001DE0AA19124882FB00011144D317C3EB0A
:100968006111C1EB41114900511A89B234240B4B72
:1009780004FB0134608E00F05BF9EB1CF88803FB84
:1009880000F080B2214600F021FA0135EDB20B2DBE
:10099800DFD9F8BDF01500204609002050090020D5
:1009A8004308218470B5044600F060F93F4B1B787A
:1009B800002B79D13E4B1B78012B0ED13D4B1A8869
:1009C8003D4B1A803D4B1A883D4B1A800023384A0C
:1009D80013703C4A13703C4A13803C4B1A88818838
:1009E8004FF4A07393FBF1F39A420CDA0A2C0AD065
:1009F800314B1B88501C35490880342101FB0322E8
:100A0800334B9C5470BD2E4B1B882B490E88B34228
:100A18001BD33049097849B901339BB228490B8067
:100A28003E2B12D10021264B19800EE00021294BC4
:100A380019700AE0254B19884D1C1D80342303FBCF
:100A4800061320252249CD54013281884FF4A07322
:100A580093FBF1F39342EDD834221D4B02FB06368B
:100A68001D4B1B8873860022184B1A80FFF748FF1E
:100A7800114A138801339BB213803E2B07D1002201
:100A88000D4B1A8001230E4A1380124A13700A2C48
:100A98000AD0094B1A880D490B88581C0880342144
:100AA80001FB02330A4AD45470BD00BFEB15002085
:100AB800F416002048090020F0150020E815002051
:100AC8004609002044090020FA160020F6160020E6
:100AD80050090020EA150020F81600204FF6FF7292
:100AE8000C4B1A8000230C4A13800C4A13800C4AC2
:100AF80013800C4A13800C4A138001210B4A117091
:100B08000B4A13700B4A13700B4A13700B4A13806D
:100B1800704700BFF8160020F6160020460900208E
:100B2800F0150020E815002048090020EA150020EB
:100B3800F4160020EB15002044090020FA160020C6
:100B480008B5FFF7CBFF002000F0B4F808BD00BFE0
:100B580010B588B00346002401E0013413465A1C3E
:100B68001B78002BF9D11A2C00D91A24002305E090
:100B780008AA1A44202102F81C1C01331A2BF7D9A1
:100B880000220AE0C4F11B0302EB5303815C0DF160
:100B9800200E734403F81C1C0132A242F2D3002039
:100BA80000F088F8104800F05BF800F05FF80446A1
:100BB8004FF6FF7000F03CF81F2000F045F80020C9
:100BC80000F0EAF8E08801A900F000F9E0884000A8
:100BD80080B200F0E1F8002000F036F8034800F099
:100BE8003FF808B010BD00BF2800002020000020FA
:100BF80010B5044603E040B2FFF7D4FE0134207874
:100C08000028F8D1012010BD84B00190002303937F
:100C1800019A064B03FB02F3039302E0039B013B9B
:100C28000393039B002BF9D104B07047A086010001
:100C380082B0ADF80600BDF806309BB2014A1380B9
:100C480002B070470017002082B0ADF80600BDF86A
:100C580006309BB2014A138002B07047380000206A
:100C6800014B1860704700BFFC160020014B186844
:100C7800704700BFFC1600204FF0D0431880598001
:100C8800704700BF10B503460C4620201946FFF7F1
:100C9800F3FF21202146FFF7EFFF10BD4FF0D043AF
:100CA8001880588880B2704722224FF0D0431A80AB
:100CB800704700BF10B50446002040F23F11FFF70F
:100CC800E1FFFFF7F1FF002303E04FF0D04254802B
:100CD8000133B3F5963FF8D310BD00BF4FF0D043B2
:100CE800588070472DE9F041074688461646FFF7B9
:100CF800C9FF002531E0FFF7D7FF002421E036F8CF
:100D08001510194BA3FB0023DB08DB00802202FA35
:100D180003F322462341194201D10C2805D9114178
:100D280011F0010F07D10C2805D9104B188880B293
:100D3800FFF7D4FF04E00E4B188880B2FFF7CEFF10
:100D480001340C4B1B689888A042D8D80137BFB231
:100D580038464146FFF796FF0135064B1B68DB888E
:100D6800AB42C8D8BDE8F081ABAAAAAA38000020D7
:100D780000170020FC16002010B5203AD2B2054B0F
:100D88001C68E38803FB02F2236803EB4202FFF7C7
:100D9800A9FF10BDFC16002038B5054640F23F14E7
:100DA80009E0284621462022FFF7E6FF064B1B688C
:100DB8009B88E41AA4B2631C9BB2034A1268928807
:100DC8009342EEDA38BD00BFFC16002070B5064627
:100DD8000D4640F23F1409E030462146FFF7CCFFAC
:100DE800074B1B689B88E41AA4B201352A78631C58
:100DF8009BB222B10249096889888B42ECDA70BD3E
:100E0800FC16002030B583B078200121FFF7C8FB1D
:100E18004CF23373009302238DF804308DF80530BB
:100E280000258DF806508DF80750424C204669463B
:100E3800FFF746FA204629460C22FFF73BFB2046DF
:100E480001210C22FFF736FB204604210C22FFF774
:100E580031FB204605210C22FFF72CFB20460821F8
:100E68000C22FFF727FB204609210C22FFF722FB63
:100E780020460A210C22FFF71DFB20460E210C22DA
:100E8800FFF718FB20460F210C22FFF713FB4FF644
:100E98008073009304F5806420466946FFF710FAD2
:100EA800204607210C22FFF705FB204608210C22CB
:100EB800FFF700FB204609210C22FFF7FBFA20462A
:100EC8000A210C22FFF7F6FA20460B210C22FFF725
:100ED800F1FA20460C210A46FFF7ECFA20460D21CC
:100EE8000C22FFF7E7FA20460E210C22FFF7E2FA60
:100EF80020460F210C22FFF7DDFA0123009304F5A9
:100F0800806420466946FFF7DBF9204629460C2213
:100F1800FFF7D0FA4FF48063009304F5806420460D
:100F28006946FFF7CDF920460A210C22FFF7C2FADD
:100F380003B030BD000C024010B596B00120014648
:100F4800FFF754FB03230093002301930922029225
:100F58000393049305930693042407940893099331
:100F680010220A920B930C930D930E930F934FF448
:100F780080521092119312931393CDF850D0CDF85C
:100F880054D007A800F016FA2046012100F068FBAB
:100F980016B010BD10B582B000240194FFF732FFDF
:100FA800FFF7CAFF0520FFF72FFE2046FFF776FE62
:100FB8000190019A49F220339A4240F0F880E520E6
:100FC8004FF40041FFF758FE20460121FFF754FE79
:100FD80001204FF48071FFF74FFE02204FF4E061CB
:100FE800FFF74AFE032041F23001FFF745FE0420D7
:100FF8002146FFF741FE082040F20221FFF73CFEA0
:1010080009202146FFF738FE0A202146FFF734FE63
:101018000C202146FFF730FE0D202146FFF72CFE5D
:101028000F202146FFF728FE10202146FFF724FE57
:1010380011202146FFF720FE12202146FFF71CFE53
:1010480013202146FFF718FE1420FFF7DDFD1020BE
:1010580041F2B071FFF710FE112040F23711FFF78F
:101068000BFE0520FFF7D0FD122040F23911FFF7E3
:1010780003FE0520FFF7C8FD13204FF4E851FFF7E2
:10108800FBFD29201321FFF7F7FD0520FFF7BCFD25
:1010980020202146FFF7F0FD21202146FFF7ECFD37
:1010A80030200721FFF7E8FD31200721FFF7E4FD95
:1010B80032200721FFF7E0FD35200721FFF7DCFD8F
:1010C80036200721FFF7D8FD37204FF4E061FFF7FE
:1010D800D3FD38204FF4E061FFF7CEFD39204FF4FF
:1010E800E061FFF7C9FD3C204FF4E061FFF7C4FD64
:1010F8003D204FF4F851FFF7BFFD50202146FFF780
:10110800BBFD5120EF21FFF7B7FD52202146FFF725
:10111800B3FD532040F23F11FFF7AEFD60204FF4BE
:101128001C51FFF7A9FD61200121FFF7A5FD6A20E9
:101138002146FFF7A1FD80202146FFF79DFD812074
:101148002146FFF799FD82202146FFF795FD832070
:101158002146FFF791FD84202146FFF78DFD85206C
:101168002146FFF789FD90201021FFF785FD922089
:101178002146FFF781FD93200321FFF77DFD952090
:101188004FF48871FFF778FD97202146FFF774FD2B
:1011980098202146FFF770FD032041F21801FFF760
:1011A8006BFD072040F27311FFF766FDFAE0019A24
:1011B80049F225339A4240F0F58000200121FFF7DB
:1011C8005BFD01204FF48071FFF756FD02204FF4BC
:1011D800E061FFF751FD032041F21801FFF74CFDD4
:1011E80004200021FFF748FD082040F20221FFF704
:1011F80043FD09200021FFF73FFD0A200021FFF7EA
:101208003BFD0C200021FFF737FD0D200021FFF7E3
:1012180033FD0F200021FFF72FFD10200021FFF7DD
:101228002BFD11200021FFF727FD12200021FFF7D9
:1012380023FD13200021FFF71FFD1420FFF7E4FC16
:10124800102041F2B071FFF717FD112040F237115D
:10125800FFF712FD0520FFF7D7FC122040F23911E5
:10126800FFF70AFD0520FFF7CFFC13204FF4E851E4
:10127800FFF702FD29201321FFF7FEFC0520FFF7E9
:10128800C3FC20200021FFF7F7FC21200021FFF7F5
:10129800F3FC30200721FFF7EFFC312040F2023148
:1012A800FFF7EAFC322040F20511FFF7E5FC352094
:1012B80040F20621FFF7E0FC362040F60801FFF770
:1012C800DBFC372040F20621FFF7D6FC382040F23D
:1012D8000451FFF7D1FC39200721FFF7CDFC3C2052
:1012E80040F20511FFF7C8FC3D2040F60801FFF762
:1012F800C3FC50200021FFF7BFFC5120EF21FFF76E
:10130800BBFC52200021FFF7B7FC532040F23F11ED
:10131800FFF7B2FC60204FF42741FFF7ADFC6120D6
:101328000121FFF7A9FC6A200021FFF7A5FC802016
:101338000021FFF7A1FC81200021FFF79DFC8220FE
:101348000021FFF799FC83200021FFF795FC8420FA
:101358000021FFF791FC85200021FFF78DFC9020EC
:101368001021FFF789FC92200021FFF785FC9320CC
:101378000321FFF781FC95204FF48871FFF77CFC6F
:1013880097200021FFF778FC98200021FFF774FCD4
:10139800032041F21801FFF76FFC072040F23311D8
:1013A800FFF76AFC0248FFF75BFC02B010BD00BF04
:1013B8003000002010B5044603684BB1022B07D05B
:1013C800042B05D0062B03D0A3489721FFF768F913
:1013D80063682BB1022B03D09F489821FFF760F96F
:1013E800A3683BB1042B05D0082B03D09A48992158
:1013F800FFF756F9E3682BB1102B03D096489A21D2
:10140800FFF74EF9236933B1B3F5807F03D09248D3
:101418009B21FFF745F9636933B1B3F5004F03D05A
:101428008D489C21FFF73CF9A36933B1B3F5007FE0
:1014380003D089489D21FFF733F9E36933B1B3F548
:10144800806F03D084489E21FFF72AF9236A33B1BD
:10145800B3F5006F03D080489F21FFF721F9636A35
:1014680033B1B3F5805F03D07B48A021FFF718F9AB
:10147800A36A33B1B3F5005F03D07748A121FFF722
:101488000FF9E36A33B1B3F5804F03D07248A22154
:10149800FFF706F9236B33B1B3F5002F03D06E487D
:1014A800A321FFF7FDF8636B1B680F2B03D96A486C
:1014B800A421FFF7F5F8636B5B680F2B03D9664827
:1014C800A521FFF7EDF8636B9B68013BFE2B03D961
:1014D8006148A621FFF7E4F8636BDB680F2B03D99B
:1014E8005D48A721FFF7DCF8636B1B690F2B03D955
:1014F8005948A821FFF7D4F8636B5B690F2B03D910
:101508005548A921FFF7CCF8636B9B6963B1B3F128
:10151800805F09D0B3F1005F06D0B3F1405F03D01C
:101528004D48AA21FFF7BCF821686268A3681A43EE
:10153800E3681A4323691A4363691A43A3691A4380
:10154800E3691A43236A1A43636A1A43A36A1A436C
:10155800E36A1A43236B13434FF0204242F82130C9
:10156800A368082B06D1216852F8213043F04003C4
:1015780042F8213021680131626B1368506843EAF0
:101588000013906843EA0023D06843EA00431069D7
:1015980043EA0053506943EA0063926913434FF0EA
:1015A800204242F82130E36AB3F5804F4DD1A36B56
:1015B8001B680F2B03D92848CB21FFF771F8A36BC1
:1015C8005B680F2B03D92448CC21FFF769F8A36B7C
:1015D8009B68013BFE2B03D91F48CD21FFF760F81C
:1015E800A36B1B690F2B03D91B48CE21FFF758F8B3
:1015F800A36B5B690F2B03D91748CF21FFF750F86E
:10160800A36B9B6963B1B3F1805F09D0B3F1005F4D
:1016180006D0B3F1405F03D00F48D021FFF740F860
:101628002168A26B1368506843EA0013906843EA84
:101638000023106943EA0053506943EA0063926942
:101648001343064A42F8213010BD22686FF07041FA
:10165800024B43F8221010BDC4880008040100A002
:1016680038B50D46044650B1022808D0042806D0E3
:10167800062804D00F484FF48971FFF711F8012D9F
:1016880004D90C4840F21311FFF70AF845B14FF09E
:10169800204252F8243043F0010342F8243038BD88
:1016A8004FF0204252F82410034B0B4042F82430EC
:1016B80038BD00BFC4880008FEFF0F0030B583B0F6
:1016C80004460125036805FA03F02946FEF768FF7A
:1016D80063689D400095237A8DF80530637A8DF80C
:1016E8000430A37A8DF80630E37A8DF80730206845
:1016F80000F58010803080026946FEF7E1FD03B0F6
:1017080030BD00BF10B5044601604260037200237B
:1017180043729DF8083083729DF80C30C372FFF74E
:10172800CDFF204610BD00BF08B5036803F5801340
:101738008033426801219140980289B2FEF756FE33
:1017480008BD00BF034B1B681BB1024A1368013B6D
:10175800136070470417002008B5FFF71BFCFFF75C
:10176800EFF90548FFF7F4F94FF6FF72034B1A80BB
:101778000348FFF73DFA08BDE8880008F81600207E
:10178800F48800082DE9F04FADF6240D01250095E9
:101798000024019402A8214602221346FFF7B2FF53
:1017A8000095019405A8022122460B46FFF7AAFFDF
:1017B8003C4B1B683C4AA2FB03239B09013BB3F14A
:1017C800807F08D2394A5360F021394B83F82310BF
:1017D8009460072313604FF4806408A80021224610
:1017E80000F0C2FA0DF584600021224600F0BCFA30
:1017F80002A8FFF799FF814605A8FFF795FF8046E5
:10180800DFF8C8A04FF6FF7BAAF800B0294D2B6877
:101818005A1C2A60284C294F20464FF480713A46BA
:1018280000F0F0FA0146264E30602018C1F58071AC
:10183800244A4B4600F0E6FA2046FFF7D9F9AAF801
:1018480000B02B685A1C2A6020464FF480713A4633
:1018580000F0D8FA014630602018C1F580711A4AA4
:10186800434600F0CFFA2046FFF7C2F90024274686
:10187800264602A8FFF758FF054605A8FFF754FFBC
:101888004D4504D008AB43F82740A94601374045E9
:1018980005D00DF5846343F82640804601360134AF
:1018A800E7E700BF1C000020D34D621010E000E005
:1018B80000ED00E0EC150020F4150020FC8800087D
:1018C8004C0900200489000814890008F816002033
:1018D80008B5FFF741FFFFF755FF00BF81F0004152
:1018E80002E000BF83F0004330B54FEA41044FEAFD
:1018F800430594EA050F08BF90EA020F1FBF54EA98
:10190800000C55EA020C7FEA645C7FEA655C00F033
:10191800E2804FEA5454D4EB5555B8BF6D420CDD04
:101928002C4480EA020281EA030382EA000083EA87
:10193800010180EA020281EA0303362D88BF30BD27
:1019480011F0004F4FEA01314FF4801C4CEA11317D
:1019580002D0404261EB410113F0004F4FEA0333DC
:101968004CEA133302D0524263EB430394EA050F67
:1019780000F0A780A4F10104D5F1200E0DDB02FAD6
:101988000EFC22FA05F2801841F1000103FA0EF26A
:10199800801843FA05F359410EE0A5F120050EF130
:1019A800200E012A03FA0EFC28BF4CF0020C43FA61
:1019B80005F3C01851EBE37101F0004507D54FF06E
:1019C800000EDCF1000C7EEB00006EEB0101B1F5BE
:1019D800801F1BD3B1F5001F0CD349085FEA300004
:1019E8004FEA3C0C04F101044FEA445212F5800F0F
:1019F80080F09A80BCF1004F08BF5FEA500C50F1AC
:101A0800000041EB045141EA050130BD5FEA4C0C8E
:101A1800404141EB010111F4801FA4F10104E9D117
:101A280091F0000F04BF01460020B1FA81F308BF0E
:101A38002033A3F10B03B3F120020CDA0C3208DDDA
:101A480002F1140CC2F10C0201FA0CF021FA02F1B5
:101A58000CE002F11402D8BFC2F1200C01FA02F125
:101A680020FA0CFCDCBF41EA0C019040E41AA2BF4A
:101A780001EB0451294330BD6FEA04041F3C1CDA12
:101A88000C340EDC04F11404C4F1200220FA04F032
:101A980001FA02F340EA030021FA04F345EA0301DC
:101AA80030BDC4F10C04C4F1200220FA02F001FA9E
:101AB80004F340EA0300294630BD21FA04F0294620
:101AC80030BD94F0000F83F4801306BF81F48011B9
:101AD8000134013D4EE77FEA645C18BF7FEA655C2C
:101AE80029D094EA050F08BF90EA020F05D054EAFE
:101AF800000C04BF1946104630BD91EA030F1EBF03
:101B08000021002030BD5FEA545C05D14000494106
:101B180028BF41F0004130BD14F580043CBF01F5F9
:101B2800801130BD01F0004545F0FE4141F47001DF
:101B38004FF0000030BD7FEA645C1ABF19461046BA
:101B48007FEA655C1CBF0B46024650EA013406BFBB
:101B580052EA033591EA030F41F4002130BD00BF7A
:101B680090F0000F04BF0021704730B54FF4806437
:101B780004F132044FF000054FF0000150E700BFB8
:101B880090F0000F04BF0021704730B54FF4806417
:101B980004F1320410F0004548BF40424FF0000104
:101BA8003EE700BF42004FEAE2014FEA31014FEA47
:101BB80002701FBF12F07F4393F07F4F81F0605196
:101BC800704792F0000F14BF93F07F4F704730B505
:101BD8004FF4607401F0004521F0004120E700BF98
:101BE80050EA010208BF704730B54FF000050AE01F
:101BF80050EA010208BF704730B511F0004502D520
:101C0800404261EB41014FF4806404F132045FEA21
:101C1800915C3FF4DCAE4FF003025FEADC0C18BFC6
:101C280003325FEADC0C18BF033202EBDC02C2F1BC
:101C3800200300FA03FC20FA02F001FA03FE40EA4E
:101C48000E0021FA02F11444C1E600BF4FF0FF3C38
:101C580006E000BF4FF0010C02E000BF4FF0010C9E
:101C68004DF804CD4FEA410C7FEA6C5C4FEA430C17
:101C780018BF7FEA6C5C1BD001B050EA410C0CBF66
:101C880052EA430C91EA030F02BF90EA020F0020C8
:101C9800704710F1000F91EA030F58BF994208BF2F
:101CA80090422CBFD8176FEAE37040F001007047EC
:101CB8004FEA410C7FEA6C5C02D150EA013C07D143
:101CC8004FEA430C7FEA6C5CD6D152EA033CD3D08E
:101CD8005DF8040B704700BF8446104662468C4688
:101CE8001946634600E000BF01B5FFF7B7FF0028BB
:101CF80048BF10F1000F01BD4DF808EDFFF7F4FFE4
:101D08000CBF012000205DF808FB00BF4DF808ED6E
:101D1800FFF7EAFF34BF012000205DF808FB00BF91
:101D28004DF808EDFFF7E0FF94BF012000205DF8B3
:101D380008FB00BF4DF808EDFFF7CEFF94BF012068
:101D480000205DF808FB00BF4DF808EDFFF7C4FF61
:101D580034BF012000205DF808FB00BF014B186864
:101D6800704700BF6804002070B4840746D0541E32
:101D7800002A41D0CDB2034602E0621EE4B3144605
:101D880003F8015B9A07F8D1032C2ED9CDB245EAA6
:101D980005250F2C45EA054519D9264603F11002F9
:101DA800103E0F2E42F8105C42F80C5C42F8085CBA
:101DB80042F8045C02F11002F2D8A4F1100222F0F9
:101DC8000F0204F00F041032032C13440DD91E46E1
:101DD8002246043A032A46F8045BFAD8221F22F066
:101DE80003020432134404F003042CB1C9B21C44A6
:101DF80003F8011BA342FBD170BC7047144603468D
:101E0800C2E700BF0CB4F0B5234B00299DB01D6894
:101E18003CDB4FF402730C4602900690ADF8143088
:101E28004FF6FF7723AE15D04C1E229A334628462C
:101E380002A904940794ADF81670019600F05CF8B6
:101E4800421C20DB029B00221A701DB0BDE8F04046
:101E580002B070473346284602A9229A0494079490
:101E6800ADF81670019600F047F8431C04DB1DB06E
:101E7800BDE8F04002B070478B232B601DB0BDE871
:101E8800F04002B070478B232B60DBE78B232B607D
:101E98004FF0FF30EBE700BF6804002020F003019B
:101EA80010F00300C0F1000051F8043B00F1040CED
:101EB8004FEACC0C6FF000021CBF22FA0CF213435D
:101EC8004FF0010C4CEA0C2C4CEA0C4CA3EB0C0226
:101ED80022EA030212EACC1204BF51F8043B043090
:101EE800F4D0C2F1000102EA0102B2FA82F2C2F1B0
:101EF8001F0200EBD20070472DE9F04FC1B08946B0
:101F08000A920E93089002F0A7FA036818461793EE
:101F1800FFF7C4FFB9F80C3018901C0604D5D9F89F
:101F28001030002B01F0C28030AF3C464E460023F3
:101F38001393169319930B93259324932397149330
:101F480015930A9D2B78002B00F0A980252B02D130
:101F5800A5E0252B03D015F8013F002BF9D10A9BEA
:101F6800EB1A73B1249A259901320A981944072A61
:101F780084E809002591249272DC08340B9A1A44EB
:101F88000B922B78002B00F0E28700231A46691C7D
:101F98006D788DF86F300C9307934FF0FF3A4B1C18
:101FA800A5F12001582900F2EA83DFE811F06D025B
:101FB800E803E803D102E803E803E803E803E803D9
:101FC800E803BC020D02E803F4011102E803D80299
:101FD8007B027B027B027B027B027B027B027B0211
:101FE8007B02E803E803E803E803E803E803E803FF
:101FF800E803E803E8038A02DF02E803DF02E803F4
:10200800E803E803E803CB03E803E8032F03E80346
:10201800E803E803E803E8034D03E803E80367037C
:10202800E803E803E803E803E803E803E803E80350
:10203800E803E80382032B02DF02DF02DF02CA02A1
:102048002B02E803E803B202E803D203FB011903F9
:102058007402E803A303E8037A00E803E8034702ED
:102068000898314623AA079303F07CF850B93C46F8
:10207800079B83E70898314623AA03F073F80028E2
:1020880000F08581B146B9F80C3013F0400F0B9B76
:1020980018BF4FF0FF33184641B0BDE8F08F0A9DD6
:1020A8006FE70A93079B980640F1D7820E9B03F1CE
:1020B800070929F0070303F10802D3E900890E9202
:1020C800012300229446CDF844A08DF86F20BAF180
:1020D800000F03DB079A22F08002079258EA0902F0
:1020E80040F06F83BAF1000F00F07484012B00F008
:1020F8007283022B00F0C28439464FEAD80242EAC2
:1021080049724FEAD90008F00703814690463033F8
:1021180058EA090201F8013DEFD1079A1091D20758
:1021280000F17F857B1A0D930D9A53469245B8BFEF
:102138001346099300231293BCF1000F02D0099BA8
:1021480001330993079B13F002030F9302D0099BF5
:1021580002330993079B13F0840940F02F830C9BEB
:10216800099AC2EB0308B8F1000F40F32783B8F1CE
:10217800100F2599249ADFF870A529DD53464FF0F2
:10218800100BC246A8461D4606E0AAF1100ABAF18D
:10219800100F04F1080417DD01321031072A2591C8
:1021A800249284E82008F0DD0898314623AA02F03A
:1021B800D9FF00287FF466AFAAF1100ABAF1100F10
:1021C8003C462599249AE7DC2B464546D0469A4654
:1021D800013208EB010B072ACDF894B02492C4F819
:1021E80000A0C4F8048000F3DE829DF86FC00834B4
:1021F800BCF1000F0FD0249B0BF1010B01330DF143
:102208006F010122072BCDF894B0249384E80600CF
:1022180000F3FD8308340F9B73B1249B0BF1020B71
:1022280001331CA90222072BCDF894B0249384E82B
:10223800060000F3F9830834B9F1800F00F0348305
:10224800119B0D9AC2EB030ABAF1000F3CDDBAF1FB
:10225800100F249ADFF894942BDD49465B46A94673
:102268004FF01008DDF820B00D4606E0AAF1100A7C
:10227800BAF1100F04F1080417DD01321033072AF0
:102288002593249284E82001F0DD5846314623AA9C
:1022980002F068FF00287FF4F5AEAAF1100ABAF13F
:1022A800100F3C46259B249AE7DC9B462B464D465F
:1022B80099460132D344072ACDF894B0249284E891
:1022C800000600F398830834079BD90500F18F8234
:1022D800249B0D990133109A8B44072BCDF894B0A9
:1022E80022606160249300F3B8830834079B5A077F
:1022F80041D50C9B099A9D1A002D3CDD102D249B7D
:10230800DFF8E4A323DD4FF010085A46DDF82090EB
:1023180004E0103D102D04F1080417DD01331032DC
:10232800072B25922493C4F800A0C4F80480F0DD9C
:102338004846314623AA02F015FF00287FF4A2AED2
:10234800103D102D3C46259A249BE7DC934601332B
:10235800AB44072BCDF894B02493C4F800A0656073
:1023680009DD0898314623AA02F0FCFE00287FF414
:1023780089AEDDF894B00B9B099A0C998A42ACBFE0
:102388009B185B180B93BBF1000F7FF473AE00230F
:1023980024933C46D5E51946079840F00400079079
:1023A8001D78FCE50A93079B13F0200300F03881A1
:1023B8000E9B03F1070929F0070303F10802D3E98B
:1023C80000890E9200237CE61D7819462B22E6E54B
:1023D8001D78591C2A2D00F0E587A5F13000092841
:1023E8000B464FF0000A3FF6DBAD13F8015B0AEB32
:1023F8008A0A00EB4A0AA5F130000928F5D94AEA09
:10240800EA7ACDE50A93079B8DF86F20980662D586
:102418000E9B03F1070929F00709D9E9002309F1FF
:102428000801904699460E91002A73F1000364DB77
:102438009DF86FC0CDF844A0012348E60A93A74B46
:102448008DF86F201693079B9B0640F120810E9B09
:1024580003F1070929F0070303F108020E92D3E9F3
:102468000089079BD90740F1228158EA090300F047
:102478001E81079A302342F002028DF870308DF8E1
:102488007150079202231CE6002A40F0E5841D786B
:102498001946202283E5079941F0200107911D780C
:1024A80019467CE5A5F13000002113F8015B01EB2A
:1024B800810100EB4101A5F130000928F5D90C9103
:1024C8006EE50A93079B8DF86F2043F0100307937E
:1024D800079B98069CD4079BD90640F1C1840E9AA5
:1024E80013461B6804320E924FEAE3791A4698465F
:1024F8004B46002A73F100039ADA4FF02D0CD8F1FD
:10250800000869EB49098DF86FC0CDF844A0012394
:10251800DDE51D7807996C2D00F0258541F0100147
:10252800079119463BE50E9D296808460C912946F6
:10253800002801F10401C0F21D850E911D7819468D
:102548002DE5079941F0400107911D78194626E5C8
:10255800079941F0010107911D7819461FE5079970
:1025680041F0800107911D78194618E50A93079BE9
:102578008DF86F2013F0080F0E9BD34603F107095F
:1025880000F0378429F0070303F108020E921A6855
:102598005B68149215931599149802F0A5FD01280B
:1025A8001599149840F00B8400220023FFF7AEFB26
:1025B800002840F039869DF86FC0079B484A23F0F1
:1025C800800307931346DFF828E10321472DD8BF7E
:1025D800734600200991119010930D911290ABE56C
:1025E8000E9907980A9330230A688DF870303B4B90
:1025F800782540F002000431169307900E9190461A
:102608004FF000098DF8715002235AE50A93079B91
:1026180043F010030793079B13F020037FF4C8AE21
:10262800079A12F0100240F00A83079B13F0400348
:1026380000F005830E9913460A460432B1F800806B
:102648004FF000090E923CE50A93079B43F01003F4
:102658000793079B98063FF529AD079BD90600F11C
:10266800F782079B5A0640F1F3820E9A4FF0000951
:10267800B2F80080043201230E9222E50A93194B26
:102688008DF86F201693079B9B063FF5E0AE079BDE
:10269800D80640F1BB830E9A13461B68043298464D
:1026A800079B0E92D9074FF000093FF5DEAE0223D3
:1026B80007E50E980A93026800238DF898200246D1
:1026C80001219C4604328DF86F301193129326AB8A
:1026D80009910E920D91109334E500BF5C890008B2
:1026E8003C89000848890008288900087C89000876
:1026F800388900080E9A0A9313684FF0000B10935C
:102708008DF86FB002F10409002B00F05885BAF17A
:10271800000F1098C0F2EA845946524602F022F996
:10272800002800F08985109BCDF844B0C31A0D939A
:10273800CDF8389023EAE3730993CDF848B09DF8B3
:102748006FC0F9E4079941F0080107911D7819460F
:1027580025E40A93079B8DF86F209A0640F165835C
:102768000E9A134604330E930B9B11684FEAE379D4
:102778001A4698464B46C1E90023FFF7E2BB0A9385
:102788008DF86F20002D00F0E283002301229C4683
:102798008DF86F301193129326AB09928DF89850EB
:1027A8000D921093CEE40898314623AA02F0DAFC81
:1027B80000287FF467AC3C469DF86FC0DDF894B004
:1027C80016E5012B7FF495ACB9F1000F08BFB8F1FD
:1027D8000A0F80F006820DF5807B08F130080BF8AF
:1027E800418DCBEB07030D93CDF840B09CE4652DEC
:1027F80040F3A0801498159900220023FFF77CFA73
:10280800002800F05481249BC14901330BF1010BCE
:102818000122072BCDF894B0249384E8060000F336
:102828003E8308341D9B139A934203DB079BDA0708
:102838007FF55CAD249B18990133179A8B44072BBD
:10284800CDF894B022606160249300F31A840834B0
:10285800139B5D1E002D7FF749AD102D249BDFF8DB
:10286800B49240F3EF804FF010085A46DDF820A0EC
:1028780004E00834103D102D40F3E380013310329A
:10288800072B25922493C4F80090C4F80480F0DD47
:102898005046314623AA02F065FC00287FF4F2ABCB
:1028A8003C46259A249BE5E70C9B099AC2EB030A50
:1028B800BAF1000F7FF7C4ACBAF1100F249ADFF811
:1028C80054922BDD49465B46A9464FF01008DDF8C7
:1028D80020B00D4606E0AAF1100ABAF1100F04F173
:1028E800080417DD01321033072A2593249284E85F
:1028F8002001F0DD5846314623AA02F033FC0028B7
:102908007FF4C0ABAAF1100ABAF1100F3C46259B20
:10291800249AE7DC9B462B464D4699460132D34420
:10292800072ACDF894B0249284E8000600F33A828E
:10293800083485E4139B249D012B40F3FC81013569
:1029480010990BF101030122072D2593216024958D
:10295800626000F30E8208341899013503EB010B0D
:10296800179B072DCDF894B024952360616000F380
:102978000C8208340023149815990022FFF7BCF93B
:10298800139B002840F0E380109A013B0135013287
:102998009B44072D22602495CDF894B0636000F322
:1029A80013810834199A013593441FAB072DCDF8CC
:1029B80094B02495626023607FF797AC08983146FD
:1029C80023AA02F0CFFB00287FF45CAB3C46DDF87D
:1029D80094B08BE4002B4CD1079BD80749D50DF553
:1029E800807B30230BF8413DCBEB07030D93CDF8EB
:1029F80040B0FFF799BB0898314623AA02F0B2FB12
:102A080000287FF43FAB3C46DDF894B05CE40898BE
:102A1800314623AA02F0A6FB00287FF433AB3C46DC
:102A2800DDF894B0FFF7F7BB0898314623AA02F007
:102A380099FB00287FF426AB3C46DDF894B0FFF7FD
:102A4800FBBB93460133AB44072BCDF894B02493DA
:102A5800C4F8009065607FF748AC0898314623AA0F
:102A680002F080FB00287FF40DABDDF894B03C4603
:102A78003CE4CDF834A01097FFF756BBBB46169838
:102A88004FEA181343EA09734FEA191108F00F02C5
:102A980089469846835C0BF8013D58EA0903EFD153
:102AA8005B46CDF840B0FB1A0D93FFF73DBB1D9D6B
:102AB800002D40F30082139A129913468A42A8BF48
:102AC8000B461D461099002D01EB020A0CDD0A4643
:102AD800249BAB440133072BCDF894B084E8240041
:102AE800249300F348830834129B002DA8BF5B1B76
:102AF800002B1D4640F3C180102D249BDFF8149055
:102B080040F3C0815A464FF01008DDF820B008E0C5
:102B1800788900087C8900080834103D102D40F39E
:102B2800B08101331032072B25922493C4F800900A
:102B3800C4F80480F0DD5846314623AA02F012FB9F
:102B480000287FF49FAA3C46259A249BE5E703F1D9
:102B5800FF38B8F1000F7FF725AFB8F1100FDFF895
:102B6800489525DD5B464FF0100ADDF820B006E0F9
:102B7800A8F11008B8F1100F04F1080417DD0135A9
:102B88001033072D2593249584E80006F0DD584678
:102B9800314623AA02F0E6FA00287FF473AAA8F1C6
:102BA8001008B8F1100F3C46259B249DE7DC9B4696
:102BB8000135C344072DCDF894B02495C4F800908E
:102BC800C4F804807FF7EDAE0898314623AA02F0D6
:102BD800C9FA00287FF456AADDF894B0249D3C4633
:102BE800E0E6BB46CDF824C0404649460A22002309
:102BF80003F01EF93032404649460BF8012D0023F8
:102C08000A2203F015F98046894658EA0903EBD1F0
:102C18005B46FB1ADDF824C0CDF840B00D93FFF7F2
:102C280083BA302B109B3FF43EAF013B1A461093FA
:102C3800BA1A30230D9201F8013CFFF775BA0E99C4
:102C48004FF000090A6804310E919046FFF739BA2F
:102C58000E9901230A6804310E9190464FF000093D
:102C6800FFF72FBA0898314623AA02F07BFA00280A
:102C78007FF408AA3C46DDF894B0109A12991D9B7F
:102C88000A449046139A934246DB079AD00743D4E6
:102C9800139AC8EB0A05D31A9D42A8BF1D46002DFA
:102CA8000CDD249AAB440132072ACDF894B0C4F85D
:102CB80000806560249200F396820834002DB4BF2A
:102CC8001D465D1B002D7FF711AB102D249BDFF8EF
:102CD800D8937FF7B7AE4FF010085A46DDF820A01A
:102CE80004E00834103D102D7FF7ABAE01331032ED
:102CF800072B25922493C4F80090C4F80480F0DDD3
:102D08005046314623AA02F02DFA00287FF4BAA9CA
:102D18003C46259A249BE5E7249A1898013217998E
:102D28008344072ACDF894B021606060249200F3B0
:102D380039820834ACE7079BD9073FF500AE013567
:102D4800109A0BF1010B0123072DCDF894B02260E6
:102D5800249563607FF725AE0898314623AA02F0D0
:102D680001FA00287FF48EA93C46DDF894B0249D32
:102D780018E60898314623AA02F0F4F900287FF4EF
:102D880081A93C46259B249DE6E50898314623AA5F
:102D980002F0E8F900287FF475A93C46DDF894B004
:102DA800249DE7E50898314623AA02F0DBF90028BC
:102DB8007FF468A93C46DDF894B0FFF741BA02F009
:102DC80093F9002840F0DD80B44AB54B8646472D7C
:102DD800D8BF1A4611900798032120F08000099166
:102DE8000790CDF848E010920D919DF86FC0FFF75D
:102DF800A3B929F00709D9F800301493D9F8043099
:102E0800159309F108030E93FFF7C5BB079B0E9AAC
:102E180013F0400F13463FF440AC0433B2F800807F
:102E28004FF000090E93FFF71CBB079BDB060BD482
:102E3800079B5D0608D50E9A136804320E92BDF8FA
:102E48002C201A80FFF77DB80E9A136804320E9270
:102E58000B9A1A60FFF775B819461D78FFF79FB8E7
:102E6800079B0E9A13F0400F13463FF43AABB2F9A2
:102E7800008004334FEAE8790E9342464B46FFF749
:102E8800D3BA93460133AB44072BCDF894B02493BF
:102E9800C4F8009065603FF7E5AE0834EDE60898A1
:102EA800314623AA02F05EF900287FF4EBA83C46DD
:102EB800DDF894B0B6E4249B7A4901330BF1010B99
:102EC8000122072BCDF894B0249384E8060000F380
:102ED800FD8008342DB9139B1BB9079BDB077FF5D1
:102EE80005AA249B18980133179A0BEB0001072BAE
:102EF800259122606060249300F3F48104F10802B4
:102F08006D42002D40F30781102DDFF89C9140F3AE
:102F18003E811024DDF8208004E00832103D102D99
:102F280040F3358101331031072B25912493C2F8E2
:102F380000905460F1DD4046314623AA02F012F9B0
:102F480000287FF49FA83A462599249BE6E7259B0D
:102F5800B146002B3FF497A80898314623AA02F0FF
:102F680001F9FFF790B841F0200107915D78591CED
:102F7800FFF715B80C980E9140420C901946FFF7D0
:102F88000BBA25F02003BAF1FF3F0D9300F0AB8098
:102F9800472B05D1BAF1000F14BFD3464FF0010BF0
:102FA800079B43F480731193159BB3F1000A149B9C
:102FB8000993B7BF5346002303F1004A2D23662D1A
:102FC8000F9300F0B980462D00F0B6800D9B0220CB
:102FD800452B14BFD9460BF101091DA98DE8010243
:102FE80002911EA821A90390099A534604910898B2
:102FF80000F0DEFA672D109002D0472D40F0AC802B
:10300800079BDB0740F19681109B03EB09080998A1
:10301800514600220023FEF76FFE002840F00A8187
:10302800219B984506D930215A1C21921970219B61
:103038009845F9D8109A9B1A13930D9B472B1D9B03
:1030480000F0EB80652D40F30581662D129300F0AA
:103058006481139B129A934200F35181079BD9070D
:1030680000F1888122EAE2730D920F9A002A40F05B
:10307800C9800993119B9DF86FC007931192FFF7C0
:103088005BB80898314623AA02F06CF800287EF451
:10309800F9AF3C46DDF894B0FFF7DABB4489000885
:1030A80040890008788900087C8900080898402130
:1030B80001F0D6F9C9F80000C9F81000002800F09E
:1030C80086814023C9F81430FEF72EBF0898314690
:1030D80023AA02F047F800287EF4D4AF3C461D9D91
:1030E800DDF894B0F6E64FF0060B59E7CDF844B09A
:1030F800FEF7D4FECDF838900D900346FFF71ABBC3
:103108000898314623AA02F02DF800287EF4BAAFB9
:103118003A462599249B139C013301EB040B109923
:10312800072BCDF894B02493116054603FF795AC09
:1031380002F10804FFF7DAB803201DA98DE8010899
:1031480002911EA821A90390099A53460491089850
:1031580000F02EFAD9461090109B03EB09080D9B3E
:10316800462B7FF454AF109B1B78302B00F0E48083
:103178001D9B98444BE70898314623AA01F0F2FFBB
:1031880000287EF47FAF3C46DDF894B0ACE4013310
:103198002944072B25912493C2F800905560AFDC91
:1031A8000832B8E70898314623AA01F0DBFF002867
:1031B8007EF468AF3C461D9BDDF894B068E5534645
:1031C800062B28BF06230D9323EAE373DDF840C0DE
:1031D8000993844BCDF83890CDF844C0CDF848C059
:1031E8001093FEF7A9BF0898314623AA01F0BAFF49
:1031F80000287EF447AF1D9B139ADDF894B0D31ACC
:103208003C465BE50993119B4FF02D0C0793002377
:103218008DF86FC01193FEF792BFDA1C19DB9B453E
:1032280017DB1293672514E72D239C468DF86F3022
:10323800FFF7C3B94346FDE62AEAEA731190CDF8D1
:10324800389012909DF86FC00993CDF834A0FEF71E
:1032580073BF023D013B002B1D93BABF5B422D2279
:103268002B22092B8DF87C508DF87D207ADD0DF10D
:103278008B0001465C4A82FB032EDA17C2EBAE0EC6
:103288000EEB8E02A3EB420273463032092B01F893
:10329800012DEFDC0A4630335FFA83FE02F801EDB8
:1032A800904240F29B800DF17E020B4601E013F83C
:1032B80001EB834202F801EBF9D123AB5B1A0DF164
:1032C8007E0213441FAA9B1A139A1993012A1344C6
:1032D8000D935EDD0D9B002201330D93129223EABC
:1032E800E373C2E60898314623AA01F03BFF0028A1
:1032F8007EF4C8AE3A461D9D2599249B00E6129B94
:10330800002BD8BFC3F10208139BC8BF4FF00108B8
:1033180043440D9323EAE373A7E6002B30DDBBF1AA
:10332800000F17D1079BDB0714D4129A22EAE27325
:103338000D929AE6219B7DE60998514600220023CA
:10334800FEF7DAFC00287FF413AFC9F101031D93DF
:1033580098445CE6129B0BF1010843440D9323EA61
:10336800E37382E6303330228DF87F308DF87E208B
:1033780020ABA7E7129B01330D9323EAE37374E6AE
:10338800BBF1000F1DD1079BD8071AD401230D9359
:103398006BE6079B13F001039CD112930D9B23EA64
:1033A800E37362E60E9D2846D5F800A00430BAF112
:1033B800000F5D780E90BEF6F2AD4FF0FF3AFEF7C3
:1033C800EEBD0BF102030D9323EAE3734DE6089A71
:1033D8000C2313604FF0FF30FEF75EBE0DF17E0345
:1033E80070E700BF708900086766666670B5002AD6
:1033F8009AB005462DDB14461A464FF40273009125
:103408000491ADF80C304FF6FF760FD0013C6946B9
:103418001E9B02940594ADF80E60FEF76DFD421CEC
:1034280014DB009B00221A701AB070BD1E9B6946FF
:1034380002940594ADF80E60FEF75EFD431C01DBB7
:103448001AB070BD8B232B601AB070BD8B232B6014
:10345800E7E78B2303604FF0FF30F1E730B50D4607
:103468001446054A83B00146106800932A4623464D
:10347800FFF7BCFF03B030BD680400202DE9F04F12
:1034880003690F6983B09F4200F38B80013F01F10C
:10349800140600F1140A56F827305AF82720013389
:1034A800B2FBF3F8BB00009306EB03095344019306
:1034B800B8F1000F3DD000231C46B446D6461A4644
:1034C8005CF804BBDEF800501FFA8BF34FEA1B4B85
:1034D80003FB08220BFB08F303EB124392B2A41A76
:1034E8001FFA83FBAAB22244CBEB154404EB224417
:1034F80092B242EA0442E1454EF8042B4FEA2444D2
:103508004FEA1342DCD2009B5AF803308BB9019C76
:10351800231F9A450CD254F8043C4BB9A4F1080374
:1035280002E01A68043B1AB99A4507F1FF37F8D345
:103538000761044601F0EEFC00282EDB0023554607
:10354800194608F1010856F8042B2B6890B2081A9E
:10355800120C99B2C2EB1343421803EB224392B206
:1035680042EA0342B14545F8042B4FEA2341EAD227
:103578005AF827200AEB87037AB91A1F92450BD20B
:1035880053F8042C42B9083B02E01A68043B1AB904
:103598009A4507F1FF37F8D32761404603B0BDE8E5
:1035A800F08F002003B0BDE8F08F00BF00000000DE
:1035B8002DE9F04F016C99B00446CDE90223259D11
:1035C80041B1426C012393408B604A6001F0B6FA26
:1035D80000232364DDE90223002B994636DB002310
:1035E8002B60A54B1A4609EA0303934217D0DDE97D
:1035F80002670022002330463946FEF77DFB8046ED
:1036080000282BD0249A01231360269B002B00F05E
:10361800CB809A481860013819B0BDE8F08F42F2A3
:103628000F73249A1360029B002B00F0A680944825
:10363800269B002BF0D0C378002B00F0B78000F158
:103648000803269A136019B0BDE8F08F039A012386
:1036580022F000492B60CDF80C90C2E717AA16ABF0
:103668008DE80C00204632463B4601F0E9FC5FEA53
:103678001955834640F08A80DDF85880179D6FF40D
:10368800826345449D42C0F295827E4A05F2124308
:10369800521B09FA02F9029A22FA03F049EA0000D9
:1036A800FEF75EFA0123013DA1F1F87112930022A1
:1036B800754BFEF717F96AA3D3E9002302F07EF9E8
:1036C80069A3D3E90023FEF70FF9064628460F46FB
:1036D800FEF756FA66A3D3E9002302F06FF9024613
:1036E8000B4630463946FEF7FFF806460F4602F00D
:1036F80077FB39460590002230460023FEF706FB8B
:10370800002840F0A481059B162B00F29D81DDE97D
:10371800022305985D4901EBC001D1E90001FEF7DC
:1037280013FB002800F05082059B013B0593002302
:103738000C93C5EB0805B5F1010A00F19F81002340
:103748000693059B002BC0F290819A440B930023AB
:103758000993229B092B2BD8052B40F37786043B32
:1037680022930025229B023B032B00F25586DFE8BB
:1037780013F0CF03C103B0026A06414B444AC9F3B0
:103788001300002814BF1846104651E7C7F3130367
:1037980043F07F51CDF848803046A5F2FF3541F41B
:1037A8004011DDF8588082E73A4835E7C31C48E7FE
:1037B800002161642046229101F098F94FF0FF330F
:1037C800229A07930D9301230890239220640A9369
:1037D800179B002BC0F2D080059A0E2A00F3CC80EC
:1037E8002A4B03EBC203D3E90089239B002BC0F2C9
:1037F8009283DDE9026742464B463046394602F07D
:1038080007FA02F0EDFA8246FEF7BAF942464B464D
:1038180002F0D4F802460B4630463946FEF762F805
:10382800079E089F0AF13005012E3D7002460B469F
:1038380007F1010562D00022174B02F0BFF8002201
:10384800002306460F46FEF757FA002840F081800D
:10385800CDF808B0DDF820A0DDF81CB006942AE009
:1038680061436F63A787D23FB3C8608B288AC63F7E
:10387800FB799F501344D33F0000F07F79890008FB
:10388800988900080EFCFFFF0000F83FA88900088F
:103898008C89000878890008000024400022C84B61
:1038A80002F08CF80022002306460F46FEF724FAA1
:1038B800002840F0E08342464B463046394602F045
:1038C800A7F902F08DFA0446FEF75AF942464B462C
:1038D80002F074F802460B4630463946FEF702F805
:1038E80004F1300605F8016BCAEB0506B34502463C
:1038F8000B46D3D1A246DDF808B0069C10461946FF
:10390800FDF7F2FF06460F464046494632463B461B
:10391800FEF7FCF948B94046494632463B46FEF7B1
:10392800EBF9B0B11AF0010F13D015F8018C6B1E2A
:10393800089904E08B4200F0458413F8018DB8F132
:10394800390F03F101051A46F4D008F10103DBB27F
:1039580013702046594601F0F1F80022059B2A70A1
:10396800249A01331360269B002B00F04A830898A1
:103978001D6019B0BDE8F08F0A9A002A00F0848013
:10398800229A012A40F30983079B5F1E099BBB42C9
:10399800C0F2AF83DF1B079B002BC0F2A584069DF6
:1039A800079B069A20461A44012106929A4401F080
:1039B8005FF9064665B1BAF1000F09DDAA4553461D
:1039C800A8BF2B46069AED1AD21A0692C3EB0A0A2A
:1039D800099B002B1ADD0A9B002B00F08383002F24
:1039E80010DD31463A46204601F0ECF906465A46C3
:1039F8003146204601F046F980465946204601F0F6
:103A08009DF8C346099BDA1B40F0A7822046012196
:103A180001F02EF90B9B8046002B39DD01461A4632
:103A2800204601F0CFF9229B8046012B40F39B8270
:103A38004FF00009D8F8103008EB8303186901F03B
:103A4800C9F8C0F120002DE001230C9371E6059818
:103A5800FEF796F832463B46FEF74EF900287FF40B
:103A680052AE059B013B05934DE6069A059BD21A7B
:103A78005B420993002306920B936AE6CAF100039E
:103A880006934FF0000A5CE6099F069D0A9E91E79F
:103A9800229B012B40F3B8824FF000090B9B002BAF
:103AA800C8D10120504410F01F0000F08180C0F1FF
:103AB8002003042B40F3C184C0F11C00069B05447D
:103AC800034406938244069B002B05DD59461A469B
:103AD800204601F0C7F98346BAF1000F05DD4146DB
:103AE8005246204601F0BEF980460C9B002B40F060
:103AF8006D82079B002B40F39B820A9B002B71D1A0
:103B0800DDF82090079F4D4604E05946204601F015
:103B18001FF8834658464146FFF7B0FC303005F899
:103B2800010BC9EB0503BB424FF00A024FF000033B
:103B3800EBDB089B079A8446012AACBF9B1801332C
:103B48001D464FF0000A594601222046CDF808C00C
:103B580001F088F94146834601F0DCF90028DDF8D8
:103B680008C040F3FC8215F8012C6B1E089904E08C
:103B78008B4200F0798213F8012D392A03F10105EF
:103B8800F6D001321A704146204600F0D7FF002EC9
:103B98003FF4DFAEBAF1000F05D0B24503D051466D
:103BA800204600F0CBFF3146204600F0C7FFD0E6A4
:103BB8001C2083E7034B029A5B1B02FA03F06FE5B4
:103BC80000002440EEFBFFFF0C90B2E531460023D5
:103BD80020460A2200F0BCFF0D9B0646002B40F34E
:103BE80015840793002D05DD31462A46204601F04D
:103BF80039F90646B9F1000F40F0EE82B146089A4D
:103C0800079B1746013BD3180993029B03F0010356
:103C18000A9341465846FFF731FC31460546584657
:103C280001F078F94A4682464146204601F096F965
:103C3800C268034605F1300C002A40F0BD811946E0
:103C48005846CDF81CC0069301F064F9069B029013
:103C58001946204600F072FF029ADDF81CC02AB906
:103C6800229B1BB90A9B002B00F0B083BAF1000F0E
:103C7800C0F2578205D1229B1BB90A9B002B00F08A
:103C88005082002A00F3BC82099B07F1010A9F4277
:103C980087F800C0554600F0BF8259460A22002323
:103CA800204600F055FF4E458346314620464FF0EA
:103CB8000A024FF0000300F0798100F049FF4946FD
:103CC80006460A222046002300F042FF5746814656
:103CD8009FE701230A93239B002B40F319821F4679
:103CE8001E460D9307930021172F61640AD90122FC
:103CF80004235B0003F114008742114602F101021C
:103D0800F7D26164204600F0F1FE0E2E0890206480
:103D18003FF65EAD002D3FF45BADDDE9022305996A
:103D2800CDE90E23002940F32682BA4B01F00F0299
:103D38000D1103EBC203E906D3E9006740F1E18105
:103D4800DDE90E01B44B05F00F05D3E9082301F0B6
:103D58005FFFCDE902014FF003088DB130463946C7
:103D6800DFF8B492EA0705D5D9E9002301F026FE69
:103D780008F101086D1009F10809F3D106460F464C
:103D8800DDE9020132463B4601F042FFCDE902017E
:103D98000C9B43B1DDE902010022A04BFDF7B6FF01
:103DA800002840F0B5824046FDF7EAFEDDE902232F
:103DB80001F004FE9A4B0022FDF796FD079B06468C
:103DC800A1F15077002B00F06881059BDDF81CC03D
:103DD80013930A9B002B00F026828E4B002003EBE6
:103DE800CC0353E902238F49CDF850C001F010FFEE
:103DF80032463B46FDF776FDDDE90267CDE9100165
:103E08003946304601F0ECFF0546FDF7B9FE02469B
:103E18000B4630463946FDF765FDDDE910233035A0
:103E28005FFA85F8089D064685F800800F4601353B
:103E3800FDF76CFF002840F0B98232463B4600206F
:103E48007649FDF74FFD02460B46DDE91001FDF707
:103E58007BFF002840F0B382DDF850C0BCF1010FB1
:103E680040F33A81089BCDF850A0CDF808B003EB99
:103E78000C09DDE910ABA0460FE032463B460020B6
:103E88006649FDF72FFD52465B46FDF73FFF0028C8
:103E980040F090824D4500F01A8150465946002264
:103EA800614B01F08BFD00225F4B82468B4630460A
:103EB800394601F083FD0F46064601F091FF04469E
:103EC800FDF75EFE02460B4630463946FDF70AFD11
:103ED8003034E4B205F8014B52465B4606460F46BD
:103EE800FDF714FF0028C8D0139BDDF808B044463E
:103EF80005932EE500230A93239B059A13440D93FB
:103F08000133002B079340F30A81079E3746EAE600
:103F180000230A93DFE6079B002B3FF76AAC40F0CB
:103F2800668240460022414B494601F047FDDDE9E3
:103F38000223FDF7FFFEDDF81C804646002800F04E
:103F48008B80239B089DDB4305934146204600F068
:103F5800F5FD002E7FF427AEFBE45946204600F01D
:103F680031FF834652E5029B002B7FF461AD039B32
:103F7800C3F31303002B7FF48FAD039B23F000479B
:103F88003F0D3F05002F00F01E82069B0AF1010A33
:103F9800013306934FF0010980E5129A002A00F0D8
:103FA800A98103F23343099F069DFAE400F0D0FD8E
:103FB8005746064681462CE601462046CDF808C0FD
:103FC80000F0BCFD0122DDF808C04FE65846414626
:103FD80000F0A0FF0028BFF68CAD059F59460023CE
:103FE80020460A22013F059700F0B2FD0A9B83464E
:103FF800002B7FF4EBAD0D9B002B40F3FC81079366
:104008007EE50898FFF708BB029B002B7FF444ADC0
:10401800ADE700BFA8890008708A00080000F03FDB
:1040280000001C400000E03F000024400000144055
:10403800229B022B7FF761AD079B002B81D1414664
:104048000522204600F084FD80465846414600F08F
:1040580061FF00287FF775AF059A0899312301326F
:1040680005920B704D1C70E7059A312301320592B9
:10407800089A137087E5DDF808B0069C69E44046A5
:10408800FDF77EFDDDE9022301F098FC0022BE4B1E
:10409800FDF72AFC0646A1F15077DDE9020100226E
:1040A800BA4BFDF71FFC32463B46CDE90201FDF74E
:1040B8004BFE8046002840F0B280DDE9020132461E
:1040C80007F10043FDF722FE30B1464639E7444682
:1040D800DDF850A0DDF808B0DDE90E23CDE90223B4
:1040E800FFF776BB5946099A204600F06BFE8346D7
:1040F8008CE4099B0B9AFB1A1A4409970B92002728
:1041080049E4DDE90E234FF00208CDE9022324E655
:10411800012623960D96079600216164F2E51E4656
:10412800FAE7002A15DD594601222046CDF808C0D5
:1041380000F098FE4146834600F0ECFE0028DDF8CA
:1041480008C040F34D81BCF1390F00F009810CF132
:10415800010CB24687F800C07D1C4E4613E504D119
:104168001CF0010F01D0FEE4154615F8013C6A1E4B
:10417800302BF9D007E5059B5D42002D00F0C1808A
:10418800DDE90E01824B05F00F0203EBC203D3E910
:10419800002301F013FC2D11CDE9020100F030815C
:1041A8007C4E4FF00208EB0705D5D6E9002301F055
:1041B80005FC08F101086D1006F10806F3D1CDE9F8
:1041C8000201E5E5059A302301320592089A137039
:1041D80031231370FFF7BDBB7168204600F086FCE1
:1041E8000546336906F10C019A1C92000C3000F068
:1041F80003FC20462946012200F034FE8146FEE4F5
:10420800BCF1390F00F0AC800CF1010CB24687F814
:1042180000C07D1C4E46B6E4B2464E4693E44FF0CD
:104228000008464618E75A490CF1FF3301EBC30171
:104238003246D1E9000114933B46CDF854C001F051
:10424800BDFBDDE90267CDE910013946304601F0D2
:10425800C7FD0546FDF794FC02460B463046394635
:10426800FDF740FBDDF854C0089A3035BCF1010F6A
:10427800157006460F4602F1010523D0089BCDF8BC
:1042880008A063445E469A46AB460022424B01F0C2
:1042980095FB8946804601F0A3FD0746FDF770FCB3
:1042A800303702460B4640464946FDF71BFB0BF8E4
:1042B800017BD345E9D1B3460F460646149BDDF88A
:1042C80008A01D440022354BDDE91001FDF70CFB69
:1042D80032463B46FDF71AFD002848D0139B05934C
:1042E80015F8018CFFF723BB069B079A9D1A00233C
:1042F800FFF757BB169B099FC3F13603069DFFF7CF
:1043080050BBDDE90E234FF00208CDE902233FE55B
:10431800079B002B3FF4B3AE0D9D002D7FF7DCAE5D
:10432800DDE9020100221C4B01F048FB06460F465E
:1043380008F10100CDE90267FDF722FC02460B46B1
:104348003046394601F03AFB0F4B0022FDF7CCFA14
:10435800059B0646013B1393A1F15077AC4638E51F
:104368003922B2463A704E467D1CFFF7FEBBDDE9A6
:10437800102300200949FDF7B5FA32463B46FDF700
:10438800E3FC70B9A8E600BF00001C400000144020
:10439800A8890008708A0008000024400000E03F57
:1043A800154615F8013C6A1E302BF9D0139B05936E
:1043B800FFF7CFBA4346A0461C46DDF808B0139B6A
:1043C8000593FFF7B4BAB946FFF768BBBCF1390FDC
:1043D800C6D0BAF1000F7FF7BCAE05F1310CB8E6D4
:1043E8007FF4B7AE1CF0010F3FF4B3AEABE64FF06D
:1043F80000084646A5E5229B022B04DC0D9BFEE542
:104408004FF00208C4E40D9B079315E6229B022B8C
:10441800F9DC0D9BFFF7E5BB0025656429462046BE
:1044280000F064FB4FF0FF3307930D9301230890CE
:10443800239520640A93FFF7CBB93FF444ABC0F14E
:104448003C00FFF73BBB01230A9355E50125FFF725
:1044580089B900BFAFF30080004870476C040020A2
:104468002DE9F04F01F10B05162D83B0064627D92B
:1044780035F0070500F1B680A94200F2B38000F0DC
:1044880031FBB5F5FC7F22D2BC4FE80807EBC0032F
:10449800DC689C4200F0BD816368E16823F0030397
:1044A80023445A68A56842F00102E96030468D60ED
:1044B8005A6000F019FB0834204603B0BDE8F08FBD
:1044C800102900F28F8000F00DFB1025DCE7680A48
:1044D80000F08F80042800F24781A8093830410095
:1044E800A64F07EB8101CC68A14206D10CE0002A57
:1044F80080F28280E468A14206D0636823F0030357
:104508005A1B0F2AF3DD013801309C493C6901F13F
:10451800080E744500F07281636823F003035A1B88
:104528000F2A00F35881002AC1F814E0C1F810E0FE
:1045380066DAB3F5007F80F02D81DB0801EBC30854
:104548004FEAA30C4A68012303FA0CF3D8F808C011
:104558001343C4F808C0C4F80C804B60C8F808407E
:10456800CCF80C408210012494409C4255D8234238
:1045780006D120F003006400234200F10400FAD0C1
:1045880007EBC008C4468146DCF80C309C4507D1CF
:1045980036E1002980F24681DB689C4500F03081D5
:1045A8005A6822F00302511B0F29F2DD1C46DA6813
:1045B80054F808CF45F0010941F001081D44C3F83B
:1045C80004903046CCF80C20C2F808C07D613D61EB
:1045D800C5F80CE0C5F808E0C5F80480695000F09B
:1045E80083FA69E7002420460C23336003B0BDE852
:1045F800F08F7E213F2073E723445A68E16851E732
:1046080023445A68304642F001025A60083400F0E8
:104618006BFA204603B0BDE8F08FBC68636823F0EE
:104628000308454504D8C5EB08030F2B00F38C801D
:10463800534BDFF85CA11A68DAF800302A440133DA
:1046480004EB080B00F0518102F580520F3222F47E
:104658007F6222F00F0211463046019200F070FD91
:10466800B0F1FF3F8146019A00F0F680834500F2E1
:10467800F080444BCB4519681144196000F03E8125
:10468800DAF80000DFF808E101301BBFCBEB090BBB
:104698005944CEF80090196019F0070100F008811C
:1046A800C1F10800C1F58051814408314A44C2F380
:1046B8000B02C2EB010A51463046019300F040FD5F
:1046C800431C019B00F02881C9EB0002524442F0D0
:1046D80001021968BC425144C7F808901960C9F82A
:1046E8000420DFF8A0A016D0B8F10F0F40F2E38045
:1046F8006268A8F10C0323F0070302F00102E01836
:104708004FF0050E1A430F2B6260C0F804E0C0F8A2
:1047180008E000F205811C4BBC681A68914288BF0A
:1047280019601A4B1A689142626888BF196022F0B2
:1047380003029542A2EB050301D80F2B04DC304697
:1047480000F0D2F90024B7E645F0010243F0010376
:10475800254462603046BD6008346B6000F0C4F9DF
:10476800204603B0BDE8F08F14286AD9542800F217
:104778009880280B6E304100B2E600BFA4040020E8
:1047880010170020141700200C170020081700200D
:10479800B00800205A0A042A56D9142A00F2A78021
:1047A8005B324FEA420C07EB8C0CDCF80810DFF8A0
:1047B800B081614500F085804A6822F00302934287
:1047C80002D289688C45F7D1CA687B68E260A1602B
:1047D8009460CC60C6E645F0010742F00103254429
:1047E800676030464D610D61C5F80CE0C5F808E01A
:1047F8006B60AA50083400F077F95DE64B68B1E6C3
:1048080009F1010919F0030F0CF1080C7FF4BCAE93
:104818002BE004F108036469A34208BF02303FF4A7
:1048280074AE39E61C461A445168DB6854F8085FD0
:1048380041F0010151603046EB609D6000F054F991
:104848003AE65B3041004BE69A0938324FEA420CAF
:10485800A9E7BC423FF40DAFBC68626822F00302CE
:1048680067E7D8F80080984577D110F0030FA8F1D2
:10487800080300F1FF30F4D17B6823EA04037B606E
:1048880064009C423FF6C9AE002C3FF4C6AE2342FA
:1048980048467FF475AE6400234200F10400FAD064
:1048A8006EE6B0F5AA7F18D8E80B7730410017E616
:1048B8004FF48051FAE60123C9F804304C4600222F
:1048C80037E7D8F8043092104FF0010C0CFA02F2D6
:1048D8001343C8F804300A4678E740F25453984224
:1048E80017D8A80C7C304100FAE51032B3E6542AF8
:1048F8001ED81A0B6E324FEA420C54E7CBF30B006A
:1049080000287FF4BDAE4244BB6842F001025A6001
:1049180001E7FC217E20E3E501224FF0000AD8E6FA
:1049280004F10801304600F01DFDDAF80010F2E647
:10493800B2F5AA7F04D8DA0B77324FEA420C32E795
:1049480040F254518A4204D89A0C7C324FEA420C05
:1049580029E74FF0FC0C7E2225E77B6890E700BF33
:10496800A4040020830770B4C9B240D0541E002AA2
:104978003FD003788B4218BF431C05D11CE0ECB133
:104988000278013C8A4217D013F0030F184603F14E
:104998000103F4D1032C14D884B103788B420BD0D3
:1049A8000519431C02E002788A4205D0AB4218463A
:1049B80003F10103F7D1002070BC7047204670BC9A
:1049C8007047024641EA012646EA06461368104641
:1049D8007340A3F1013525EA030313F0803F02F188
:1049E8000402D9D1043C032C1046EFD8D4E714466E
:1049F800D0E71046E0E700BF844641EA000313F021
:104A0800030349D1403A23D30B6803604B684360E2
:104A18008B688360CB68C3600B6903614B69436132
:104A28008B698361CB69C3610B6A03624B6A43621A
:104A38008B6A8362CB6AC3620B6B03634B6B436302
:104A48008B6B8363CB6BC36340304031403ADBD21E
:104A580030320BD30B6803604B6843608B6883600C
:104A6800CB68C36010301031103AF3D20C3205D342
:104A780051F8043B40F8043B043AF9D2043208D018
:104A8800D2071CBF11F8013B00F8013B01D30B888A
:104A980003806046704700BF082A13D38B07B1D044
:104AA80010F00303AED0C3F10403D21ADB071CBF16
:104AB80011F8013B00F8013BA4D331F8023B20F880
:104AC800023B9FE7043AD9D3013A11F8013B00F8B9
:104AD800013BF9D20B7803704B7843708B78837065
:104AE80060467047704700BF704700BFC26C70B522
:104AF80005460C4652B152F824308BB1196842F879
:104B08002410002218461A61DA6070BD212204219F
:104B180000F0AAFBE86402460028ECD1002070BD32
:104B2800012101FA04F6721D2846920000F09CFB50
:104B380003460028F2D044608660E2E731B1C36CD6
:104B48004A6853F82200086043F82210704700BFF3
:104B5800F0B50C4605460E6983B001F1140E002726
:104B6800DEF80010013788B2090C02FB003302FBA3
:104B780001F198B201EB134300EB0341BE424EF83A
:104B8800041B4FEA1343EBDC3BB1A268964207DAF9
:104B980004EB8602013653612661204603B0F0BD5E
:104BA8006168284601310193FFF7A0FF0746226993
:104BB80004F10C01023292000C30FFF71DFFEA6C81
:104BC8006168019B52F82100206042F821403C4670
:104BD800DEE700BF030C1B04B3B90004102310F078
:104BE8007F4F04BF0002083310F0704F04BF00016C
:104BF800043310F0404F04BF80000233002807DB65
:104C0800420003D4202070470023E8E7581C70476F
:104C180018467047036813F0070207D0D90720D455
:104C28009A0720D49B0803600220704799B209B9FB
:104C38001B0C102213F0FF0F04BF1B0A08321907C0
:104C480004BF1B090432990704BF9B080232D90725
:104C580004D45B0801D1202070470132036010465C
:104C68007047002070475B0803600120704700BF51
:104C780010B50C460121FFF739FF0122446102619A
:104C880010BD00BF2DE9F04F0E69156985B0AE4221
:104C98000C469146C0F292802B4635461E46A368C4
:104CA80005EB060861689845C8BF0131FFF71EFF8C
:104CB80000F1140A0AEB880BDA45019005D2534635
:104CC800002143F8041B9B45FBD809F1140909EBA3
:104CD800860304F11402994502EB850C59D2CDF8EC
:104CE80008B0CDF80C809B46904659F8047B1FFA13
:104CF80087FEBEF1000F1FD047465646002100E050
:104D08000646304657F8045B3468ABB2A2B20EFBD5
:104D180003222D0C240C0EFB0544531804EB1341FD
:104D28009AB242EA0142BC454FEA114140F8042BCD
:104D3800E6D8716059F8047C3F0C22D0DAF80030CC
:104D4800002255461E464046964600E025462C461B
:104D58000288360C07FB026699B206EB0E0241EA9E
:104D6800024344F8043B50F8041B6E68090CB3B2C4
:104D780007FB0131844501EB12434FEA134EE5D896
:104D88006B60CB450AF1040AAFD8DDF808B0DDF84E
:104D98000C80B8F1000F0BDD5BF8043CABF1040BA1
:104DA8001BB105E05BF8043D13B9B8F10108F9D16E
:104DB8000198C0F8108005B0BDE8F08F1446894608
:104DC8006DE700BF12F003032DE9F04114460746D2
:104DD8000E462DD1A4101CD0BD6C95B3E3074FF03F
:104DE800000806D4641014D02868A8B10546E30763
:104DF800F8D5384631462A46FFF744FFB6B17268FF
:104E0800FB6C641053F82210316043F822600646A8
:104E1800EAD13046BDE8F08129462A463846FFF7F0
:104E280031FF2860C0F800800546E0E70646D9E76C
:104E38000B4A013B52F823200023FFF789FE064660
:104E4800C8E701213846FFF751FE40F271210122DF
:104E58000023416102610546B8640360BEE700BFF4
:104E6800988A00082DE9F0470F694FEA62198B68A4
:104E78004F447D1C9D420E4614468046496804DD19
:104E88005B009D4201F10101FADC4046FFF72EFE6E
:104E9800B9F1000F00F1140109DD00239E460A460E
:104EA80001334B4542F804EBFAD101EB8301326937
:104EB80006F1140303EB820E14F01F0222D0C2F194
:104EC80020094FF0000A1C688C4694404AEA040402
:104ED80041F8044B53F8044B9E4524FA09FAF2D8DA
:104EE800CCF804A0BAF1000F00D0BD1CD8F84C30A3
:104EF8007268013D53F822100561316043F8226061
:104F0800BDE8F087043953F8042B9E4541F8042F77
:104F1800F9D8EBE702690B69D21A13D19B00143058
:104F28001431194410B4034401E098420CD253F8E8
:104F3800044D51F8042D9442F7D009D301205DF8AF
:104F4800044B70471046704700205DF8044B7047CB
:104F58004FF0FF305DF8044B704700BF2DE9F04774
:104F68000C460546114620469146FFF7D3FF061E1C
:104F78005DD056DB4FF0000A28466168FFF7B6FDA2
:104F880009F1140380461E462769D9F8102004F158
:104F9800140E7546C0F80CA000F114040EEB870E31
:104FA80003EB820C4FF0000A55F8042B56F8041B4B
:104FB80090B200EB0A0388B2090C1B1AC1EB12422B
:104FC80002EB23429BB243EA0243B44544F8043B54
:104FD8004FEA224AA946E7D8AE45264615D959F8D8
:104FE800040B83B25344000C00EB23419BB243EA09
:104FF8000143CE4544F8043B4FEA214AEFD8ED433C
:10500800754425F0030404343444043C23B954F8AB
:10501800043D013F002BFAD04046C8F81070BDE8A7
:10502800F08723464FF0010A4C469946A4E72846E4
:105038003146FFF75BFD012346610361BDE8F08758
:10504800F0B5012183B01C46C3F30A551646FFF795
:105058004DFDC4F3130407460DB144F480140194C4
:1050680006B302A840F8086DFFF7D4FD002830D138
:105078009DE80C007A61002B14BF02240124BB6157
:105088003C61D5B9089A07EB8403A0F2324010605E
:105098001869FFF79FFD099BC0EB4410186038465C
:1050A80003B0F0BD01A8FFF7B5FD019B012214462E
:1050B80020303A617B61002DE4D0A5F23343089A91
:1050C80003441360099BC0F135001860384603B0EB
:1050D800F0BD019BC0F12001009A03FA01F10A43D7
:1050E800C34001937A61C6E710B431F0004408D098
:1050F800114BA1F580129A4208D804205DF8044BA0
:10510800704718B902205DF8044B704701F1FF4160
:10511800094B01F5E0019942EFD9B4F5801F01D29E
:105128000320EBE7054B9C4201D00020E6E7B0FAEC
:1051380080F04009E2E700BFFFFFDF7F0000F07F5B
:1051480038B5074C0023054608462360FBF77EFA6E
:10515800431C00D038BD2368002BFBD02B6038BD22
:105168003C1700202DE9F04F936883B09146D2F8A0
:105178000080002B72D04FF0000B0D465C460746AE
:105188008B680868002C45D09C421E469A4648D336
:10519800AB8913F4906F2DD06E69296906EB46062A
:1051A800C1EB000A06EBD676601C761050448642A6
:1051B80032463CBF064632465B0535D51146384671
:1051C800FFF74EF9002839D0524629690190FFF7B8
:1051D80013FCAA89019B22F4906242F08002AA8102
:1051E800CAEB060203EB0A006E61A24626462B6153
:1051F8002860AA605246594600F08CF9D9F8082070
:10520800AB6828689B1B5044141BAB602860C9F826
:1052180008401CB3D8F800B0D8F8044008F10808D2
:10522800B0E72646A246E5E7384600F0D7F9034638
:105238000028D5D13846296900F094F80C233B6042
:10524800AB89002243F040034FF0FF30AB81C9F82F
:105258000820C9F8042003B0BDE8F08F0020C9F881
:10526800040003B0BDE8F08F10B502FB01F1FFF7B1
:10527800F7F8044668B150F8042C22F00302043A07
:10528800242A18D8132A06D8034600221A605A601E
:105298009A60204610BD00231B2A036043600FD983
:1052A800242A8360C36005BF0361436100F11003D2
:1052B80000F11803E9E70021FCF756FD204610BD70
:1052C80000F10803E1E700BFF8B50C46224F064697
:1052D800FFF708FCBB685D6825F00305291B01F68C
:1052E800EF7121F47F6121F00F01A1F58054B4F52D
:1052F800805F07DB30460021FFF722FFBB682B44A5
:10530800984204D03046FFF7EFFB0020F8BD304646
:105318006142FFF715FF01300DD0104BBA681968CC
:105328002D1B45F001053046091B55601960FFF734
:10533800DBFB0120F8BD30460021FFF701FFBA680A
:10534800831A0F2BDEDD064C0449246843F0010361
:10535800001B53600860D5E7A40400201417002040
:10536800B008002000294ED02DE9F0410C468046B7
:10537800FFF7B8FB54F8047C6249A4F1080527F04C
:105388000102AB188E6858689E4220F003005AD07C
:10539800FE0758600BD454F8087C01F1080EED1B89
:1053A800AC683A44744567D0EF68E760BC601C1885
:1053B8006468E4070CD4544F9C680244BC427CD017
:1053C800D86842F00103E06084606B60AA5003E093
:1053D80042F001036B60AA50B2F5007F14D2D208E4
:1053E80001EBC20301244868921004FA02F29C6897
:1053F8001043AC60EB6048609D60E5604046BDE8E6
:10540800F041FFF771BB7047530A042B47D8930943
:1054180003F13804600001EB800083683949834256
:1054280043D0596821F00301914202D99B68984200
:10543800F7D1DA68EA60AB6040469560DD60BDE8A8
:10544800F041FFF751BBFF07024407D454F8084C5A
:105458002D1BEB68A8682244C36098602B4B42F070
:1054680001001B6868609A428D60C7D3284B40468C
:105478001968FFF729FFC1E719184968C90709D44E
:10548800D96802449B6842F00100D9608B6068606B
:10549800AA50B3E742F001036B60AA50AEE7142BA1
:1054A80014D803F15B046000B5E74A68A410012032
:1054B800A04002434A601A46BCE742F001034D612E
:1054C8000D61EC60AC606B60AA5097E7542B04D870
:1054D800130B03F16E0460009DE7B3F5AA7F04D8AF
:1054E800D30B03F17704600095E740F254508342F0
:1054F80004D8930C03F17C0460008CE7FC207E2424
:1055080089E700BFA4040020AC040020AC080020F8
:10551800101700208842F0B50DD98B1898420AD28E
:105528008118002A54D09A1A13F8014D934201F8B1
:10553800014DF9D1F0BD0F2A48D940EA01039B0774
:1055480047D1154600F1100401F1100353F8106C0F
:10555800103D44F8106C53F80C6C0F2D44F80C6C8B
:1055680053F8086C04F1100444F8186C53F8046CF0
:1055780003F1100344F8146CE8D8A2F1100323F0E7
:105588000F0302F00F0E1033BEF1030F194403444A
:1055980021D90E4674461D1F56F8047B043C032C83
:1055A80045F8047FF8D8AEF1040424F00304043469
:1055B8002344214402F0030252B1013B0A4411F88A
:1055C800014B914203F8014FF9D1F0BD0346F3E7CF
:1055D800F0BD0346F1E77246EEE700BF2DE9F04F54
:1055E800174683B00D46002900F0E280814607F196
:1055F8000B04FFF777FA55F8043C162C23F0030642
:10560800A5F108084BD810221446A7424CD8964258
:1056180051DADFF8A4B308EB0601DBF8080088428A
:1056280000F0D380486820F0010E8E44DEF804E0D4
:105638001EF0010F54D120F003003044904280F254
:10564800BD80DB0700F1908055F8083CC3EB080AE1
:10565800DAF8043023F0030300EB030E964549DB28
:105668005746CB688968321FCB60996057F8081F86
:10567800DAF80C30242ACB60996000F23381132ABF
:1056880040F2FA802B681B2ACAF808306B68CAF8FF
:105698000C3000F23B8108350AF11003EDE024F0EC
:1056A8000704002C2246B0DA0C230020C9F8003089
:1056B80003B0BDE8F08F2F46321B0F2A03F0010319
:1056C80040D83343C8F804304644736843F00103B4
:1056D80073604846FFF708FA384603B0BDE8F08F14
:1056E800D90741D455F8083CC3EB080ADAF8043066
:1056F80023F003033344934236DB5746DAF80C10A1
:1057080057F8080F321F242AC160886000F2F5801C
:10571800132A40F2F08029681B2ACAF80810696821
:10572800CAF80C1000F2078108350AF1100229683E
:105738001E4611606968D0465160AB689360DAF81C
:105748000430B9E708EB0401234342F00100C8F82C
:1057580004300A4448605368083143F00103536039
:105768004846FFF7FFFDB4E739464846FEF778FE9E
:1057780007460028ADD055F8043CA0F1080123F0F5
:1057880001024244914200F0A680321F242A00F20E
:105798009380132A65D803462A4611681960516810
:1057A800596092689A6029464846FFF7DBFD90E702
:1057B800114603B0BDE8F04FFEF752BECA688968CB
:1057C8002F46CA600646916076E7416804F11000EA
:1057D80021F00301314481425ADADB07C4D455F879
:1057E800083CC3EB080ADAF8043023F0030301EBA2
:1057F800030C60453FF77EAF5746DAF80C3057F890
:10580800081F321F242ACB60996000F2B680132A41
:1058180040F2A7802B681B2ACAF808306B68CAF8C0
:105828000C3000F2B38008350AF110032A681A60B8
:105838006A685A60AA689A60C4EB0C030AEB04020F
:1058480043F00103CBF808205360DAF804304846E7
:1058580003F001031C43CAF80440FFF745F9384632
:105868003BE72B681B2A03606B68436028D800F16C
:10587800080305F1080290E73B462A6876461A6055
:105888006A68D0465A60AA689A60DAF8043013E762
:105898000B1B08EB040243F00103CBF8082053600C
:1058A80055F8043C484603F001031C4345F8044CF2
:1058B800FFF71AF9284610E72946FFF72BFE72E78B
:1058C800AB68242A8360EB68C3602BD000F1100317
:1058D80005F1100261E750F8042C2F4622F003026C
:1058E8001644E9E6294638467646D046FFF712FEC2
:1058F800DAF80430E0E63A4619E7294638461E4603
:10590800D046FFF707FEDAF80430D5E6AB68242A5C
:10591800CAF81030EB68CAF8143018D010350AF1FC
:105928001803AAE72A6900F118030261696905F1F9
:105938001802416131E7A968242ACAF81010E968F9
:10594800CAF814100FD010350AF11802EFE62A69C8
:105958000AF12003CAF818206A691835CAF81C2009
:105968008BE73B4662E729690AF12002CAF818105A
:1059780069691835CAF81C10D9E629463846CDF8A1
:1059880004C0FFF7C7FDDDF804C055E7AB68242A5B
:10599800CAF81030EB68CAF8143003D010350AF191
:1059A800180343E72A690AF12003CAF818206A692C
:1059B8001835CAF81C2039E7A404002070B54FF048
:1059C800FF0C4CF4E06C1CEA11541DBF1CEA135583
:1059D80094EA0C0F95EA0C0F00F0DEF82C4481EAEB
:1059E800030621EA4C5123EA4C5350EA013518BF0B
:1059F80052EA033541F4801143F4801338D0A0FBF8
:105A080002CE4FF00005E1FB02E506F00042E0FBA4
:105A180003E54FF00006E1FB03569CF0000F18BFAA
:105A28004EF0010EA4F1FF04B6F5007F64F5407452
:105A380004D25FEA4E0E6D4146EB060642EAC621E5
:105A480041EA55514FEAC52040EA5E504FEACE2E52
:105A5800B4F1FD0C88BFBCF5E06F1ED8BEF1004F55
:105A680008BF5FEA500E50F1000041EB045170BDD1
:105A780006F0004646EA010140EA020081EA030115
:105A8800B4EB5C04C2BFD4EB0C0541EA045170BD11
:105A980041F480114FF0000E013C00F3AB8014F18B
:105AA800360FDEBF002001F0004170BDC4F10004D4
:105AB800203C35DA0C341BDC04F11404C4F1200555
:105AC80000FA05F320FA04F001FA05F240EA0200B0
