:020000040800F2
:100000000050002099020008A1020008A502000883
:10001000A9020008AD020008B102000800000000BB
:10002000000000000000000000000000B502000811
:10003000B902000800000000BD020008BD11000860
:10004000C5020008C5020008C5020008C502000874
:10005000C5020008C5020008C5220008C502000844
:100060005D230008C5020008C5020008C50200089B
:10007000C5020008C5020008C5020008C502000844
:10008000C5020008C5020008C5020008C502000834
:10009000C5020008C5020008C5020008C502000824
:1000A000C5020008C5020008C5020008C502000814
:1000B000C5020008C5020008C5020008C502000804
:1000C000C5020008C5020008C5020008C5020008F4
:1000D000C5020008C5020008C5020008F9100008A2
:1000E000F5210008C5020008C5020008C502000885
:1000F000C5020008C5020008C5020008C5020008C4
:10010000C5020008C5020008C5020008C5020008B3
:10011000C5020008C5020008C5020008C5020008A3
:10012000C5020008C5020008C5020008C502000893
:10013000C5020008C5020008C5020008C502000883
:10014000C5020008C5020008C5020008C502000873
:10015000C5020008C5020008C5020008C502000863
:10016000C5020008C5020008C5020008C502000853
:10017000C5020008C5020008C5020008C502000843
:10018000C502000800B583B000F0A4FE304B314A30
:100190001360314A1360314B314A03E01168196032
:1001A000043304322F498B42F8D32A4B1A682E4B62
:1001B0009A4204D1284B1A682C4B9A4200D0FEE791
:1001C000234B2B4A13602B4A13602B4B02E0002277
:1001D0001A600433294A9342F9D3254B1B6813B99B
:1001E000244B1B6803B1FEE700F078FE01A86946C6
:1001F00000F00AFE224C234B1C1BA410002504E037
:100200001F4B53F8253098470135AC42F8DC1E4CA3
:100210001E4B1C1BA410002504E01B4B53F825307B
:1002200098470135AC42F8DC0198009902F04AFB8E
:100230000546174C174B1C1BA41004E0013C144B43
:1002400053F824309847002CF8DC284600F0AEFD27
:10025000BABADECA00000020E0080020000000203A
:10026000CCA10008E4080020785634123254769865
:10027000E4080020A0190020E4080020A4190020B0
:10028000C8020008C8020008C8020008CC02000822
:10029000CC020008CC02000808B5FFF773FF00BFCE
:1002A000FEE700BFFEE700BFFEE700BFFEE700BFBE
:1002B000FEE700BFFEE700BFFEE700BFFEE700BFAE
:0802C000704700BFFEE700BF1C
:0402C800A511000874
:1002D00010B50446C378012B03D92148932100F0BF
:1002E0009BFD63780F2B03D91D48942100F094FDEA
:1002F000A3780F2B03D91A48952100F08DFDE378E0
:1003000013B3184BDA68D243C2F30222C2F10401DC
:10031000C9B20F2343FA02F063788B40DAB2A178B6
:1003200000EA010313431B01DBB222780E490A44A1
:1003300082F800332378580903F01F03012202FAE0
:1003400003F341F8203010BD23785A0903F01F034E
:100350000121994002F12003034A42F8231010BD05
:100360000878000800ED00E000E100E010B5044668
:1003700003792BB1042B03D03048802100F04CFDD1
:100380006379082B07D00C2B05D0102B03D02B48FA
:10039000812100F041FD2268D30DDB0503B91AB9B4
:1003A0002648822100F038FDA379012B03D9234888
:1003B000832100F031FDA379002B33D0204B1A6844
:1003C000216822EA01021A605A68216822EA0102C1
:1003D0005A60227902F1804202F59E32106821684B
:1003E000014311609A68216822EA01029A60DA6882
:1003F000216822EA0102DA606379102B09D1104BDF
:10040000996822680A439A60D96822680A43DA60C8
:1004100010BD03F1804303F59E33196822680A4337
:100420001A6010BD237903F1804303F59E331A68E7
:10043000216822EA01021A6010BD00BF307800086E
:10044000003C014010B50446C30DDB0503B918B9E3
:100450000348ED2100F0E0FC024B5C6110BD00BFE1
:1004600030780008003C01402DE9F04105460E4679
:10047000464B984223D003F5806398421FD003F582
:10048000806398421BD003F58063984217D003F530
:100490008063984213D003F5806398420FD003F530
:1004A000806398420BD003F58063984207D003F530
:1004B0008063984203D03648C12100F0ADFC336818
:1004C0001BB93348C22100F0A7FC3379032B03D9B1
:1004D0002F48C32100F0A0FCF379022B03D92C484C
:1004E000C42100F099FC00244CE00123A3403268B1
:1004F0001A409A4245D12B684FEA4408032707FA6D
:1005000008F7FF433B402B602A68337903FA08F36E
:1005100013432B603379013BDBB2012B23D8737972
:10052000032B03D91A48D62100F076FCAB681F4094
:10053000AF60AA68737903FA08F31343AB60B37929
:10054000012B03D91248DD2100F066FC6A68A1B2D4
:1005500001238B4022EA03036B606A68B3798B4006
:100560009BB213436B60EA68A1B2490003238B403E
:1005700022EA0303EB60EA68F37903FA08F3134312
:10058000EB6001340F2CB0D9BDE8F08100000240CF
:100590006478000870B505460C461646364B9842FE
:1005A00024D003F58063984220D003F580639842FD
:1005B0001CD003F58063984218D003F580639842FD
:1005C00014D003F58063984210D003F580639842FD
:1005D0000CD003F58063984208D003F580639842FD
:1005E00004D026484FF4077100F016FC0F2C04D9F4
:1005F000224840F21D2100F00FFC3EB3092E25D009
:1006000026B3012E22D0022E20D0032E1ED0042E7F
:100610001CD0052E1AD0092E18D0062E16D0092E61
:1006200014D0072E12D0082E10D0092E0ED00A2E6C
:100630000CD00B2E0AD00C2E08D00D2E06D00F2E6B
:1006400004D00E4840F21E2100F0E6FB04F0070340
:100650009B009E40E108083155F821200F2000FA48
:1006600003F322EA030345F8213055F821301E43F5
:1006700045F8216070BD00BF0000024064780008AA
:1006800010B4294B9B6803F00C03042B05D0082BF6
:1006900006D053BB254B036029E0254B036026E0C1
:1006A000214B5A685B6803F03F0312F4800F09D0B6
:1006B0001F4AB2FBF3F21C4B5B68C3F3881303FBC6
:1006C00002F208E0194AB2FBF3F3174A5168C1F38A
:1006D000881101FB03F2144B5B68C3F30143013340
:1006E0005B00B2FBF3F3036001E0104B03600E4AC2
:1006F0009368C3F303130F49CC5CE4B20368E3408F
:1007000043609468C4F382240C5DE4B223FA04F4D9
:1007100084609268C2F342328A5CD2B2D340C36032
:100720005DF8044B704700BF003802400024F4001D
:1007300040787D010400002038B504460D460E4B7C
:10074000034003B920B90D4840F2494100F064FB71
:10075000012D04D9094840F24B4100F05DFB25B161
:10076000074B1A6B14431C6338BD054A136B23EA0D
:100770000404146338BD00BF00EE9B819878000824
:100780000038024038B504460D4630F0010300D170
:1007900020B90C4840F2844100F03EFB012D04D901
:1007A000084840F2854100F037FB25B1064B9A6BB3
:1007B00014439C6338BD044A936B23EA0404946396
:1007C00038BD00BF987800080038024038B50446AC
:1007D0000D460E4B184200D120B90D4840F2B641EB
:1007E00000F01AFB012D04D9094840F2B74100F08E
:1007F00013FB25B1074B1A6C14431C6438BD054A22
:10080000136C23EA0404146438BD00BF003601C928
:10081000987800080038024038B504460D460E4B63
:10082000034003B920B90D4840F2DE4100F0F4FA6C
:10083000012D04D9094840F2DF4100F0EDFA25B15D
:10084000074B5A6C14435C6438BD054A536C23EA69
:100850000404546438BD00BFCCA0F8FF98780008A9
:100860000038024038B505460C46082803D90F4821
:10087000892100F0D1FA0F2C03D90C488A2100F00D
:10088000CBFA04F0030292000F209040A108084B1D
:10089000023153F8214024EA000043F8210053F8C4
:1008A00021009540054343F8215038BDC878000821
:1008B0000038014030B585B004460D466A4B984279
:1008C00017D0A3F54C43984213D003F580639842A8
:1008D0000FD003F5806398420BD003F580639842F4
:1008E00007D003F54443984203D06048F12100F05B
:1008F00093FA2B68013B5E4A934203D95B48F2218D
:1009000000F08AFAAB8833B1B3F5805F03D0574863
:10091000F32100F081FAEB8863B1B3F5805F09D071
:10092000B3F5005F06D0B3F5405F03D04F48F42124
:1009300000F072FA2B894BB1B3F5806F06D0B3F596
:10094000C06F03D04948F52100F066FA6A8922F0A9
:100950000C039BB203B91AB94448F62100F05CFAC3
:10096000AB8963B1B3F5807F09D0B3F5007F06D0C2
:10097000B3F5407F03D03D48F72100F04DFAAB8935
:1009800093B1394B9C420FD0A3F54C439C420BD002
:1009900003F580639C4207D003F54C439C4203D08F
:1009A0003248FC2100F038FA238A9BB223F44053EA
:1009B000EA8813432382A3899BB223F4B05323F024
:1009C0000C02AB88298968890B4303431343A38135
:1009D000A38A9BB223F44073AA891343A382684677
:1009E000FFF74EFE204B9C4203D003F580639C42F0
:1009F00001D1039B00E0029BA28912B2002A08DA0F
:100A000003EB830303EB830329684900B3FBF1F194
:100A100007E003EB830303EB830329688900B3FB3F
:100A2000F1F1144BA3FB012358090501642300FBDA
:100A30001313A28912B2002A09DAD90032310D4A01
:100A4000A2FB0131C1F3421242EA050307E01B0198
:100A50003233084AA2FB0323C3F343132B439BB255
:100A6000238105B030BD00BF00100140FC780008B4
:100A7000DF7072001F85EB5138B504460D46184BE8
:100A8000984218D0A3F54C43984214D003F58063E4
:100A9000984210D003F5806398420CD003F5806330
:100AA000984208D003F54443984204D00D4840F2E0
:100AB000A11100F0B1F9012D04D90A484FF4D17108
:100AC00000F0AAF92DB1A3899BB243F40053A3818E
:100AD00038BDA38923F400531B041B0CA38138BD2C
:100AE00000100140FC78000838B504460D46144B50
:100AF000984218D0A3F54C43984214D003F5806374
:100B0000984210D003F5806398420CD003F58063BF
:100B1000984208D003F54443984204D0094840F273
:100B20002E2100F079F9B5F5007F04D3054840F295
:100B30002F2100F071F9C5F30805A58038BD00BF6D
:100B400000100140FC78000810B504460F4B984295
:100B500018D0A3F54C43984214D003F58063984213
:100B600010D003F5806398420CD003F5806398425F
:100B700008D003F54443984204D0054840F23E2192
:100B800000F04AF9A088C0F3080010BD0010014031
:100B9000FC78000870B504460D4616463A4B98425C
:100BA00018D0A3F54C43984214D003F580639842C3
:100BB00010D003F5806398420CD003F5806398420F
:100BC00008D003F54443984204D0304840F2DA415B
:100BD00000F022F9282D1ED040F227739D421AD032
:100BE00040F226639D4216D040F225539D4212D01A
:100BF00040F224439D420ED040F646039D420AD067
:100C000040F66A139D4206D0602D04D01F4840F282
:100C1000DB4100F001F9012E04D91C4840F2DC410F
:100C200000F0FAF840F66A139D4213D1164B9C422D
:100C300010D0A3F54C439C420CD003F580639C423A
:100C400008D003F54C439C4204D0104840F2E141E7
:100C500000F0E2F8C5F3421205F01F050123AB4096
:100C6000012A01D10C3404E0022A01D1103400E041
:100C700014341EB122681343236070BD226822EA37
:100C80000303236070BD00BF00100140FC78000822
:100C900038B505460C46434B984218D0A3F54C4353
:100CA000984214D003F58063984210D003F5806316
:100CB00098420CD003F58063984208D003F5444372
:100CC000984204D0384840F26D5100F0A5F8282C25
:100CD0002CD040F227739C4228D040F226639C42DD
:100CE00024D040F225539C4220D040F224439C4221
:100CF0001CD040F646039C4218D040F66A139C4232
:100D000014D0B4F5587F11D040F225339C420DD059
:100D1000B4F5587F0AD0B4F5187F07D0B4F5B07F8A
:100D200004D0214840F26E5100F076F840F66A1384
:100D30009C4213D11B4B9D4210D0A3F54C439D42C6
:100D40000CD003F580639D4208D003F54C439D42CF
:100D500004D0154840F2735100F05EF8C4F342121B
:100D600004F01F0101238B40012A03D1AA8992B20A
:100D7000134008E0022A03D12A8A92B2134002E00B
:100D8000AA8A92B21340240A0122A240298889B279
:100D90000A4013B11AB9002038BD002038BD012027
:100DA00038BD00BF00100140FC780008FEE700BF1E
:100DB00008B5034800F056F80120FFF7F7FF00BF21
:100DC0003079000808B50D4B1B6813B90C4A0B4B62
:100DD0001A600A4B1A68C31C23F003031344094921
:100DE0008B4206D902F00EF80C2303604FF0FF305F
:100DF00008BD02490B60104608BD00BFE80800208E
:100E0000A4190020004C002001230360014B0B605B
:100E1000704700BF1400002008B503460A46034887
:100E2000194600F005F8FFF7C3FF00BF84790008FA
:100E30000FB400B583B004AB53F8042B01930848FA
:100E4000802103F06BFF011E03DD054800F03EF832
:100E50000146084603B05DF804EB04B0704700BFDC
:100E6000F008002010B5044602F0A4FB014620461D
:100E700000F02CF80248012100F028F810BD00BF56
:100E8000B079000810B400221AE04FF06043D3F8A4
:100E9000803E13F0010F06D04FF06043D3F8003EC0
:100EA00013F0010F01D110460DE04FF060431B68B5
:100EB000002BFAD004784FF060431C7001320130EF
:100EC0008A42E2D308465DF8044B704708B5FFF745
:100ED000D9FF08BD08B500F05BF808BD08B500F003
:100EE00079F808BD82B0002301930093254A136866
:100EF00043F480331360234B1B6803F400330093E7
:100F0000019B01330193009B1BB9019BB3F5A06FBB
:100F1000F1D11C4B1B6813F4003F02D00123009356
:100F200001E000230093009B012B29D1154B9A6807
:100F30009A609A6842F400429A609A6842F4A05219
:100F40009A60114A5A601A6842F080721A600D4B1A
:100F50001B6813F0007FFAD040F203720B4B1A604B
:100F6000A3F580639A6822F003029A609A6842F0BF
:100F700002029A60034B9B6803F00C03082BF9D123
:100F800002B0704700380240193C4005003C024066
:100F900008B50D4B1A6842F001021A6000219960F1
:100FA0001A6822F0847222F480321A60074A5A606A
:100FB0001A6822F480221A60D960FFF793FF4FF07D
:100FC0000062034B9A6008BD0038024010300024D4
:100FD00000ED00E0234B9B6803F00C03042B07D0CB
:100FE000082B09D0002B2DD11F4A204B1A602CE072
:100FF0001F4A1E4B1A6028E01A4B5A685B6803F0C0
:101000003F0312F4800F09D0194AB2FBF3F2154BDB
:101010005B68C3F3881303FB02F208E0124AB2FBD9
:10102000F3F3104A5168C1F3881101FB03F20D4B31
:101030005B68C3F3014301335B00B2FBF3F30B4A7C
:10104000136002E0084A094B1A60064B9B68C3F321
:101050000313084AD25CD2B204490B68D3400B6038
:10106000704700BF003802400024F4002C0000202C
:1010700040787D011C00002010B5044686B0104A5F
:1010800006AB43F8142D1846FFF722F90023184643
:101090000C2202A9ADF80C30ADF80E30ADF81030CE
:1010A000ADF81430ADF81220029400F0E9FA0548CA
:1010B00040F225510122FFF76DFD06B010BD00BFC3
:1010C00027000001004800400A4991E80C009A42BC
:1010D00084BF03F201139A4201D09B1A0BB900207E
:1010E00070478B181B7A0132D2B203700A6001205C
:1010F000704700BF780A002010B5264840F22551FD
:10110000FFF7C6FD40BB234840F22771FFF7C0FD43
:1011100098B1214C616823688B4288BF01F20111AC
:10112000C91A59B91B48FFF7DFFC6268236893426C
:1011300088BF02F20112D21A3AB110BDE218117A38
:101140000133DBB289B22360ECE7124840F2277129
:10115000BDE81040FFF71EBD0E48FFF7F5FC0F4934
:1011600000F07F0091E80C009A428ABF03F201145C
:101170009A1AA21AB2F5807F04D05A1CD2B20B443C
:101180004A6018720A28BED1054A136801331360F9
:10119000B9E700BF0048004070090020780A00202D
:1011A0004C1900200349044A00230B604B60136074
:1011B00053607047780A002070090020034B1B68B9
:1011C0001BB1024A1368013B13607047800B00207B
:1011D0002DE9F0438BB007460D469046244B06ACF4
:1011E000186859689A68DB680FC4012404FA07F08C
:1011F0002146FFF7A1FA4FF480402146FFF70CFB90
:1012000000268DF814608DF8176004FA05F90AA914
:1012100041F8189D07F5801080308002FFF724F90F
:1012200038462946FFF71EFBCDF808908DF80C6074
:101230008DF80D808DF80E4002A8FFF797F80D4A43
:101240001368029923EA010313600AAB1D4415F8E1
:10125000103C8DF804308DF805408DF806408DF86F
:10126000074001A8FFF734F80BB0BDE8F08300BFDA
:10127000E0790008003C01402DE9F04182B00446CD
:10128000884617461E46012505FA00F02946FFF755
:1012900053FA05FA08F500958DF805708DF804608D
:1012A0009DF820308DF806309DF824308DF80730F9
:1012B00004F58010803080026946FFF7D5F802B04F
:1012C000BDE8F081F8B500F05DFA0746224B1E88B4
:1012D0000A2E16D8214B1B889E4212D3204C34254F
:1012E00005FB0646708E00F02FFA1B4B1988CB1CAD
:1012F000F88803FB00F080B205FB014100F0F2FA30
:10130000F8BD164B1B889E4201D23E36B6B20B3E4C
:10131000B6B200251DE0AA19124882FB0001114453
:10132000D317C3EB6111C1EB41114900511A89B2C6
:1013300034240B4B04FB0134608E00F005FAEB1CE7
:10134000F88803FB00F080B2214600F0CBFA0135AB
:10135000EDB20B2DDFD9F8BD28180020860B002038
:101360008C0B00204308218470B5044600F00AFA73
:101370003F4B1B78002B79D13E4B1B78012B0ED1B4
:101380003D4B1A883D4B1A803D4B1A883D4B1A80C5
:101390000023384A13703C4A13703C4A13803C4B7C
:1013A0001A8881884FF4A07393FBF1F39A420CDA08
:1013B0000A2C0AD0314B1B88501C35490880342137
:1013C00001FB0322334B9C5470BD2E4B1B882B49D1
:1013D0000E88B3421BD33049097849B901339BB217
:1013E00028490B803E2B12D10021264B19800EE09C
:1013F0000021294B19700AE0254B19884D1C1D80CE
:10140000342303FB061320252249CD540132818861
:101410004FF4A07393FBF1F39342EDD834221D4BAC
:1014200002FB06361D4B1B8873860022184B1A8060
:10143000FFF748FF114A138801339BB213803E2BFC
:1014400007D100220D4B1A8001230E4A1380124A45
:1014500013700A2C0AD0094B1A880D490B88581CA6
:101460000880342101FB02330A4AD45470BD00BF06
:10147000271800202C190020880B00202818002095
:1014800024180020860B0020840B00203219002035
:101490002E1900208C0B0020261800203019002067
:1014A0004FF6FF720C4B1A8000230C4A13800C4A33
:1014B00013800C4A13800C4A13800C4A13800121BC
:1014C0000B4A11700B4A13700B4A13700B4A1370BE
:1014D0000B4A1380704700BF301900202E190020DE
:1014E000860B00202818002024180020880B0020DC
:1014F000261800202C19002027180020840B00201B
:101500003219002008B5FFF7CBFF002000F05EF98C
:1015100008BD00BF70B588B00C46154603460026CE
:1015200001E0013613465A1C1B78002BF9D11A2E04
:1015300000D91A26002305E008AA1A44202102F83F
:101540001C1C01331A2BF7D900220AE0C6F11B0339
:1015500002EB5303815C0DF1200E734403F81C1C55
:101560000132B242F2D3002000F030F90F4800F00F
:1015700003F900F007F90646284600F0E5F8204692
:1015800000F0EEF8002000F093F9F08801A900F0D7
:10159000A9F9F088400080B200F08AF9002000F03C
:1015A000DFF8034800F0E8F808B070BD380000200C
:1015B0003000002010B5044603E040B2FFF7D4FE2F
:1015C000013420780028F8D1012010BD30B587B053
:1015D00004460D46234B53F820000121FFF7ACF8D9
:1015E0004FF480400121FFF717F900238DF80C30EC
:1015F0008DF80F301C4B33F8143006A941F8103D1C
:101600001A4B53F82400FEF72FFF012D28D1184B59
:10161000185D184B195DFFF725F9174B33F8143097
:10162000049300238DF814301CB10C238DF8153071
:1016300002E008238DF8153001258DF8165004A816
:10164000FEF794FE0D4B1B5D8DF804300F238DF8D3
:1016500005308DF806308DF8075001A8FEF738FEEA
:1016600007B030BDC49D0008D89D00085000002080
:10167000E49D0008C09D0008D09D0008E09D000882
:101680002DE9F04383B00446894604200121FFF789
:1016900053F824B94FF480200121FFF797F8DFF8C1
:1016A0007C8058F824000A210722FEF773FF194FA7
:1016B00057F824000B210722FEF76CFF00238DF85A
:1016C000063001268DF8076002258DF804504FF48E
:1016D000806300938DF8055058F824006946FEF7A2
:1016E000C3FE8DF804504FF40063009357F82400B4
:1016F0006946FEF7B9FE084D55F824004946FFF744
:10170000D9F855F824003146FFF7B6F903B0BDE823
:10171000F08300BF4C0000205C0000204800002047
:1017200084B0019000230393019A064B03FB02F35C
:10173000039302E0039B013B0393039B002BF9D12E
:1017400004B07047A086010082B0ADF80600BDF875
:1017500006309BB2014A138002B07047381900204E
:1017600082B0ADF80600BDF806309BB2014A138086
:1017700002B0704760000020014B1860704700BF46
:1017800034190020014B1868704700BF341900203D
:101790004FF0D04318805980704700BF10B5034602
:1017A0000C4620201946FFF7F3FF21202146FFF7C2
:1017B000EFFF10BD4FF0D0431880588880B27047BB
:1017C00022224FF0D0431A80704700BF10B5044664
:1017D000002040F23F11FFF7E1FFFFF7F1FF002388
:1017E00003E04FF0D04254800133B3F5963FF8D375
:1017F00010BD00BF4FF0D043588070472DE9F04135
:10180000074688461646FFF7C9FF002531E0FFF777
:10181000D7FF002421E036F81510194BA3FB002355
:10182000DB08DB00802202FA03F32246234119423F
:1018300001D10C2805D9114111F0010F07D10C2855
:1018400005D9104B188880B2FFF7D4FF04E00E4B87
:10185000188880B2FFF7CEFF01340C4B1B689888C4
:10186000A042D8D80137BFB238464146FFF796FFAD
:101870000135064B1B68DB88AB42C8D8BDE8F08158
:10188000ABAAAAAA60000020381900203419002051
:1018900010B5203AD2B2054B1C68E38803FB02F274
:1018A000236803EB4202FFF7A9FF10BD34190020A3
:1018B00038B5054640F23F1409E02846214620226B
:1018C000FFF7E6FF064B1B689B88E41AA4B2631C73
:1018D0009BB2034A126892889342EEDA38BD00BF89
:1018E0003419002070B506460D4640F23F1409E059
:1018F00030462146FFF7CCFF074B1B689B88E41A54
:10190000A4B201352A78631C9BB222B1024909684E
:1019100089888B42ECDA70BD3419002030B583B071
:1019200078200121FEF708FF4CF233730093022365
:101930008DF804308DF8053000258DF806508DF8AF
:101940000750424C20466946FEF78EFD2046294648
:101950000C22FEF71FFE204601210C22FEF71AFE84
:10196000204604210C22FEF715FE204605210C22FC
:10197000FEF710FE204608210C22FEF70BFE204643
:1019800009210C22FEF706FE20460A210C22FEF752
:1019900001FE20460E210C22FEF7FCFD20460F2101
:1019A0000C22FEF7F7FD4FF68073009304F5806478
:1019B00020466946FEF758FD204607210C22FEF717
:1019C000E9FD204608210C22FEF7E4FD204609210E
:1019D0000C22FEF7DFFD20460A210C22FEF7DAFD7D
:1019E00020460B210C22FEF7D5FD20460C210A468D
:1019F000FEF7D0FD20460D210C22FEF7CBFD204640
:101A00000E210C22FEF7C6FD20460F210C22FEF708
:101A1000C1FD0123009304F5806420466946FEF76A
:101A200023FD204629460C22FEF7B4FD4FF48063C7
:101A3000009304F5806420466946FEF715FD2046B4
:101A40000A210C22FEF7A6FD03B030BD000C0240B7
:101A500010B596B001200146FEF794FE03230093D3
:101A600000230193092202920393049305930693A2
:101A7000042407940893099310220A920B930C9361
:101A80000D930E930F934FF4805210921193129373
:101A90001393CDF850D0CDF854D007A800F016FA23
:101AA0002046012100F068FB16B010BD10B582B0D1
:101AB00000240194FFF732FFFFF7CAFF0520FFF76C
:101AC0002FFE2046FFF776FE0190019A49F220335F
:101AD0009A4240F0F880E5204FF40041FFF758FEAD
:101AE00020460121FFF754FE01204FF48071FFF7DB
:101AF0004FFE02204FF4E061FFF74AFE032041F25F
:101B00003001FFF745FE04202146FFF741FE082083
:101B100040F20221FFF73CFE09202146FFF738FE84
:101B20000A202146FFF734FE0C202146FFF730FE45
:101B30000D202146FFF72CFE0F202146FFF728FE3F
:101B400010202146FFF724FE11202146FFF720FE3A
:101B500012202146FFF71CFE13202146FFF718FE36
:101B60001420FFF7DDFD102041F2B071FFF710FEE9
:101B7000112040F23711FFF70BFE0520FFF7D0FDD3
:101B8000122040F23911FFF703FE0520FFF7C8FDD0
:101B900013204FF4E851FFF7FBFD29201321FFF735
:101BA000F7FD0520FFF7BCFD20202146FFF7F0FDE3
:101BB00021202146FFF7ECFD30200721FFF7E8FD4B
:101BC00031200721FFF7E4FD32200721FFF7E0FD78
:101BD00035200721FFF7DCFD36200721FFF7D8FD70
:101BE00037204FF4E061FFF7D3FD38204FF4E06178
:101BF000FFF7CEFD39204FF4E061FFF7C9FD3C202F
:101C00004FF4E061FFF7C4FD3D204FF4F851FFF7BA
:101C1000BFFD50202146FFF7BBFD5120EF21FFF70C
:101C2000B7FD52202146FFF7B3FD532040F23F118C
:101C3000FFF7AEFD60204FF41C51FFF7A9FD6120B6
:101C40000121FFF7A5FD6A202146FFF7A1FD8020B5
:101C50002146FFF79DFD81202146FFF799FD822057
:101C60002146FFF795FD83202146FFF791FD842053
:101C70002146FFF78DFD85202146FFF789FD902045
:101C80001021FFF785FD92202146FFF781FD93206B
:101C90000321FFF77DFD95204FF48871FFF778FD54
:101CA00097202146FFF774FD98202146FFF770FD2D
:101CB000032041F21801FFF76BFD072040F273117A
:101CC000FFF766FDFAE0019A49F225339A4240F0A7
:101CD000F58000200121FFF75BFD01204FF48071AA
:101CE000FFF756FD02204FF4E061FFF751FD03209E
:101CF00041F21801FFF74CFD04200021FFF748FDD9
:101D0000082040F20221FFF743FD09200021FFF7E0
:101D10003FFD0A200021FFF73BFD0C200021FFF7CB
:101D200037FD0D200021FFF733FD0F200021FFF7C5
:101D30002FFD10200021FFF72BFD11200021FFF7C0
:101D400027FD12200021FFF723FD13200021FFF7BC
:101D50001FFD1420FFF7E4FC102041F2B071FFF7E3
:101D600017FD112040F23711FFF712FD0520FFF794
:101D7000D7FC122040F23911FFF70AFD0520FFF7CA
:101D8000CFFC13204FF4E851FFF702FD2920132167
:101D9000FFF7FEFC0520FFF7C3FC20200021FFF722
:101DA000F7FC21200021FFF7F3FC30200721FFF78B
:101DB000EFFC312040F20231FFF7EAFC322040F222
:101DC0000511FFF7E5FC352040F20621FFF7E0FCA6
:101DD000362040F60801FFF7DBFC372040F20621F1
:101DE000FFF7D6FC382040F20451FFF7D1FC392030
:101DF0000721FFF7CDFC3C2040F20511FFF7C8FC9E
:101E00003D2040F60801FFF7C3FC50200021FFF7FA
:101E1000BFFC5120EF21FFF7BBFC52200021FFF750
:101E2000B7FC532040F23F11FFF7B2FC60204FF4A3
:101E30002741FFF7ADFC61200121FFF7A9FC6A20D3
:101E40000021FFF7A5FC80200021FFF7A1FC8120E5
:101E50000021FFF79DFC82200021FFF799FC8320E1
:101E60000021FFF795FC84200021FFF791FC8520DD
:101E70000021FFF78DFC90201021FFF789FC9220B4
:101E80000021FFF785FC93200321FFF781FC9520BB
:101E90004FF48871FFF77CFC97200021FFF778FC56
:101EA00098200021FFF774FC032041F21801FFF78E
:101EB0006FFC072040F23311FFF76AFC0248FFF77E
:101EC0005BFC02B010BD00BF4000002010B504460E
:101ED00003684BB1022B07D0042B05D0062B03D08F
:101EE000A3489721FEF798FF63682BB1022B03D01C
:101EF0009F489821FEF790FFA3683BB1042B05D0C3
:101F0000082B03D09A489921FEF786FFE3682BB18E
:101F1000102B03D096489A21FEF77EFF236933B138
:101F2000B3F5807F03D092489B21FEF775FF63696C
:101F300033B1B3F5004F03D08D489C21FEF76CFF01
:101F4000A36933B1B3F5007F03D089489D21FEF723
:101F500063FFE36933B1B3F5806F03D084489E21FA
:101F6000FEF75AFF236A33B1B3F5006F03D0804800
:101F70009F21FEF751FF636A33B1B3F5805F03D051
:101F80007B48A021FEF748FFA36A33B1B3F5005F99
:101F900003D07748A121FEF73FFFE36A33B1B3F5E1
:101FA000804F03D07248A221FEF736FF236B33B176
:101FB000B3F5002F03D06E48A321FEF72DFF636B0E
:101FC0001B680F2B03D96A48A421FEF725FF636B1A
:101FD0005B680F2B03D96648A521FEF71DFF636BD5
:101FE0009B68013BFE2B03D96148A621FEF714FF35
:101FF000636BDB680F2B03D95D48A721FEF70CFF4D
:10200000636B1B690F2B03D95948A821FEF704FF06
:10201000636B5B690F2B03D95548A921FEF7FCFEC2
:10202000636B9B6963B1B3F1805F09D0B3F1005F6B
:1020300006D0B3F1405F03D04D48AA21FEF7ECFE75
:1020400021686268A3681A43E3681A4323691A4344
:1020500063691A43A3691A43E3691A43236A1A435B
:10206000636A1A43A36A1A43E36A1A43236B13434E
:102070004FF0204242F82130A368082B06D1216896
:1020800052F8213043F0400342F8213021680131F9
:10209000626B1368506843EA0013906843EA0023B8
:1020A000D06843EA0043106943EA0053506943EAA9
:1020B0000063926913434FF0204242F82130E36AF3
:1020C000B3F5804F4DD1A36B1B680F2B03D9284864
:1020D000CB21FEF7A1FEA36B5B680F2B03D924482D
:1020E000CC21FEF799FEA36B9B68013BFE2B03D925
:1020F0001F48CD21FEF790FEA36B1B690F2B03D960
:102100001B48CE21FEF788FEA36B5B690F2B03D91A
:102110001748CF21FEF780FEA36B9B6963B1B3F133
:10212000805F09D0B3F1005F06D0B3F1405F03D008
:102130000F48D021FEF770FE2168A26B136850682B
:1021400043EA0013906843EA0023106943EA00530E
:10215000506943EA006392691343064A42F821300A
:1021600010BD22686FF07041024B43F8221010BD81
:10217000E89D0008040100A038B50D46044650B1A2
:10218000022808D0042806D0062804D00F484FF4AF
:102190008971FEF741FE012D04D90C4840F213115C
:1021A000FEF73AFE45B14FF0204252F8243043F09A
:1021B000010342F8243038BD4FF0204252F8241079
:1021C000034B0B4042F8243038BD00BFE89D0008A7
:1021D000FEFF0F0008B5FFF769FCFFF793F9BDE8B4
:1021E000084003481F214FF6FF72FFF793B900BF65
:1021F0000C9E00082D4938B50B78072B26D02C4BA8
:102200002C4D1A682C4C22F001021A601A68072023
:1022100022F004021A602A6803F5544322605A68C7
:10222000087022F004025A605A68042422435A605B
:1022300022481C834FF2DE714FF47842FFF76AF9AF
:10224000BDE838404FF40040FEF7FCB8194B0022BF
:102250001C68174B0A70DA68174822F00402046001
:10226000DA609A68164842F004029A609C681F215E
:1022700024F001049C60DC684FF6FF7244F0010416
:10228000DC605C6944F001045C611C6844F001049A
:102290001C605C6944F001045C61FFF73BF9BDE838
:1022A00038404FF40040FEF7CDB800BF5019002071
:1022B000003C0140401900203C190020249E0008E9
:1022C0000C9E00081E4A1F4B12691B6913F0010384
:1022D00001D1520703D41C4B01225A61704730B41C
:1022E0001A4C1B48216802680D780132022D0260E9
:1022F00008D00A88B2F5807F04D0164B1B68236093
:1023000030BC70470A6901200873226053600E4B8D
:10231000114A002111701A6822F001021A605A69EC
:1023200042F004025A611A6842F004021A605A69C3
:1023300042F004025A61044B01225A61E0E700BFF7
:102340000000024000080240003C01403C1900200F
:102350004819002040190020501900209F4BA04A26
:10236000A0491B6912690B78F0B402F00102062B38
:102370001BD8DFE813F05600670007009300B20097
:10238000BE001F00984B1878082800F05381974929
:1023900009680878012800F0DD80486842EA4002B8
:1023A0004A601A780132D2B21A70914B04225A61F3
:1023B000F0BC70478E4C02F00100236823F0040348
:1023C0002360874B1B6903F00103984200F0AA8049
:1023D000864A8249136809691978022900F01C812C
:1023E0001988B1F5007F00F01781824B1B681360DC
:1023F00081490B687C485A1C00247D4B0A6004709C
:102400001A6822F004021A605A6942F001025A6105
:102410001A6842F001021A605A6942F001025A61D8
:10242000C3E77148714C037824680133DBB2037051
:1024300000786368082842EA43026260B5D101234C
:102440000B70B2E7694B6D4D18684668047806F06A
:102450000107022C2F7000F01681002C40F09D80A7
:102460008768BE4200F0D280624A5F4C106800214B
:102470005F4A416021701168186021F00403136005
:102480005369F0BC43F001035361136843F0010347
:102490001360536943F0010353617047534B18684D
:1024A0000478022C00F0E180002C6DD1866845682C
:1024B000AE42D9D10569012606731D606C60002A01
:1024C00040F0C4801B68484C18785A60012822707C
:1024D00000F0E08002230B7067E7434B1878082870
:1024E0007FF455AF464A0520136808700133136026
:1024F0005BE73E4B18680478022C00F0BD80002C8E
:1025000063D186684568AE42AED10569012606737F
:102510001D606C60002A00F086803A4A136801331F
:10252000136042E72D4B1B695B073FF54AAF2F4B0A
:102530002D4C1E6801252E4B726025705A690420AF
:10254000024308705A611A6802431A605A690243CA
:102550005A612AE71A784AB902F1804202F5043238
:10256000506820F004005060506850601A78886805
:10257000C2F1070101228A400242234A4FF00401BE
:1025800014BF118351830CE7012C7FF46DAF0569F3
:10259000002604731D606E6091E7012C7FF464AF28
:1025A0000669002704731E607760002A5BD11B68F0
:1025B0001B78012B78D02A780B4B002A14BF0220FD
:1025C0000420002208701A70EFE6012C7FF44CAF53
:1025D0000569002604731D606E609BE700000240E1
:1025E0000008024050190020611900203C19002009
:1025F000003C0140401900205819002060190020BB
:102600005C190020541900200010024006690127BF
:1026100007731E607460C8E71969012400201C73E9
:1026200011604860E4E61C6831480623626002706D
:102630000B70BAE62F4B1B681B78012B45D02E4A36
:1026400003201368087001331360AEE61B68294944
:102650001A78022A32D01A88B2F5007F2ED0274B82
:102660001B680B60C4E62649C3E604690126002501
:1026700006731C60656022E7046901260025067365
:102680001C60656046E704690127002607731C602B
:1026900066608AE71B4B9A6822F004029A60DA6847
:1026A00042F00402DA6015E7164B9A6822F0040241
:1026B0009A60DA6842F00402DA607CE71A69012461
:1026C00000201C730A60506092E60E4A0424D06811
:1026D0000D4B20F00400D0609068204390605A6851
:1026E00022F004025A605A6822435A601C83A6E70B
:1026F000611900203C1900204419002040190020D5
:1027000064190020003C014000100240F0B5644B09
:1027100083B01B6801A91A0CADF804308DF80620AF
:1027200000F076FF5F49054600F066FE002867D09E
:1027300028465D4900F060FE002800F085805B4F70
:10274000386828B1046900F06BFB2046002CF9D1F1
:10275000142000F05DFB564E002338600373306098
:1027600095F9003004465B2B1FD05D2B3BD02A2B04
:102770003FD03F2B2AD10023022222706370A36036
:102780006360002001A900F043FF0546C8B1142092
:10279000346800F03DFB464A00232061106003735B
:1027A00095F9003004465B2BDFD100230122237012
:1027B00063606270002001A900F02AFF054600282E
:1027C000E5D133683060186103B0F0BD00272846BA
:1027D0003946336827705F703A4600F0E1FF33688E
:1027E000A0605F60CDE70023022223706360627007
:1027F000C7E701230027E818237067703946EBE725
:102800002C4B2D491A68294C22F001021A601A68D3
:10281000246822F004021A6003F5544307220A7068
:102820005A68234822F0040204605A605A6804245B
:1028300022435A6021484FF2DE711C834FF47842E4
:10284000FEF768FE03B0F0BD184B1B4A1C68194B1D
:102850001070DA68164922F004020C60DA609A6897
:10286000174842F004029A609C681F2124F001047A
:102870009C60DC684FF6FF7244F00104DC605C6928
:1028800044F001045C611C6844F001041C605C6954
:1028900044F001045C61FEF73DFE03B0F0BD00BFF3
:1028A000009F0008F09E0008F89E000840190020D4
:1028B0003C190020003C014050190020249E0008D3
:1028C0000C9E00082DE9F041C4B0FFF783FC022004
:1028D0000121FEF77BFE012302210A4600930193AA
:1028E0000420FEF7C9FC224B04221A830220002197
:1028F0000C22FEF76DFC002002210822FEF768FC86
:102900004FF41650FEF7B8FB1A4EDFF8748004AF90
:102910003368002BFCD03D46002406E09DF80F30C4
:102920000A2B08D0013405F8013B0DF10F00FEF72A
:10293000CBFB0028F2D133680022013B33603A55CB
:10294000002CE5D04FF6FF754FF480710A4A3B46E4
:102950000A48A8F8005000F003FD0848FEF72AFED8
:1029600021463846A8F80050FFF7D0FED0E700BF58
:10297000001002404C190020049F00082C18002071
:102980003019002081F0004102E000BF83F00043D5
:1029900030B54FEA41044FEA430594EA050F08BFFA
:1029A00090EA020F1FBF54EA000C55EA020C7FEABE
:1029B000645C7FEA655C00F0E2804FEA5454D4EB3B
:1029C0005555B8BF6D420CDD2C4480EA020281EA05
:1029D000030382EA000083EA010180EA020281EA3D
:1029E0000303362D88BF30BD11F0004F4FEA01318F
:1029F0004FF4801C4CEA113102D0404261EB41019E
:102A000013F0004F4FEA03334CEA133302D0524223
:102A100063EB430394EA050F00F0A780A4F10104DF
:102A2000D5F1200E0DDB02FA0EFC22FA05F2801819
:102A300041F1000103FA0EF2801843FA05F35941FF
:102A40000EE0A5F120050EF1200E012A03FA0EFC7E
:102A500028BF4CF0020C43FA05F3C01851EBE371A8
:102A600001F0004507D54FF0000EDCF1000C7EEBC5
:102A700000006EEB0101B1F5801F1BD3B1F5001F03
:102A80000CD349085FEA30004FEA3C0C04F1010422
:102A90004FEA445212F5800F80F09A80BCF1004F4B
:102AA00008BF5FEA500C50F1000041EB045141EACD
:102AB000050130BD5FEA4C0C404141EB010111F4CE
:102AC000801FA4F10104E9D191F0000F04BF014679
:102AD0000020B1FA81F308BF2033A3F10B03B3F157
:102AE00020020CDA0C3208DD02F1140CC2F10C02E7
:102AF00001FA0CF021FA02F10CE002F11402D8BF45
:102B0000C2F1200C01FA02F120FA0CFCDCBF41EA10
:102B10000C019040E41AA2BF01EB0451294330BDDF
:102B20006FEA04041F3C1CDA0C340EDC04F11404BC
:102B3000C4F1200220FA04F001FA02F340EA030093
:102B400021FA04F345EA030130BDC4F10C04C4F1D9
:102B5000200220FA02F001FA04F340EA03002946B9
:102B600030BD21FA04F0294630BD94F0000F83F403
:102B7000801306BF81F480110134013D4EE77FEAE6
:102B8000645C18BF7FEA655C29D094EA050F08BF32
:102B900090EA020F05D054EA000C04BF1946104613
:102BA00030BD91EA030F1EBF0021002030BD5FEA57
:102BB000545C05D14000494128BF41F0004130BD7F
:102BC00014F580043CBF01F5801130BD01F00045D3
:102BD00045F0FE4141F470014FF0000030BD7FEA46
:102BE000645C1ABF194610467FEA655C1CBF0B4641
:102BF000024650EA013406BF52EA033591EA030F58
:102C000041F4002130BD00BF90F0000F04BF00214F
:102C1000704730B54FF4806404F132044FF0000582
:102C20004FF0000150E700BF90F0000F04BF0021FB
:102C3000704730B54FF4806404F1320410F0004561
:102C400048BF40424FF000013EE700BF42004FEA5C
:102C5000E2014FEA31014FEA02701FBF12F07F43D9
:102C600093F07F4F81F06051704792F0000F14BFD6
:102C700093F07F4F704730B54FF4607401F000451A
:102C800021F0004120E700BF50EA010208BF704771
:102C900030B54FF000050AE050EA010208BF704766
:102CA00030B511F0004502D5404261EB41014FF4CF
:102CB000806404F132045FEA915C3FF4DCAE4FF0D3
:102CC00003025FEADC0C18BF03325FEADC0C18BFBA
:102CD000033202EBDC02C2F1200300FA03FC20FA0B
:102CE00002F001FA03FE40EA0E0021FA02F1144458
:102CF000C1E600BF4FF0FF3C06E000BF4FF0010C03
:102D000002E000BF4FF0010C4DF804CD4FEA410C3A
:102D10007FEA6C5C4FEA430C18BF7FEA6C5C1BD007
:102D200001B050EA410C0CBF52EA430C91EA030F88
:102D300002BF90EA020F0020704710F1000F91EAE5
:102D4000030F58BF994208BF90422CBFD8176FEAB3
:102D5000E37040F0010070474FEA410C7FEA6C5C81
:102D600002D150EA013C07D14FEA430C7FEA6C5C88
:102D7000D6D152EA033CD3D05DF8040B704700BFB4
:102D80008446104662468C461946634600E000BF02
:102D900001B5FFF7B7FF002848BF10F1000F01BDD4
:102DA0004DF808EDFFF7F4FF0CBF012000205DF89F
:102DB00008FB00BF4DF808EDFFF7EAFF34BF012024
:102DC00000205DF808FB00BF4DF808EDFFF7E0FFBD
:102DD00094BF012000205DF808FB00BF4DF808ED0E
:102DE000FFF7CEFF94BF012000205DF808FB00BF75
:102DF0004DF808EDFFF7C4FF34BF012000205DF857
:102E000008FB00BF014B1868704700BF900400200A
:102E1000024B0146186800F00BB800BF9004002078
:102E2000024B0146186802F0C5BF00BF90040020A5
:102E30002DE9F04F01F10B05162D83B0064627D979
:102E400035F0070500F1B680A94200F2B38000F02A
:102E500071FAB5F5FC7F22D2BC4FE80807EBC0033E
:102E6000DC689C4200F0BD816368E16823F00303E5
:102E700023445A68A56842F00102E96030468D603B
:102E80005A6000F059FA0834204603B0BDE8F08FCC
:102E9000102900F28F8000F04DFA1025DCE7680A57
:102EA00000F08F80042800F24781A80938304100E3
:102EB000A64F07EB8101CC68A14206D10CE0002AA5
:102EC00080F28280E468A14206D0636823F00303A5
:102ED0005A1B0F2AF3DD013801309C493C6901F18E
:102EE000080E744500F07281636823F003035A1BD7
:102EF0000F2A00F35881002AC1F814E0C1F810E04D
:102F000066DAB3F5007F80F02D81DB0801EBC308A2
:102F10004FEAA30C4A68012303FA0CF3D8F808C05F
:102F20001343C4F808C0C4F80C804B60C8F80840CC
:102F3000CCF80C408210012494409C4255D8234286
:102F400006D120F003006400234200F10400FAD00F
:102F500007EBC008C4468146DCF80C309C4507D11D
:102F600036E1002980F24681DB689C4500F0308123
:102F70005A6822F00302511B0F29F2DD1C46DA6861
:102F800054F808CF45F0010941F001081D44C3F889
:102F900004903046CCF80C20C2F808C07D613D6139
:102FA000C5F80CE0C5F808E0C5F80480695000F0E9
:102FB000C3F969E7002420460C23336003B0BDE861
:102FC000F08F7E213F2073E723445A68E16851E780
:102FD00023445A68304642F001025A60083400F037
:102FE000ABF9204603B0BDE8F08FBC68636823F0FE
:102FF0000308454504D8C5EB08030F2B00F38C806C
:10300000534BDFF85CA11A68DAF800302A44013328
:1030100004EB080B00F0518102F580520F3222F4CC
:103020007F6222F00F0211463046019200F086F9CD
:10303000B0F1FF3F8146019A00F0F680834500F22F
:10304000F080444BCB4519681144196000F03E8173
:10305000DAF80000DFF808E101301BBFCBEB090B09
:103060005944CEF80090196019F0070100F008816A
:10307000C1F10800C1F58051814408314A44C2F3CE
:103080000B02C2EB010A51463046019300F056F99B
:10309000431C019B00F02881C9EB0002524442F01E
:1030A00001021968BC425144C7F808901960C9F878
:1030B0000420DFF8A0A016D0B8F10F0F40F2E38093
:1030C0006268A8F10C0323F0070302F00102E01884
:1030D0004FF0050E1A430F2B6260C0F804E0C0F8F1
:1030E00008E000F205811C4BBC681A68914288BF59
:1030F00019601A4B1A689142626888BF196022F001
:1031000003029542A2EB050301D80F2B04DC3046E5
:1031100000F012F90024B7E645F0010243F0010384
:10312000254462603046BD6008346B6000F004F9ED
:10313000204603B0BDE8F08F14286AD9542800F265
:103140009880280B6E304100B2E600BF9404002046
:1031500070190020741900206C19002068190020D3
:10316000A00800205A0A042A56D9142A00F2A7807F
:103170005B324FEA420C07EB8C0CDCF80810DFF8EE
:10318000B081614500F085804A6822F003029342D5
:1031900002D289688C45F7D1CA687B68E260A16079
:1031A0009460CC60C6E645F0010742F00103254477
:1031B000676030464D610D61C5F80CE0C5F808E068
:1031C0006B60AA50083400F0B7F85DE64B68B1E6D2
:1031D00009F1010919F0030F0CF1080C7FF4BCAEE2
:1031E0002BE004F108036469A34208BF02303FF4F6
:1031F00074AE39E61C461A445168DB6854F8085F1F
:1032000041F0010151603046EB609D6000F094F8A0
:103210003AE65B3041004BE69A0938324FEA420CFD
:10322000A9E7BC423FF40DAFBC68626822F003021C
:1032300067E7D8F80080984577D110F0030FA8F120
:10324000080300F1FF30F4D17B6823EA04037B60BC
:1032500064009C423FF6C9AE002C3FF4C6AE234248
:1032600048467FF475AE6400234200F10400FAD0B2
:103270006EE6B0F5AA7F18D8E80B7730410017E664
:103280004FF48051FAE60123C9F804304C4600227D
:1032900037E7D8F8043092104FF0010C0CFA02F224
:1032A0001343C8F804300A4678E740F25453984272
:1032B00017D8A80C7C304100FAE51032B3E6542A46
:1032C0001ED81A0B6E324FEA420C54E7CBF30B00B8
:1032D00000287FF4BDAE4244BB6842F001025A6050
:1032E00001E7FC217E20E3E501224FF0000AD8E649
:1032F00004F10801304602F05DFDDAF80010F2E654
:10330000B2F5AA7F04D8DA0B77324FEA420C32E7E3
:1033100040F254518A4204D89A0C7C324FEA420C53
:1033200029E74FF0FC0C7E2225E77B6890E700BF81
:1033300094040020704700BF704700BF38B5074CA9
:103340000023054608462360FDF73CFD431C00D0E2
:1033500038BD2368002BFBD02B6038BD9C190020A2
:103360000CB4F0B5234B00299DB01D683CDB4FF435
:1033700002730C4602900690ADF814304FF6FF77BA
:1033800023AE15D04C1E229A3346284602A9049437
:103390000794ADF81670019600F00EFA421C20DB7F
:1033A000029B00221A701DB0BDE8F04002B07047C9
:1033B0003346284602A9229A04940794ADF8167061
:1033C000019600F0F9F9431C04DB1DB0BDE8F040A4
:1033D00002B070478B232B601DB0BDE8F04002B0F7
:1033E00070478B232B60DBE78B232B604FF0FF3084
:1033F000EBE700BF9004002080EA010C1CF0030FF3
:1034000037D110F0030C20F0030021F0030150F835
:10341000042B08BF51F8043B0ED08CF0030C6FF066
:103420007F434FEACC0C23FA0CFC51F8043B42EAF0
:103430000C0243EA0C0300BFA2F1013C9A4201BF17
:103440002CEA020C1CF0803F50F8042B51F8043B8E
:10345000F2D04FEA02604FEA1222012828BFB0EBF7
:10346000036F08BF1B0AF4D003F0FF03000EC01A5D
:10347000704710F0030F0AD010F8012B11F8013B30
:10348000012A28BF9A42F4D0A2EB030070474DF8FE
:10349000045D50F8042B01F0030521F0030151F8FD
:1034A000043B022D26D04DD822F07F45B5EB132FDB
:1034B000A2F1013C2CEA020C0DD11CF0803C08BFAB
:1034C00051F8043B0AD185EA0205B5EB036F0CD134
:1034D00050F8042BE8E74FEA13235BE03CF07F4C05
:1034E00054D10B784FEA126554E04FEA126503F0AD
:1034F000FF034FE04FEA0245A2F1013C4FEA1545B8
:103500002CEA020CB5EB134F18D11CF0803C08BF1D
:1035100051F8043B07D185EA0205B5EB034F09D109
:1035200050F8042BE6E75FEA0C4C2FD10B884FEAEA
:1035300012452FE04FEA03434FEA12454FEA134387
:1035400028E000BF02F0FF05B5EB136FA2F1013CCC
:103550002CEA020C0DD11CF0803C08BF51F8043B52
:103560000AD185EA0205B5EB032F0AD150F8042BE6
:10357000E8E74FEA13630DE012F0FF0F06D051F8B1
:10358000043B4FEA122523F07F4303E04FF0000095
:1035900020BC704705F0FF0203F0FF00012828BFA0
:1035A000904204BF2D0A1B0AF4D0A2EB000020BCFD
:1035B000704700BF20F0030110F00300C0F10000CD
:1035C00051F8043B00F1040C4FEACC0C6FF0000200
:1035D0001CBF22FA0CF213434FF0010C4CEA0C2CE6
:1035E0004CEA0C4CA3EB0C0222EA030212EACC12C6
:1035F00004BF51F8043B0430F4D0C2F1000102EAE8
:103600000102B2FA82F2C2F11F0200EBD20070474F
:10361000024A012312685C3200F002B890040020D4
:10362000F0B420B307460D4617F8016B01E0A6423F
:1036300016D015F8014B002CF9D1EEB13E460C46E0
:1036400016F8015B00E073B114F8013BAB42FAD10C
:103650005DB100233B70166006463046F0BC7047F3
:1036600063B13846DEE73746E8E72E46F3E71068F1
:103670000028D7D10646F0E71660EEE71760064649
:103680000370EAE72DE9F04F444C83460E46D4F828
:1036900000E000E02646344614F8015B0EEB05001E
:1036A000407800F0080000F0FF080028F2D12D2D2E
:1036B0004BD02B2D04BF7578B41C1BB1102B60D0E0
:1036C0009A4603E0302D54D00A239A46B8F1000FF1
:1036D00014BF4FF000406FF00040B0FBFAF9002734
:1036E000BC460AFB19000CE0303DAB4219DD7E1CE4
:1036F00005D0CC4524D821D00AFB0C5C012714F856
:10370000015B0EEB0506767816F0040FECD116F08F
:10371000030606D0012E0CBF37265726AD1BAB4241
:10372000E5DC7B1C16D0C8F100008CEA00004044A8
:103730004AB107B1611E1160BDE8F08F8542DBDD43
:103740004FF0FF37DBE7BDE8F08FB41C75784FF022
:103750000108B2E7B8F1000F4FF0220314BF4FF099
:1037600000406FF00040CBF80030002AE2D1BDE805
:10377000F08F237803F0DF03582B09D008239A46F3
:10378000A4E7302D9CD1207800F0DF00582897D195
:103790004FF0100A65785346023497E7A4080020DA
:1037A00030B40D46034C134601462A46206830BC0F
:1037B000FFF768BF900400202DE9F04FC1B08946A3
:1037C0000A920E93089002F0CDFB036818461793F7
:1037D000FFF7F0FEB9F80C3018901C0604D5D9F8A4
:1037E0001030002B01F0C28030AF3C464E46002323
:1037F0001393169319930B93259324932397149360
:1038000015930A9D2B78002B00F0A980252B02D15F
:10381000A5E0252B03D015F8013F002BF9D10A9B19
:10382000EB1A73B1249A259901320A981944072A90
:1038300084E809002591249272DC08340B9A1A441A
:103840000B922B78002B00F0E28700231A46691CAC
:103850006D788DF86F300C9307934FF0FF3A4B1C47
:10386000A5F12001582900F2EA83DFE811F06D028A
:10387000E803E803D102E803E803E803E803E80308
:10388000E803BC020D02E803F4011102E803D802C8
:103890007B027B027B027B027B027B027B027B0240
:1038A0007B02E803E803E803E803E803E803E8032E
:1038B000E803E803E8038A02DF02E803DF02E80323
:1038C000E803E803E803CB03E803E8032F03E80376
:1038D000E803E803E803E8034D03E803E8036703AC
:1038E000E803E803E803E803E803E803E803E80380
:1038F000E803E80382032B02DF02DF02DF02CA02D1
:103900002B02E803E803B202E803D203FB01190328
:103910007402E803A303E8037A00E803E80347021C
:103920000898314623AA079302F00AFF50B93C4693
:10393000079B83E70898314623AA02F001FF00287D
:1039400000F08581B146B9F80C3013F0400F0B9BA5
:1039500018BF4FF0FF33184641B0BDE8F08F0A9D05
:103960006FE70A93079B980640F1D7820E9B03F1FD
:10397000070929F0070303F10802D3E900890E9231
:10398000012300229446CDF844A08DF86F20BAF1AF
:10399000000F03DB079A22F08002079258EA09021F
:1039A00040F06F83BAF1000F00F07484012B00F037
:1039B0007283022B00F0C28439464FEAD80242EAF1
:1039C00049724FEAD90008F0070381469046303328
:1039D00058EA090201F8013DEFD1079A1091D20788
:1039E00000F17F857B1A0D930D9A53469245B8BF1F
:1039F0001346099300231293BCF1000F02D0099BD8
:103A000001330993079B13F002030F9302D0099B24
:103A100002330993079B13F0840940F02F830C9B1A
:103A2000099AC2EB0308B8F1000F40F32783B8F1FD
:103A3000100F2599249ADFF870A529DD53464FF021
:103A4000100BC246A8461D4606E0AAF1100ABAF1BC
:103A5000100F04F1080417DD01321031072A2591F7
:103A6000249284E82008F0DD0898314623AA02F069
:103A700067FE00287FF466AFAAF1100ABAF1100FB2
:103A80003C462599249AE7DC2B464546D0469A4683
:103A9000013208EB010B072ACDF894B02492C4F848
:103AA00000A0C4F8048000F3DE829DF86FC00834E3
:103AB000BCF1000F0FD0249B0BF1010B01330DF172
:103AC0006F010122072BCDF894B0249384E80600FF
:103AD00000F3FD8308340F9B73B1249B0BF1020BA1
:103AE00001331CA90222072BCDF894B0249384E85B
:103AF000060000F3F9830834B9F1800F00F0348335
:103B0000119B0D9AC2EB030ABAF1000F3CDDBAF12A
:103B1000100F249ADFF894942BDD49465B46A946A2
:103B20004FF01008DDF820B00D4606E0AAF1100AAB
:103B3000BAF1100F04F1080417DD01321033072A1F
:103B40002593249284E82001F0DD5846314623AACB
:103B500002F0F6FD00287FF4F5AEAAF1100ABAF1E2
:103B6000100F3C46259B249AE7DC9B462B464D468E
:103B700099460132D344072ACDF894B0249284E8C0
:103B8000000600F398830834079BD90500F18F8263
:103B9000249B0D990133109A8B44072BCDF894B0D8
:103BA00022606160249300F3B8830834079B5A07AE
:103BB00041D50C9B099A9D1A002D3CDD102D249BAC
:103BC000DFF8E4A323DD4FF010085A46DDF820901B
:103BD00004E0103D102D04F1080417DD013310320C
:103BE000072B25922493C4F800A0C4F80480F0DDCC
:103BF0004846314623AA02F0A3FD00287FF4A2AE76
:103C0000103D102D3C46259A249BE7DC934601335A
:103C1000AB44072BCDF894B02493C4F800A06560A2
:103C200009DD0898314623AA02F08AFD00287FF4B6
:103C300089AEDDF894B00B9B099A0C998A42ACBF0F
:103C40009B185B180B93BBF1000F7FF473AE00233E
:103C500024933C46D5E51946079840F004000790A8
:103C60001D78FCE50A93079B13F0200300F03881D0
:103C70000E9B03F1070929F0070303F10802D3E9BA
:103C800000890E9200237CE61D7819462B22E6E57A
:103C90001D78591C2A2D00F0E587A5F13000092870
:103CA0000B464FF0000A3FF6DBAD13F8015B0AEB61
:103CB0008A0A00EB4A0AA5F130000928F5D94AEA38
:103CC000EA7ACDE50A93079B8DF86F20980662D5B6
:103CD0000E9B03F1070929F00709D9E9002309F12F
:103CE0000801904699460E91002A73F1000364DBA7
:103CF0009DF86FC0CDF844A0012348E60A93A74B76
:103D00008DF86F201693079B9B0640F120810E9B38
:103D100003F1070929F0070303F108020E92D3E922
:103D20000089079BD90740F1228158EA090300F076
:103D30001E81079A302342F002028DF870308DF810
:103D40007150079202231CE6002A40F0E5841D789A
:103D50001946202283E5079941F0200107911D783B
:103D600019467CE5A5F13000002113F8015B01EB59
:103D7000810100EB4101A5F130000928F5D90C9132
:103D80006EE50A93079B8DF86F2043F010030793AD
:103D9000079B98069CD4079BD90640F1C1840E9AD4
:103DA00013461B6804320E924FEAE3791A4698468E
:103DB0004B46002A73F100039ADA4FF02D0CD8F12C
:103DC000000869EB49098DF86FC0CDF844A00123C4
:103DD000DDE51D7807996C2D00F0258541F0100177
:103DE000079119463BE50E9D296808460C91294626
:103DF000002801F10401C0F21D850E911D781946BD
:103E00002DE5079941F0400107911D78194626E5F7
:103E1000079941F0010107911D7819461FE507999F
:103E200041F0800107911D78194618E50A93079B18
:103E30008DF86F2013F0080F0E9BD34603F107098E
:103E400000F0378429F0070303F108020E921A6884
:103E50005B68149215931599149802F045FC01289B
:103E60001599149840F00B8400220023FEF7A2FF5E
:103E7000002840F039869DF86FC0079B484A23F020
:103E8000800307931346DFF828E10321472DD8BFAD
:103E9000734600200991119010930D911290ABE59B
:103EA0000E9907980A9330230A688DF870303B4BBF
:103EB000782540F002000431169307900E91904649
:103EC0004FF000098DF8715002235AE50A93079BC1
:103ED00043F010030793079B13F020037FF4C8AE51
:103EE000079A12F0100240F00A83079B13F0400378
:103EF00000F005830E9913460A460432B1F800809B
:103F00004FF000090E923CE50A93079B43F0100323
:103F10000793079B98063FF529AD079BD90600F14B
:103F2000F782079B5A0640F1F3820E9A4FF0000980
:103F3000B2F80080043201230E9222E50A93194B55
:103F40008DF86F201693079B9B063FF5E0AE079B0D
:103F5000D80640F1BB830E9A13461B68043298467C
:103F6000079B0E92D9074FF000093FF5DEAE022302
:103F700007E50E980A93026800238DF89820024600
:103F800001219C4604328DF86F301193129326ABB9
:103F900009910E920D91109334E500BF409F0008E7
:103FA000209F00082C9F00080C9F0008609F0008BD
:103FB0001C9F00080E9A0A9313684FF0000B109391
:103FC0008DF86FB002F10409002B00F05885BAF1AA
:103FD000000F1098C0F2EA845946524601F0C6FF1D
:103FE000002800F08985109BCDF844B0C31A0D93CA
:103FF000CDF8389023EAE3730993CDF848B09DF8E3
:104000006FC0F9E4079941F0080107911D7819463E
:1040100025E40A93079B8DF86F209A0640F165838B
:104020000E9A134604330E930B9B11684FEAE37903
:104030001A4698464B46C1E90023FFF7E2BB0A93B4
:104040008DF86F20002D00F0E283002301229C46B2
:104050008DF86F301193129326AB09928DF898501A
:104060000D921093CEE40898314623AA02F068FB23
:1040700000287FF467AC3C469DF86FC0DDF894B033
:1040800016E5012B7FF495ACB9F1000F08BFB8F12C
:104090000A0F80F006820DF5807B08F130080BF8DE
:1040A000418DCBEB07030D93CDF840B09CE4652D1B
:1040B00040F3A0801498159900220023FEF770FEAB
:1040C000002800F05481249BC14901330BF1010BFE
:1040D0000122072BCDF894B0249384E8060000F366
:1040E0003E8308341D9B139A934203DB079BDA0738
:1040F0007FF55CAD249B18990133179A8B44072BED
:10410000CDF894B022606160249300F31A840834DF
:10411000139B5D1E002D7FF749AD102D249BDFF80A
:10412000B49240F3EF804FF010085A46DDF820A01B
:1041300004E00834103D102D40F3E38001331032C9
:10414000072B25922493C4F80090C4F80480F0DD76
:104150005046314623AA02F0F3FA00287FF4F2AB6E
:104160003C46259A249BE5E70C9B099AC2EB030A7F
:10417000BAF1000F7FF7C4ACBAF1100F249ADFF840
:1041800054922BDD49465B46A9464FF01008DDF8F6
:1041900020B00D4606E0AAF1100ABAF1100F04F1A2
:1041A000080417DD01321033072A2593249284E88E
:1041B0002001F0DD5846314623AA02F0C1FA00285A
:1041C0007FF4C0ABAAF1100ABAF1100F3C46259B50
:1041D000249AE7DC9B462B464D4699460132D34450
:1041E000072ACDF894B0249284E8000600F33A82BE
:1041F000083485E4139B249D012B40F3FC81013599
:1042000010990BF101030122072D259321602495BC
:10421000626000F30E8208341899013503EB010B3C
:10422000179B072DCDF894B024952360616000F3AF
:104230000C8208340023149815990022FEF7B0FD73
:10424000139B002840F0E380109A013B01350132B6
:104250009B44072D22602495CDF894B0636000F351
:1042600013810834199A013593441FAB072DCDF8FB
:1042700094B02495626023607FF797AC089831462C
:1042800023AA02F05DFA00287FF45CAB3C46DDF81F
:1042900094B08BE4002B4CD1079BD80749D50DF582
:1042A000807B30230BF8413DCBEB07030D93CDF81A
:1042B00040B0FFF799BB0898314623AA02F040FAB4
:1042C00000287FF43FAB3C46DDF894B05CE40898EE
:1042D000314623AA02F034FA00287FF433AB3C467F
:1042E000DDF894B0FFF7F7BB0898314623AA02F037
:1042F00027FA00287FF426AB3C46DDF894B0FFF7A0
:10430000FBBB93460133AB44072BCDF894B0249309
:10431000C4F8009065607FF748AC0898314623AA3E
:1043200002F00EFA00287FF40DABDDF894B03C46A5
:104330003CE4CDF834A01097FFF756BBBB46169867
:104340004FEA181343EA09734FEA191108F00F02F4
:1043500089469846835C0BF8013D58EA0903EFD182
:104360005B46CDF840B0FB1A0D93FFF73DBB1D9D9A
:10437000002D40F30082139A129913468A42A8BF77
:104380000B461D461099002D01EB020A0CDD0A4672
:10439000249BAB440133072BCDF894B084E8240070
:1043A000249300F348830834129B002DA8BF5B1BA5
:1043B000002B1D4640F3C180102D249BDFF8149084
:1043C00040F3C0815A464FF01008DDF820B008E0F5
:1043D0005C9F0008609F00080834103D102D40F3DA
:1043E000B08101331032072B25922493C4F800903A
:1043F000C4F80480F0DD5846314623AA02F0A0F943
:1044000000287FF49FAA3C46259A249BE5E703F108
:10441000FF38B8F1000F7FF725AFB8F1100FDFF8C4
:10442000489525DD5B464FF0100ADDF820B006E028
:10443000A8F11008B8F1100F04F1080417DD0135D8
:104440001033072D2593249584E80006F0DD5846A7
:10445000314623AA02F074F900287FF473AAA8F168
:104460001008B8F1100F3C46259B249DE7DC9B46C5
:104470000135C344072DCDF894B02495C4F80090BD
:10448000C4F804807FF7EDAE0898314623AA02F005
:1044900057F900287FF456AADDF894B0249D3C46D5
:1044A000E0E6BB46CDF824C0404649460A22002338
:1044B00002F0D4FE3032404649460BF8012D00236D
:1044C0000A2202F0CBFE8046894658EA0903EBD166
:1044D0005B46FB1ADDF824C0CDF840B00D93FFF722
:1044E00083BA302B109B3FF43EAF013B1A4610932A
:1044F000BA1A30230D9201F8013CFFF775BA0E99F4
:104500004FF000090A6804310E919046FFF739BA5E
:104510000E9901230A6804310E9190464FF000096C
:10452000FFF72FBA0898314623AA02F009F90028AC
:104530007FF408AA3C46DDF894B0109A12991D9BAE
:104540000A449046139A934246DB079AD00743D415
:10455000139AC8EB0A05D31A9D42A8BF1D46002D29
:104560000CDD249AAB440132072ACDF894B0C4F88C
:1045700000806560249200F396820834002DB4BF59
:104580001D465D1B002D7FF711AB102D249BDFF81E
:10459000D8937FF7B7AE4FF010085A46DDF820A049
:1045A00004E00834103D102D7FF7ABAE013310321C
:1045B000072B25922493C4F80090C4F80480F0DD02
:1045C0005046314623AA02F0BBF800287FF4BAA96E
:1045D0003C46259A249BE5E7249A189801321799BE
:1045E0008344072ACDF894B021606060249200F3E0
:1045F00039820834ACE7079BD9073FF500AE013597
:10460000109A0BF1010B0123072DCDF894B0226015
:10461000249563607FF725AE0898314623AA02F0FF
:104620008FF800287FF48EA93C46DDF894B0249DD5
:1046300018E60898314623AA02F082F800287FF491
:1046400081A93C46259B249DE6E50898314623AA8E
:1046500002F076F800287FF475A93C46DDF894B0A6
:10466000249DE7E50898314623AA02F069F800285E
:104670007FF468A93C46DDF894B0FFF741BA02F038
:1046800033F8002840F0DD80B44AB54B8646472D0C
:10469000D8BF1A4611900798032120F08000099195
:1046A0000790CDF848E010920D919DF86FC0FFF78C
:1046B000A3B929F00709D9F800301493D9F80430C8
:1046C000159309F108030E93FFF7C5BB079B0E9ADC
:1046D00013F0400F13463FF440AC0433B2F80080AF
:1046E0004FF000090E93FFF71CBB079BDB060BD4B2
:1046F000079B5D0608D50E9A136804320E92BDF82A
:104700002C201A80FFF77DB80E9A136804320E929F
:104710000B9A1A60FFF775B819461D78FFF79FB816
:10472000079B0E9A13F0400F13463FF43AABB2F9D1
:10473000008004334FEAE8790E9342464B46FFF778
:10474000D3BA93460133AB44072BCDF894B02493EE
:10475000C4F8009065603FF7E5AE0834EDE60898D0
:10476000314623AA01F0ECFF00287FF4EBA83C4679
:10477000DDF894B0B6E4249B7A4901330BF1010BC8
:104780000122072BCDF894B0249384E8060000F3AF
:10479000FD8008342DB9139B1BB9079BDB077FF500
:1047A00005AA249B18980133179A0BEB0001072BDD
:1047B000259122606060249300F3F48104F10802E3
:1047C0006D42002D40F30781102DDFF89C9140F3DE
:1047D0003E811024DDF8208004E00832103D102DC9
:1047E00040F3358101331031072B25912493C2F812
:1047F00000905460F1DD4046314623AA01F0A0FF4D
:1048000000287FF49FA83A462599249BE6E7259B3C
:10481000B146002B3FF497A80898314623AA01F02F
:104820008FFFFFF790B841F0200107915D78591C88
:10483000FFF715B80C980E9140420C901946FFF7FF
:104840000BBA25F02003BAF1FF3F0D9300F0AB80C7
:10485000472B05D1BAF1000F14BFD3464FF0010B1F
:10486000079B43F480731193159BB3F1000A149BCB
:104870000993B7BF5346002303F1004A2D23662D49
:104880000F9300F0B980462D00F0B6800D9B0220FA
:10489000452B14BFD9460BF101091DA98DE8010272
:1048A00002911EA821A90390099A534604910898E1
:1048B00000F0DEFA672D109002D0472D40F0AC805A
:1048C000079BDB0740F19681109B03EB09080998D1
:1048D000514600220023FEF763FA002840F00A81C7
:1048E000219B984506D930215A1C21921970219B91
:1048F0009845F9D8109A9B1A13930D9B472B1D9B33
:1049000000F0EB80652D40F30581662D129300F0D9
:104910006481139B129A934200F35181079BD9073C
:1049200000F1888122EAE2730D920F9A002A40F08A
:10493000C9800993119B9DF86FC007931192FFF7EF
:104940005BB80898314623AA01F0FAFE00287EF4ED
:10495000F9AF3C46DDF894B0FFF7DABB289F0008BA
:10496000249F00085C9F0008609F00080898402171
:10497000FEF75EFAC9F80000C9F81000002800F040
:1049800086814023C9F81430FEF72EBF08983146BF
:1049900023AA01F0D5FE00287EF4D4AF3C461D9D2D
:1049A000DDF894B0F6E64FF0060B59E7CDF844B0C9
:1049B000FEF700FECDF838900D900346FFF71ABBC6
:1049C0000898314623AA01F0BBFE00287EF4BAAF56
:1049D0003A462599249B139C013301EB040B109953
:1049E000072BCDF894B02493116054603FF795AC39
:1049F00002F10804FFF7DAB803201DA98DE80108C9
:104A000002911EA821A90390099A5346049108987F
:104A100000F02EFAD9461090109B03EB09080D9B6D
:104A2000462B7FF454AF109B1B78302B00F0E480B2
:104A30001D9B98444BE70898314623AA01F080FE5D
:104A400000287EF47FAF3C46DDF894B0ACE401333F
:104A50002944072B25912493C2F800905560AFDCC0
:104A60000832B8E70898314623AA01F069FE002809
:104A70007EF468AF3C461D9BDDF894B068E5534674
:104A8000062B28BF06230D9323EAE373DDF840C00D
:104A90000993844BCDF83890CDF844C0CDF848C088
:104AA0001093FEF7A9BF0898314623AA01F048FEEB
:104AB00000287EF447AF1D9B139ADDF894B0D31AFB
:104AC0003C465BE50993119B4FF02D0C07930023A7
:104AD0008DF86FC01193FEF792BFDA1C19DB9B456E
:104AE00017DB1293672514E72D239C468DF86F3052
:104AF000FFF7C3B94346FDE62AEAEA731190CDF801
:104B0000389012909DF86FC00993CDF834A0FEF74D
:104B100073BF023D013B002B1D93BABF5B422D22A8
:104B20002B22092B8DF87C508DF87D207ADD0DF13C
:104B30008B0001465C4A82FB032EDA17C2EBAE0EF5
:104B40000EEB8E02A3EB420273463032092B01F8C2
:104B5000012DEFDC0A4630335FFA83FE02F801EDE7
:104B6000904240F29B800DF17E020B4601E013F86B
:104B700001EB834202F801EBF9D123AB5B1A0DF193
:104B80007E0213441FAA9B1A139A1993012A1344F5
:104B90000D935EDD0D9B002201330D93129223EAEB
:104BA000E373C2E60898314623AA01F0C9FD002844
:104BB0007EF4C8AE3A461D9D2599249B00E6129BC3
:104BC000002BD8BFC3F10208139BC8BF4FF00108E8
:104BD00043440D9323EAE373A7E6002B30DDBBF1DA
:104BE000000F17D1079BDB0714D4129A22EAE27355
:104BF0000D929AE6219B7DE60998514600220023FA
:104C0000FEF7CEF800287FF413AFC9F101031D931E
:104C100098445CE6129B0BF1010843440D9323EA90
:104C2000E37382E6303330228DF87F308DF87E20BA
:104C300020ABA7E7129B01330D9323EAE37374E6DD
:104C4000BBF1000F1DD1079BD8071AD401230D9388
:104C50006BE6079B13F001039CD112930D9B23EA93
:104C6000E37362E60E9D2846D5F800A00430BAF141
:104C7000000F5D780E90BEF6F2AD4FF0FF3AFEF7F2
:104C8000EEBD0BF102030D9323EAE3734DE6089AA0
:104C90000C2313604FF0FF30FEF75EBE0DF17E0374
:104CA00070E700BF549F00086766666670B5002A0B
:104CB0009AB005462DDB14461A464FF40273009154
:104CC0000491ADF80C304FF6FF760FD0013C6946E9
:104CD0001E9B02940594ADF80E60FEF76DFD421C1C
:104CE00014DB009B00221A701AB070BD1E9B69462F
:104CF00002940594ADF80E60FEF75EFD431C01DBE7
:104D00001AB070BD8B232B601AB070BD8B232B6043
:104D1000E7E78B2303604FF0FF30F1E730B50D4636
:104D20001446054A83B00146106800932A4623467C
:104D3000FFF7BCFF03B030BD900400202DE9F04F19
:104D400003690F6983B09F4200F38B80013F01F13B
:104D5000140600F1140A56F827305AF827200133B8
:104D6000B2FBF3F8BB00009306EB03095344019335
:104D7000B8F1000F3DD000231C46B446D6461A4673
:104D80005CF804BBDEF800501FFA8BF34FEA1B4BB4
:104D900003FB08220BFB08F303EB124392B2A41AA5
:104DA0001FFA83FBAAB22244CBEB154404EB224446
:104DB00092B242EA0442E1454EF8042B4FEA244401
:104DC0004FEA1342DCD2009B5AF803308BB9019CA6
:104DD000231F9A450CD254F8043C4BB9A4F10803A4
:104DE00002E01A68043B1AB99A4507F1FF37F8D375
:104DF0000761044601F08EFB00282EDB0023554698
:104E0000194608F1010856F8042B2B6890B2081ACD
:104E1000120C99B2C2EB1343421803EB224392B235
:104E200042EA0342B14545F8042B4FEA2341EAD256
:104E30005AF827200AEB87037AB91A1F92450BD23A
:104E400053F8042C42B9083B02E01A68043B1AB933
:104E50009A4507F1FF37F8D32761404603B0BDE814
:104E6000F08F002003B0BDE8F08F00BF000000000D
:104E70002DE9F04F016C99B00446CDE90223259D40
:104E800041B1426C012393408B604A6001F056F9B6
:104E900000232364DDE90223002B994636DB00233F
:104EA0002B60A54B1A4609EA0303934217D0DDE9AC
:104EB00002670022002330463946FDF771FF804625
:104EC00000282BD0249A01231360269B002B00F08E
:104ED000CB809A481860013819B0BDE8F08F42F2D3
:104EE0000F73249A1360029B002B00F0A680944855
:104EF000269B002BF0D0C378002B00F0B78000F188
:104F00000803269A136019B0BDE8F08F039A0123B5
:104F100022F000492B60CDF80C90C2E717AA16AB1F
:104F20008DE80C00204632463B4601F089FB5FEAE3
:104F30001955834640F08A80DDF85880179D6FF43C
:104F4000826345449D42C0F295827E4A05F2124337
:104F5000521B09FA02F9029A22FA03F049EA000008
:104F6000FDF752FE0123013DA1F1F87112930022D9
:104F7000754BFDF70BFD6AA3D3E9002301F034FF65
:104F800069A3D3E90023FDF703FD064628460F4633
:104F9000FDF74AFE66A3D3E9002301F025FF024690
:104FA0000B4630463946FDF7F3FC06460F4602F045
:104FB0002DF939460590002230460023FDF7FAFE10
:104FC000002840F0A481059B162B00F29D81DDE9AD
:104FD000022305985D4901EBC001D1E90001FDF70D
:104FE00007FF002800F05082059B013B059300233A
:104FF0000C93C5EB0805B5F1010A00F19F81002370
:105000000693059B002BC0F290819A440B930023DA
:105010000993229B092B2BD8052B40F37786043B61
:1050200022930025229B023B032B00F25586DFE8EA
:1050300013F0CF03C103B0026A06414B444AC9F3DF
:105040001300002814BF1846104651E7C7F3130396
:1050500043F07F51CDF848803046A5F2FF3541F44A
:105060004011DDF8588082E73A4835E7C31C48E72D
:10507000002161642046229101F038F84FF0FF339F
:10508000229A07930D9301230890239220640A9398
:10509000179B002BC0F2D080059A0E2A00F3CC801B
:1050A0002A4B03EBC203D3E90089239B002BC0F2F8
:1050B0009283DDE9026742464B463046394601F0AD
:1050C000BDFF02F0A3F88246FDF7AEFD42464B4617
:1050D00001F08AFE02460B4630463946FDF756FC83
:1050E000079E089F0AF13005012E3D7002460B46CF
:1050F00007F1010562D00022174B01F075FE002276
:10510000002306460F46FDF74BFE002840F0818045
:10511000CDF808B0DDF820A0DDF81CB006942AE038
:1051200061436F63A787D23FB3C8608B288AC63FAD
:10513000FB799F501344D33F0000F07F5D9F000830
:1051400080A000080EFCFFFF0000F83F90A00008C0
:1051500074A000085C9F0008000024400022C84B97
:1051600001F042FE0022002306460F46FDF718FE1E
:10517000002840F0E08342464B463046394601F075
:105180005DFF02F043F80446FDF74EFD42464B46F4
:1051900001F02AFE02460B4630463946FDF7F6FB83
:1051A00004F1300605F8016BCAEB0506B34502466B
:1051B0000B46D3D1A246DDF808B0069C104619462E
:1051C000FDF7E6FB06460F464046494632463B465B
:1051D000FDF7F0FD48B94046494632463B46FDF7EB
:1051E000DFFDB0B11AF0010F13D015F8018C6B1E62
:1051F000089904E08B4200F0458413F8018DB8F162
:10520000390F03F101051A46F4D008F10103DBB2AE
:1052100013702046594600F091FF0022059B2A702A
:10522000249A01331360269B002B00F04A830898D0
:105230001D6019B0BDE8F08F0A9A002A00F0848042
:10524000229A012A40F30983079B5F1E099BBB42F8
:10525000C0F2AF83DF1B079B002BC0F2A584069D25
:10526000079B069A20461A44012106929A4400F0B0
:10527000FFFF064665B1BAF1000F09DDAA455346A6
:10528000A8BF2B46069AED1AD21A0692C3EB0A0A59
:10529000099B002B1ADD0A9B002B00F08383002F53
:1052A00010DD31463A46204601F08CF806465A4653
:1052B0003146204600F0E6FF80465946204600F081
:1052C0003DFFC346099BDA1B40F0A782204601211F
:1052D00000F0CEFF0B9B8046002B39DD01461A46BD
:1052E000204601F06FF8229B8046012B40F39B8201
:1052F0004FF00009D8F8103008EB8303186900F06C
:1053000069FFC0F120002DE001230C9371E60598A0
:10531000FDF78AFC32463B46FDF742FD00287FF44C
:1053200052AE059B013B05934DE6069A059BD21AAA
:105330005B420993002306920B936AE6CAF10003CD
:1053400006934FF0000A5CE6099F069D0A9E91E7CE
:10535000229B012B40F3B8824FF000090B9B002BDE
:10536000C8D10120504410F01F0000F08180C0F12E
:105370002003042B40F3C184C0F11C00069B0544AC
:10538000034406938244069B002B05DD59461A46CA
:10539000204601F067F88346BAF1000F05DD41466B
:1053A0005246204601F05EF880460C9B002B40F0F0
:1053B0006D82079B002B40F39B820A9B002B71D1CF
:1053C000DDF82090079F4D4604E05946204600F046
:1053D000BFFE834658464146FFF7B0FC303005F823
:1053E000010BC9EB0503BB424FF00A024FF000036B
:1053F000EBDB089B079A8446012AACBF9B1801335C
:105400001D464FF0000A594601222046CDF808C03B
:1054100001F028F84146834601F07CF80028DDF8C9
:1054200008C040F3FC8215F8012C6B1E089904E0BB
:105430008B4200F0798213F8012D392A03F101051E
:10544000F6D001321A704146204600F077FE002E59
:105450003FF4DFAEBAF1000F05D0B24503D051469C
:10546000204600F06BFE3146204600F067FED0E695
:105470001C2083E7034B029A5B1B02FA03F06FE5E3
:1054800000002440EEFBFFFF0C90B2E53146002304
:1054900020460A2200F05CFE0D9B0646002B40F3DE
:1054A00015840793002D05DD31462A46204600F07D
:1054B000D9FF0646B9F1000F40F0EE82B146089AD6
:1054C000079B1746013BD3180993029B03F0010386
:1054D0000A9341465846FFF731FC31460546584687
:1054E00001F018F84A4682464146204601F036F857
:1054F000C268034605F1300C002A40F0BD81194610
:105500005846CDF81CC0069301F004F8069B0290A3
:105510001946204600F012FE029ADDF81CC02AB996
:10552000229B1BB90A9B002B00F0B083BAF1000F3D
:10553000C0F2578205D1229B1BB90A9B002B00F0B9
:105540005082002A00F3BC82099B07F1010A9F42A6
:1055500087F800C0554600F0BF8259460A22002352
:10556000204600F0F5FD4E458346314620464FF07B
:105570000A024FF0000300F0798100F0E9FD49468E
:1055800006460A222046002300F0E2FD57468146E7
:105590009FE701230A93239B002B40F319821F46A8
:1055A0001E460D9307930021172F61640AD901222B
:1055B00004235B0003F114008742114602F101024B
:1055C000F7D26164204600F091FD0E2E0890206411
:1055D0003FF65EAD002D3FF45BADDDE9022305999A
:1055E000CDE90E23002940F32682BA4B01F00F02C9
:1055F0000D1103EBC203E906D3E9006740F1E18135
:10560000DDE90E01B44B05F00F05D3E9082301F0E5
:1056100015FDCDE902014FF003088DB13046394642
:10562000DFF8B492EA0705D5D9E9002301F0DCFBE5
:1056300008F101086D1009F10809F3D106460F467B
:10564000DDE9020132463B4601F0F8FCCDE90201FA
:105650000C9B43B1DDE902010022A04BFDF7AAFB40
:10566000002840F0B5824046FDF7DEFADDE902236E
:1056700001F0BAFB9A4B0022FDF78AF9079B064618
:10568000A1F15077002B00F06881059BDDF81CC06C
:1056900013930A9B002B00F026828E4B002003EB15
:1056A000CC0353E902238F49CDF850C001F0C6FC6A
:1056B00032463B46FDF76AF9DDE90267CDE91001A4
:1056C0003946304601F0A2FD0546FDF7ADFA024627
:1056D0000B4630463946FDF759F9DDE910233035E0
:1056E0005FFA85F8089D064685F800800F4601356B
:1056F000FDF760FB002840F0B98232463B460020AF
:105700007649FDF743F902460B46DDE91001FDF746
:105710006FFB002840F0B382DDF850C0BCF1010FF0
:1057200040F33A81089BCDF850A0CDF808B003EBC8
:105730000C09DDE910ABA0460FE032463B460020E5
:105740006649FDF723F952465B46FDF733FB002817
:1057500040F090824D4500F01A8150465946002293
:10576000614B01F041FB00225F4B82468B46304685
:10577000394601F039FB0F46064601F047FD044665
:10578000FDF752FA02460B4630463946FDF7FEF861
:105790003034E4B205F8014B52465B4606460F46EC
:1057A000FDF708FB0028C8D0139BDDF808B044467D
:1057B00005932EE500230A93239B059A13440D932A
:1057C0000133002B079340F30A81079E3746EAE630
:1057D00000230A93DFE6079B002B3FF76AAC40F0FB
:1057E000668240460022414B494601F0FDFADDE960
:1057F0000223FDF7F3FADDF81C804646002800F08E
:105800008B80239B089DDB4305934146204600F097
:1058100095FC002E7FF427AEFBE45946204600F0AD
:10582000D1FD834652E5029B002B7FF461AD039BC3
:10583000C3F31303002B7FF48FAD039B23F00047CA
:105840003F0D3F05002F00F01E82069B0AF1010A62
:10585000013306934FF0010980E5129A002A00F007
:10586000A98103F23343099F069DFAE400F070FC1E
:105870005746064681462CE601462046CDF808C02C
:1058800000F05CFC0122DDF808C04FE658464146B6
:1058900000F040FE0028BFF68CAD059F594600235E
:1058A00020460A22013F059700F052FC0A9B8346DE
:1058B000002B7FF4EBAD0D9B002B40F3FC81079395
:1058C0007EE50898FFF708BB029B002B7FF444ADF0
:1058D000ADE700BF90A0000858A100080000F03F0D
:1058E00000001C400000E03F000024400000144085
:1058F000229B022B7FF761AD079B002B81D1414694
:105900000522204600F024FC80465846414600F01F
:1059100001FE00287FF775AF059A089931230132FF
:1059200005920B704D1C70E7059A312301320592E8
:10593000089A137087E5DDF808B0069C69E44046D4
:10594000FDF772F9DDE9022301F04EFA0022BE4BA9
:10595000FDF71EF80646A1F15077DDE902010022AD
:10596000BA4BFDF713F832463B46CDE90201FDF78D
:105970003FFA8046002840F0B280DDE9020132465D
:1059800007F10043FDF716FA30B1464639E74446C1
:10599000DDF850A0DDF808B0DDE90E23CDE90223E3
:1059A000FFF776BB5946099A204600F00BFD834667
:1059B0008CE4099B0B9AFB1A1A4409970B92002757
:1059C00049E4DDE90E234FF00208CDE9022324E685
:1059D000012623960D96079600216164F2E51E4686
:1059E000FAE7002A15DD594601222046CDF808C005
:1059F00000F038FD4146834600F08CFD0028DDF8BC
:105A000008C040F34D81BCF1390F00F009810CF161
:105A1000010CB24687F800C07D1C4E4613E504D148
:105A20001CF0010F01D0FEE4154615F8013C6A1E7A
:105A3000302BF9D007E5059B5D42002D00F0C180B9
:105A4000DDE90E01824B05F00F0203EBC203D3E93F
:105A5000002301F0C9F92D11CDE9020100F03081D8
:105A60007C4E4FF00208EB0705D5D6E9002301F084
:105A7000BBF908F101086D1006F10806F3D1CDE974
:105A80000201E5E5059A302301320592089A137068
:105A900031231370FFF7BDBB7168204600F026FB71
:105AA0000546336906F10C019A1C92000C3000F097
:105AB000A7FA20462946012200F0D4FC8146FEE4E4
:105AC000BCF1390F00F0AC800CF1010CB24687F844
:105AD00000C07D1C4E46B6E4B2464E4693E44FF0FD
