:020000040800F2
:100000000050002099020008A1020008A502000883
:10001000A9020008AD020008B102000800000000BB
:10002000000000000000000000000000B502000811
:10003000B902000800000000BD020008991E000877
:10004000C5020008C5020008C5020008C502000874
:10005000C5020008C5020008C5020008C502000864
:10006000C5020008C5020008C5020008C502000854
:10007000C5020008C5020008C5020008C502000844
:10008000C5020008C5020008C5020008C502000834
:10009000C5020008C5020008C5020008C502000824
:1000A000C5020008C5020008C5020008C502000814
:1000B000C5020008C5020008C5020008C502000804
:1000C000C5020008C5020008C5020008C5020008F4
:1000D000C5020008C5020008C5020008C5020008E4
:1000E000FD210008C5020008C5020008C50200087D
:1000F000C5020008C5020008C5020008C5020008C4
:10010000C5020008C5020008C5020008C5020008B3
:10011000C5020008C5020008C5020008C5020008A3
:10012000C5020008C5020008C5020008C502000893
:10013000C5020008C5020008C5020008C502000883
:10014000C5020008C5020008C5020008C502000873
:10015000C5020008C5020008C5020008C502000863
:10016000C5020008C5020008C5020008C502000853
:10017000C5020008C5020008C5020008C502000843
:10018000C502000800B583B000F07CFC304B314A5A
:100190001360314A1360314B314A03E01168196032
:1001A000043304322F498B42F8D32A4B1A682E4B62
:1001B0009A4204D1284B1A682C4B9A4200D0FEE791
:1001C000234B2B4A13602B4A13602B4B02E0002277
:1001D0001A600433294A9342F9D3254B1B6813B99B
:1001E000244B1B6803B1FEE700F050FC01A86946F0
:1001F00000F0E2FB224C234B1C1BA410002504E062
:100200001F4B53F8253098470135AC42F8DC1E4CA3
:100210001E4B1C1BA410002504E01B4B53F825307B
:1002200098470135AC42F8DC0198009901F0EEFFE7
:100230000546174C174B1C1BA41004E0013C144B43
:1002400053F824309847002CF8DC284600F086FB51
:10025000BABADECA00000020C40800200000002056
:1002600074BA0008C80800207856341232547698C0
:10027000C8080020E42E0020C8080020E82E002036
:10028000C8020008C8020008C8020008CC02000822
:10029000CC020008D002000808B5FFF773FF00BFCA
:1002A000FEE700BFFEE700BFFEE700BFFEE700BFBE
:1002B000FEE700BFFEE700BFFEE700BFFEE700BFAE
:0802C000704700BFFEE700BF1C
:0802C8001D2200082D22000890
:1002D00010B50446C378012B03D92148932100F0BF
:1002E00073FB63780F2B03D91D48942100F06CFB3E
:1002F000A3780F2B03D91A48952100F065FBE3780A
:1003000013B3184BDA68D243C2F30222C2F10401DC
:10031000C9B20F2343FA02F063788B40DAB2A178B6
:1003200000EA010313431B01DBB222780E490A44A1
:1003300082F800332378580903F01F03012202FAE0
:1003400003F341F8203010BD23785A0903F01F034E
:100350000121994002F12003034A42F8231010BD05
:10036000708D000800ED00E000E100E010B50446EB
:1003700003792BB1042B03D03048822100F024FBF9
:100380006379082B07D00C2B05D0102B03D02B48FA
:10039000832100F019FB2268D30DDB0503B91AB9DC
:1003A0002648842100F010FBA379012B03D92348B0
:1003B000852100F009FBA379002B33D0204B1A686C
:1003C000216822EA01021A605A68216822EA0102C1
:1003D0005A60227902F1804202F59E32106821684B
:1003E000014311609A68216822EA01029A60DA6882
:1003F000216822EA0102DA606379102B09D1104BDF
:10040000996822680A439A60D96822680A43DA60C8
:1004100010BD03F1804303F59E33196822680A4337
:100420001A6010BD237903F1804303F59E331A68E7
:10043000216822EA01021A6010BD00BF988D0008F1
:10044000003C014010B50446C30DDB0503B918B9E3
:100450000348FC2100F0B8FA024B5C6110BD00BFFC
:10046000988D0008003C01402DE9F04105460E46FC
:10047000464B984223D003F5806398421FD003F582
:10048000806398421BD003F58063984217D003F530
:100490008063984213D003F5806398420FD003F530
:1004A000806398420BD003F58063984207D003F530
:1004B0008063984203D03648C12100F085FA336842
:1004C0001BB93348C22100F07FFA3379032B03D9DB
:1004D0002F48C32100F078FAF379022B03D92C4876
:1004E000C42100F071FA00244CE00123A3403268DB
:1004F0001A409A4245D12B684FEA4408032707FA6D
:1005000008F7FF433B402B602A68337903FA08F36E
:1005100013432B603379013BDBB2012B23D8737972
:10052000032B03D91A48D62100F04EFAAB681F40BE
:10053000AF60AA68737903FA08F31343AB60B37929
:10054000012B03D91248DD2100F03EFA6A68A1B2FE
:1005500001238B4022EA03036B606A68B3798B4006
:100560009BB213436B60EA68A1B2490003238B403E
:1005700022EA0303EB60EA68F37903FA08F3134312
:10058000EB6001340F2CB0D9BDE8F08100000240CF
:10059000CC8D000838B504460D462E4B984224D029
:1005A00003F58063984220D003F5806398421CD005
:1005B00003F58063984218D003F58063984214D005
:1005C00003F58063984210D003F5806398420CD005
:1005D00003F58063984208D003F58063984204D005
:1005E0001D484FF49B7100F0EFF96B1E9BB2012B7D
:1005F00028D9042D26D0082D24D0102D22D0202D2E
:1006000020D0402D1ED0802D1CD0B5F5807F19D074
:10061000B5F5007F16D0B5F5806F13D0B5F5006F36
:1006200010D0B5F5805F0DD0B5F5005F0AD0B5F5F7
:10063000804F07D0B5F5004F04D0074840F237117E
:1006400000F0C2F923692B4201D0012038BD0020FF
:1006500038BD00BF00000240CC8D000870B50446D4
:100660000D461646304B984224D003F580639842DD
:1006700020D003F5806398421CD003F58063984234
:1006800018D003F58063984214D003F58063984234
:1006900010D003F5806398420CD003F58063984234
:1006A00008D003F58063984204D020484FF4D671F7
:1006B00000F08AF96B1E9BB2012B28D9042D26D09D
:1006C000082D24D0102D22D0202D20D0402D1ED03A
:1006D000802D1CD0B5F5807F19D0B5F5007F16D0E0
:1006E000B5F5806F13D0B5F5006F10D0B5F5805F0C
:1006F0000DD0B5F5005F0AD0B5F5804F07D0B5F540
:10070000004F04D0094840F2AD1100F05DF9012E10
:1007100004D906484FF4D77100F056F90EB125837D
:1007200070BD658370BD00BF00000240CC8D000825
:1007300070B505460C461646364B984224D003F554
:100740008063984220D003F5806398421CD003F563
:100750008063984218D003F58063984214D003F563
:100760008063984210D003F5806398420CD003F563
:100770008063984208D003F58063984204D02648ED
:100780004FF4077100F020F90F2C04D9224840F2F1
:100790001D2100F019F93EB3092E25D026B3012EF4
:1007A00022D0022E20D0032E1ED0042E1CD0052EC7
:1007B0001AD0092E18D0062E16D0092E14D0072EC6
:1007C00012D0082E10D0092E0ED00A2E0CD00B2ECF
:1007D0000AD00C2E08D00D2E06D00F2E04D00E48B5
:1007E00040F21E2100F0F0F804F007039B009E4049
:1007F000E108083155F821200F2000FA03F322EA1E
:10080000030345F8213055F821301E4345F8216097
:1008100070BD00BF00000240CC8D000838B5044612
:100820000D460E4B034003B920B90D4840F2494133
:1008300000F0CAF8012D04D9094840F24B4100F0FC
:10084000C3F825B1074B1A6B14431C6338BD054A26
:10085000136B23EA0404146338BD00BF00EE9B81D0
:10086000008E00080038024038B504460D4630F0CE
:10087000010300D120B90C4840F2844100F0A4F8F3
:10088000012D04D9084840F2854100F09DF825B1BA
:10089000064B9A6B14439C6338BD044A936B23EA5E
:1008A0000404946338BD00BF008E00080038024085
:1008B00038B504460D460E4B034003B920B90D4828
:1008C00040F2DE4100F080F8012D04D9094840F2E1
:1008D000DF4100F079F825B1074B5A6C14435C6492
:1008E00038BD054A536C23EA0404546438BD00BF84
:1008F000CCA0F8FF008E00080038024038B505464D
:100900000C46082803D90F48892100F05DF80F2C08
:1009100003D90C488A2100F057F804F00302920032
:100920000F209040A108084B023153F8214024EADF
:10093000000043F8210053F821009540054343F897
:10094000215038BD308E00080038014008B50248FB
:1009500000F060F800F004F8648E0008FEE700BFC5
:1009600008B5034800F056F80120FFF7F7FF00BF75
:10097000808E000808B50D4B1B6813B90C4A0B4B51
:100980001A600A4B1A68C31C23F003031344094975
:100990008B4206D903F0C0FD0C2303604FF0FF30FB
:1009A00008BD02490B60104608BD00BFCC080020FE
:1009B000E82E0020004C002001230360014B0B6057
:1009C000704700BF0400002008B503460A460348EC
:1009D000194600F005F8FFF7C3FF00BFD48E0008EA
:1009E0000FB400B583B004AB53F8042B019308484F
:1009F000802105F00DFD011E03DD054800F03EF8E5
:100A00000146084603B05DF804EB04B0704700BF30
:100A1000D408002010B5044604F01AFA0146204616
:100A200000F02CF80248012100F028F810BD00BFAA
:100A3000008F000810B400221AE04FF06043D3F892
:100A4000803E13F0010F06D04FF06043D3F8003E14
:100A500013F0010F01D110460DE04FF060431B6809
:100A6000002BFAD004784FF060431C700132013043
:100A70008A42E2D308465DF8044B704708B5FFF799
:100A8000D9FF08BD08B500F05BF808BD08B500F057
:100A900079F808BD82B0002301930093254A1368BA
:100AA00043F480331360234B1B6803F4003300933B
:100AB000019B01330193009B1BB9019BB3F5A06F10
:100AC000F1D11C4B1B6813F4003F02D001230093AB
:100AD00001E000230093009B012B29D1154B9A685C
:100AE0009A609A6842F400429A609A6842F4A0526E
:100AF0009A60114A5A601A6842F080721A600D4B6F
:100B00001B6813F0007FFAD040F203720B4B1A609F
:100B1000A3F580639A6822F003029A609A6842F013
:100B200002029A60034B9B6803F00C03082BF9D177
:100B300002B0704700380240193C4005003C0240BA
:100B400008B50D4B1A6842F001021A600021996045
:100B50001A6822F0847222F480321A60074A5A60BE
:100B60001A6822F480221A60D960FFF793FF4FF0D1
:100B70000062034B9A6008BD003802401030002428
:100B800000ED00E0234B9B6803F00C03042B07D01F
:100B9000082B09D0002B2DD11F4A204B1A602CE0C6
:100BA0001F4A1E4B1A6028E01A4B5A685B6803F014
:100BB0003F0312F4800F09D0194AB2FBF3F2154B30
:100BC0005B68C3F3881303FB02F208E0124AB2FB2E
:100BD000F3F3104A5168C1F3881101FB03F20D4B86
:100BE0005B68C3F3014301335B00B2FBF3F30B4AD1
:100BF000136002E0084A094B1A60064B9B68C3F376
:100C00000313084AD25CD2B204490B68D3400B608C
:100C1000704700BF003802400024F4001C00002090
:100C200000127A000C000020F8B500F00DFA07461B
:100C3000224B1E880A2E16D8214B1B889E4212D3A7
:100C4000204C342505FB0646708E00F0DFF91B4B67
:100C50001988CB1CF88803FB00F080B205FB01412A
:100C600000F0A2FAF8BD164B1B889E4201D23E3618
:100C7000B6B20B3EB6B200251DE0AA19124882FB9F
:100C800000011144D317C3EB6111C1EB41114900BD
:100C9000511A89B234240B4B04FB0134608E00F0EE
:100CA000B5F9EB1CF88803FB00F080B2214600F098
:100CB0007BFA0135EDB20B2DDFD9F8BDF815002018
:100CC000560900205C0900204308218470B50446C1
:100CD00000F0BAF93F4B1B78002B79D13E4B1B78C3
:100CE000012B0ED13D4B1A883D4B1A803D4B1A8883
:100CF0003D4B1A800023384A13703C4A13703C4A1B
:100D000013803C4B1A8881884FF4A07393FBF1F356
:100D10009A420CDA0A2C0AD0314B1B88501C3549F8
:100D20000880342101FB0322334B9C5470BD2E4BB1
:100D30001B882B490E88B3421BD33049097849B927
:100D400001339BB228490B803E2B12D10021264B48
:100D500019800EE00021294B19700AE0254B1988F3
:100D60004D1C1D80342303FB061320252249CD543E
:100D7000013281884FF4A07393FBF1F39342EDD8D5
:100D800034221D4B02FB06361D4B1B887386002246
:100D9000184B1A80FFF748FF114A138801339BB2A2
:100DA00013803E2B07D100220D4B1A8001230E4ADF
:100DB0001380124A13700A2C0AD0094B1A880D4965
:100DC0000B88581C0880342101FB02330A4AD45492
:100DD00070BD00BFF7150020FA150020580900204B
:100DE000F8150020F41500205609002054090020B1
:100DF00000160020FC1500205C090020F6150020DC
:100E0000FE1500204FF6FF720C4B1A8000230C4A8F
:100E100013800C4A13800C4A13800C4A13800C4A2E
:100E2000138001210B4A11700B4A13700B4A137087
:100E30000B4A13700B4A1380704700BFFE15002049
:100E4000FC15002056090020F8150020F41500209C
:100E500058090020F6150020FA150020F71500208B
:100E6000540900200016002008B5FFF7CBFF002032
:100E700000F00EF908BD00BF10B588B0034600248D
:100E800001E0013413465A1C1B78002BF9D11A2CAF
:100E900000D91A24002305E008AA1A44202102F8E8
:100EA0001C1C01331A2BF7D900220AE0C4F11B03E2
:100EB00002EB5303815C0DF1200E734403F81C1CFC
:100EC0000132A242F2D3002000F0E2F8104800F014
:100ED000B5F800F0B9F804464FF6FF7000F096F848
:100EE0001F2000F09FF8002000F044F9E08801A9DD
:100EF00000F05AF9E088400080B200F03BF9002091
:100F000000F090F8034800F099F808B010BD00BF59
:100F1000280000202000002010B5044603E040B265
:100F2000FFF7D4FE013420780028F8D1012010BD4D
:100F300030B587B004460D46234B53F820000121FD
:100F4000FFF76CFC4FF480400121FFF7B1FC002358
:100F50008DF80C308DF80F301C4B33F8143006A987
:100F600041F8103D1A4B53F82400FFF77DFA012D8C
:100F700028D1184B185D184B195DFFF7BFFC174BB4
:100F800033F81430049300238DF814301CB10C2373
:100F90008DF8153002E008238DF8153001258DF805
:100FA000165004A8FFF7E2F90D4B1B5D8DF80430D5
:100FB0000F238DF805308DF806308DF8075001A805
:100FC000FFF786F907B030BD04B3000818B3000876
:100FD0003800002024B3000800B3000810B3000854
:100FE00020B3000884B0019000230393019A064BBC
:100FF00003FB02F3039302E0039B013B0393039B78
:10100000002BF9D104B07047A086010082B0ADF882
:101010000600BDF806309BB2014A138002B070474B
:101020000816002082B0ADF80600BDF806309BB26D
:10103000014A138002B0704744000020014B186041
:10104000704700BF04160020014B1868704700BFAE
:10105000041600204FF0D04318805980704700BF1D
:1010600010B503460C4620201946FFF7F3FF212058
:101070002146FFF7EFFF10BD4FF0D043188058888E
:1010800080B2704722224FF0D0431A80704700BFD1
:1010900010B50446002040F23F11FFF7E1FFFFF7D3
:1010A000F1FF002303E04FF0D04254800133B3F549
:1010B000963FF8D310BD00BF4FF0D0435880704723
:1010C0002DE9F041074688461646FFF7C9FF00257F
:1010D00031E0FFF7D7FF002421E036F81510194B57
:1010E000A3FB0023DB08DB00802202FA03F3224685
:1010F0002341194201D10C2805D9114111F0010FEA
:1011000007D10C2805D9104B188880B2FFF7D4FFFF
:1011100004E00E4B188880B2FFF7CEFF01340C4B71
:101120001B689888A042D8D80137BFB238464146DC
:10113000FFF796FF0135064B1B68DB88AB42C8D82A
:10114000BDE8F081ABAAAAAA44000020081600203E
:101150000416002010B5203AD2B2054B1C68E38873
:1011600003FB02F2236803EB4202FFF7A9FF10BD65
:101170000416002038B5054640F23F1409E0284621
:1011800021462022FFF7E6FF064B1B689B88E41AE6
:10119000A4B2631C9BB2034A126892889342EEDAAF
:1011A00038BD00BF0416002070B506460D4640F25B
:1011B0003F1409E030462146FFF7CCFF074B1B6880
:1011C0009B88E41AA4B201352A78631C9BB222B131
:1011D0000249096889888B42ECDA70BD0416002048
:1011E00030B583B078200121FFF718FB4CF2337340
:1011F000009302238DF804308DF8053000258DF81A
:1012000006508DF80750424C20466946FFF72CF9EE
:10121000204629460C22FFF78BFA204601210C229A
:10122000FFF786FA204604210C22FFF781FA2046B8
:1012300005210C22FFF77CFA204608210C22FFF73B
:1012400077FA204609210C22FFF772FA20460A217C
:101250000C22FFF76DFA20460E210C22FFF768FAE8
:1012600020460F210C22FFF763FA4FF6807300939C
:1012700004F5806420466946FFF7F6F8204607210A
:101280000C22FFF755FA204608210C22FFF750FAEE
:10129000204609210C22FFF74BFA20460A210C2296
:1012A000FFF746FA20460B210C22FFF741FA2046B1
:1012B0000C210A46FFF73CFA20460D210C22FFF7CD
:1012C00037FA20460E210C22FFF732FA20460F2172
:1012D0000C22FFF72DFA0123009304F580642046C9
:1012E0006946FFF7C1F8204629460C22FFF720FA8D
:1012F0004FF48063009304F5806420466946FFF74D
:10130000B3F820460A210C22FFF712FA03B030BDD1
:10131000000C024010B596B001200146FFF7A4FA78
:101320000323009300230193092202920393049361
:1013300005930693042407940893099310220A92B4
:101340000B930C930D930E930F934FF480521092C6
:10135000119312931393CDF850D0CDF854D007A821
:1013600000F016FA2046012100F068FB16B010BD0F
:1013700010B582B000240194FFF732FFFFF7CAFFD7
:101380000520FFF72FFE2046FFF776FE0190019A19
:1013900049F220339A4240F0F880E5204FF40041B2
:1013A000FFF758FE20460121FFF754FE01204FF4BD
:1013B0008071FFF74FFE02204FF4E061FFF74AFE15
:1013C000032041F23001FFF745FE04202146FFF7DC
:1013D00041FE082040F20221FFF73CFE0920214691
:1013E000FFF738FE0A202146FFF734FE0C20214685
:1013F000FFF730FE0D202146FFF72CFE0F2021467F
:10140000FFF728FE10202146FFF724FE1120214679
:10141000FFF720FE12202146FFF71CFE1320214675
:10142000FFF718FE1420FFF7DDFD102041F2B07128
:10143000FFF710FE112040F23711FFF70BFE0520D9
:10144000FFF7D0FD122040F23911FFF703FE05200F
:10145000FFF7C8FD13204FF4E851FFF7FBFD2920EB
:101460001321FFF7F7FD0520FFF7BCFD20202146E3
:10147000FFF7F0FD21202146FFF7ECFD302007218A
:10148000FFF7E8FD31200721FFF7E4FD32200721B7
:10149000FFF7E0FD35200721FFF7DCFD36200721AF
:1014A000FFF7D8FD37204FF4E061FFF7D3FD382078
:1014B0004FF4E061FFF7CEFD39204FF4E061FFF714
:1014C000C9FD3C204FF4E061FFF7C4FD3D204FF41F
:1014D000F851FFF7BFFD50202146FFF7BBFD51201B
:1014E000EF21FFF7B7FD52202146FFF7B3FD532050
:1014F00040F23F11FFF7AEFD60204FF41C51FFF7A3
:10150000A9FD61200121FFF7A5FD6A202146FFF713
:10151000A1FD80202146FFF79DFD81202146FFF798
:1015200099FD82202146FFF795FD83202146FFF794
:1015300091FD84202146FFF78DFD85202146FFF790
:1015400089FD90201021FFF785FD92202146FFF7AD
:1015500081FD93200321FFF77DFD95204FF48871D5
:10156000FFF778FD97202146FFF774FD982021466C
:10157000FFF770FD032041F21801FFF76BFD072014
:1015800040F27311FFF766FDFAE0019A49F2253344
:101590009A4240F0F58000200121FFF75BFD012019
:1015A0004FF48071FFF756FD02204FF4E061FFF722
:1015B00051FD032041F21801FFF74CFD04200021EA
:1015C000FFF748FD082040F20221FFF743FD092004
:1015D0000021FFF73FFD0A200021FFF73BFD0C2013
:1015E0000021FFF737FD0D200021FFF733FD0F200D
:1015F0000021FFF72FFD10200021FFF72BFD112008
:101600000021FFF727FD12200021FFF723FD132003
:101610000021FFF71FFD1420FFF7E4FC102041F22A
:10162000B071FFF717FD112040F23711FFF712FDDF
:101630000520FFF7D7FC122040F23911FFF70AFD11
:101640000520FFF7CFFC13204FF4E851FFF702FD10
:1016500029201321FFF7FEFC0520FFF7C3FC202003
:101660000021FFF7F7FC21200021FFF7F3FC3020D9
:101670000721FFF7EFFC312040F20231FFF7EAFCCF
:10168000322040F20511FFF7E5FC352040F206213B
:10169000FFF7E0FC362040F60801FFF7DBFC3720BF
:1016A00040F20621FFF7D6FC382040F20451FFF744
:1016B000D1FC39200721FFF7CDFC3C2040F2051179
:1016C000FFF7C8FC3D2040F60801FFF7C3FC50209F
:1016D0000021FFF7BFFC5120EF21FFF7BBFC522098
:1016E0000021FFF7B7FC532040F23F11FFF7B2FC97
:1016F00060204FF42741FFF7ADFC61200121FFF787
:10170000A9FC6A200021FFF7A5FC80200021FFF73B
:10171000A1FC81200021FFF79DFC82200021FFF722
:1017200099FC83200021FFF795FC84200021FFF71E
:1017300091FC85200021FFF78DFC90201021FFF700
:1017400089FC92200021FFF785FC93200321FFF7FD
:1017500081FC95204FF48871FFF77CFC97200021D5
:10176000FFF778FC98200021FFF774FC032041F27A
:101770001801FFF76FFC072040F23311FFF76AFCF6
:101780000248FFF75BFC02B010BD00BF3000002034
:1017900010B5044603684BB1022B07D0042B05D0CB
:1017A000062B03D0A3489721FFF70EF963682BB1EE
:1017B000022B03D09F489821FFF706F9A3683BB19D
:1017C000042B05D0082B03D09A489921FFF7FCF889
:1017D000E3682BB1102B03D096489A21FFF7F4F859
:1017E000236933B1B3F5807F03D092489B21FFF783
:1017F000EBF8636933B1B3F5004F03D08D489C21FA
:10180000FFF7E2F8A36933B1B3F5007F03D089484D
:101810009D21FFF7D9F8E36933B1B3F5806F03D0A9
:1018200084489E21FFF7D0F8236A33B1B3F5006FE7
:1018300003D080489F21FFF7C7F8636A33B1B3F53F
:10184000805F03D07B48A021FFF7BEF8A36A33B1C5
:10185000B3F5005F03D07748A121FFF7B5F8E36A3D
:1018600033B1B3F5804F03D07248A221FFF7ACF833
:10187000236B33B1B3F5002F03D06E48A321FFF7DC
:10188000A3F8636B1B680F2B03D96A48A421FFF7E9
:101890009BF8636B5B680F2B03D96648A521FFF7A4
:1018A00093F8636B9B68013BFE2B03D96148A6212B
:1018B000FFF78AF8636BDB680F2B03D95D48A7211C
:1018C000FFF782F8636B1B690F2B03D95948A821D6
:1018D000FFF77AF8636B5B690F2B03D95548A92191
:1018E000FFF772F8636B9B6963B1B3F1805F09D056
:1018F000B3F1005F06D0B3F1405F03D04D48AA2199
:10190000FFF762F821686268A3681A43E3681A4324
:1019100023691A4363691A43A3691A43E3691A43A3
:10192000236A1A43636A1A43A36A1A43E36A1A438F
:10193000236B13434FF0204242F82130A368082B59
:1019400006D1216852F8213043F0400342F821309B
:1019500021680131626B1368506843EA0013906894
:1019600043EA0023D06843EA0043106943EA005386
:10197000506943EA0063926913434FF0204242F8F2
:101980002130E36AB3F5804F4DD1A36B1B680F2B59
:1019900003D92848CB21FFF717F8A36B5B680F2BFF
:1019A00003D92448CC21FFF70FF8A36B9B68013BB8
:1019B000FE2B03D91F48CD21FFF706F8A36B1B6947
:1019C0000F2B03D91B48CE21FEF7FEFFA36B5B69EB
:1019D0000F2B03D91748CF21FEF7F6FFA36B9B69A6
:1019E00063B1B3F1805F09D0B3F1005F06D0B3F10A
:1019F000405F03D00F48D021FEF7E6FF2168A26BBD
:101A00001368506843EA0013906843EA00231069A2
:101A100043EA0053506943EA006392691343064A5C
:101A200042F8213010BD22686FF07041024B43F83C
:101A3000221010BD28B30008040100A038B50D46DF
:101A4000044650B1022808D0042806D0062804D045
:101A50000F484FF48971FEF7B7FF012D04D90C48E8
:101A600040F21311FEF7B0FF45B14FF0204252F89B
:101A7000243043F0010342F8243038BD4FF02042B7
:101A800052F82410034B0B4042F8243038BD00BFFD
:101A900028B30008FEFF0F0010B50446034B036097
:101AA000006908B100F0CCFB204610BD58B3000817
:101AB00010B50446054B0360006908B100F0C0FB97
:101AC000204600F0BBFB204610BD00BF58B3000805
:101AD00010B50446143000F0D5F96066E06504F1F5
:101AE000380000F0CFF9A066206610BD2DE9F04364
:101AF00085B00446894690461F460D98144B2360D6
:101B000060600025A560E56000F09CFB2061012677
:101B100000960195029504F11400494642460223BD
:101B200000F07EF900960195029504F138003946DF
:101B30000C9A022300F074F984F86C5084F86D500C
:101B40002046FFF7C5FF204605B0BDE8F08300BF83
:101B500058B3000810B50446C36D4366036E836630
:101B600090F86C3013B10123C3650FE090F86D302D
:101B700043B190F86F3090F86E20134103F00103E9
:101B8000C36503E0143000F07DF9E06504F138002E
:101B900000F078F9206601281ED1E36DE3B9636E89
:101BA000012B19D10022414B1A70A068411C6368B7
:101BB000B1FBF3F203FB1213E268BFF35F8F9342B2
:101BC00005D0226902211154BFF35F8FA360002268
:101BD000374B1A60012010BD01281BD1E36D012B8A
:101BE00018D1636EB3B90022304B1A70A068411C43
:101BF0006368B1FBF3F203FB1213E268BFF35F8F7C
:101C0000934205D0226903211154BFF35F8FA36073
:101C1000012010BD012807D1A36E2BB9E26D254B21
:101C20001A700122214B1A7000283AD1A36E012BA1
:101C300039D11E4B1B7883B31D4A136801331360DF
:101C4000A068411C6368B1FBF3F203FB1213E26866
:101C5000BFF35F8F934206D0226916490978115469
:101C6000BFF35F8FA3600022104B1A7094F86C30A2
:101C70000BB184F86C2094F86E3083B1013BDBB279
:101C800084F86E3094F86F10194104F1140001F0DB
:101C9000010100F0EBF8012010BD002010BD012073
:101CA00010BD002010BD002010BD00BF1116002087
:101CB0000C1600201016002008B5012380F86C30A7
:101CC0001430002100F0D2F808BD00BF08B5012390
:101CD00080F86D30072380F86E3080F86F10143074
:101CE000D94000F0C3F808BD30B583B004460125E3
:101CF000036805FA03F02946FEF790FD636805FACC
:101D000003F30093237A8DF80530637A8DF804305D
:101D1000A37A8DF80630E37A8DF80730206800F555
:101D20008010803080026946FEF79EFB257303B069
:101D300030BD00BF00230373704700BF10B50446D9
:101D40009DF81000216062602372002363729DF889
:101D50000830A3729DF80C30E372207310B1204656
:101D6000FFF7C2FF204610BD10B50446037B5BB1F0
:101D7000006800F58010803063680121994080027E
:101D800089B2FEF707FC10BDFFF7AEFF206800F533
:101D900080108030636801219940800289B2FEF78B
:101DA000F9FB10BD10B504469DF81000216062607B
:101DB0002372012363729DF80830A3729DF80C30E2
:101DC000E372207310B12046FFF78EFF204610BD4E
:101DD00038B504460D46037B7BB1006800F58010E2
:101DE0008030800263680121994089B20DB10122DF
:101DF00000E00022FEF732FC38BDFFF775FF2068D7
:101E000000F580108030800263680121994089B21A
:101E10000DB1012200E00022FEF720FC38BD00BF1A
:101E20002DE9F04184B00446884617461E4601233A
:101E300000939DF83050019502930223FFF77EFF37
:101E40009DF8283000939DF82C30019300250295D1
:101E500004F1100041463A463346FFF7A3FF84F8E9
:101E60002050204604B0BDE8F08100BF38B50546DB
:101E70000C46FFF75FFF05F110002146FFF7A8FFB2
:101E800038BD00BF10B504461030FFF753FF2046A1
:101E9000FFF76AFF10BD00BF034B1B681BB1024A6E
:101EA0001368013B136070471416002030B583B0EF
:101EB00004460D46012813D14FF6FF7399420FD106
:101EC000022100914FF4805301930C4800221346E5
:101ED000FFF70CFE0A4B1B7823F06F03094A1370BF
:101EE00054B94FF6FF739D4206D1044B064A1A605F
:101EF000186908B100F0A4F903B030BD2016002025
:101F0000460000201B16002058B3000800B5C1B0E1
:101F1000034668464FF48071044A02F06FFE68463B
:101F2000FEF7FAFF41B05DF804FB00BF60B30008A4
:101F300008B5FFF71DFAFEF797FF0248FEF79CFF72
:101F400008BD00BF68B3000870B505460E461446CC
:101F5000012A02D90F48FEF7DFFF0F4B1B78072B32
:101F60000ED80BB900222A70591C0B4A1170C3F10C
:101F70000703DBB29C402B781C432C70002070BD03
:101F8000B4FA84F4640934700022034B1A700120FF
:101F900070BD00BF74B300089126002000B583B067
:101FA000014411F8012C3E4B1B78012B0CD013B1CE
:101FB000022B53D067E0022A6AD10122384B1A70F3
:101FC0000020384B187068E037483849FFF7BCFFED
:101FD00040BB344A13780133DBB21370344A1278B1
:101FE000934212D1304B1A78324B1B781340324A4D
:101FF0001278934206D13148FFF75EFE0122304B42
:102000001A7002E000222E4B1A70264B1B78082B08
:1020100040D12B4B1B78002B3ED02848FFF74CFEBD
:1020200000203AE0204B1B7813F0010F0CBF012376
:102030000023244A13701BB92048BB21FFF746FE3A
:102040001A4B1B7823B10222154B1A70002024E092
:102050000020144B1870144B18701EE0022A04D193
:1020600001220F4B1A70002017E0032A04D100222E
:102070000B4B1A70012010E013480DF10701FFF718
:1020800063FF002009E01148FEF746FF002004E04E
:10209000002002E0002000E0002003B05DF804FB17
:1020A000922600201A1600201D1600201916002066
:1020B00047000020460000201B16002020160020AC
:1020C0001C160020181600209026002098B3000847
:1020D00008B502200121FEF72BFF08BD2DE9F041D4
:1020E0008046002507242F4611E06EB218F806300E
:1020F000012B02D90948FEF70FFF18F8060063B25A
:1021000098403843C7B20135EDB2013CE4B214F057
:10211000800FEAD03846BDE8F08100BFC0B30008A8
:1021200051B3F8B50E46054600241FE028192B5D73
:10213000022B04D11148FEF7EFFE013416E0032B09
:1021400004D10F48FEF7E8FE01340FE0FFF7C6FFA9
:1021500004F10803EF5C0934FFF7D8FE1FB9094802
:10216000FEF7DAFE02E00848FEF7D6FEB442DDD301
:102170000648FEF7D1FEF8BD704700BFCCB300089B
:10218000D0B30008D4B30008DCB30008008F000807
:1021900070B50026002425461548FFF7DBFC0346F2
:1021A0000028F9D01249CA688968BFF35F8F8A4254
:1021B0000CD00F490869865C01324C68B2FBF4F020
:1021C00004FB1022BFF35F8FCA6000E0002313B945
:1021D0000848FEF7A1FE6C1C074846552146FFF74C
:1021E000DDFE0028D7D004482146FFF799FFD1E74C
:1021F00020160020E4B300089016002008B54FF424
:102200000040FEF71FF9FFF793FE08BD08B5FFF782
:102210008FFEFFF75DFFFFF7BBFF00BF08B5012092
:102220004FF6FF71FFF742FE08BD00BF08B5002062
:102230004FF6FF71FFF73AFE08BD00BF02F07AB912
:10224000FFF7FCBF08B500F04FFA08BD013101D01F
:1022500000F09EF800F02EF80378472B01D0002004
:10226000704743784E2BFAD18378552BF7D1C3783A
:10227000432BF4D10379432BF1D143792B2BEED1AE
:1022800083792B2BEBD1C07901288CBF0020012052
:10229000704700BF10B530B1044600F099F92046F0
:1022A000FFF7DAFF08B900F04FF954F8140C00F00A
:1022B00037F900BF2DE9F04F83B00446FFF7CCFF9C
:1022C00068B154F8185C204654F8147CD4F828807F
:1022D000266B646B00F07CF9284600F03FF920463D
:1022E00000F076F900F03EF900F072F900F02CF9F8
:1022F00000F06EF900F0D6FD036893F82720012A5C
:1023000033D003F178024FF00009CB46009226F05B
:10231000030603F1200AC3451BDA256805B12544ED
:102320005046294600226B4600F038F810BB2B6857
:1023300002AA42F8040DD3F810C02846114901231F
:10234000E047002818BF4FF001090BF1010B34449E
:10235000E1E7B9F1000F0AD0042000F089FA0A4B36
:1023600008490360094A00F00BFA1A68CBE73846BF
:1023700000F0D6F800F044FA00F070F900F06EF9C1
:1023800000F006F864B5000830B50008D52F000845
:102390001EB400F08DF81EBC01F0B8FEF0B5027856
:1023A00083B0472A0E461F461AD00023254C0193BE
:1023B000236820469B68984780B1019B02251B68D3
:1023C00001933368214630461C6901AA0123A047C6
:1023D00010B12846019B3B6003B0F0BD0125F0E73A
:1023E00043784E2BE1D18378552BDED1C378432B34
:1023F00019D0C378432BD8D10379432BD5D1437956
:102400002B2BD2D183792B2BCFD1C379012BCCD8D5
:1024100004D050F8204C58300190C9E750F8200CF7
:1024200050F8784CF8E70379462BE2D143794F2BEB
:10243000DFD18379522BDCD1C379002BD9D1019321
:10244000014CB5E71CB50008C4B4000810B504463B
:1024500000F02CFD2378A4F12002472B04D08368E0
:1024600023BB8260012010BD63784E2BF7D1A37887
:10247000552BF4D1E378432BF1D12379432BEED1C3
:1024800063792B2BEBD1A3792B2BE8D1E379012BAB
:10249000E5D854F8043C0133012B44F8043CE1D165
:1024A000836844F8083C8260012010BD00F04CF8BD
:1024B00008B500F0FBFC836883B393F82020472A1B
:1024C00004D00022826003F1200008BD93F821208F
:1024D0004E2AF6D193F82220552AF2D193F82320E0
:1024E000432AEED193F82420432AEAD193F82520F9
:1024F0002B2AE6D193F826202B2AE2D193F8272025
:10250000012ADED8DA69013ADA61002ADBD1996959
:10251000002281609A6103F1200008BD00F014F8E8
:1025200008B58047FEF71CFA00F052F8FEF718FADB
:102530000D46044600F092F8013501D0FFF728FF60
:102540002046FFF7B7FE00BF08B5034B1868BFF37E
:102550005F8FFFF7E5FF00BF4C00002008B5804704
:10256000FFF7F2FF08B5034B1868BFF35F8FFFF763
:10257000F5FF00BF48000020024B1868BFF35F8FD3
:10258000704700BF4C000020024B1868BFF35F8FFC
:10259000704700BF48000020004870471CB4000886
:1025A00010B50446024B036000F012FD204610BD3A
:1025B00000B4000810B50446044B036000F008FDA9
:1025C0002046FFF73BFE204610BD00BF00B40008C8
:1025D00038B5044600F06AFC217803684729A4F165
:1025E000200205D0002B31D11C460260204638BDA8
:1025F00061784E29F6D1A1785529F3D1E1784329A4
:10260000F0D121794329EDD161792B29EAD1A17942
:102610002B29E7D1E1790129E4D854F80C5C002D8D
:1026200011DB01354168934201F1FF3144F80C5C44
:1026300041601CBF44F8103C02602046646A01F00F
:1026400085F9204638BDC5F10105EBE7FFF77CFFB2
:10265000013101D0FFF79CFEFFF72CFE08B500F01A
:1026600021FC0246006800283DD090F82030472B1E
:1026700006D0002313602030BDE8084001F068B99F
:1026800090F821304E2BF4D190F82230552BF0D118
:1026900090F82330432BECD190F82430432BE8D131
:1026A00090F825302B2BE4D190F826302B2BE0D15D
:1026B00090F82730012BDCD84369002B05DB013B68
:1026C00008D05A1C0DD0436108BD0133FBD101690C
:1026D0001160F8E7036920301360BDE8084001F09D
:1026E00037B9FFF731FF08BD10B5002814BF044605
:1026F0000124204601F016FF40B900F017F830B170
:102700008047204601F00EFF0028F6D010BD0420BF
:1027100000F0AEF8024B03490360034A00F030F8C2
:1027200000B4000810B40008A1250008024B186886
:10273000BFF35F8F704700BF94260020012810B5BB
:102740001AD8BFF35F8FA1F1280353E8002F013A95
:1027500043E800200028F8D1BFF35F8F5AB951F841
:102760001C3C01F158040BB1204698472046BDE8B7
:10277000104000F0A9B810BD51F8140CFFF7D0FEBE
:10278000F8B504460F46164600F090FB4368012555
:102790002B44436044F8787C44F8746C44F8805CC3
:1027A000FFF7F2FE44F8700CFFF7E6FE13494322F0
:1027B0002B234FF0470C4FF04E0EA4F15805552730
:1027C000002644F86C0C04F858CC04F857EC44F894
:1027D000501C04F8552C04F8542C04F8533C04F80D
:1027E000523C04F8567C04F8516C284601F07CFCFD
:1027F0002846FFF7EDFEFFF7A7FE00BF3D270008C4
:1028000010B500F053FB42680368013242606BB1BF
:1028100093F82020472A0BD00022026003F1200405
:10282000204601F085FC2046FFF7D2FEFFF78CFE24
:1028300093F821204E2AEFD193F82220552AEBD18C
:1028400093F82320432AE7D193F82420432AE3D1A5
:1028500093F825202B2ADFD193F826202B2ADBD1D1
:1028600093F82720012AD7D85A6952425A61D5E7EE
:1028700038B500F18005284601F054FE044638B111
:1028800020460021802202F055F904F1800038BD75
:102890000B4AB5F5007F116807D80B46D80706D557
:1028A0000134042C4FEA5303F8D1FFF74DFE012306
:1028B000A34004481943116000EB4424E0E700BF43
:1028C00098260020A0260020094B984203D303F548
:1028D0000062904202D3803801F02CBE0549C01A34
:1028E000400A0B680122824023EA02030B60704712
:1028F000A02600209826002030B400252A4610F893
:10290000014B04F07F0393401D43230602F10702AD
:10291000F5D41F2A05D8630603D54FF0FF33934043
:102920001D430D6030BC7047F0B5502885B005469A
:1029300045D00F4600F00F010C293ED8DFE801F02A
:1029400007293907173D3D3D3D1F1B07170010465E
:1029500050F8044B44B105F07001102918BF3A46F5
:1029600014442A0648BF24681C6005B0F0BD104618
:1029700050F8084BEEE7104630F9024BEAE71046F4
:1029800003A901930092FFF7B7FF9DE80C00039C99
:10299000E0E700242646104610F801EB0EF07F0118
:1029A000B1401EF0800F44EA010406F10706F3D19E
:1029B000D0E7104630F8024BCCE7FDF7D1FFD01C32
:1029C00020F0030050F8044B1C6005B0F0BD00BFC0
:1029D000FF2815D008B500F07003202B12D00AD9BB
:1029E000402B14D0502B17D0302B07D1BDE8084016
:1029F000084601F089BD7BB1102B0DD0FDF7B0FF6B
:102A0000002070470846BDE8084001F081BD084637
:102A1000BDE8084001F068BD002008BDF8B50C46CF
:102A200015460746002842D001F05EFD2860267852
:102A30000134FF2E32D039463046FFF7C9FF224617
:102A400001462B1D3046FFF76FFF04462378601CBC
:102A5000FF2B2B7528D00024224610232B7510F84D
:102A6000011B01F07F039340090644EA030402F1CD
:102A70000702F4D40444EC600024224603780130B9
:102A80006B7510F8011B01F07F0393401C430B068C
:102A900002F10702F5D404442C61F8BD6860237884
:102AA000601CFF2B2B75D6D10023EB60E4E7BDE75C
:102AB0002DE9F04F00F0030393B00024012B0F46E3
:102AC0001546069400F0A4800ED3022B0AD1384696
:102AD000294601F0F5FC002800F0A180092013B080
:102AE000BDE8F08FFDF73CFF00F008005FFA80F8CA
:102AF000012412AB002143F82C7D00930C220B46DD
:102B0000284600F053FF284601F0F4FC81460028D7
:102B1000DDD00CAB1A46494628460393FFF77EFFEB
:102B2000294682469DF84400FFF752FF0BAE002174
:102B30000E900B460F220096284600F00FFF0B9BCD
:102B4000109A23F00103924548EA040803F1FF3488
:102B500039D29DF845B000215846FFF739FF52465B
:102B6000014609AB5846FFF7DFFE9DF845A08346B6
:102B700000215046FFF72CFF5A4601460AAB50464B
:102B8000FFF7D2FE9DF845A0834600215046FFF78F
:102B90001FFF5A46014633465046FFF7C5FE8246A0
:102BA000002001461AF801EB0EF07F038B401EF067
:102BB000800F40EA030001F10701F3D1099A0C9B51
:102BC00013449C421CD24FF0000A0126002418F046
:102BD000010F7BD0022E3FF47AAF0AAB00212846CA
:102BE00000930D220B46069D00F0B8FE0A9B7D6205
:102BF000BC62C7F82C90C7F830A03B6206206EE795
:102C00000A9A13449C4270D3109B5345A1D8DAE72B
:102C100000F0080000F0FF0828B1022469E708204E
:102C200013B0BDE8F08F0CAB0093039310464346FE
:102C300041460D223C6A00F091FE0C9B9C42ECD177
:102C400012AB43F82C7D00930C22434628464146A4
:102C500000F0ACFED7F830A0BB6AFA6ABAF1000FF8
:102C600039D01C4691460326002CC0F2C38012AB1B
:102C7000002143F8287D0A46009328460B4600F0C1
:102C800095FE12AB43F8244D0021009301220B4620
:102C9000284600F08BFE0AAC00210B4600940F2260
:102CA000284600F05BFE0A9B002103F0010300941C
:102CB00028464AEA03040F220B460A9400F076FEE7
:102CC000022E5FD0072013B0BDE8F08F18F0080F78
:102CD00004D1012EC8D13846FFF7DCFA012E00F0EE
:102CE000DF80002CC3DAFFF73DFC0B9B002B3FF489
:102CF000EEAE0D9A03EB020A002800F0B880109B9C
:102D000001381844BAF1000F3FF4E1AE002800F09A
:102D1000B28018F00803059300F0AF8047224E23DD
:102D200055213A707B7043224623B970FA704F21C7
:102D300052223B7100237971BA71FB7100239B46CB
:102D4000049508A9FFF7D8FD09A90446FFF7D4FDAB
:102D5000089B002B31D033DD9DF84400FF286BD059
:102D600000F00702042A3FF6BDAE01A151F822F09F
:102D7000B52D0008E52A0008AF2D0008B52D000884
:102D80008F2D00083846FFF761FB0720A7E6DB0020
:102D90005B420F9A0E991A440AABFFF7C5FD0A99D8
:102DA00029B3EFB9099B002B70D0E018C9E75B008D
:102DB0005B42EEE79B005B42EBE74FF0010BF1E774
:102DC00017B1059A002A39D05A1C0F99C2EB8272AA
:102DD00051F82220002AE5D1049D1C460326F6E680
:102DE0003846002206ABFFF7D9FA0028DAD0049D56
:102DF000089BF2E7039A49462846FFF70FFE29464B
:102E00009DF84400FFF7E4FDA20082F00302D243E4
:102E10000F990E908B5801EB020E33B172460023CE
:102E200052F8041F01330029FAD10422BB62F86270
:102E3000C7F834E03A631AE70023AAE70F985A1C50
:102E4000C2EB827250F8221000EB8205069A0B92B8
:102E50000029C1D02944384600223346FFF79EFAA4
:102E600000289FD155F8041F0029F3D1BFE7BAF11C
:102E7000000F3FF42CAE0226A8E6FB79012B0CBF15
:102E800057F8203C07F15803069357E75A46049D2C
:102E9000002A3FF41CAE1C46022698E6FFF798FB7A
:102EA000FFF752FB00487047A02E002000487047F3
:102EB000A02E002010B50446024B036000F0D4F8A9
:102EC000204610BD48B4000810B50446044B03600A
:102ED00000F0CAF82046FFF7B1F9204610BD00BF48
:102EE00048B4000870B582B0069C0D469442064670
:102EF00009D0B0682946056806942C6AA44602B039
:102F0000BDE87040604719460192009300F074F8E4
:102F1000009B019A0028ECD0062002B070BD00BFD3
:102F20002DE9F04F0C4681B019461F469146834665
:102F30000A9EDDF82CA0DDF830800D9D00F05CF8D5
:102F400070B1002C2E6085F804901DDB3444A04540
:102F50000CBF06240124AC71002001B0BDE8F08F45
:102F6000464516D0DBF80800214604680A96CDF8DD
:102F70002CA0CDF830800D95E4694A463B46A44626
:102F800001B0BDE8F04F60470234E5D10123AB71D9
:102F9000E2E75846514600F02FF80028E2D085F8C5
:102FA0000590D9E72DE9F04107460E4615461C4627
:102FB00000F072F808B1BDE8F081B86831460668E3
:102FC0002346B4692A46A446BDE8F041604700BFE5
:102FD000704700BF704700BF0048704708B5000841
:102FE00010B50446FFF72AF9204610BD704700BF10
:102FF0000020704700207047814211D008B540681A
:1030000003782A2B0AD049680B782A2B08BF013194
:1030100001F040FEB0FA80F0400908BD002008BD74
:103020000120704770B5066884B00024102315464F
:10303000029312686B46B66900948DF804400394BD
:10304000B0479DF8043003F00603062B11BF20465D
:10305000009B01202B6004B070BD00BF009890421F
:103060000CBF06200120704710B50446024B0360D8
:10307000FFF7BCFF204610BD90B5000810B5044610
:10308000044B0360FFF7B2FF2046FFF7D7F8204656
:1030900010BD00BF90B5000838B515461C46FFF7B7
:1030A000ABFF20B1082206232560E260237138BD02
:1030B0002DE9F04116461C4607460D46FFF79CFFDA
:1030C00008B9032C01D9BDE8F0812B683946324696
:1030D0002846BDE8F0415B69184700BF70B582B073
:1030E000069C089916468C4205460CD0284619467F
:1030F000FFF782FF20B1099A0123146016719371C2
:10310000002002B070BD07990193FFF775FF019B86
:103110000028EBD0099B5E71F2E700BF81F000410F
:1031200002E000BF83F0004330B54FEA41044FEAAC
:10313000430594EA050F08BF90EA020F1FBF54EA47
:10314000000C55EA020C7FEA645C7FEA655C00F0E3
:10315000E2804FEA5454D4EB5555B8BF6D420CDDB4
:103160002C4480EA020281EA030382EA000083EA37
:10317000010180EA020281EA0303362D88BF30BDD7
:1031800011F0004F4FEA01314FF4801C4CEA11312D
:1031900002D0404261EB410113F0004F4FEA03338C
:1031A0004CEA133302D0524263EB430394EA050F17
:1031B00000F0A780A4F10104D5F1200E0DDB02FA86
:1031C0000EFC22FA05F2801841F1000103FA0EF21A
:1031D000801843FA05F359410EE0A5F120050EF1E0
:1031E000200E012A03FA0EFC28BF4CF0020C43FA11
:1031F00005F3C01851EBE37101F0004507D54FF01E
:10320000000EDCF1000C7EEB00006EEB0101B1F56D
:10321000801F1BD3B1F5001F0CD349085FEA3000B3
:103220004FEA3C0C04F101044FEA445212F5800FBE
:1032300080F09A80BCF1004F08BF5FEA500C50F15B
:10324000000041EB045141EA050130BD5FEA4C0C3E
:10325000404141EB010111F4801FA4F10104E9D1C7
:1032600091F0000F04BF01460020B1FA81F308BFBE
:103270002033A3F10B03B3F120020CDA0C3208DD8A
:1032800002F1140CC2F10C0201FA0CF021FA02F165
:103290000CE002F11402D8BFC2F1200C01FA02F1D5
:1032A00020FA0CFCDCBF41EA0C019040E41AA2BFFA
:1032B00001EB0451294330BD6FEA04041F3C1CDAC2
:1032C0000C340EDC04F11404C4F1200220FA04F0E2
:1032D00001FA02F340EA030021FA04F345EA03018C
:1032E00030BDC4F10C04C4F1200220FA02F001FA4E
:1032F00004F340EA0300294630BD21FA04F02946D0
:1033000030BD94F0000F83F4801306BF81F4801168
:103310000134013D4EE77FEA645C18BF7FEA655CDB
:1033200029D094EA050F08BF90EA020F05D054EAAD
:10333000000C04BF1946104630BD91EA030F1EBFB2
:103340000021002030BD5FEA545C05D140004941B6
:1033500028BF41F0004130BD14F580043CBF01F5A9
:10336000801130BD01F0004545F0FE4141F470018F
:103370004FF0000030BD7FEA645C1ABF194610466A
:103380007FEA655C1CBF0B46024650EA013406BF6B
:1033900052EA033591EA030F41F4002130BD00BF2A
:1033A00090F0000F04BF0021704730B54FF48064E7
:1033B00004F132044FF000054FF0000150E700BF68
:1033C00090F0000F04BF0021704730B54FF48064C7
:1033D00004F1320410F0004548BF40424FF00001B4
:1033E0003EE700BF42004FEAE2014FEA31014FEAF7
:1033F00002701FBF12F07F4393F07F4F81F0605146
:10340000704792F0000F14BF93F07F4F704730B5B4
:103410004FF4607401F0004521F0004120E700BF47
:1034200050EA010208BF704730B54FF000050AE0CE
:1034300050EA010208BF704730B511F0004502D5CF
:10344000404261EB41014FF4806404F132045FEAD1
:10345000915C3FF4DCAE4FF003025FEADC0C18BF76
:1034600003325FEADC0C18BF033202EBDC02C2F16C
:10347000200300FA03FC20FA02F001FA03FE40EAFE
:103480000E0021FA02F11444C1E600BF4FF0FF3CE8
:1034900006E000BF4FF0010C02E000BF4FF0010C4E
:1034A0004DF804CD4FEA410C7FEA6C5C4FEA430CC7
:1034B00018BF7FEA6C5C1BD001B050EA410C0CBF16
:1034C00052EA430C91EA030F02BF90EA020F002078
:1034D000704710F1000F91EA030F58BF994208BFDF
:1034E00090422CBFD8176FEAE37040F0010070479C
:1034F0004FEA410C7FEA6C5C02D150EA013C07D1F3
:103500004FEA430C7FEA6C5CD6D152EA033CD3D03D
:103510005DF8040B704700BF8446104662468C4637
:103520001946634600E000BF01B5FFF7B7FF00286A
:1035300048BF10F1000F01BD4DF808EDFFF7F4FF93
:103540000CBF012000205DF808FB00BF4DF808ED1E
:10355000FFF7EAFF34BF012000205DF808FB00BF41
:103560004DF808EDFFF7E0FF94BF012000205DF863
:1035700008FB00BF4DF808EDFFF7CEFF94BF012018
:1035800000205DF808FB00BF4DF808EDFFF7C4FF11
:1035900034BF012000205DF808FB00BF03685A001B
:1035A0004CBF43F0004323F000431844704700BF72
:1035B0002DE9F04F83B099B34B1E17460546984648
:1035C0000193002606EB080404EBD47464104FEA60
:1035D000C40A05EB0A0B5846FFF7E0FF019B814642
:1035E000A3420AF1080028440ED0FFF7D7FFB945DF
:1035F00000F1FF3004D9B4420CD004F1FF38E1E708
:10360000B84203D2661CDDE7B945F4D8584603B08A
:10361000BDE8F08F4FF0000B584603B0BDE8F08FC7
:103620008B46584603B0BDE8F08F00BF012807D095
:10363000022807D0044B00280CBF18460020704712
:103640000248704702487047413D0008453D000868
:10365000493D000830B5254B83B004468D1E7BB331
:10366000284601A9AFF3008020B301992A46FFF74D
:103670009FFF0546F0B1FFF791FF6B68A064012B37
:1036800012D0002B05F1040021DBFFF787FF002398
:10369000E06423650368002B1DDBFFF77FFF002339
:1036A0002061184603B030BD00232361052318466E
:1036B00003B030BD002323610923184603B030BD99
:1036C0000B490C4B0846591AC9100191CEE701234A
:1036D000E0642365DEE7C3F30360FFF7A7FF00287C
:1036E00020610CBF09230023DBE700BF00000000BE
:1036F0009CB8000874BA0008036810B5DA070446DD
:1037000006D49B0700F1480009D500F085FC23682A
:10371000590709D51A070ED5DB0613D510BD00F0E1
:1037200073FC23685907F5D404F1D00000F07CFC49
:1037300023681A07F0D404F5A87000F07DFC236814
:10374000DB06EBD404F5E870BDE8104000F0B8BC2F
:1037500003680BB11844704718467047092070473A
:10376000704700BF70B504460D4608E02A6C236917
:103770006261012021462A469847082808D1204640
:10378000296CFFF767FF06460028EFD0FDF7E8F841
:103790000728FBD13046296CFFF7E2FF281D00F017
:1037A00027FC00BF2DE9F0470646ADF5727D03AD5D
:1037B0000C1D17460FCC0FC50FCC0FC50FCC0FC576
:1037C00094E80F0002AC4FF0000ED6F80C80D6F84B
:1037D000189085E80F003046216CC4F800E0FFF730
:1037E00039FF0546002F0CBF09270A277DB1A36BBF
:1037F00047F010018DE81002012063643246334621
:10380000C04778BB28460DF5727DBDE8F087236C74
:10381000214673614FF4F0727AA801F015F933690B
:1038200031467AAA38469847889B82468DE810022E
:1038300039466364012032463346C04790B920467A
:103840007AA94FF4F07201F0FFF8BAF1080F06D12F
:103850003046216CFFF7FEFE09270546C6E7BAF1A0
:10386000070F04D009200DF5727DBDE8F0872846CA
:10387000216CFFF775FF03A800F0BAFB406C70479E
:10388000F0B5CB6BF9B00B640E1D01AD0F460446CD
:103890000FCE0FC50FCE0FC50FCE0FC596E80F0088
:1038A0004FF0FF3685E80F00009606E023692146B9
:1038B0006A4698470828054608D120461099FFF720
:1038C000C9FE0028F2D0092079B0F0BD6846FFF7A4
:1038D00013FF062DF7D120463946FFF743FF00BFFF
:1038E00030B4DD6BC160826119461D64002230BCBA
:1038F00058E700BF70B54369C66804460D460B64BF
:1039000026B10122FFF74EFFFDF72AF80369214691
:1039100002202A469847072807D0082803D12046C6
:103920002946FFF71FFFFDF71BF83046296CFFF70C
:1039300017FF281D00F05CFBC26832B110B4CC6BDD
:1039400000220C645DF8044B2CE799E7704700BF38
:10395000836813B1014601201847704700B5042958
:1039600007D8DFE801F00309060909000BB90F2A9F
:1039700005D902205DF804FB01205DF804FB00EB93
:10398000820252681846019B1A605DF804FB00BF72
:1039900000B585B00A4603AB002100930B46FFF744
:1039A000DDFF039805B05DF804FB00BF00B50429F6
:1039B00007D8DFE801F00309060909000BB90F2A4F
:1039C00005D902205DF804FB01205DF804FB019994
:1039D00000EB82020968184651605DF804FB00BFE5
:1039E00010B50C4684B004AB43F8042D00210093BD
:1039F00022460B46FFF7DAFF04B010BDF0B5D36BDB
:103A0000ADF50F7D1364151D17AC07460E460FCD9F
:103A10000FC40FCD0FC40FCD0FC495E80F004FF0AA
:103A2000FF3584E80F00169511E016A86A46FFF7E7
:103A3000D7FF16A83146B84780B9049B08206946CD
:103A400016AA98470528044609D0092806D02699C1
:103A50006846FFF7FFFD0C210028E6D0092416A8D0
:103A6000FFF74AFE20460DF50F7DF0BD2DE9F04F22
:103A7000CC6C904622688BB004340D4607920894B3
:103A800000F003091E46002B64D1120203230792A3
:103A90008DF825608DF824302B6DB9F1020F08BF29
:103AA000AC6B13F0010343D100F00800C2B20392E3
:103AB00001932768002F3DD0022E47D02788B4F805
:103AC00002A00434AB6C2AF0010B40460F219B444A
:103AD000FFF75EFF834537D827F001039B44584525
:103AE0002CBF002001200AF0010A07F0010747EA75
:103AF0004A0ABAF1010F43D03AD3BAF1020F1FD1EB
:103B0000236823F000420292B9F1000F7BD138B153
:103B1000039A002A00F08380029A002A00F0A6800F
:103B2000002B7ADB029B03F1010A04EB8A04C0E755
:103B300000230193022E40DDFFF710FE002842D043
:103B400009200BB0BDE8F08F0020CCE7D4F804A02A
:103B50000834B7E7022B9FDC130CDFB212040221FA
:103B60008DF8253004EB870407928DF8241093E735
:103B7000B9F1000F02D0002840F0AD80043498E77E
:103B8000B9F1000F26D1B0B194E80C00D70F9A1C00
:103B9000D6D005F158020133069200F09280201D24
:103BA000FFF7D6FD3A46014606AB2846FEF7F6FB80
:103BB000002840F0B58008347BE7404607A900F0B4
:103BC00019FB0028BCD1019B002B59D108200BB058
:103BD000BDE8F08F40460D212F6AFFF7D9FE8742DE
:103BE000E9D1AB6A9C42E6D12046FFF7D7FC0F2112
:103BF00002464046FFF7F4FE40462A460021FFF702
:103C0000EFFE07209DE740460D212F6AFFF7C0FE1B
:103C1000874245D02368002B84DA043482E7029B74
:103C200023B305F158030596039F04F1040ADDF858
:103C300008B0CDF810901E4602E0D9454F4615D089
:103C400050460696FFF784FD0022014606AB284643
:103C5000FEF7A4FB07F101090AF1040A0028ECD0E1
:103C6000029BDDF810909F42059ED3D140460D2166
:103C7000FFF78EFE069B2862AC626B62062060E74F
:103C80000F214046FFF784FE0E2102464046FFF713
:103C9000A7FE40460F21294AFFF7A2FE072050E762
:103CA000AB6A9C42B6D1042202990027A318A962EC
:103CB000EF622A636B632368BB421FDB012301931E
:103CC00030E740460D21FFF763FE2862069B6B62DA
:103CD000AC62062035E72046FFF760FC0434064658
:103CE000AC632846FEF7B2FB00283FF429AF4046FC
:103CF00032460F21FFF774FE072022E70846013005
:103D000004EB8000FFF74AFC0F2102464046FFF714
:103D100067FE404639462A46FFF762FE072010E755
:103D200007460D214046FFF733FE022F2862CDD112
:103D30002B46069A43F82C2F6B62C9E7B522000880
:103D4000002393E6012391E602238FE6F0B50546B2
:103D5000C5B004290CD8DFE801F056030B300E0083
:103D6000012B4FEA124496B265D0052B00F08380F8
:103D7000022045B0F0BD002BFAD1102AF8D82B68EC
:103D8000DC0600F1E98022AE3046019200F0A2F993
:103D9000A86B019A0023012404FA03F1114203D015
:103DA0000168043046F823100133042BF4D1A863D2
:103DB000304600F085F90020DBE7032BD8D1140C46
:103DC00097B23B19102BD3D82B681E0700F1E48063
:103DD00022AE30467F0000F051F906EBC4027B1E94
:103DE000AC6B57B12146043A51F8040B013B42F841
:103DF000040F581CF8D104EB87043046AC6300F084
:103E00001BF90020B5E7002BB2D1AC6B97B2281D8F
:103E1000012606FA03F1394203F1010302D02168B9
:103E200004340160102B00F10400F2D112F40050B0
:103E30001FD1AC639DE73219102A99D80F2C97D85F
:103E400029680027C80754D422A8019300F0E0F89D
:103E5000019B19E008463746012B00F097800F2C94
:103E6000A86302D822A800F0D7F817B102A800F082
:103E7000DBF800207DE73719202F3FF679AF0F2CB4
:103E800030D93746002E44D1A96B3246002EE1D0FE
:103E900000278E4644A84FEA420C00EBC4000CF108
:103EA000FF328C385EF8046B013A40F8046F561C00
:103EB000F8D101EB8C00002FCED02246102C44A963
:103EC00038BF102201EBC202A2F5C472014678008D
:103ED000043A01EB800051F8046B814242F8046F10
:103EE000F9D1B9E7102F41D92A68103FD007114600
:103EF00010D521F00102052B2A60019328465BD0E2
:103F000021F0030140F8481B00F082F8019B002FCC
:103F10004AD02A6851075BD4012B63D00F2C04D8F8
:103F200022A8019300F07CF8019B002FACD002A8DE
:103F3000019300F07DF8019BC4F11002002AA96BE7
:103F4000A7DC2246102C44A838BF102200EBC20286
:103F5000A2F5C4727800BBE723F010032B6005F5CF
:103F6000E870019200F0B6F8019A0CE72968C807DA
:103F70001DD5284621F0010242F0020240F8482BEC
:103F80000193002700F04CF8019BC9E70430A863B7
:103F900022A800F039F86CE723F008032B6005F540
:103FA000A87000F06BF813E7012B3FF44DAF0F2C16
:103FB00098BF0027B4D967E742F0020240F8482BC7
:103FC00000F02EF8019B002FAAD02A685107A5D532
:103FD000284622F0040240F8D02B019300F028F884
:103FE000019B99E722A8019300F012F8019BA3E737
:103FF00000F1340191E838009C46A6464CF8045D77
:1040000090E8FF0FE54600BD90EC210B704700BF24
:1040100080EC210B704700BF90EC200B704700BF75
:1040200080EC200B704700BFD0EC200B704700BF26
:10403000C0EC200B704700BFF0EC0201F0EC021165
:10404000F0EC0221F0EC0231F0EC0241F0EC025114
:10405000F0EC0261F0EC0271F0EC0281F0EC029104
:10406000F0EC02A1F0EC02B1F0EC02C1F0EC02D1F4
:10407000F0EC02E1F0EC02F1704700BFE0EC02016D
:10408000E0EC0211E0EC0221E0EC0231E0EC024154
:10409000E0EC0251E0EC0261E0EC0271E0EC028144
:1040A000E0EC0291E0EC02A1E0EC02B1E0EC02C134
:1040B000E0EC02D1E0EC02E1E0EC02F1704700BF7D
:1040C000B0FC0181B0FC0191B0FC01A1B0FC01B1D8
:1040D000704700BFA0FC0181A0FC0191A0FC01A1E0
:1040E000A0FC01B1704700BFEC4600B52DE90050BF
:1040F0002DE9FF1F4FF000032DE90C0001A9FFF788
:10410000BFFBDDF840E012B0704700BFEC4600B5E1
:104110002DE900502DE9FF1F4FF000032DE90C00A1
:1041200001A9FFF7E7FBDDF840E012B0704700BFE0
:10413000EC4600B52DE900502DE9FF1F4FF00003BC
:104140002DE90C0001A9FFF7F7FBDDF840E012B004
:10415000704700BFEC4600B52DE900502DE9FF1F68
:104160004FF000032DE90C0001ABFFF7B9FBDDF8C0
:1041700040E012B0704700BFEC4600B52DE900509A
:104180002DE9FF1F4FF000032DE90C0001AAFFF7F6
:1041900035FCDDF840E012B0704700BF037A1BB970
:1041A000437A43B9B02070475A1E036802721A025C
:1041B0000260180E70474268013B10B443721368E6
:1041C0000321141D01721A02446002605DF8044B61
:1041D000180E704700B585B003AB002100930C2288
:1041E0000B46FFF7BBFB039805B05DF804FB00BF6F
:1041F000F0E700BF2DE9F04306460D4685B04FF0CD
:1042000000082846FFF7CAFFB028044600F0B58032
:1042100020F07F0111F0FF0120D000F0F003802B8F
:104220007AD0902B36D0A02B49D0B02B5CD0C02BAD
:1042300000F0898000F0F803D02B0BD100F00702CA
:10424000013242F40022304601210523FFF77EFDB2
:104250000028D6D0092005B0BDE8F0830DF10C0987
:104260000B468700CDF8009030460D22FFF776FB15
:10427000FFB2039B043760064FF000014CBFDF1B09
:10428000FF18CDF800900B4630460D220397FFF73C
:104290008DFBB6E700F00D030D2BDBD003AF002143
:1042A00000F00F020B4600973046FFF757FB002146
:1042B00000970B4630460D22FFF778FBA1E7C3437A
:1042C0004FF47F6203F007031A41010702F47F6293
:1042D0004FF0000148BF42F480420B463046FFF7E2
:1042E00035FD0028B6D18CE7B1284CD0B2285DD07E
:1042F000B32800F08A8000F0FC03B42BAAD000F0B1
:1043000007020132012142F400220B463046FFF73A
:104310001DFD00289ED174E72846FFF73FFF2402C9
:104320002043B0F5004F95D004010021A2B20B4606
:104330003046FFF70BFD00288CD114F4004F18BF56
:104340004FF001085DE7C62872D0C7287AD000F088
:10435000F803C02B00F08980C82800F0A580C92888
:104360007FF478AF2846FFF719FF00F00F02013203
:1043700000F0F00042EA003265E7B8F1000F00F00B
:104380008280002067E72846FFF708FF02460028E2
:104390003FF460AF10F0F0017FF45CAF30460B46A5
:1043A000FFF7D4FC00287FF455AF2AE700210DF178
:1043B0000C090D220B46CDF800903046FFF7CEFADF
:1043C0002846FFF7EBFE02064FF002040CD5039BD4
:1043D00000F07F00A040034428460393FFF7DEFE71
:1043E000030604F10704F2D4039B00F07F00A04011
:1043F00003F5017300211C18CDF800900B463046E0
:104400000D220394FFF7D2FAFBE62846FFF7C6FE1B
:1044100000F00F02013200F0F000012142EA003208
:104420000B463046FFF792FC00287FF413AFE8E616
:104430002846FFF7B3FE00F00F02013200F0F00053
:104440000321EBE72846FFF7A9FE024600283FF4C8
:1044500001AF10F0F0037FF4FDAE30460421FFF70A
:1044600075FC00287FF4F6AECBE600F00F020132B7
:10447000032142F420220B463046FFF767FC002858
:104480007FF4E8AEBDE603AC41460E2243460094FD
:104490003046FFF763FA0094304641460F22434608
:1044A000FFF784FA4046D6E62846FFF777FE00F08D
:1044B000F00200F00F031032013343EA0232C2E689
:1044C00010B5C36C84B003205A688DF80C00DC79F9
:1044D00012020833084601A901928DF80D4002939B
:1044E000FFF788FE04B010BD08B5FFF781FE806CB1
:1044F00008BD00BF08B5FFF77BFEC36CD87903EB9E
:104500008000083008BD00BF08B5FCF729FA00BFDD
:1045100008B5FCF725FA00BF014B1868704700BFCB
:1045200078040020024B0146186800F00BB800BF69
:1045300078040020024B0146186802F0B3BF00BFA8
:10454000780400202DE9F04F01F10B05162D83B002
:10455000064627D935F0070500F1B680A94200F2DA
:10456000B38000F035FBB5F5FC7F22D2BC4FE808E4
:1045700007EBC003DC689C4200F0BD816368E16822
:1045800023F0030323445A68A56842F00102E9605E
:1045900030468D605A6000F01DFB0834204603B0A1
:1045A000BDE8F08F102900F28F8000F011FB10257C
:1045B000DCE7680A00F08F80042800F24781A80930
:1045C00038304100A64F07EB8101CC68A14206D1EB
:1045D0000CE0002A80F28280E468A14206D0636881
:1045E00023F003035A1B0F2AF3DD013801309C49E5
:1045F0003C6901F1080E744500F07281636823F094
:1046000003035A1B0F2A00F35881002AC1F814E053
:10461000C1F810E066DAB3F5007F80F02D81DB0889
:1046200001EBC3084FEAA30C4A68012303FA0CF319
:10463000D8F808C01343C4F808C0C4F80C804B6015
:10464000C8F80840CCF80C408210012494409C42E9
:1046500055D8234206D120F003006400234200F124
:104660000400FAD007EBC008C4468146DCF80C30E1
:104670009C4507D136E1002980F24681DB689C45E4
:1046800000F030815A6822F00302511B0F29F2DD3D
:104690001C46DA6854F808CF45F0010941F00108DA
:1046A0001D44C3F804903046CCF80C20C2F808C072
:1046B0007D613D61C5F80CE0C5F808E0C5F80480EF
:1046C000695000F087FA69E7002420460C23336024
:1046D00003B0BDE8F08F7E213F2073E723445A6882
:1046E000E16851E723445A68304642F001025A60BB
:1046F000083400F06FFA204603B0BDE8F08FBC68C4
:10470000636823F00308454504D8C5EB08030F2B65
:1047100000F38C80534BDFF85CA11A68DAF80030A4
:104720002A44013304EB080B00F0518102F580525A
:104730000F3222F47F6222F00F02114630460192BE
:1047400000F04AFAB0F1FF3F8146019A00F0F6808E
:10475000834500F2F080444BCB4519681144196041
:1047600000F03E81DAF80000DFF808E101301BBFFD
:10477000CBEB090B5944CEF80090196019F00701F2
:1047800000F00881C1F10800C1F580518144083171
:104790004A44C2F30B02C2EB010A51463046019370
:1047A00000F01AFA431C019B00F02881C9EB0002BB
:1047B000524442F001021968BC425144C7F80890C3
:1047C0001960C9F80420DFF8A0A016D0B8F10F0FC7
:1047D00040F2E3806268A8F10C0323F0070302F0C3
:1047E0000102E0184FF0050E1A430F2B6260C0F86B
:1047F00004E0C0F808E000F205811C4BBC681A68B0
:10480000914288BF19601A4B1A689142626888BF4A
:10481000196022F003029542A2EB050301D80F2B89
:1048200004DC304600F0D6F90024B7E645F001027A
:1048300043F00103254462603046BD6008346B607C
:1048400000F0C8F9204603B0BDE8F08F14286AD9FB
:10485000542800F29880280B6E304100B2E600BF69
:104860007C040020B42E0020B82E0020B02E0020A2
:10487000AC2E0020880800205A0A042A56D9142A8F
:1048800000F2A7805B324FEA420C07EB8C0CDCF89D
:104890000810DFF8B081614500F085804A6822F099
:1048A0000302934202D289688C45F7D1CA687B68BB
:1048B000E260A1609460CC60C6E645F0010742F07A
:1048C00001032544676030464D610D61C5F80CE079
:1048D000C5F808E06B60AA50083400F07BF95DE68B
:1048E0004B68B1E609F1010919F0030F0CF1080C4E
:1048F0007FF4BCAE2BE004F108036469A34208BF57
:1049000002303FF474AE39E61C461A445168DB6845
:1049100054F8085F41F0010151603046EB609D6042
:1049200000F058F93AE65B3041004BE69A0938321C
:104930004FEA420CA9E7BC423FF40DAFBC68626885
:1049400022F0030267E7D8F80080984577D110F08D
:10495000030FA8F1080300F1FF30F4D17B6823EACC
:1049600004037B6064009C423FF6C9AE002C3FF418
:10497000C6AE234248467FF475AE6400234200F180
:104980000400FAD06EE6B0F5AA7F18D8E80B7730AD
:10499000410017E64FF48051FAE60123C9F80430CC
:1049A0004C46002237E7D8F8043092104FF0010C43
:1049B0000CFA02F21343C8F804300A4678E740F2D2
:1049C0005453984217D8A80C7C304100FAE51032B5
:1049D000B3E6542A1ED81A0B6E324FEA420C54E743
:1049E000CBF30B0000287FF4BDAE4244BB6842F01D
:1049F00001025A6001E7FC217E20E3E501224FF02D
:104A0000000AD8E604F10801304602F04BFDDAF85E
:104A10000010F2E6B2F5AA7F04D8DA0B77324FEA3B
:104A2000420C32E740F254518A4204D89A0C7C324C
:104A30004FEA420C29E74FF0FC0C7E2225E77B6809
:104A400090E700BF7C040020844641EA000313F095
:104A5000030349D1403A23D30B6803604B6843609A
:104A60008B688360CB68C3600B6903614B694361EA
:104A70008B698361CB69C3610B6A03624B6A4362D2
:104A80008B6A8362CB6AC3620B6B03634B6B4363BA
:104A90008B6B8363CB6BC36340304031403ADBD2D6
:104AA00030320BD30B6803604B6843608B688360C4
:104AB000CB68C36010301031103AF3D20C3205D3FA
:104AC00051F8043B40F8043B043AF9D2043208D0D0
:104AD000D2071CBF11F8013B00F8013B01D30B8842
:104AE00003806046704700BF082A13D38B07B1D0FC
:104AF00010F00303AED0C3F10403D21ADB071CBFCE
:104B000011F8013B00F8013BA4D331F8023B20F837
:104B1000023B9FE7043AD9D3013A11F8013B00F870
:104B2000013BF9D20B7803704B7843708B7883701C
:104B30006046704770B4840746D0541E002A41D0A6
:104B4000CDB2034602E0621EE4B3144603F8015BF3
:104B50009A07F8D1032C2ED9CDB245EA05250F2CA2
:104B600045EA054519D9264603F11002103E0F2EDD
:104B700042F8105C42F80C5C42F8085C42F8045CB5
:104B800002F11002F2D8A4F1100222F00F0204F098
:104B90000F041032032C13440DD91E462246043A4A
:104BA000032A46F8045BFAD8221F22F003020432DB
:104BB000134404F003042CB1C9B21C4403F8011BD4
:104BC000A342FBD170BC704714460346C2E700BF46
:104BD000704700BF704700BF38B5074C002305463B
:104BE00008462360FBF7C6FE431C00D038BD23688F
:104BF000002BFBD02B6038BDE02E00200CB4F0B5AC
:104C0000234B00299DB01D683CDB4FF402730C461A
:104C100002900690ADF814304FF6FF7723AE15D012
:104C20004C1E229A3346284602A904940794ADF8F4
:104C30001670019600F03AF9421C20DB029B00221C
:104C40001A701DB0BDE8F04002B0704733462846E8
:104C500002A9229A04940794ADF81670019600F008
:104C600025F9431C04DB1DB0BDE8F04002B07047DD
:104C70008B232B601DB0BDE8F04002B070478B2342
:104C80002B60DBE78B232B604FF0FF30EBE700BF9F
:104C90007804002080EA010C1CF0030F37D110F0DB
:104CA000030C20F0030021F0030150F8042B08BF8F
:104CB00051F8043B0ED08CF0030C6FF07F434FEAA9
:104CC000CC0C23FA0CFC51F8043B42EA0C0243EAF8
:104CD0000C0300BFA2F1013C9A4201BF2CEA020C76
:104CE0001CF0803F50F8042B51F8043BF2D04FEAFF
:104CF00002604FEA1222012828BFB0EB036F08BF01
:104D00001B0AF4D003F0FF03000EC01A704710F026
:104D1000030F0AD010F8012B11F8013B012A28BF1C
:104D20009A42F4D0A2EB030070474DF8045D50F8AE
:104D3000042B01F0030521F0030151F8043B022D7F
:104D400026D04DD822F07F45B5EB132FA2F1013CC0
:104D50002CEA020C0DD11CF0803C08BF51F8043B3A
:104D60000AD185EA0205B5EB036F0CD150F8042B8C
:104D7000E8E74FEA13235BE03CF07F4C54D10B781B
:104D80004FEA126554E04FEA126503F0FF034FE06B
:104D90004FEA0245A2F1013C4FEA15452CEA020C0C
:104DA000B5EB134F18D11CF0803C08BF51F8043B01
:104DB00007D185EA0205B5EB034F09D150F8042B62
:104DC000E6E75FEA0C4C2FD10B884FEA12452FE043
:104DD0004FEA03434FEA12454FEA134328E000BF6E
:104DE00002F0FF05B5EB136FA2F1013C2CEA020CB7
:104DF0000DD11CF0803C08BF51F8043B0AD185EA74
:104E00000205B5EB032F0AD150F8042BE8E74FEA6F
:104E100013630DE012F0FF0F06D051F8043B4FEA88
:104E2000122523F07F4303E04FF0000020BC7047C1
:104E300005F0FF0203F0FF00012828BF904204BFE5
:104E40002D0A1B0AF4D0A2EB000020BC704700BF63
:104E500020F0030110F00300C0F1000051F8043B02
:104E600000F1040C4FEACC0C6FF000021CBF22FAD8
:104E70000CF213434FF0010C4CEA0C2C4CEA0C4C96
:104E8000A3EB0C0222EA030212EACC1204BF51F88F
:104E9000043B0430F4D0C2F1000102EA0102B2FA8C
:104EA00082F2C2F11F0200EBD20070472DE9F04FF1
:104EB000C1B089460A920E93089002F0CBFB0368BA
:104EC00018461793FFF7C4FFB9F80C3018901C066A
:104ED00004D5D9F81030002B01F0C28030AF3C4629
:104EE0004E4600231393169319930B932593249303
:104EF0002397149315930A9D2B78002B00F0A9801B
:104F0000252B02D1A5E0252B03D015F8013F002B5E
:104F1000F9D10A9BEB1A73B1249A259901320A98A8
:104F20001944072A84E809002591249272DC083488
:104F30000B9A1A440B922B78002B00F0E287002387
:104F40001A46691C6D788DF86F300C9307934FF0FB
:104F5000FF3A4B1CA5F12001582900F2EA83DFE853
:104F600011F06D02E803E803D102E803E803E80367
:104F7000E803E803E803BC020D02E803F4011102B0
:104F8000E803D8027B027B027B027B027B027B026E
:104F90007B027B027B02E803E803E803E803E80303
:104FA000E803E803E803E803E8038A02DF02E80312
:104FB000DF02E803E803E803E803CB03E803E803C0
:104FC0002F03E803E803E803E803E8034D03E803DD
:104FD000E8036703E803E803E803E803E803E803FA
:104FE000E803E803E803E80382032B02DF02DF02A1
:104FF000DF02CA022B02E803E803B202E803D2038D
:10500000FB0119037402E803A303E8037A00E80331
:10501000E80347020898314623AA079302F092FE5C
:1050200050B93C46079B83E70898314623AA02F013
:1050300089FE002800F08581B146B9F80C3013F0E4
:10504000400F0B9B18BF4FF0FF33184641B0BDE82F
:10505000F08F0A9D6FE70A93079B980640F1D7826D
:105060000E9B03F1070929F0070303F10802D3E9B6
:1050700000890E92012300229446CDF844A08DF8B9
:105080006F20BAF1000F03DB079A22F0800207922B
:1050900058EA090240F06F83BAF1000F00F07484FF
:1050A000012B00F07283022B00F0C28439464FEAD4
:1050B000D80242EA49724FEAD90008F00703814654
:1050C0009046303358EA090201F8013DEFD1079AC2
:1050D0001091D20700F17F857B1A0D930D9A5346EC
:1050E0009245B8BF1346099300231293BCF1000FF9
:1050F00002D0099B01330993079B13F002030F931E
:1051000002D0099B02330993079B13F0840940F0F6
:105110002F830C9B099AC2EB0308B8F1000F40F3F0
:105120002783B8F1100F2599249ADFF870A529DD9F
:1051300053464FF0100BC246A8461D4606E0AAF1A2
:10514000100ABAF1100F04F1080417DD0132103112
:10515000072A2591249284E82008F0DD089831463A
:1051600023AA02F0EFFD00287FF466AFAAF1100A2F
:10517000BAF1100F3C462599249AE7DC2B464546A8
:10518000D0469A46013208EB010B072ACDF894B0BD
:105190002492C4F800A0C4F8048000F3DE829DF8D5
:1051A0006FC00834BCF1000F0FD0249B0BF1010B32
:1051B00001330DF16F010122072BCDF894B0249338
:1051C00084E8060000F3FD8308340F9B73B1249B31
:1051D0000BF1020B01331CA90222072BCDF894B06E
:1051E000249384E8060000F3F9830834B9F1800FB2
:1051F00000F03483119B0D9AC2EB030ABAF1000F41
:105200003CDDBAF1100F249ADFF894942BDD494667
:105210005B46A9464FF01008DDF820B00D4606E0C9
:10522000AAF1100ABAF1100F04F1080417DD0132D7
:105230001033072A2593249284E82001F0DD584694
:10524000314623AA02F07EFD00287FF4F5AEAAF1D4
:10525000100ABAF1100F3C46259B249AE7DC9B46C6
:105260002B464D4699460132D344072ACDF894B0D7
:10527000249284E8000600F398830834079BD9053C
:1052800000F18F82249B0D990133109A8B44072BD8
:10529000CDF894B022606160249300F3B8830834A1
:1052A000079B5A0741D50C9B099A9D1A002D3CDD9E
:1052B000102D249BDFF8E4A323DD4FF010085A469D
:1052C000DDF8209004E0103D102D04F1080417DDF6
:1052D00001331032072B25922493C4F800A0C4F8A0
:1052E0000480F0DD4846314623AA02F02BFD002859
:1052F0007FF4A2AE103D102D3C46259A249BE7DC9E
:1053000093460133AB44072BCDF894B02493C4F8F3
:1053100000A0656009DD0898314623AA02F012FD5D
:1053200000287FF489AEDDF894B00B9B099A0C99A4
:105330008A42ACBF9B185B180B93BBF1000F7FF444
:1053400073AE002324933C46D5E51946079840F0F8
:10535000040007901D78FCE50A93079B13F02003D7
:1053600000F038810E9B03F1070929F0070303F1D0
:105370000802D3E900890E9200237CE61D781946C5
:105380002B22E6E51D78591C2A2D00F0E587A5F1B2
:10539000300009280B464FF0000A3FF6DBAD13F84A
:1053A000015B0AEB8A0A00EB4A0AA5F130000928E2
:1053B000F5D94AEAEA7ACDE50A93079B8DF86F2082
:1053C000980662D50E9B03F1070929F00709D9E970
:1053D000002309F10801904699460E91002A73F1C5
:1053E000000364DB9DF86FC0CDF844A0012348E6BC
:1053F0000A93A74B8DF86F201693079B9B0640F1ED
:1054000020810E9B03F1070929F0070303F108022D
:105410000E92D3E90089079BD90740F1228158EA0F
:10542000090300F01E81079A302342F002028DF832
:1054300070308DF87150079202231CE6002A40F06C
:10544000E5841D781946202283E5079941F0200163
:1054500007911D7819467CE5A5F13000002113F86D
:10546000015B01EB810100EB4101A5F1300009284E
:10547000F5D90C916EE50A93079B8DF86F2043F0E8
:1054800010030793079B98069CD4079BD90640F10D
:10549000C1840E9A13461B6804320E924FEAE379D8
:1054A0001A4698464B46002A73F100039ADA4FF0E9
:1054B0002D0CD8F1000869EB49098DF86FC0CDF8C3
:1054C00044A00123DDE51D7807996C2D00F02585AA
:1054D00041F01001079119463BE50E9D29680846E9
:1054E0000C912946002801F10401C0F21D850E919E
:1054F0001D7819462DE5079941F0400107911D7867
:10550000194626E5079941F0010107911D781946D2
:105510001FE5079941F0800107911D78194618E5AC
:105520000A93079B8DF86F2013F0080F0E9BD3464C
:1055300003F1070900F0378429F0070303F108029B
:105540000E921A685B68149215931599149802F0DC
:10555000CDFB01281599149840F00B8400220023FC
:10556000FDF7F4FF002840F039869DF86FC0079BD7
:10557000484A23F0800307931346DFF828E103210C
:10558000472DD8BF734600200991119010930D91BB
:105590001290ABE50E9907980A9330230A688DF8AC
:1055A00070303B4B782540F0020004311693079091
:1055B0000E9190464FF000098DF8715002235AE584
:1055C0000A93079B43F010030793079B13F02003F4
:1055D0007FF4C8AE079A12F0100240F00A83079BCE
:1055E00013F0400300F005830E9913460A46043277
:1055F000B1F800804FF000090E923CE50A93079B3A
:1056000043F010030793079B98063FF529AD079BCE
:10561000D90600F1F782079B5A0640F1F3820E9AF1
:105620004FF00009B2F80080043201230E9222E507
:105630000A93194B8DF86F201693079B9B063FF535
:10564000E0AE079BD80640F1BB830E9A13461B6859
:1056500004329846079B0E92D9074FF000093FF598
:10566000DEAE022307E50E980A93026800238DF848
:105670009820024601219C4604328DF86F30119328
:10568000129326AB09910E920D91109334E500BF51
:1056900020B6000800B600080CB60008ECB50008FB
:1056A00040B60008FCB500080E9A0A9313684FF044
:1056B000000B10938DF86FB002F10409002B00F07D
:1056C0005885BAF1000F1098C0F2EA845946524644
:1056D00001F0C4FF002800F08985109BCDF844B08C
:1056E000C31A0D93CDF8389023EAE3730993CDF8EC
:1056F00048B09DF86FC0F9E4079941F0080107919F
:105700001D78194625E40A93079B8DF86F209A06A9
:1057100040F165830E9A134604330E930B9B116878
:105720004FEAE3791A4698464B46C1E90023FFF752
:10573000E2BB0A938DF86F20002D00F0E283002376
:1057400001229C468DF86F301193129326AB09927B
:105750008DF898500D921093CEE40898314623AA04
:1057600002F0F0FA00287FF467AC3C469DF86FC069
:10577000DDF894B016E5012B7FF495ACB9F1000F7C
:1057800008BFB8F10A0F80F006820DF5807B08F1A2
:1057900030080BF8418DCBEB07030D93CDF840B0EB
:1057A0009CE4652D40F3A0801498159900220023F5
:1057B000FDF7C2FE002800F05481249BC14901334B
:1057C0000BF1010B0122072BCDF894B0249384E850
:1057D000060000F33E8308341D9B139A934203DBBB
:1057E000079BDA077FF55CAD249B18990133179A64
:1057F0008B44072BCDF894B022606160249300F3B2
:105800001A840834139B5D1E002D7FF749AD102DBF
:10581000249BDFF8B49240F3EF804FF010085A4613
:10582000DDF820A004E00834103D102D40F3E380A3
:1058300001331032072B25922493C4F80090C4F84A
:105840000480F0DD5046314623AA02F07BFA00289E
:105850007FF4F2AB3C46259A249BE5E70C9B099A22
:10586000C2EB030ABAF1000F7FF7C4ACBAF1100F14
:10587000249ADFF854922BDD49465B46A9464FF047
:105880001008DDF820B00D4606E0AAF1100ABAF1C2
:10589000100F04F1080417DD01321033072A259395
:1058A000249284E82001F0DD5846314623AA02F014
:1058B00049FA00287FF4C0ABAAF1100ABAF1100F20
:1058C0003C46259B249AE7DC9B462B464D46994651
:1058D0000132D344072ACDF894B0249284E800061C
:1058E00000F33A82083485E4139B249D012B40F396
:1058F000FC81013510990BF101030122072D25933D
:1059000021602495626000F30E82083418990135F5
:1059100003EB010B179B072DCDF894B02495236062
:10592000616000F30C82083400231498159900225A
:10593000FDF702FE139B002840F0E380109A013B24
:10594000013501329B44072D22602495CDF894B097
:10595000636000F313810834199A013593441FAB37
:10596000072DCDF894B02495626023607FF797AC43
:105970000898314623AA02F0E5F900287FF45CABD1
:105980003C46DDF894B08BE4002B4CD1079BD80744
:1059900049D50DF5807B30230BF8413DCBEB070358
:1059A0000D93CDF840B0FFF799BB0898314623AA74
:1059B00002F0C8F900287FF43FAB3C46DDF894B014
:1059C0005CE40898314623AA02F0BCF900287FF471
:1059D00033AB3C46DDF894B0FFF7F7BB089831468F
:1059E00023AA02F0AFF900287FF426AB3C46DDF88D
:1059F00094B0FFF7FBBB93460133AB44072BCDF8C4
:105A000094B02493C4F8009065607FF748AC089880
:105A1000314623AA02F096F900287FF40DABDDF899
:105A200094B03C463CE4CDF834A01097FFF756BB49
:105A3000BB4616984FEA181343EA09734FEA191147
:105A400008F00F0289469846835C0BF8013D58EA3E
:105A50000903EFD15B46CDF840B0FB1A0D93FFF779
:105A60003DBB1D9D002D40F30082139A12991346F1
:105A70008A42A8BF0B461D461099002D01EB020A71
:105A80000CDD0A46249BAB440133072BCDF894B0C0
:105A900084E82400249300F348830834129B002DEB
:105AA000A8BF5B1B002B1D4640F3C180102D249B1B
:105AB000DFF8149040F3C0815A464FF01008DDF82B
:105AC00020B008E03CB6000840B600080834103D9D
