:020000040800F2
:10000000005000209D020008A5020008A902000877
:10001000AD020008B1020008B502000800000000AF
:10002000000000000000000000000000B90200080D
:10003000BD02000800000000C10200089D1F00086A
:10004000C9020008C9020008C9020008C902000864
:10005000C9020008C902000805210008C9020008F9
:1000600071210008C9020008C9020008C90200087D
:10007000C9020008C9020008C9020008C902000834
:10008000C9020008C9020008C9020008C902000824
:10009000C9020008C9020008C9020008C902000814
:1000A000C9020008C9020008C9020008C902000804
:1000B000C9020008C9020008C90200086D20000832
:1000C0004D200008C9020008C9020008C902000842
:1000D000C9020008C9020008C9020008C9020008D4
:1000E000E5200008C9020008C9020008C90200088A
:1000F000C9020008C9020008C9020008C9020008B4
:10010000C9020008C9020008C9020008C9020008A3
:10011000C9020008C9020008C9020008C902000893
:10012000C9020008C9020008C9020008C902000883
:10013000C9020008C9020008C9020008C902000873
:10014000C9020008C9020008C9020008C902000863
:10015000C9020008C9020008C9020008C902000853
:10016000C9020008C9020008C9020008C902000843
:10017000C9020008C9020008C9020008C902000833
:10018000C902000800B583B001F016F83148324BBF
:10019000324A334D334C98422A60226007D2C24320
:1001A000134423F0030204322F4902F0B5FB2A68FE
:1001B0002E4B9A4200D0FEE722682D4B9A42FAD18C
:1001C0002C482D4B254A2D4D2D4C98422A602260FB
:1001D00007D2C243134423F003020432002102F089
:1001E00011FC2B6803B1FEE72368002BFBD100F064
:1001F000E5FF684601A900F075FF224C224B1B1B4E
:10020000032BC8BFE51804DD54F8043B9847AC4203
:10021000FAD11E4C1E4B1B1B032BC8BFE51804DD77
:1002200054F8043B9847AC42FAD19DE8030002F031
:1002300029F8184C184B0546E41A032C06DD1E4617
:100240001C4454F8043D9847B442FAD1284600F0C3
:100250001DFF00BF00000020D8080020BABADECA87
:1002600000000020D40800200C97000878563412B3
:1002700032547698D8080020F8090020D8080020C9
:10028000F4090020CC020008CC020008CC020008CF
:10029000D0020008D0020008D002000808B5FFF71D
:1002A00071FF00BFFEE700BFFEE700BFFEE700BF33
:1002B000FEE700BFFEE700BFFEE700BFFEE700BFAE
:0C02C000FEE700BF704700BFFEE700BF74
:0402CC00D52300082E
:1002D000B0F5C06F10B504460DD020F48073B3F5AF
:1002E000806F08D020F48063B3F5407F03D00548C9
:1002F000792100F0FFFE44F0BF60034B40F4003072
:10030000D86010BDF06E000800ED00E038B5C3788D
:100310000446012B03D92248932100F0EBFE6378B9
:100320000F2B38D8A3780F2B30D8E3785BB923781C
:1003300001215A091B4803F01F03203201FA03F37D
:1003400040F8223038BD184B6078D968A278C9438C
:10035000C1F30221C1F104050F23EDB2A8400B4106
:100360001340C1B222780B431B0102F16042DBB2A1
:1003700002F5614282F800332378012203F01F0066
:1003800008495B09824041F8232038BD0448952183
:1003900000F0B0FEC9E70248942100F0ABFEC1E7CF
:1003A000F06E000800E100E000ED00E010B504464A
:1003B00003792BB1042B03D03048822100F09AFE40
:1003C0006379082B07D00C2B05D0102B03D02B48BA
:1003D000832100F08FFE2268D30DDB0503B91AB923
:1003E0002648842100F086FEA379012B03D92348F7
:1003F000852100F07FFEA379002B33D0204B1A68B3
:10040000216822EA01021A605A68216822EA010280
:100410005A60227902F1804202F59E32106821680A
:10042000014311609A68216822EA01029A60DA6841
:10043000216822EA0102DA606379102B09D1104B9E
:10044000996822680A439A60D96822680A43DA6088
:1004500010BD03F1804303F59E33196822680A43F7
:100460001A6010BD237903F1804303F59E331A68A7
:10047000216822EA01021A6010BD00BF186F00084F
:10048000003C014010B50446C30DDB0503B918B9A3
:100490000348FC2100F02EFE024B5C6110BD00BF42
:1004A000186F0008003C014010B50446431E012BA4
:1004B0003DD904283BD0082839D0102837D020282F
:1004C00035D0402833D0802831D0B0F5807F2ED071
:1004D000B0F5007F2BD0B0F5806F28D0B0F5006F5D
:1004E00025D0B0F5805F22D0B0F5005F1FD0B0F509
:1004F000804F1CD0B0F5004F19D0B0F5803F16D01A
:10050000B0F5003F13D0B0F5802F10D0B0F5002F1C
:100510000DD0B0F5801F0AD0B0F5001F07D0B0F5A0
:10052000800F04D008484FF4867100F0E3FD074ABD
:10053000136823405269224202D01BB9002010BD2B
:10054000002010BD012010BD186F0008003C0140C4
:1005500010B50446C30DDB0503B920B9034840F2CA
:10056000231100F0C7FD024B5C6110BD186F00083D
:10057000003C01402DE9F8434F4B0646984289461E
:1005800023D003F5806398421FD003F5806398421F
:100590001BD003F58063984217D003F5806398421F
:1005A00013D003F5806398420FD003F5806398421F
:1005B0000BD003F58063984207D003F5806398421F
:1005C00003D03E48C12100F095FDD9F80030002B42
:1005D0006DD099F80430032B64D899F80730022BBA
:1005E0005BD800273C4604E00134102C07F10207D9
:1005F00029D00123D9F80050A3401D409D42F3D1DA
:100600004FF0030808FA07F86FEA0808326899F80B
:10061000043008EA02023260326803FA07F1013B53
:100620000A43012B326010D9F26899F8073008EAC2
:100630000202F260F268BB4001341343102CF360F5
:1006400007F10207D5D1BDE8F88399F80530032BEF
:100650001CD8B16803FA07F208EA0103B360B16875
:1006600099F806300A43012BB26005D91348DD2101
:1006700000F040FD99F806307268A34022EA0505B3
:10068000756072689BB213437360CDE70B48D62147
:1006900000F030FD99F80530DBE70848C42100F090
:1006A00029FD9EE70548C32100F024FD95E7034896
:1006B000C22100F01FFD8CE7000002404C6F0008D3
:1006C00038B52E4B044698420D4624D003F580637E
:1006D000984220D003F5806398421CD003F58063D4
:1006E000984218D003F58063984214D003F58063D4
:1006F000984210D003F5806398420CD003F58063D4
:10070000984208D003F58063984204D01C484FF407
:100710009B7100F0EFFC6B1E012B28D9042D26D015
:10072000082D24D0102D22D0202D20D0402D1ED0D9
:10073000802D1CD0B5F5807F19D0B5F5007F16D07F
:10074000B5F5806F13D0B5F5006F10D0B5F5805FAB
:100750000DD0B5F5005F0AD0B5F5804F07D0B5F5DF
:10076000004F04D0064840F2371100F0C3FC236963
:100770001D4214BF0120002038BD00BF0000024010
:100780004C6F000830B5354B83B0984204460D4697
:1007900026D003F58063984222D003F58063984207
:1007A0001ED003F5806398421AD003F58063984207
:1007B00016D003F58063984212D003F58063984207
:1007C0000ED003F5806398420AD003F58063984207
:1007D00006D023484FF4D671019200F08BFC019AA9
:1007E0006B1E012B2AD9042D28D0082D26D0102DC0
:1007F00024D0202D22D0402D20D0802D1ED0B5F524
:10080000807F1BD0B5F5007F18D0B5F5806F15D06F
:10081000B5F5006F12D0B5F5805F0FD0B5F5005F6C
:100820000CD0B5F5804F09D0B5F5004F06D00C4877
:1008300040F2AD11019200F05DFC019A012A07D946
:1008400007484FF4D77100F055FC258303B030BD45
:10085000002AFAD1658303B030BD00BF000002401A
:100860004C6F0008264B70B5984204460D4616465C
:1008700024D003F58063984220D003F5806398422A
:100880001CD003F58063984218D003F5806398422A
:1008900014D003F58063984210D003F5806398422A
:1008A0000CD003F58063984208D003F5806398422A
:1008B00004D014484FF4077100F01CFC0F2D19D818
:1008C0000D2E06D90F2E04D00E4840F21E2100F046
:1008D00011FCEB0804EB830405F00705226AAD0068
:1008E0000F23AB4022EA03032362226AAE40164381
:1008F000266270BD034840F21D2100F0FBFBDFE7DC
:10090000000002404C6F000810B504461C4B984292
:100910000BD003F58063984207D003F580639842BB
:1009200003D018488D2100F0E5FB154B9C420AD1FD
:100930004FF40010012100F059FB4FF4001000218A
:1009400000F054FB10BD104B9C420AD14FF48000C4
:10095000012100F04BFB4FF48000002100F046FB2A
:1009600010BD0A4B9C4209D14FF40000012100F058
:100970003DFB4FF40000002100F038FB10BD00BF2C
:1009800000540040806F000800580040005C0040A8
:10099000F0B585B004460D46564B98420BD003F592
:1009A0008063984207D003F58063984203D0524891
:1009B000C22100F09FFB2B68013B504A934203D9B0
:1009C0004D48C32100F096FBAB883BB1022B05D00C
:1009D0000A2B03D04848C42100F08CFBEB88B3F508
:1009E000804F07D04BF6FF72934203D04248C52197
:1009F00000F080FB2B89B3F5806F03D33E48C621FE
:100A000000F078FB6B89B3F5806F04D01BB13A48D6
:100A1000C72100F06FFBAB89B3F5804F06D0B3F56B
:100A2000404F03D03448C82100F064FBA68826F06C
:100A30003F063604360C684600F0E6F90298304965
:100A4000A1FB0031890C8FB23E43A680228822F0A0
:100A500001021204120C22802B682A4A934209D800
:100A60005B00B0FBF3F39BB2032B00D804230137E8
:100A7000278427E0EE884BF6FF72964205D103EB00
:100A80004302B0FBF2F39BB208E003EB830303EBFA
:100A90008303B0FBF3F39BB243F48043C3F30B0235
:100AA0000AB943F0010343F400434FF4967201FB8B
:100AB00002F1154A82FB0102C917C1EBA2110131F3
:100AC00089B22184A38323889BB243F0010323804E
:100AD00023889BB223F4816323F00203A9886A89E7
:100AE0000A4313432380AA892B891343238105B02A
:100AF000F0BD00BF00540040806F00087F1A060060
:100B000083DE1B43A0860100D34D621038B5044636
:100B10000D46124B98420CD003F58063984208D0E2
:100B200003F58063984204D00D484FF4A47100F09F
:100B3000E1FA012D04D90A4840F2491100F0DAFA2D
:100B40002DB123889BB243F00103238038BD238855
:100B500023F001031B041B0C238038BD005400400C
:100B6000806F000838B504460D46124B98420CD0F1
:100B700003F58063984208D003F58063984204D05F
:100B80000D4840F21E2100F0B5FA012D04D90A48A3
:100B900040F21F2100F0AEFA3DB123886FEA4343D3
:100BA0006FEA53439BB2238038BD2388C3F30E03FF
:100BB000238038BD00540040806F000838B50446DB
:100BC0000D46094B98420CD003F58063984208D03B
:100BD00003F58063984204D004484FF4347100F068
:100BE00089FAADB2258238BD00540040806F0008FC
:100BF00030B583B005460C4600230193174B98424D
:100C00000CD003F58063984208D003F580639842C6
:100C100004D0134840F21A4100F06CFAA4B1042C3D
:100C200012D0082C10D00C2C0ED0102C0CD0142C60
:100C30000AD0182C08D01C2C06D0202C04D0084830
:100C400040F21B4100F056FA0195019B1C440194AF
:100C5000019B188880B203B030BD00BF0054004033
:100C6000806F000870B505460C461646164B984234
:100C70000CD003F58063984208D003F58063984256
:100C800004D0124840F2334100F034FA012E04D966
:100C90000E4840F2344100F02DFA24F4E0639BB298
:100CA00003B924B9094840F2354100F023FA26B1CE
:100CB000AB889BB21C43AC8070BDAB88E443A4B24C
:100CC0001C40AC8070BD00BF00540040806F000825
:100CD00010B504460B4B98420CD003F58063984244
:100CE00008D003F58063984204D0074840F2A14140
:100CF00000F000FAA08A80B2238B40EA034020F083
:100D00007F4010BD00540040806F000830B583B0B4
:100D100005460C46002301930093384B98420CD0B3
:100D200003F58063984208D003F58063984204D0AD
:100D300033484FF49B6100F0DDF9B4F5000F45D066
:100D4000B4F5800F42D0B4F5001F3FD0B4F5801F3A
:100D50003CD0B4F5802F39D0B4F5003F36D0B4F58F
:100D6000803F33D0274B9C4230D0A3F580439C4238
:100D70002CD0B4F1102F29D0A3F560539C4225D07C
:100D8000A3F580639C4221D0A3F500739C421DD043
:100D9000A3F580739C4219D0803B9C4216D0403B07
:100DA0009C4213D0303B9C4210D0083B9C420DD05B
:100DB000043B9C420AD0023B9C4207D0013B9C4230
:100DC00004D00F4840F2D94100F094F90095230F68
:100DD000019324F07F44019B1BB1009B14330093CB
:100DE00003E0240C009B18330093009B1B682342F4
:100DF00001D0012000E0002003B030BD00540040CD
:100E0000806F00080080001030B4254DAB6803F0FF
:100E10000C03042B37D0082B1DD0CBB1214A13462D
:100E200002601F4A20499468C4F303140C5DE34038
:100E300043609468C4F382240C5D23FA04F4846054
:100E4000926830BCC2F342328A5CD340C3607047C0
:100E5000144B0360E5E76B6869685B0201F03F02D1
:100E600014D410496B68B1FBF2F1C3F3881301FB92
:100E700003F20B4B5B68C3F3014301335B00B2FB2E
:100E8000F3F30360CDE7094B0360CAE7074C6B68D7
:100E9000B4FBF2F1C3F3881301FB03F2E9E700BFEF
:100EA000003802400024F4000400002000127A0000
:100EB00038B5104B044603400D4663B958B1012DB7
:100EC00010D90D4840F24B4100F014F90B4A136B56
:100ED0001C43146338BD084840F2494100F00AF948
:100EE000012DEED8002DF1D1044A136B23EA04043E
:100EF000146338BD00EE9B81B06F000800380240DB
:100F000038B530F0010304460D460CD158B1012D1F
:100F100010D90C4840F2854100F0ECF80A4A936B76
:100F20001C43946338BD074840F2844100F0E2F866
:100F3000012DEED8002DF1D1034A936B23EA04046E
:100F4000946338BDB06F00080038024038B5104BCC
:100F5000044603400D4663B958B1012D10D90D4820
:100F600040F2B74100F0C6F80B4A136C1C431464FE
:100F700038BD084840F2B64100F0BCF8012DEED86B
:100F8000002DF1D1044A136C23EA0404146438BD23
:100F9000003601C9B06F00080038024038B5104B68
:100FA000044603400D4663B958B1012D10D90D48D0
:100FB00040F2DF4100F09EF80B4A536C1C4354642E
:100FC00038BD084840F2DE4100F094F8012DEED81B
:100FD000002DF1D1044A536C23EA0404546438BD53
:100FE000CCA0F8FFB06F00080038024038B5104BB5
:100FF000044603400D4663B958B1012D10D90D4880
:1010000040F26A5100F076F80B4A136A1C431462EE
:1010100038BD084840F2695100F06CF8012DEED857
:10102000002DF1D1044A136A23EA0404146238BD86
:10103000003601C9B06F00080038024038B50546D7
:101040000C46082803D90F48892100F053F80F2CCB
:1010500003D90C488A2100F04DF804F003029200F5
:101060000F209040A108084B023153F8214024EA98
:10107000000043F8210053F821009540054343F850
:10108000215038BDE06F000800380140FEE700BF86
:1010900008B5034800F054F80120FFF7F7FF00BF40
:1010A000147000080C4A08B50346106878B1033381
:1010B00023F00303094903448B4201D8136008BDA0
:1010C00001F024FC0C2303604FF0FF3008BD0449FD
:1010D00008461160EBE700BFDC080020004C002050
:1010E000F8090020024B012202600B60704700BF2C
:1010F0001400002008B503460A460348194600F0CC
:1011000005F8FFF7C5FF00BF687000080FB410B501
:1011100082B004AC54F8042B084823468021019483
:1011200002F09EFF002803DD0146044800F018F895
:1011300002B0BDE8104004B0704700BFE4080020D2
:1011400010B5044601F0ACFC0146204600F008F85A
:10115000BDE810400148012100F002B8A07000086D
:1011600041B34FF06042D2F8803E70B413F00106F4
:101170001AD0D2F8003E13F0010615D004464518E7
:101180004FF060431A68002AFAD014F8012BAC42E1
:101190001A70A4EB00060AD0D3F8802ED20703D52C
:1011A000D3F8003EDB07EBD4304670BC70470846EE
:1011B00070BC70470846704700F002B800F06EB887
:1011C000314B00211A68314842F001021A609960DF
:1011D0001A6882B022F0847222F480321A60586059
:1011E0001A6822F480221A60D960009101911A686D
:1011F00042F480321A6003E0009BB3F5A06F0AD07E
:10120000214B1B6803F400330193009B01330093CF
:10121000019B002BF0D01C4B1B6813F4003318BF4C
:1012200001230193019B012B05D0194B4FF0006264
:101230009A6002B07047144B16499A689A609A688F
:1012400042F400429A609A6842F4A0529A6059604F
:101250001A6842F080721A600B4B1A689201FBD533
:1012600040F203710C4A11609A6822F003029A60FE
:101270009A6842F002029A60034B9B6803F00C03E9
:10128000082BF9D1D1E700BF00380240103000240C
:1012900000ED00E0193C4005003C024010B41B4C3E
:1012A000A36803F00C03042B25D0082B0CD0184B9B
:1012B000164A184892681849C2F30312825C5DF816
:1012C000044BD3400B607047636861685B0201F0B8
:1012D0003F0212D40E496368B1FBF2F1C3F38813E5
:1012E00001FB03F2094B5B68C3F3014301335B006D
:1012F000B2FBF3F3DCE7094BDAE708486368B0FBBD
:10130000F2F1C3F3881301FB03F2EBE7003802406C
:101310000024F4001C0000202C00002000127A00A1
:101320004FF6FF720C4B1A8000230C4A13800C4AB4
:1013300013800C4A13800C4A13800C4A138001213D
:101340000B4A11700B4A13700B4A13700B4A13703F
:101350000B4A1380704700BF7409002072090020F7
:10136000660900206E0900206A0900206809002033
:101370006C090020700900206D090020640900201C
:101380007609002008B5FFF7CBFF002000F002F936
:1013900008BD00BF10B588B00346002401E0013449
:1013A00013465A1C1B78002BF9D11A2C00D91A2489
:1013B000002305E008AA1A44202102F81C1C01336E
:1013C0001A2BF7D900220AE0C4F11B0302EB5303E6
:1013D000815C0DF1200E734403F81C1C0132A24203
:1013E000F2D3002000F0D6F8104800F0A9F800F081
:1013F000ADF804464FF6FF7000F08AF81F2000F0A9
:1014000093F8002000F038F9E08801A900F04EF9C7
:10141000E088400080B200F02FF9002000F084F84E
:10142000034800F08DF808B010BD00BF3800002060
:101430003000002030B587B004460D46234B53F8EA
:1014400020000121FFF734FD4FF480400121FFF718
:10145000A5FD00238DF80C308DF80F301C4B33F8B0
:10146000143006A941F8103D1A4B53F82400FFF739
:1014700081F8012D28D1184B185D184B195DFFF725
:10148000DDFD174B33F81430049300238DF814302E
:101490001CB10C238DF8153002E008238DF81530AF
:1014A00001258DF8165004A8FEF780FF0D4B1B5D3B
:1014B0008DF804300F238DF805308DF806308DF847
:1014C000075001A8FEF722FF07B030BD989400082E
:1014D000AC94000848000020B894000894940008D8
:1014E000A4940008B494000884B0019000230393EE
:1014F000019A064B03FB02F3039302E0039B013BBB
:101500000393039B002BF9D104B07047A086010020
:1015100082B0ADF80600BDF806309BB2014A1380D8
:1015200002B070477C09002082B0ADF80600BDF81B
:1015300006309BB2014A138002B07047540000206D
:10154000014B1860704700BF78090020014B1868F4
:10155000704700BF780900204FF0D04318805980B1
:10156000704700BF10B503460C4620201946FFF710
:10157000F3FF21202146FFF7EFFF10BD4FF0D043CE
:101580001880588880B2704722224FF0D0431A80CA
:10159000704700BF10B50446002040F23F11FFF72E
:1015A000E1FFFFF7F1FF002303E04FF0D04254804A
:1015B0000133B3F5963FF8D310BD00BF4FF0D043D1
:1015C000588070472DE9F041074688461646FFF7D8
:1015D000C9FF002531E0FFF7D7FF002421E036F8EE
:1015E0001510194BA3FB0023DB08DB00802202FA55
:1015F00003F322462341194201D10C2805D9114198
:1016000011F0010F07D10C2805D9104B188880B2B2
:10161000FFF7D4FF04E00E4B188880B2FFF7CEFF2F
:1016200001340C4B1B689888A042D8D80137BFB250
:1016300038464146FFF796FF0135064B1B68DB88AD
:10164000AB42C8D8BDE8F081ABAAAAAA54000020DA
:101650007C0900207809002010B5203AD2B2054B51
:101660001C68E38803FB02F2236803EB4202FFF7E6
:10167000A9FF10BD7809002038B5054640F23F1497
:1016800009E0284621462022FFF7E6FF064B1B68AB
:101690009B88E41AA4B2631C9BB2034A1268928826
:1016A0009342EEDA38BD00BF7809002070B50646D7
:1016B0000D4640F23F1409E030462146FFF7CCFFCB
:1016C000074B1B689B88E41AA4B201352A78631C77
:1016D0009BB222B10249096889888B42ECDA70BD5D
:1016E0007809002030B583B078200121FFF7E0FBB6
:1016F0004CF23373009302238DF804308DF80530DB
:1017000000258DF806508DF80750424C204669465A
:10171000FEF730FF204629460C22FFF7A3F82046AB
:1017200001210C22FFF79EF8204604210C22FFF72E
:1017300099F8204605210C22FFF794F8204608214D
:101740000C22FFF78FF8204609210C22FFF78AF8B8
:1017500020460A210C22FFF785F820460E210C2294
:10176000FFF780F820460F210C22FFF77BF84FF699
:101770008073009304F5806420466946FEF7FAFE04
:10178000204607210C22FFF76DF8204608210C2285
:10179000FFF768F8204609210C22FFF763F820467E
:1017A0000A210C22FFF75EF820460B210C22FFF7DE
:1017B00059F820460C210A46FFF754F820460D211F
:1017C0000C22FFF74FF820460E210C22FFF74AF8B3
:1017D00020460F210C22FFF745F80123009304F562
:1017E000806420466946FEF7C5FE204629460C2245
:1017F000FFF738F84FF48063009304F580642046C7
:101800006946FEF7B7FE20460A210C22FFF72AF8A8
:1018100003B030BD000C024010B596B00120014667
:10182000FFF76EFB0323009300230193092202922A
:101830000393049305930693042407940893099350
:1018400010220A920B930C930D930E930F934FF467
:1018500080521092119312931393CDF850D0CDF87B
:1018600054D007A800F016FA2046012100F068FBCA
:1018700016B010BD10B582B000240194FFF732FFFE
:10188000FFF7CAFF0520FFF72FFE2046FFF776FE81
:101890000190019A49F220339A4240F0F880E52005
:1018A0004FF40041FFF758FE20460121FFF754FE98
:1018B00001204FF48071FFF74FFE02204FF4E061EA
:1018C000FFF74AFE032041F23001FFF745FE0420F6
:1018D0002146FFF741FE082040F20221FFF73CFEBF
:1018E00009202146FFF738FE0A202146FFF734FE83
:1018F0000C202146FFF730FE0D202146FFF72CFE7D
:101900000F202146FFF728FE10202146FFF724FE76
:1019100011202146FFF720FE12202146FFF71CFE72
:1019200013202146FFF718FE1420FFF7DDFD1020DD
:1019300041F2B071FFF710FE112040F23711FFF7AE
:101940000BFE0520FFF7D0FD122040F23911FFF702
:1019500003FE0520FFF7C8FD13204FF4E851FFF701
:10196000FBFD29201321FFF7F7FD0520FFF7BCFD44
:1019700020202146FFF7F0FD21202146FFF7ECFD56
:1019800030200721FFF7E8FD31200721FFF7E4FDB4
:1019900032200721FFF7E0FD35200721FFF7DCFDAE
:1019A00036200721FFF7D8FD37204FF4E061FFF71D
:1019B000D3FD38204FF4E061FFF7CEFD39204FF41E
:1019C000E061FFF7C9FD3C204FF4E061FFF7C4FD83
:1019D0003D204FF4F851FFF7BFFD50202146FFF79F
:1019E000BBFD5120EF21FFF7B7FD52202146FFF745
:1019F000B3FD532040F23F11FFF7AEFD60204FF4DE
:101A00001C51FFF7A9FD61200121FFF7A5FD6A2008
:101A10002146FFF7A1FD80202146FFF79DFD812093
:101A20002146FFF799FD82202146FFF795FD83208F
:101A30002146FFF791FD84202146FFF78DFD85208B
:101A40002146FFF789FD90201021FFF785FD9220A8
:101A50002146FFF781FD93200321FFF77DFD9520AF
:101A60004FF48871FFF778FD97202146FFF774FD4A
:101A700098202146FFF770FD032041F21801FFF77F
:101A80006BFD072040F27311FFF766FDFAE0019A43
:101A900049F225339A4240F0F58000200121FFF7FA
:101AA0005BFD01204FF48071FFF756FD02204FF4DB
:101AB000E061FFF751FD032041F21801FFF74CFDF3
:101AC00004200021FFF748FD082040F20221FFF723
:101AD00043FD09200021FFF73FFD0A200021FFF709
:101AE0003BFD0C200021FFF737FD0D200021FFF703
:101AF00033FD0F200021FFF72FFD10200021FFF7FD
:101B00002BFD11200021FFF727FD12200021FFF7F8
:101B100023FD13200021FFF71FFD1420FFF7E4FC35
:101B2000102041F2B071FFF717FD112040F237117C
:101B3000FFF712FD0520FFF7D7FC122040F2391104
:101B4000FFF70AFD0520FFF7CFFC13204FF4E85103
:101B5000FFF702FD29201321FFF7FEFC0520FFF708
:101B6000C3FC20200021FFF7F7FC21200021FFF714
:101B7000F3FC30200721FFF7EFFC312040F2023167
:101B8000FFF7EAFC322040F20511FFF7E5FC3520B3
:101B900040F20621FFF7E0FC362040F60801FFF78F
:101BA000DBFC372040F20621FFF7D6FC382040F25C
:101BB0000451FFF7D1FC39200721FFF7CDFC3C2071
:101BC00040F20511FFF7C8FC3D2040F60801FFF781
:101BD000C3FC50200021FFF7BFFC5120EF21FFF78D
:101BE000BBFC52200021FFF7B7FC532040F23F110D
:101BF000FFF7B2FC60204FF42741FFF7ADFC6120F6
:101C00000121FFF7A9FC6A200021FFF7A5FC802035
:101C10000021FFF7A1FC81200021FFF79DFC82201D
:101C20000021FFF799FC83200021FFF795FC842019
:101C30000021FFF791FC85200021FFF78DFC90200B
:101C40001021FFF789FC92200021FFF785FC9320EB
:101C50000321FFF781FC95204FF48871FFF77CFC8E
:101C600097200021FFF778FC98200021FFF774FCF3
:101C7000032041F21801FFF76FFC072040F23311F7
:101C8000FFF76AFC0248FFF75BFC02B010BD00BF23
:101C90004000002010B5044603684BB1022B07D06A
:101CA000042B05D0062B03D0A3489721FFF722FA77
:101CB00063682BB1022B03D09F489821FFF71AFAD3
:101CC000A3683BB1042B05D0082B03D09A48992177
:101CD000FFF710FAE3682BB1102B03D096489A2136
:101CE000FFF708FA236933B1B3F5807F03D0924838
:101CF0009B21FFF7FFF9636933B1B3F5004F03D0C0
:101D00008D489C21FFF7F6F9A36933B1B3F5007F45
:101D100003D089489D21FFF7EDF9E36933B1B3F5AD
:101D2000806F03D084489E21FFF7E4F9236A33B122
:101D3000B3F5006F03D080489F21FFF7DBF9636A9A
:101D400033B1B3F5805F03D07B48A021FFF7D2F910
:101D5000A36A33B1B3F5005F03D07748A121FFF741
:101D6000C9F9E36A33B1B3F5804F03D07248A221B9
:101D7000FFF7C0F9236B33B1B3F5002F03D06E48E2
:101D8000A321FFF7B7F9636B1B680F2B03D96A48D0
:101D9000A421FFF7AFF9636B5B680F2B03D966488B
:101DA000A521FFF7A7F9636B9B68013BFE2B03D9C5
:101DB0006148A621FFF79EF9636BDB680F2B03D9FF
:101DC0005D48A721FFF796F9636B1B690F2B03D9B9
:101DD0005948A821FFF78EF9636B5B690F2B03D974
:101DE0005548A921FFF786F9636B9B6963B1B3F18D
:101DF000805F09D0B3F1005F06D0B3F1405F03D03C
:101E00004D48AA21FFF776F921686268A3681A4352
:101E1000E3681A4323691A4363691A43A3691A439F
:101E2000E3691A43236A1A43636A1A43A36A1A438B
:101E3000E36A1A43236B13434FF0204242F82130E8
:101E4000A368082B06D1216852F8213043F04003E3
:101E500042F8213021680131626B1368506843EA0F
:101E60000013906843EA0023D06843EA00431069F6
:101E700043EA0053506943EA0063926913434FF009
:101E8000204242F82130E36AB3F5804F4DD1A36B75
:101E90001B680F2B03D92848CB21FFF72BF9A36B25
:101EA0005B680F2B03D92448CC21FFF723F9A36BE0
:101EB0009B68013BFE2B03D91F48CD21FFF71AF980
:101EC000A36B1B690F2B03D91B48CE21FFF712F917
:101ED000A36B5B690F2B03D91748CF21FFF70AF9D2
:101EE000A36B9B6963B1B3F1805F09D0B3F1005F6D
:101EF00006D0B3F1405F03D00F48D021FFF7FAF8C6
:101F00002168A26B1368506843EA0013906843EAA3
:101F10000023106943EA0053506943EA0063926961
:101F20001343064A42F8213010BD22686FF0704119
:101F3000024B43F8221010BDBC940008040100A01D
:101F400038B50D46044650B1022808D0042806D002
:101F5000062804D00F484FF48971FFF7CBF8012D04
:101F600004D90C4840F21311FFF7C4F845B14FF003
:101F7000204252F8243043F0010342F8243038BDA7
:101F80004FF0204252F82410034B0B4042F824300B
:101F900038BD00BFBC940008FEFF0F00034B1A6859
:101FA00012B11A68013A1A60704700BF8009002018
:101FB00008B5FFF75FFCFFF7E5F9BDE80840014809
:101FC000FFF7E8B9E894000870B54FF4804084B09A
:101FD0000121FEF7E3FF00200221FFF72FF8002187
:101FE0000220FFF72BF801240423002602A8102565
:101FF00002938DF80D508DF80C608DF80E40FEF7B1
:10200000D5F902A88DF80D5002940F258DF80C60BB
:102010008DF80E40FEF7CAF901A808238DF80430A8
:102020008DF807408DF805508DF80650FEF76EF9D3
:10203000062301A88DF807408DF805508DF806504D
:102040008DF80430FEF762F904B070BD10B5064C8F
:1020500014212046FEF7CCFD10F47F4F02D0A38A56
:10206000DBB2A38210BD00BF0054004000B50023C6
:1020700083B018480193FEF72BFE0190019B164A8E
:10208000934213D019D9154A93420CD11148DD213E
:10209000FEF794FD0F484FF480610122FEF7E2FD48
:1020A00003B05DF804FB02329342F9D10948BB2129
:1020B000FEF784FD03B05DF804FB102BF0D1084956
:1020C0000448FEF723FE03480121FEF71FFD03B07D
:1020D0005DF804FB0054004080000600820006000A
:1020E0001000001008B54FF40040FEF7CBF9FFF7E1
:1020F000C1FBFFF747F9BDE808400148FFF74AB9BF
:10210000E894000838B50120FEF7CEF900B938BDD3
:102110000120FEF71DFA114B012409CB00F58010B8
:1021200004FA03F1803089B28002FEF7C9FA05464D
:102130000B4B09CB00F5801004FA03F180308002CC
:1021400089B2FEF7BDFA002DE1D10028DFD00549A4
:10215000054A064B0D7015701D7038BD84090020AE
:10216000A8090020B9090020A4090020BA0900200C
:10217000F8B50420FEF798F900B9F8BD374D0420F2
:10218000FEF7E6F92B7813B1354B1B7873B3354B5B
:10219000012409CB00F5801004FA03F1803089B2E4
:1021A0008002FEF78DFA304B064609CB00F5801011
:1021B00004FA03F18030800289B2FEF781FA034607
:1021C00038BB2A4E3278B2B9294C23785BB1244F00
:1021D00028493B78284AC95C1278914221D00122D3
:1021E00000232A703B7000232370F8BD1F4B1B781F
:1021F000002BCCD1C1E72149224603C900F580104C
:1022000004FA01F18030800289B23370FEF7BAFA25
:10221000DAE70036184A164B18BF012616701C70F4
:10222000F8BD0133DBB2032B3B70DCD1134A012331
:1022300005CA00F5801003FA02F14FF0000EDFF836
:1022400040C08030800289B272462B7033708CF8A7
:10225000003087F800E0FEF795FAC4E7B9090020DE
:10226000A609002084090020A8090020A509002053
:10227000BA09002058000020B80900209409002065
:10228000A409002080B54F4D012495E8090000F510
:10229000801004FA03F1803088B02246800289B2AF
:1022A000FEF770FAFFF784FE21460220FFF7C2F81E
:1022B0004548FEF729FB21464348FEF753FC4248B8
:1022C0000021FEF74FFC21464FF40010FEF73EFEC2
:1022D00021460220FEF7ECFD21460220FEF7E8FD34
:1022E00021464FF40010FEF781FE4FF4001000214C
:1022F000FEF77CFE00264022022302A93348029208
:102300008DF80C308DF80D308DF80E408DF80F6083
:10231000FEF730F94FF4007302A92C480293FEF740
:1023200029F92A4806210422FEF79CFA09210422F1
:102330002648FEF797FA4FF4A060FDF7C9FF1F2368
:1023400001A88DF804308DF805408DF806608DF8F1
:102350000740FDF7DBFF202301A88DF80430FDF7CF
:10236000D5FFDFF86CE04FF480434FF480628027A4
:10237000154804A9ADF81630ADF81C30CDF810E0C2
:10238000ADF81A20ADF81460ADF81870FEF700FB38
:1023900022460D484FF4E061FEF764FC21460A48EE
:1023A000FEF7B4FBFFF710FE95E8090000F580107A
:1023B000384404FA03F1800289B22246FEF7E2F9BA
:1023C000FEE700BF940900200054004000040240D2
:1023D000203005002DE9F041294D4FF0020800277B
:1023E000C5F800806F6004200121FEF761FD2946D9
:1023F00051F8080B6B68012400F5801004FA03F310
:102400008030204E85F80D802F73EF73AB60AC7376
:102410008002FEF7AFF821460423102086E8080169
:10242000FEF746FD314651F8080B736800F5801041
:10243000154D803004FA03F38002B36086F80D80F6
:102440003473B473F473FEF795F82046214685E89B
:102450008001FEF72DFD294651F8080B6B6800F549
:10246000801004FA03F3803085F80D802F73AC736D
:10247000EF73AB608002BDE8F041FEF77BB800BFB0
:102480008409002094090020A809002081F000415F
:1024900002E000BF83F0004330B54FEA41044FEA49
:1024A000430594EA050F08BF90EA020F1FBF54EAE4
:1024B000000C55EA020C7FEA645C7FEA655C00F080
:1024C000E2804FEA5454D4EB5555B8BF6D420CDD51
:1024D0002C4480EA020281EA030382EA000083EAD4
:1024E000010180EA020281EA0303362D88BF30BD74
:1024F00011F0004F4FEA01314FF4801C4CEA1131CA
:1025000002D0404261EB410113F0004F4FEA033328
:102510004CEA133302D0524263EB430394EA050FB3
:1025200000F0A780A4F10104D5F1200E0DDB02FA22
:102530000EFC22FA05F2801841F1000103FA0EF2B6
:10254000801843FA05F359410EE0A5F120050EF17C
:10255000200E012A03FA0EFC28BF4CF0020C43FAAD
:1025600005F3C01851EBE37101F0004507D54FF0BA
:10257000000EDCF1000C7EEB00006EEB0101B1F50A
:10258000801F1BD3B1F5001F0CD349085FEA300050
:102590004FEA3C0C04F101044FEA445212F5800F5B
:1025A00080F09A80BCF1004F08BF5FEA500C50F1F8
:1025B000000041EB045141EA050130BD5FEA4C0CDB
:1025C000404141EB010111F4801FA4F10104E9D164
:1025D00091F0000F04BF01460020B1FA81F308BF5B
:1025E0002033A3F10B03B3F120020CDA0C3208DD27
:1025F00002F1140CC2F10C0201FA0CF021FA02F102
:102600000CE002F11402D8BFC2F1200C01FA02F171
:1026100020FA0CFCDCBF41EA0C019040E41AA2BF96
:1026200001EB0451294330BD6FEA04041F3C1CDA5E
:102630000C340EDC04F11404C4F1200220FA04F07E
:1026400001FA02F340EA030021FA04F345EA030128
:1026500030BDC4F10C04C4F1200220FA02F001FAEA
:1026600004F340EA0300294630BD21FA04F029466C
:1026700030BD94F0000F83F4801306BF81F4801105
:102680000134013D4EE77FEA645C18BF7FEA655C78
:1026900029D094EA050F08BF90EA020F05D054EA4A
:1026A000000C04BF1946104630BD91EA030F1EBF4F
:1026B0000021002030BD5FEA545C05D14000494153
:1026C00028BF41F0004130BD14F580043CBF01F546
:1026D000801130BD01F0004545F0FE4141F470012C
:1026E0004FF0000030BD7FEA645C1ABF1946104607
:1026F0007FEA655C1CBF0B46024650EA013406BF08
:1027000052EA033591EA030F41F4002130BD00BFC6
:1027100090F0000F04BF0021704730B54FF4806483
:1027200004F132044FF000054FF0000150E700BF04
:1027300090F0000F04BF0021704730B54FF4806463
:1027400004F1320410F0004548BF40424FF0000150
:102750003EE700BF42004FEAE2014FEA31014FEA93
:1027600002701FBF12F07F4393F07F4F81F06051E2
:10277000704792F0000F14BF93F07F4F704730B551
:102780004FF4607401F0004521F0004120E700BFE4
:1027900050EA010208BF704730B54FF000050AE06B
:1027A00050EA010208BF704730B511F0004502D56C
:1027B000404261EB41014FF4806404F132045FEA6E
:1027C000915C3FF4DCAE4FF003025FEADC0C18BF13
:1027D00003325FEADC0C18BF033202EBDC02C2F109
:1027E000200300FA03FC20FA02F001FA03FE40EA9B
:1027F0000E0021FA02F11444C1E600BF4FF0FF3C85
:1028000006E000BF4FF0010C02E000BF4FF0010CEA
:102810004DF804CD4FEA410C7FEA6C5C4FEA430C63
:1028200018BF7FEA6C5C1BD001B050EA410C0CBFB2
:1028300052EA430C91EA030F02BF90EA020F002014
:10284000704710F1000F91EA030F58BF994208BF7B
:1028500090422CBFD8176FEAE37040F00100704738
:102860004FEA410C7FEA6C5C02D150EA013C07D18F
:102870004FEA430C7FEA6C5CD6D152EA033CD3D0DA
:102880005DF8040B704700BF8446104662468C46D4
:102890001946634600E000BF01B5FFF7B7FF002807
:1028A00048BF10F1000F01BD4DF808EDFFF7F4FF30
:1028B0000CBF012000205DF808FB00BF4DF808EDBB
:1028C000FFF7EAFF34BF012000205DF808FB00BFDE
:1028D0004DF808EDFFF7E0FF94BF012000205DF800
:1028E00008FB00BF4DF808EDFFF7CEFF94BF0120B5
:1028F00000205DF808FB00BF4DF808EDFFF7C4FFAE
:1029000034BF012000205DF808FB00BF014B1868B0
:10291000704700BF88040020844641EA000313F09A
:10292000030349D1403A23D30B6803604B684360EB
:102930008B688360CB68C3600B6903614B6943613B
:102940008B698361CB69C3610B6A03624B6A436223
:102950008B6A8362CB6AC3620B6B03634B6B43630B
:102960008B6B8363CB6BC36340304031403ADBD227
:1029700030320BD30B6803604B6843608B68836015
:10298000CB68C36010301031103AF3D20C3205D34B
:1029900051F8043B40F8043B043AF9D2043208D021
:1029A000D2071CBF11F8013B00F8013B01D30B8893
:1029B00003806046704700BF082A13D38B07B1D04D
:1029C00010F00303AED0C3F10403D21ADB071CBF1F
:1029D00011F8013B00F8013BA4D331F8023B20F889
:1029E000023B9FE7043AD9D3013A11F8013B00F8C2
:1029F000013BF9D20B7803704B7843708B7883706E
:102A00006046704770B4840746D0541E002A41D0F7
:102A1000CDB2034602E0621EE4B3144603F8015B44
:102A20009A07F8D1032C2ED9CDB245EA05250F2CF3
:102A300045EA054519D9264603F11002103E0F2E2E
:102A400042F8105C42F80C5C42F8085C42F8045C06
:102A500002F11002F2D8A4F1100222F00F0204F0E9
:102A60000F041032032C13440DD91E462246043A9B
:102A7000032A46F8045BFAD8221F22F0030204322C
:102A8000134404F003042CB1C9B21C4403F8011B25
:102A9000A342FBD170BC704714460346C2E700BF97
:102AA00020F0030110F00300C0F1000051F8043BD6
:102AB00000F1040C4FEACC0C6FF000021CBF22FAAC
:102AC0000CF213434FF0010C4CEA0C2C4CEA0C4C6A
:102AD000A3EB0C0222EA030212EACC1204BF51F863
:102AE000043B0430F4D0C2F1000102EA0102B2FA60
:102AF00082F2C2F11F0200EBD20070472DE9F04FC5
:102B0000C1B089460A920E93089002F0A5FA0368B4
:102B100018461793FFF7C4FFB9F80C3018901C063D
:102B200004D5D9F81030002B01F0C28030AF3C46FC
:102B30004E4600231393169319930B9325932493D6
:102B40002397149315930A9D2B78002B00F0A980EE
:102B5000252B02D1A5E0252B03D015F8013F002B32
:102B6000F9D10A9BEB1A73B1249A259901320A987C
:102B70001944072A84E809002591249272DC08345C
:102B80000B9A1A440B922B78002B00F0E28700235B
:102B90001A46691C6D788DF86F300C9307934FF0CF
:102BA000FF3A4B1CA5F12001582900F2EA83DFE827
:102BB00011F06D02E803E803D102E803E803E8033B
:102BC000E803E803E803BC020D02E803F401110284
:102BD000E803D8027B027B027B027B027B027B0242
:102BE0007B027B027B02E803E803E803E803E803D7
:102BF000E803E803E803E803E8038A02DF02E803E6
:102C0000DF02E803E803E803E803CB03E803E80393
:102C10002F03E803E803E803E803E8034D03E803B0
:102C2000E8036703E803E803E803E803E803E803CD
:102C3000E803E803E803E80382032B02DF02DF0274
:102C4000DF02CA022B02E803E803B202E803D20360
:102C5000FB0119037402E803A303E8037A00E80305
:102C6000E80347020898314623AA079303F004F8C3
:102C700050B93C46079B83E70898314623AA02F0E7
:102C8000FBFF002800F08581B146B9F80C3013F045
:102C9000400F0B9B18BF4FF0FF33184641B0BDE803
:102CA000F08F0A9D6FE70A93079B980640F1D78241
:102CB0000E9B03F1070929F0070303F10802D3E98A
:102CC00000890E92012300229446CDF844A08DF88D
:102CD0006F20BAF1000F03DB079A22F080020792FF
:102CE00058EA090240F06F83BAF1000F00F07484D3
:102CF000012B00F07283022B00F0C28439464FEAA8
:102D0000D80242EA49724FEAD90008F00703814627
:102D10009046303358EA090201F8013DEFD1079A95
:102D20001091D20700F17F857B1A0D930D9A5346BF
:102D30009245B8BF1346099300231293BCF1000FCC
:102D400002D0099B01330993079B13F002030F93F1
:102D500002D0099B02330993079B13F0840940F0CA
:102D60002F830C9B099AC2EB0308B8F1000F40F3C4
:102D70002783B8F1100F2599249ADFF870A529DD73
:102D800053464FF0100BC246A8461D4606E0AAF176
:102D9000100ABAF1100F04F1080417DD01321031E6
:102DA000072A2591249284E82008F0DD089831460E
:102DB00023AA02F061FF00287FF466AFAAF1100A8F
:102DC000BAF1100F3C462599249AE7DC2B4645467C
:102DD000D0469A46013208EB010B072ACDF894B091
:102DE0002492C4F800A0C4F8048000F3DE829DF8A9
:102DF0006FC00834BCF1000F0FD0249B0BF1010B06
:102E000001330DF16F010122072BCDF894B024930B
:102E100084E8060000F3FD8308340F9B73B1249B04
:102E20000BF1020B01331CA90222072BCDF894B041
:102E3000249384E8060000F3F9830834B9F1800F85
:102E400000F03483119B0D9AC2EB030ABAF1000F14
:102E50003CDDBAF1100F249ADFF894942BDD49463B
:102E60005B46A9464FF01008DDF820B00D4606E09D
:102E7000AAF1100ABAF1100F04F1080417DD0132AB
:102E80001033072A2593249284E82001F0DD584668
:102E9000314623AA02F0F0FE00287FF4F5AEAAF135
:102EA000100ABAF1100F3C46259B249AE7DC9B469A
:102EB0002B464D4699460132D344072ACDF894B0AB
:102EC000249284E8000600F398830834079BD90510
:102ED00000F18F82249B0D990133109A8B44072BAC
:102EE000CDF894B022606160249300F3B883083475
:102EF000079B5A0741D50C9B099A9D1A002D3CDD72
:102F0000102D249BDFF8E4A323DD4FF010085A4670
:102F1000DDF8209004E0103D102D04F1080417DDC9
:102F200001331032072B25922493C4F800A0C4F873
:102F30000480F0DD4846314623AA02F09DFE0028B9
:102F40007FF4A2AE103D102D3C46259A249BE7DC71
:102F500093460133AB44072BCDF894B02493C4F8C7
:102F600000A0656009DD0898314623AA02F084FEBE
:102F700000287FF489AEDDF894B00B9B099A0C9978
:102F80008A42ACBF9B185B180B93BBF1000F7FF418
:102F900073AE002324933C46D5E51946079840F0CC
:102FA000040007901D78FCE50A93079B13F02003AB
:102FB00000F038810E9B03F1070929F0070303F1A4
:102FC0000802D3E900890E9200237CE61D78194699
:102FD0002B22E6E51D78591C2A2D00F0E587A5F186
:102FE000300009280B464FF0000A3FF6DBAD13F81E
:102FF000015B0AEB8A0A00EB4A0AA5F130000928B6
:10300000F5D94AEAEA7ACDE50A93079B8DF86F2055
:10301000980662D50E9B03F1070929F00709D9E943
:10302000002309F10801904699460E91002A73F198
:10303000000364DB9DF86FC0CDF844A0012348E68F
:103040000A93A74B8DF86F201693079B9B0640F1C0
:1030500020810E9B03F1070929F0070303F1080201
:103060000E92D3E90089079BD90740F1228158EAE3
:10307000090300F01E81079A302342F002028DF806
:1030800070308DF87150079202231CE6002A40F040
:10309000E5841D781946202283E5079941F0200137
:1030A00007911D7819467CE5A5F13000002113F841
:1030B000015B01EB810100EB4101A5F13000092822
:1030C000F5D90C916EE50A93079B8DF86F2043F0BC
:1030D00010030793079B98069CD4079BD90640F1E1
:1030E000C1840E9A13461B6804320E924FEAE379AC
:1030F0001A4698464B46002A73F100039ADA4FF0BD
:103100002D0CD8F1000869EB49098DF86FC0CDF896
:1031100044A00123DDE51D7807996C2D00F025857D
:1031200041F01001079119463BE50E9D29680846BC
:103130000C912946002801F10401C0F21D850E9171
:103140001D7819462DE5079941F0400107911D783A
:10315000194626E5079941F0010107911D781946A6
:103160001FE5079941F0800107911D78194618E580
:103170000A93079B8DF86F2013F0080F0E9BD34620
:1031800003F1070900F0378429F0070303F108026F
:103190000E921A685B68149215931599149802F0B0
:1031A0002DFD01281599149840F00B84002200236E
:1031B000FFF784FB002840F039869DF86FC0079B1D
:1031C000484A23F0800307931346DFF828E10321E0
:1031D000472DD8BF734600200991119010930D918F
:1031E0001290ABE50E9907980A9330230A688DF880
:1031F00070303B4B782540F0020004311693079065
:103200000E9190464FF000098DF8715002235AE557
:103210000A93079B43F010030793079B13F02003C7
:103220007FF4C8AE079A12F0100240F00A83079BA1
:1032300013F0400300F005830E9913460A4604324A
:10324000B1F800804FF000090E923CE50A93079B0D
:1032500043F010030793079B98063FF529AD079BA2
:10326000D90600F1F782079B5A0640F1F3820E9AC5
:103270004FF00009B2F80080043201230E9222E5DB
:103280000A93194B8DF86F201693079B9B063FF509
:10329000E0AE079BD80640F1BB830E9A13461B682D
:1032A00004329846079B0E92D9074FF000093FF56C
:1032B000DEAE022307E50E980A93026800238DF81C
:1032C0009820024601219C4604328DF86F301193FC
:1032D000129326AB09910E920D91109334E500BF25
:1032E000BC9500089C950008A895000888950008E2
:1032F000DC950008989500080E9A0A9313684FF021
:10330000000B10938DF86FB002F10409002B00F050
:103310005885BAF1000F1098C0F2EA845946524617
:1033200002F020F9002800F08985109BCDF844B008
:10333000C31A0D93CDF8389023EAE3730993CDF8BF
:1033400048B09DF86FC0F9E4079941F00801079172
:103350001D78194625E40A93079B8DF86F209A067D
:1033600040F165830E9A134604330E930B9B11684C
:103370004FEAE3791A4698464B46C1E90023FFF726
:10338000E2BB0A938DF86F20002D00F0E28300234A
:1033900001229C468DF86F301193129326AB09924F
:1033A0008DF898500D921093CEE40898314623AAD8
:1033B00002F062FC00287FF467AC3C469DF86FC0C9
:1033C000DDF894B016E5012B7FF495ACB9F1000F50
:1033D00008BFB8F10A0F80F006820DF5807B08F176
:1033E00030080BF8418DCBEB07030D93CDF840B0BF
:1033F0009CE4652D40F3A0801498159900220023C9
:10340000FFF752FA002800F05481249BC149013390
:103410000BF1010B0122072BCDF894B0249384E823
:10342000060000F33E8308341D9B139A934203DB8E
:10343000079BDA077FF55CAD249B18990133179A37
:103440008B44072BCDF894B022606160249300F385
:103450001A840834139B5D1E002D7FF749AD102D93
:10346000249BDFF8B49240F3EF804FF010085A46E7
:10347000DDF820A004E00834103D102D40F3E38077
:1034800001331032072B25922493C4F80090C4F81E
:103490000480F0DD5046314623AA02F0EDFB0028FF
:1034A0007FF4F2AB3C46259A249BE5E70C9B099AF6
:1034B000C2EB030ABAF1000F7FF7C4ACBAF1100FE8
:1034C000249ADFF854922BDD49465B46A9464FF01B
:1034D0001008DDF820B00D4606E0AAF1100ABAF196
:1034E000100F04F1080417DD01321033072A259369
:1034F000249284E82001F0DD5846314623AA02F0E8
:10350000BBFB00287FF4C0ABAAF1100ABAF1100F80
:103510003C46259B249AE7DC9B462B464D46994624
:103520000132D344072ACDF894B0249284E80006EF
:1035300000F33A82083485E4139B249D012B40F369
:10354000FC81013510990BF101030122072D259310
:1035500021602495626000F30E82083418990135C9
:1035600003EB010B179B072DCDF894B02495236036
:10357000616000F30C82083400231498159900222E
:10358000FFF792F9139B002840F0E380109A013B6B
:10359000013501329B44072D22602495CDF894B06B
:1035A000636000F313810834199A013593441FAB0B
:1035B000072DCDF894B02495626023607FF797AC17
:1035C0000898314623AA02F057FB00287FF45CAB31
:1035D0003C46DDF894B08BE4002B4CD1079BD80718
:1035E00049D50DF5807B30230BF8413DCBEB07032C
:1035F0000D93CDF840B0FFF799BB0898314623AA48
:1036000002F03AFB00287FF43FAB3C46DDF894B073
:103610005CE40898314623AA02F02EFB00287FF4D0
:1036200033AB3C46DDF894B0FFF7F7BB0898314662
:1036300023AA02F021FB00287FF426AB3C46DDF8EC
:1036400094B0FFF7FBBB93460133AB44072BCDF897
:1036500094B02493C4F8009065607FF748AC089854
:10366000314623AA02F008FB00287FF40DABDDF8F9
:1036700094B03C463CE4CDF834A01097FFF756BB1D
:10368000BB4616984FEA181343EA09734FEA19111B
:1036900008F00F0289469846835C0BF8013D58EA12
:1036A0000903EFD15B46CDF840B0FB1A0D93FFF74D
:1036B0003DBB1D9D002D40F30082139A12991346C5
:1036C0008A42A8BF0B461D461099002D01EB020A45
:1036D0000CDD0A46249BAB440133072BCDF894B094
:1036E00084E82400249300F348830834129B002DBF
:1036F000A8BF5B1B002B1D4640F3C180102D249BEF
:10370000DFF8149040F3C0815A464FF01008DDF8FE
:1037100020B008E0D8950008DC9500080834103D7A
:10372000102D40F3B08101331032072B25922493E2
:10373000C4F80090C4F80480F0DD5846314623AA4E
:1037400002F09AFA00287FF49FAA3C46259A249B0F
:10375000E5E703F1FF38B8F1000F7FF725AFB8F1C7
:10376000100FDFF8489525DD5B464FF0100ADDF8B5
:1037700020B006E0A8F11008B8F1100F04F1080419
:1037800017DD01351033072D2593249584E80006B5
:10379000F0DD5846314623AA02F06EFA00287FF485
:1037A00073AAA8F11008B8F1100F3C46259B249D80
:1037B000E7DC9B460135C344072DCDF894B0249532
:1037C000C4F80090C4F804807FF7EDAE0898314645
:1037D00023AA02F051FA00287FF456AADDF894B02B
:1037E000249D3C46E0E6BB46CDF824C04046494611
:1037F0000A22002303F0A6F83032404649460BF86F
:10380000012D00230A2203F09DF88046894658EADC
:103810000903EBD15B46FB1ADDF824C0CDF840B0BC
:103820000D93FFF783BA302B109B3FF43EAF013B63
:103830001A461093BA1A30230D9201F8013CFFF793
:1038400075BA0E994FF000090A6804310E9190463E
:10385000FFF739BA0E9901230A6804310E91904698
:103860004FF00009FFF72FBA0898314623AA02F05B
:1038700003FA00287FF408AA3C46DDF894B0109AB9
:1038800012991D9B0A449046139A934246DB079A6D
:10389000D00743D4139AC8EB0A05D31A9D42A8BF98
:1038A0001D46002D0CDD249AAB440132072ACDF8C9
:1038B00094B0C4F800806560249200F396820834C6
:1038C000002DB4BF1D465D1B002D7FF711AB102DE1
:1038D000249BDFF8D8937FF7B7AE4FF010085A4615
:1038E000DDF820A004E00834103D102D7FF7ABAECA
:1038F00001331032072B25922493C4F80090C4F8AA
:103900000480F0DD5046314623AA02F0B5F90028C4
:103910007FF4BAA93C46259A249BE5E7249A189897
:10392000013217998344072ACDF894B02160606072
:10393000249200F339820834ACE7079BD9073FF59E
:1039400000AE0135109A0BF1010B0123072DCDF8C4
:1039500094B02260249563607FF725AE08983146C5
:1039600023AA02F089F900287FF48EA93C46DDF8ED
:1039700094B0249D18E60898314623AA02F07CF9F9
:1039800000287FF481A93C46259B249DE6E5089804
:10399000314623AA02F070F900287FF475A93C464D
:1039A000DDF894B0249DE7E50898314623AA02F09B
:1039B00063F900287FF468A93C46DDF894B0FFF76E
:1039C00041BA02F01BF9002840F0DD80B44AB54B43
:1039D0008646472DD8BF1A4611900798032120F03C
:1039E000800009910790CDF848E010920D919DF864
:1039F0006FC0FFF7A3B929F00709D9F80030149375
:103A0000D9F80430159309F108030E93FFF7C5BBED
:103A1000079B0E9A13F0400F13463FF440AC04335B
:103A2000B2F800804FF000090E93FFF71CBB079B14
:103A3000DB060BD4079B5D0608D50E9A136804328B
:103A40000E92BDF82C201A80FFF77DB80E9A1368ED
:103A500004320E920B9A1A60FFF775B819461D785A
:103A6000FFF79FB8079B0E9A13F0400F13463FF4E1
:103A70003AABB2F9008004334FEAE8790E9342463C
:103A80004B46FFF7D3BA93460133AB44072BCDF82F
:103A900094B02493C4F8009065603FF7E5AE083415
:103AA000EDE60898314623AA02F0E6F800287FF4F4
:103AB000EBA83C46DDF894B0B6E4249B7A49013388
:103AC0000BF1010B0122072BCDF894B0249384E86D
:103AD000060000F3FD8008342DB9139B1BB9079B2A
:103AE000DB077FF505AA249B18980133179A0BEB87
:103AF0000001072B259122606060249300F3F4817C
:103B000004F108026D42002D40F30781102DDFF80B
:103B10009C9140F33E811024DDF8208004E00832BF
:103B2000103D102D40F3358101331031072B2591C5
:103B30002493C2F800905460F1DD4046314623AA38
:103B400002F09AF800287FF49FA83A462599249B12
:103B5000E6E7259BB146002B3FF497A8089831462D
:103B600023AA02F089F8FFF790B841F020010791ED
:103B70005D78591CFFF715B80C980E9140420C90D7
:103B80001946FFF70BBA25F02003BAF1FF3F0D935A
:103B900000F0AB80472B05D1BAF1000F14BFD3461C
:103BA0004FF0010B079B43F480731193159BB3F106
:103BB000000A149B0993B7BF5346002303F1004A40
:103BC0002D23662D0F9300F0B980462D00F0B680AE
:103BD0000D9B0220452B14BFD9460BF101091DA9ED
:103BE0008DE8010202911EA821A90390099A53466B
:103BF0000491089800F0DCFA672D109002D0472D50
:103C000040F0AC80079BDB0740F19681109B03EBF3
:103C100009080998514600220023FEF745FE0028B6
:103C200040F00A81219B984506D930215A1C2192E7
:103C30001970219B9845F9D8109A9B1A13930D9BE4
:103C4000472B1D9B00F0EB80652D40F30581662D11
:103C5000129300F06481139B129A934200F35181F6
:103C6000079BD90700F1888122EAE2730D920F9A2F
:103C7000002A40F0C9800993119B9DF86FC00793FB
:103C80001192FFF75BB80898314623AA01F0F4FFC0
:103C900000287EF4F9AF3C46DDF894B0FFF7DABBBC
:103CA000A4950008A0950008D8950008DC950008A8
:103CB0000898402101F0D4F9C9F80000C9F81000B3
:103CC000002800F086814023C9F81430FEF72EBF8B
:103CD0000898314623AA01F0CFFF00287EF4D4AF24
:103CE0003C461D9DDDF894B0F6E64FF0060B59E713
:103CF000CDF844B0FEF7D4FECDF838900D900346D1
:103D0000FFF71ABB0898314623AA01F0B5FF002837
:103D10007EF4BAAF3A462599249B139C013301EBFC
:103D2000040B1099072BCDF894B0249311605460C4
:103D30003FF795AC02F10804FFF7DAB803201DA99C
:103D40008DE8010802911EA821A90390099A534603
:103D50000491089800F02CFAD9461090109B03EBC0
:103D600009080D9B462B7FF454AF109B1B78302B1A
:103D700000F0E4801D9B98444BE70898314623AA45
:103D800001F07AFF00287EF47FAF3C46DDF894B066
:103D9000ACE401332944072B25912493C2F8009009
:103DA0005560AFDC0832B8E70898314623AA01F025
:103DB00063FF00287EF468AF3C461D9BDDF894B09D
:103DC00068E55346062B28BF06230D9323EAE373C9
:103DD000DDF840C00993844BCDF83890CDF844C04D
:103DE000CDF848C01093FEF7A9BF0898314623AA22
:103DF00001F042FF00287EF447AF1D9B139ADDF8C7
:103E000094B0D31A3C465BE50993119B4FF02D0CFF
:103E1000079300238DF86FC01193FEF792BFDA1C51
:103E200019DB9B4517DB1293672514E72D239C466E
:103E30008DF86F30FFF7C3B94346FDE62AEAEA730F
:103E40001190CDF8389012909DF86FC00993CDF87D
:103E500034A0FEF773BF023D013B002B1D93BABF98
:103E60005B422D222B22092B8DF87C508DF87D2072
:103E70007ADD0DF18B0001465C4A82FB032EDA17D6
:103E8000C2EBAE0E0EEB8E02A3EB42027346303253
:103E9000092B01F8012DEFDC0A4630335FFA83FE6F
:103EA00002F801ED904240F29B800DF17E020B463C
:103EB00001E013F801EB834202F801EBF9D123ABE7
:103EC0005B1A0DF17E0213441FAA9B1A139A1993D1
:103ED000012A13440D935EDD0D9B002201330D93E7
:103EE000129223EAE373C2E60898314623AA01F04E
:103EF000C3FE00287EF4C8AE3A461D9D2599249B3A
:103F000000E6129B002BD8BFC3F10208139BC8BF69
:103F10004FF0010843440D9323EAE373A7E6002B17
:103F200030DDBBF1000F17D1079BDB0714D4129AC9
:103F300022EAE2730D929AE6219B7DE609985146AA
:103F400000220023FEF7B0FC00287FF413AFC9F174
:103F500001031D9398445CE6129B0BF10108434456
:103F60000D9323EAE37382E6303330228DF87F30FD
:103F70008DF87E2020ABA7E7129B01330D9323EA37
:103F8000E37374E6BBF1000F1DD1079BD8071AD469
:103F900001230D936BE6079B13F001039CD1129351
:103FA0000D9B23EAE37362E60E9D2846D5F800A038
:103FB0000430BAF1000F5D780E90BEF6F2AD4FF00E
:103FC000FF3AFEF7EEBD0BF102030D9323EAE37314
:103FD0004DE6089A0C2313604FF0FF30FEF75EBEEB
:103FE0000DF17E0370E700BFD09500086766666636
:103FF00070B5002A9AB005462DDB14461A464FF4D8
:10400000027300910491ADF80C304FF6FF760FD09B
:10401000013C69461E9B02940594ADF80E60FEF7C4
:104020006DFD421C14DB009B00221A701AB070BD9B
:104030001E9B694602940594ADF80E60FEF75EFD86
:10404000431C01DB1AB070BD8B232B601AB070BD0E
:104050008B232B60E7E78B2303604FF0FF30F1E702
:1040600030B50D461446054A83B0014610680093EA
:104070002A462346FFF7BCFF03B030BD880400206A
:104080002DE9F04F03690F6983B09F4200F38B80E5
:10409000013F01F1140600F1140A56F827305AF8CE
:1040A00027200133B2FBF3F8BB00009306EB0309B2
:1040B00053440193B8F1000F3DD000231C46B44691
:1040C000D6461A465CF804BBDEF800501FFA8BF3A4
:1040D0004FEA1B4B03FB08220BFB08F303EB1243D5
:1040E00092B2A41A1FFA83FBAAB22244CBEB154466
:1040F00004EB224492B242EA0442E1454EF8042B1A
:104100004FEA24444FEA1342DCD2009B5AF80330B2
:104110008BB9019C231F9A450CD254F8043C4BB92F
:10412000A4F1080302E01A68043B1AB99A4507F1A2
:10413000FF37F8D30761044601F076FC00282EDB38
:1041400000235546194608F1010856F8042B2B6840
:1041500090B2081A120C99B2C2EB1343421803EB47
:10416000224392B242EA0342B14545F8042B4FEA9A
:104170002341EAD25AF827200AEB87037AB91A1F9B
:1041800092450BD253F8042C42B9083B02E01A685E
:10419000043B1AB99A4507F1FF37F8D32761404627
:1041A00003B0BDE8F08F002003B0BDE8F08F00BF82
:1041B0002DE9F04F016C99B00446CDE90223259D0D
:1041C00041B1426C012393408B604A6001F040FA98
:1041D00000232364DDE90223002B994636DB00230C
:1041E0002B60A54B1A4609EA0303934217D0DDE979
:1041F00002670022002330463946FEF755FB804611
:1042000000282BD0249A01231360269B002B00F05A
:10421000CB809A481860013819B0BDE8F08F42F29F
:104220000F73249A1360029B002B00F0A680944821
:10423000269B002BF0D0C378002B00F0B78000F154
:104240000803269A136019B0BDE8F08F039A012382
:1042500022F000492B60CDF80C90C2E717AA16ABEC
:104260008DE80C00204632463B4601F073FC5FEAC5
:104270001955834640F08A80DDF85880179D6FF409
:10428000826345449D42C0F295827E4A05F2124304
:10429000521B09FA02F9029A22FA03F049EA0000D5
:1042A000FEF736FA0123013DA1F1F87112930022C5
:1042B000754BFEF7EFF86AA3D3E9002302F008F983
:1042C00069A3D3E90023FEF7E7F8064628460F4620
:1042D000FEF72EFA66A3D3E9002302F0F9F80246AE
:1042E0000B4630463946FEF7D7F806460F4602F031
:1042F00001FB39460590002230460023FEF7DEFA26
:10430000002840F0A481059B162B00F29D81DDE979
:10431000022305985D4901EBC001D1E90001FEF7D8
:10432000EBFA002800F05082059B013B0593002327
:104330000C93C5EB0805B5F1010A00F19F8100233C
:104340000693059B002BC0F290819A440B930023A7
:104350000993229B092B2BD8052B40F37786043B2E
:1043600022930025229B023B032B00F25586DFE8B7
:1043700013F0CF03C103B0026A06414B444AC9F3AC
:104380001300002814BF1846104651E7C7F3130363
:1043900043F07F51CDF848803046A5F2FF3541F417
:1043A0004011DDF8588082E73A4835E7C31C48E7FA
:1043B000002161642046229101F022F94FF0FF3381
:1043C000229A07930D9301230890239220640A9365
:1043D000179B002BC0F2D080059A0E2A00F3CC80E8
:1043E0002A4B03EBC203D3E90089239B002BC0F2C5
:1043F0009283DDE9026742464B463046394602F079
:1044000091F902F077FA8246FEF792F942464B465E
:1044100002F05EF802460B4630463946FEF73AF89F
:10442000079E089F0AF13005012E3D7002460B469B
:1044300007F1010562D00022174B02F049F8002273
:10444000002306460F46FEF72FFA002840F0818031
:10445000CDF808B0DDF820A0DDF81CB006942AE005
:1044600061436F63A787D23FB3C8608B288AC63F7A
:10447000FB799F501344D33F0000F07FD99500088B
:10448000F89500080EFCFFFF0000F83F08960008B2
:10449000EC950008D8950008000024400022C84B85
:1044A00002F016F80022002306460F46FEF7FCF93C
:1044B000002840F0E08342464B463046394602F041
:1044C00031F902F017FA0446FEF732F942464B463C
:1044D00001F0FEFF02460B4630463946FDF7DAFF93
:1044E00004F1300605F8016BCAEB0506B345024638
:1044F0000B46D3D1A246DDF808B0069C10461946FB
:10450000FDF7CAFF06460F464046494632463B463F
:10451000FEF7D4F948B94046494632463B46FEF7D5
:10452000C3F9B0B11AF0010F13D015F8018C6B1E4E
:10453000089904E08B4200F0458413F8018DB8F12E
:10454000390F03F101051A46F4D008F10103DBB27B
:1045500013702046594601F07BF80022059B2A7013
:10456000249A01331360269B002B00F04A8308989D
:104570001D6019B0BDE8F08F0A9A002A00F084800F
:10458000229A012A40F30983079B5F1E099BBB42C5
:10459000C0F2AF83DF1B079B002BC0F2A584069DF2
:1045A000079B069A20461A44012106929A4401F07C
:1045B000E9F8064665B1BAF1000F09DDAA45534690
:1045C000A8BF2B46069AED1AD21A0692C3EB0A0A26
:1045D000099B002B1ADD0A9B002B00F08383002F20
:1045E00010DD31463A46204601F076F906465A4635
:1045F0003146204601F0D0F880465946204601F069
:1046000027F8C346099BDA1B40F0A7822046012108
:1046100001F0B8F80B9B8046002B39DD01461A46A5
:10462000204601F059F9229B8046012B40F39B82E2
:104630004FF00009D8F8103008EB8303186901F037
:1046400053F8C0F120002DE001230C9371E605988A
:10465000FEF76EF832463B46FEF726F900287FF457
:1046600052AE059B013B05934DE6069A059BD21A77
:104670005B420993002306920B936AE6CAF100039A
:1046800006934FF0000A5CE6099F069D0A9E91E79B
:10469000229B012B40F3B8824FF000090B9B002BAB
:1046A000C8D10120504410F01F0000F08180C0F1FB
:1046B0002003042B40F3C184C0F11C00069B054479
:1046C000034406938244069B002B05DD59461A4697
:1046D000204601F051F98346BAF1000F05DD41464D
:1046E0005246204601F048F980460C9B002B40F0D2
:1046F0006D82079B002B40F39B820A9B002B71D19C
:10470000DDF82090079F4D4604E05946204600F012
:10471000A9FF834658464146FFF7B2FC303005F802
:10472000010BC9EB0503BB424FF00A024FF0000337
:10473000EBDB089B079A8446012AACBF9B18013328
:104740001D464FF0000A594601222046CDF808C008
:1047500001F012F94146834601F066F90028DDF8C0
:1047600008C040F3FC8215F8012C6B1E089904E088
:104770008B4200F0798213F8012D392A03F10105EB
:10478000F6D001321A704146204600F061FF002E3B
:104790003FF4DFAEBAF1000F05D0B24503D0514669
:1047A000204600F055FF3146204600F051FFD0E68C
:1047B0001C2083E7034B029A5B1B02FA03F06FE5B0
:1047C00000002440EEFBFFFF0C90B2E531460023D1
:1047D00020460A2200F046FF0D9B0646002B40F3C0
:1047E00015840793002D05DD31462A46204601F049
:1047F000C3F80646B9F1000F40F0EE82B146089AC0
:10480000079B1746013BD3180993029B03F0010352
:104810000A9341465846FFF733FC31460546584651
:1048200001F002F94A4682464146204601F020F94D
:10483000C268034605F1300C002A40F0BD811946DC
:104840005846CDF81CC0069301F0EEF8069B029086
:104850001946204600F0FCFE029ADDF81CC02AB979
:10486000229B1BB90A9B002B00F0B083BAF1000F0A
:10487000C0F2578205D1229B1BB90A9B002B00F086
:104880005082002A00F3BC82099B07F1010A9F4273
:1048900087F800C0554600F0BF8259460A2200231F
:1048A000204600F0DFFE4E458346314620464FF05D
:1048B0000A024FF0000300F0798100F0D3FE494670
:1048C00006460A222046002300F0CCFE57468146C9
:1048D0009FE701230A93239B002B40F319821F4675
:1048E0001E460D9307930021172F61640AD90122F8
:1048F00004235B0003F114008742114602F1010218
:10490000F7D26164204600F07BFE0E2E08902064F2
:104910003FF65EAD002D3FF45BADDDE90223059966
:10492000CDE90E23002940F32682BA4B01F00F0295
:104930000D1103EBC203E906D3E9006740F1E18101
:10494000DDE90E01B44B05F00F05D3E9082301F0B2
:10495000E9FECDE902014FF003088DB1304639463A
:10496000DFF8B492EA0705D5D9E9002301F0B0FDDC
:1049700008F101086D1009F10809F3D106460F4648
:10498000DDE9020132463B4601F0CCFECDE90201F1
:104990000C9B43B1DDE902010022A04BFDF78EFF25
:1049A000002840F0B5824046FDF7C2FEDDE9022353
:1049B00001F08EFD9A4B0022FDF76EFD079B064627
:1049C000A1F15077002B00F06881059BDDF81CC039
:1049D00013930A9B002B00F026828E4B002003EBE2
:1049E000CC0353E902238F49CDF850C001F09AFE61
:1049F00032463B46FDF74EFDDDE90267CDE9100189
:104A00003946304601F076FF0546FDF791FE024635
:104A10000B4630463946FDF73DFDDDE910233035C4
:104A20005FFA85F8089D064685F800800F46013537
:104A3000FDF744FF002840F0B98232463B46002093
:104A40007649FDF727FD02460B46DDE91001FDF72B
:104A500053FF002840F0B382DDF850C0BCF1010FD5
:104A600040F33A81089BCDF850A0CDF808B003EB95
:104A70000C09DDE910ABA0460FE032463B460020B2
:104A80006649FDF707FD52465B46FDF717FF002814
:104A900040F090824D4500F01A8150465946002260
:104AA000614B01F015FD00225F4B82468B4630467C
:104AB000394601F00DFD0F46064601F01BFF044686
:104AC000FDF736FE02460B4630463946FDF7E2FC5E
:104AD0003034E4B205F8014B52465B4606460F46B9
:104AE000FDF7ECFE0028C8D0139BDDF808B0444663
:104AF00005932EE500230A93239B059A13440D93F7
:104B00000133002B079340F30A81079E3746EAE6FC
:104B100000230A93DFE6079B002B3FF76AAC40F0C7
:104B2000668240460022414B494601F0D1FCDDE956
:104B30000223FDF7D7FEDDF81C804646002800F072
:104B40008B80239B089DDB4305934146204600F064
:104B50007FFD002E7FF427AEFBE45946204600F08F
:104B6000BBFE834652E5029B002B7FF461AD039BA5
:104B7000C3F31303002B7FF48FAD039B23F0004797
:104B80003F0D3F05002F00F01E82069B0AF1010A2F
:104B9000013306934FF0010980E5129A002A00F0D4
:104BA000A98103F23343099F069DFAE400F05AFD00
:104BB0005746064681462CE601462046CDF808C0F9
:104BC00000F046FD0122DDF808C04FE65846414698
:104BD00000F02AFF0028BFF68CAD059F5946002340
:104BE00020460A22013F059700F03CFD0A9B8346C0
:104BF000002B7FF4EBAD0D9B002B40F3FC81079362
:104C00007EE50898FFF708BB029B002B7FF444ADBC
:104C1000ADE700BF08960008D09600080000F03FFE
:104C200000001C400000E03F000024400000144051
:104C3000229B022B7FF761AD079B002B81D1414660
:104C40000522204600F00EFD80465846414600F001
:104C5000EBFE00287FF775AF059A089931230132E2
:104C600005920B704D1C70E7059A312301320592B5
:104C7000089A137087E5DDF808B0069C69E44046A1
:104C8000FDF756FDDDE9022301F022FC0022BE4BB8
:104C9000FDF702FC0646A1F15077DDE90201002292
:104CA000BA4BFDF7F7FB32463B46CDE90201FDF773
:104CB00023FE8046002840F0B280DDE90201324642
:104CC00007F10043FDF7FAFD30B1464639E74446A7
:104CD000DDF850A0DDF808B0DDE90E23CDE90223B0
:104CE000FFF776BB5946099A204600F0F5FD83464A
:104CF0008CE4099B0B9AFB1A1A4409970B92002724
:104D000049E4DDE90E234FF00208CDE9022324E651
:104D1000012623960D96079600216164F2E51E4652
:104D2000FAE7002A15DD594601222046CDF808C0D1
:104D300000F022FE4146834600F076FE0028DDF8B2
:104D400008C040F34D81BCF1390F00F009810CF12E
:104D5000010CB24687F800C07D1C4E4613E504D115
:104D60001CF0010F01D0FEE4154615F8013C6A1E47
:104D7000302BF9D007E5059B5D42002D00F0C18086
:104D8000DDE90E01824B05F00F0203EBC203D3E90C
:104D9000002301F09DFB2D11CDE9020100F03081CF
:104DA0007C4E4FF00208EB0705D5D6E9002301F051
:104DB0008FFB08F101086D1006F10806F3D1CDE96B
:104DC0000201E5E5059A302301320592089A137035
:104DD00031231370FFF7BDBB7168204600F010FC53
:104DE0000546336906F10C019A1C92000C30FDF760
:104DF00093FD20462946012200F0BEFD8146FEE4D7
:104E0000BCF1390F00F0AC800CF1010CB24687F810
:104E100000C07D1C4E46B6E4B2464E4693E44FF0C9
:104E20000008464618E75A490CF1FF3301EBC3016D
:104E30003246D1E9000114933B46CDF854C001F04D
:104E400047FBDDE90267CDE910013946304601F044
:104E500051FD0546FDF76CFC02460B4630463946CF
:104E6000FDF718FBDDF854C0089A3035BCF1010F8E
:104E7000157006460F4602F1010523D0089BCDF8B8
:104E800008A063445E469A46AB460022424B01F0BE
:104E90001FFB8946804601F02DFD0746FDF748FCC3
:104EA000303702460B4640464946FDF7F3FA0BF809
:104EB000017BD345E9D1B3460F460646149BDDF886
:104EC00008A01D440022354BDDE91001FDF7E4FA8E
:104ED00032463B46FDF7F2FC002848D0139B059371
:104EE00015F8018CFFF723BB069B079A9D1A002338
:104EF000FFF757BB169B099FC3F13603069DFFF7CB
:104F000050BBDDE90E234FF00208CDE902233FE557
:104F1000079B002B3FF4B3AE0D9D002D7FF7DCAE59
:104F2000DDE9020100221C4B01F0D2FA06460F46D1
:104F300008F10100CDE90267FDF7FAFB02460B46D6
:104F40003046394601F0C4FA0F4B0022FDF7A4FAAF
:104F5000059B0646013B1393A1F15077AC4638E51B
:104F60003922B2463A704E467D1CFFF7FEBBDDE9A2
:104F7000102300200949FDF78DFA32463B46FDF724
:104F8000BBFC70B9A8E600BF00001C400000144044
:104F900008960008D0960008000024400000E03F7A
:104FA000154615F8013C6A1E302BF9D0139B05936A
:104FB000FFF7CFBA4346A0461C46DDF808B0139B66
:104FC0000593FFF7B4BAB946FFF768BBBCF1390FD8
:104FD000C6D0BAF1000F7FF7BCAE05F1310CB8E6D0
:104FE0007FF4B7AE1CF0010F3FF4B3AEABE64FF069
:104FF00000084646A5E5229B022B04DC0D9BFEE53E
:105000004FF00208C4E40D9B079315E6229B022B88
:10501000F9DC0D9BFFF7E5BB0025656429462046BA
:1050200000F0EEFA4FF0FF3307930D930123089041
:10503000239520640A93FFF7CBB93FF444ABC0F14A
:105040003C00FFF73BBB01230A9355E50125FFF721
:1050500089B900BFAFF30080004870478C0400207E
:105060002DE9F04F01F10B05162D83B0064627D927
:1050700035F0070500F1B680A94200F2B38000F0D8
:10508000BBFAB5F5FC7F22D2BC4FE80807EBC003A2
:10509000DC689C4200F0BD816368E16823F0030393
:1050A00023445A68A56842F00102E96030468D60E9
:1050B0005A6000F0A3FA0834204603B0BDE8F08F30
:1050C000102900F28F8000F097FA1025DCE7680ABB
:1050D00000F08F80042800F24781A8093830410091
:1050E000A64F07EB8101CC68A14206D10CE0002A53
:1050F00080F28280E468A14206D0636823F0030353
:105100005A1B0F2AF3DD013801309C493C6901F13B
:10511000080E744500F07281636823F003035A1B84
:105120000F2A00F35881002AC1F814E0C1F810E0FA
:1051300066DAB3F5007F80F02D81DB0801EBC30850
:105140004FEAA30C4A68012303FA0CF3D8F808C00D
:105150001343C4F808C0C4F80C804B60C8F808407A
:10516000CCF80C408210012494409C4255D8234234
:1051700006D120F003006400234200F10400FAD0BD
:1051800007EBC008C4468146DCF80C309C4507D1CB
:1051900036E1002980F24681DB689C4500F03081D1
:1051A0005A6822F00302511B0F29F2DD1C46DA680F
:1051B00054F808CF45F0010941F001081D44C3F837
:1051C00004903046CCF80C20C2F808C07D613D61E7
:1051D000C5F80CE0C5F808E0C5F80480695000F097
:1051E0000DFA69E7002420460C23336003B0BDE8C4
:1051F000F08F7E213F2073E723445A68E16851E72E
:1052000023445A68304642F001025A60083400F0E4
:10521000F5F9204603B0BDE8F08FBC68636823F061
:105220000308454504D8C5EB08030F2B00F38C8019
:10523000534BDFF85CA11A68DAF800302A440133D6
:1052400004EB080B00F0518102F580520F3222F47A
:105250007F6222F00F0211463046019200F0FAFC04
:10526000B0F1FF3F8146019A00F0F680834500F2DD
:10527000F080444BCB4519681144196000F03E8121
:10528000DAF80000DFF808E101301BBFCBEB090BB7
:105290005944CEF80090196019F0070100F0088118
:1052A000C1F10800C1F58051814408314A44C2F37C
:1052B0000B02C2EB010A51463046019300F0CAFCD2
:1052C000431C019B00F02881C9EB0002524442F0CC
:1052D00001021968BC425144C7F808901960C9F826
:1052E0000420DFF8A0A016D0B8F10F0F40F2E38041
:1052F0006268A8F10C0323F0070302F00102E01832
:105300004FF0050E1A430F2B6260C0F804E0C0F89E
:1053100008E000F205811C4BBC681A68914288BF06
:1053200019601A4B1A689142626888BF196022F0AE
:1053300003029542A2EB050301D80F2B04DC304693
:1053400000F05CF90024B7E645F0010243F00103E8
:10535000254462603046BD6008346B6000F04EF951
:10536000204603B0BDE8F08F14286AD9542800F213
:105370009880280B6E304100B2E600BFC4040020C4
:10538000C4090020C8090020C0090020BC09002071
:10539000D00800205A0A042A56D9142A00F2A780FD
:1053A0005B324FEA420C07EB8C0CDCF80810DFF89C
:1053B000B081614500F085804A6822F00302934283
:1053C00002D289688C45F7D1CA687B68E260A16027
:1053D0009460CC60C6E645F0010742F00103254425
:1053E000676030464D610D61C5F80CE0C5F808E016
:1053F0006B60AA50083400F001F95DE64B68B1E635
:1054000009F1010919F0030F0CF1080C7FF4BCAE8F
:105410002BE004F108036469A34208BF02303FF4A3
:1054200074AE39E61C461A445168DB6854F8085FCC
:1054300041F0010151603046EB609D6000F0DEF804
:105440003AE65B3041004BE69A0938324FEA420CAB
:10545000A9E7BC423FF40DAFBC68626822F00302CA
:1054600067E7D8F80080984577D110F0030FA8F1CE
:10547000080300F1FF30F4D17B6823EA04037B606A
:1054800064009C423FF6C9AE002C3FF4C6AE2342F6
:1054900048467FF475AE6400234200F10400FAD060
:1054A0006EE6B0F5AA7F18D8E80B7730410017E612
:1054B0004FF48051FAE60123C9F804304C4600222B
:1054C00037E7D8F8043092104FF0010C0CFA02F2D2
:1054D0001343C8F804300A4678E740F25453984220
:1054E00017D8A80C7C304100FAE51032B3E6542AF4
:1054F0001ED81A0B6E324FEA420C54E7CBF30B0066
:1055000000287FF4BDAE4244BB6842F001025A60FD
:1055100001E7FC217E20E3E501224FF0000AD8E6F6
:1055200004F10801304600F0A7FCDAF80010F2E6BA
:10553000B2F5AA7F04D8DA0B77324FEA420C32E791
:1055400040F254518A4204D89A0C7C324FEA420C01
:1055500029E74FF0FC0C7E2225E77B6890E700BF2F
:10556000C4040020830770B4C9B240D0541E002A7E
:105570003FD003788B4218BF431C05D11CE0ECB12F
:105580000278013C8A4217D013F0030F184603F14A
:105590000103F4D1032C14D884B103788B420BD0CF
:1055A0000519431C02E002788A4205D0AB42184636
:1055B00003F10103F7D1002070BC7047204670BC96
:1055C0007047024641EA012646EA0646136810463D
:1055D0007340A3F1013525EA030313F0803F02F184
:1055E0000402D9D1043C032C1046EFD8D4E714466A
:1055F000D0E71046E0E700BF704700BF704700BF2C
:10560000C26C70B505460C4652B152F824308BB1CD
:10561000196842F82410002218461A61DA6070BD39
:105620002122042100F0AAFBE86402460028ECD104
:10563000002070BD012101FA04F6721D2846920077
:1056400000F09CFB03460028F2D044608660E2E74D
:1056500031B1C36C4A6853F82200086043F8221045
:10566000704700BFF0B50C4605460E6983B001F1E6
:10567000140E0027DEF80010013788B2090C02FB77
:10568000003302FB01F198B201EB134300EB03413D
:10569000BE424EF8041B4FEA1343EBDC3BB1A26859
:1056A000964207DA04EB86020136536126612046F2
:1056B00003B0F0BD6168284601310193FFF7A0FFF8
:1056C0000746226904F10C01023292000C30FDF70A
:1056D00023F9EA6C6168019B52F82100206042F8CE
:1056E00021403C46DEE700BF030C1B04B3B90004B5
:1056F000102310F07F4F04BF0002083310F0704FEA
:1057000004BF0001043310F0404F04BF8000023397
:10571000002807DB420003D4202070470023E8E77D
:10572000581C704718467047036813F0070207D0EB
:10573000D90720D49A0720D49B0803600220704721
:1057400099B209B91B0C102213F0FF0F04BF1B0AFA
:105750000832190704BF1B090432990704BF9B08CC
:105760000232D90704D45B0801D1202070470132EE
:10577000036010467047002070475B0803600120FB
:10578000704700BF10B50C460121FFF739FF012219
:105790004461026110BD00BF2DE9F04F0E6915692B
:1057A00085B0AE420C469146C0F292802B463546FB
:1057B0001E46A36805EB060861689845C8BF01311D
:1057C000FFF71EFF00F1140A0AEB880BDA4501907F
:1057D00005D25346002143F8041B9B45FBD809F131
:1057E000140909EB860304F11402994502EB850CB8
:1057F00059D2CDF808B0CDF80C809B46904659F8A8
:10580000047B1FFA87FEBEF1000F1FD047465646A5
:10581000002100E00646304657F8045B3468ABB21E
:10582000A2B20EFB03222D0C240C0EFB05445318D0
:1058300004EB13419AB242EA0142BC454FEA1141DE
:1058400040F8042BE6D8716059F8047C3F0C22D054
:10585000DAF80030002255461E464046964600E0E3
:1058600025462C460288360C07FB026699B206EBE9
:105870000E0241EA024344F8043B50F8041B6E68F0
:10588000090CB3B207FB0131844501EB12434FEA27
:10589000134EE5D86B60CB450AF1040AAFD8DDF8AA
:1058A00008B0DDF80C80B8F1000F0BDD5BF8043CAC
:1058B000ABF1040B1BB105E05BF8043D13B9B8F183
:1058C0000108F9D10198C0F8108005B0BDE8F08F4B
:1058D000144689466DE700BF12F003032DE9F0413D
:1058E000144607460E462DD1A4101CD0BD6C95B3AE
:1058F000E3074FF0000806D4641014D02868A8B15C
:105900000546E307F8D5384631462A46FFF744FFF7
:10591000B6B17268FB6C641053F82210316043F822
:1059200022600646EAD13046BDE8F08129462A4683
:105930003846FFF731FF2860C0F800800546E0E7F1
:105940000646D9E70B4A013B52F823200023FFF714
:1059500089FE0646C8E701213846FFF751FE40F2AE
:10596000712101220023416102610546B864036090
:10597000BEE700BFF89600082DE9F0470F694FEA2F
:1059800062198B684F447D1C9D420E46144680462A
:10599000496804DD5B009D4201F10101FADC4046EB
:1059A000FFF72EFEB9F1000F00F1140109DD00230D
:1059B0009E460A4601334B4542F804EBFAD101EB0F
:1059C0008301326906F1140303EB820E14F01F0207
:1059D00022D0C2F120094FF0000A1C688C46944086
:1059E0004AEA040441F8044B53F8044B9E4524FA58
:1059F00009FAF2D8CCF804A0BAF1000F00D0BD1C0F
:105A0000D8F84C307268013D53F8221005613160BE
:105A100043F82260BDE8F087043953F8042B9E4513
:105A200041F8042FF9D8EBE702690B69D21A13D1B8
:105A30009B0014301431194410B4034401E098421F
:105A40000CD253F8044D51F8042D9442F7D009D3E9
:105A500001205DF8044B70471046704700205DF848
:105A6000044B70474FF0FF305DF8044B704700BFA8
:105A70002DE9F0470C460546114620469146FFF7B2
:105A8000D3FF061E5DD056DB4FF0000A2846616842
:105A9000FFF7B6FD09F1140380461E462769D9F8C1
:105AA000102004F1140E7546C0F80CA000F1140487
:105AB0000EEB870E03EB820C4FF0000A55F8042B17
:105AC00056F8041B90B200EB0A0388B2090C1B1AAB
