:020000040800F2
:10000000005000209D020008A5020008A902000877
:10001000AD020008B1020008B502000800000000AF
:10002000000000000000000000000000B90200080D
:10003000BD02000800000000C1020008C50200085F
:10004000C9020008C9020008C9020008C902000864
:10005000C9020008C9020008B9190008C90200084D
:10006000111A0008C9020008C9020008C9020008E4
:10007000C9020008C9020008C9020008C902000834
:10008000C9020008C9020008C9020008C902000824
:10009000C9020008C9020008C9020008C902000814
:1000A000C9020008C9020008C9020008C902000804
:1000B000C9020008C9020008C9020008C9020008F4
:1000C000C9020008C9020008C9020008C9020008E4
:1000D000C9020008C9020008C9020008C9020008D4
:1000E00099190008C9020008C9020008C9020008DD
:1000F000C9020008C9020008C9020008C9020008B4
:10010000C9020008C9020008C9020008C9020008A3
:10011000C9020008C9020008C9020008C902000893
:10012000C9020008C9020008C9020008C902000883
:10013000C9020008C9020008C9020008C902000873
:10014000C9020008C9020008C9020008C902000863
:10015000C9020008C9020008C9020008C902000853
:10016000C9020008C9020008C9020008C902000843
:10017000C9020008C9020008C9020008C902000833
:10018000C902000800B583B000F094FB3148324B3F
:10019000324A334D334C98422A60226007D2C24320
:1001A000134423F0030204322F4902F037F82A687F
:1001B0002E4B9A4200D0FEE722682D4B9A42FAD18C
:1001C0002C482D4B254A2D4D2D4C98422A602260FB
:1001D00007D2C243134423F003020432002102F089
:1001E00093F82B6803B1FEE72368002BFBD100F0E6
:1001F00063FB684601A900F0F3FA224C224B1B1B5B
:10020000032BC8BFE51804DD54F8043B9847AC4203
:10021000FAD11E4C1E4B1B1B032BC8BFE51804DD77
:1002200054F8043B9847AC42FAD19DE8030001F032
:100230007FFD184C184B0546E41A032C06DD1E46BC
:100240001C4454F8043D9847B442FAD1284600F0C3
:100250009BFA00BF0000002030090020BABADECAB5
:10026000000000202C090020648F0008785634120A
:1002700032547698300900204C12002030090020BA
:1002800048120020CC020008CC020008CC02000872
:10029000CC020008CC020008CC02000808B5FFF729
:1002A00071FF00BFFEE700BFFEE700BFFEE700BF33
:1002B000FEE700BFFEE700BFFEE700BFFEE700BFAE
:0C02C000FEE700BF704700BFFEE700BF74
:1002D00038B5C3780446012B03D92248932100F096
:1002E00087FA63780F2B38D8A3780F2B30D8E378B0
:1002F0005BB9237801215A091B4803F01F03203200
:1003000001FA03F340F8223038BD184B6078D96801
:10031000A278C943C1F30221C1F104050F23EDB254
:10032000A8400B411340C1B222780B431B0102F1DC
:100330006042DBB202F5614282F800332378012289
:1003400003F01F0008495B09824041F8232038BDB3
:100350000448952100F04CFAC9E70248942100F0C6
:1003600047FAC1E7F867000800E100E000ED00E0AF
:10037000037970B513F0FB0F044603D02D4880219C
:1003800000F036FA637903F0FB02082A05D0102B3F
:1003900003D02848812100F02BFA2268D30DDB0519
:1003A000002B2FD1002A2DD0A379012B04D921486D
:1003B000832100F01DFAA3794BB320681E4BC6437E
:1003C0001D68227935401D60596802F18042314034
:1003D000596002F59E3215686179284310602268E1
:1003E0009C68D5432C409C60D868102900EA050021
:1003F000D86017D001F1804303F59E3319680A4392
:100400001A6070BD0B48822100F0F2F9CCE7237925
:10041000216803F1804303F59E331A6822EA010242
:100420001A6070BD996811439960D9680A43DA600F
:1004300070BD00BF20680008003C0140C30DDB0513
:1004400010B5044603B918B90348ED2100F0D0F9FE
:10045000024B5C6110BD00BF20680008003C0140F9
:100460002DE9F8434F4B06469842894623D003F5C1
:10047000806398421FD003F5806398421BD003F538
:100480008063984217D003F58063984213D003F538
:10049000806398420FD003F5806398420BD003F538
:1004A0008063984207D003F58063984203D03E48AA
:1004B000C12100F09DF9D9F80030002B6DD099F8DA
:1004C0000430032B64D899F80730022B5BD800273F
:1004D0003C4604E00134102C07F1020729D0012327
:1004E000D9F80050A3401D409D42F3D14FF00308BE
:1004F00008FA07F86FEA0808326899F8043008EA41
:1005000002023260326803FA07F1013B0A43012B11
:10051000326010D9F26899F8073008EA0202F260F6
:10052000F268BB4001341343102CF36007F102075B
:10053000D5D1BDE8F88399F80530032B1CD8B168F4
:1005400003FA07F208EA0103B360B16899F80630CC
:100550000A43012BB26005D91348DD2100F048F9A8
:1005600099F806307268A34022EA05057560726842
:100570009BB213437360CDE70B48D62100F038F9E6
:1005800099F80530DBE70848C42100F031F99EE70F
:100590000548C32100F02CF995E70348C22100F07B
:1005A00027F98CE70000024054680008264B70B51C
:1005B000984204460D46164624D003F580639842BF
:1005C00020D003F5806398421CD003F580639842E5
:1005D00018D003F58063984214D003F580639842E5
:1005E00010D003F5806398420CD003F580639842E5
:1005F00008D003F58063984204D014484FF4077183
:1006000000F0F6F80F2D19D80D2E06D90F2E04D0B4
:100610000E4840F21E2100F0EBF8EB0804EB8304D7
:1006200005F00705226AAD000F23AB4022EA030361
:100630002362226AAE401643266270BD034840F230
:100640001D2100F0D5F8DFE70000024054680008E3
:1006500038B5104B044603400D4663B958B1012D1F
:1006600010D90D4840F24B4100F0C2F80B4A136B11
:100670001C43146338BD084840F2494100F0B8F803
:10068000012DEED8002DF1D1044A136B23EA0404A6
:10069000146338BD00EE9B81886800080038024072
:1006A00038B530F0010304460D460CD158B1012D88
:1006B00010D90C4840F2854100F09AF80A4A936B31
:1006C0001C43946338BD074840F2844100F090F821
:1006D000012DEED8002DF1D1034A936B23EA0404D7
:1006E000946338BD886800080038024038B5104B64
:1006F000044603400D4663B958B1012D10D90D4889
:1007000040F2DF4100F074F80B4A536C1C43546410
:1007100038BD084840F2DE4100F06AF8012DEED8FD
:10072000002DF1D1044A536C23EA0404546438BD0B
:10073000CCA0F8FF8868000800380240082838B5C7
:1007400005460C4619D80F2C03D90E488A2100F013
:100750004FF804F0FC0303F1804303F59C3304F0ED
:1007600003049968A4000F22A24021EA02029A60C1
:100770009A68A54015439D6038BD0248892100F064
:1007800037F8E0E7B8680008FEE700BF08B503489F
:1007900000F054F80120FFF7F7FF00BFEC680008F5
:1007A0000C4A08B50346106878B1033323F00303FD
:1007B000094903448B4201D8136008BD01F028FDAC
:1007C0000C2303604FF0FF3008BD04490846116058
:1007D000EBE700BF34090020004C00204C12002041
:1007E000024B012202600B60704700BF0400002032
:1007F00008B503460A460348194600F005F8FFF716
:10080000C5FF00BF406900080FB410B582B004AC4A
:1008100054F8042B084823468021019403F0A2F8E1
:10082000002803DD0146044800F018F802B0BDE8D6
:10083000104004B0704700BF3C09002010B50446CA
:1008400001F0B0FD0146204600F008F8BDE8104078
:100850000148012100F002B87869000841B34FF067
:100860006042D2F8803E70B413F001061AD0D2F87C
:10087000003E13F0010615D0044645184FF06043C2
:100880001A68002AFAD014F8012BAC421A70A4EBB3
:1008900000060AD0D3F8802ED20703D5D3F8003E45
:1008A000DB07EBD4304670BC7047084670BC70471D
:1008B0000846704700F002B800F06EB8314B0021D6
:1008C0001A68314842F001021A6099601A6882B0D1
:1008D00022F0847222F480321A6058601A6822F47E
:1008E00080221A60D960009101911A6842F4803226
:1008F0001A6003E0009BB3F5A06F0AD0214B1B6880
:1009000003F400330193009B01330093019B002B00
:10091000F0D01C4B1B6813F4003318BF0123019364
:10092000019B012B05D0194B4FF000629A6002B079
:100930007047144B16499A689A609A6842F40042CC
:100940009A609A6842F4A0529A6059601A6842F01C
:1009500080721A600B4B1A689201FBD540F203714A
:100960000C4A11609A6822F003029A609A6842F079
:1009700002029A60034B9B6803F00C03082BF9D129
:10098000D1E700BF003802401030002400ED00E045
:10099000193C4005003C024010B41B4CA36803F016
:1009A0000C03042B25D0082B0CD0184B164A1848E2
:1009B00092681849C2F30312825C5DF8044BD3407D
:1009C0000B607047636861685B0201F03F0212D4FC
:1009D0000E496368B1FBF2F1C3F3881301FB03F224
:1009E000094B5B68C3F3014301335B00B2FBF3F3D4
:1009F000DCE7094BDAE708486368B0FBF2F1C3F3C0
:100A0000881301FB03F2EBE7003802400024F400F6
:100A10000C0000201C00002000127A002DE9F04399
:100A200007460E469046254B8BB09A681868596861
:100A3000DB68012406AD0FC504FA07F02146FFF775
:100A400007FE21464FF48040FFF750FE07F5801067
:100A50000AA904FA06F98030002541F8189D8002A1
:100A60008DF814508DF81750FFF7FAFC31463846D0
:100A7000FFF764FE02A8CDF808908DF80C508DF8B1
:100A80000D808DF80E40FFF773FC0D4A0299136834
:100A90000AA823EA01031360064416F8103C01A8D3
:100AA0008DF804308DF805408DF806408DF807402C
:100AB000FFF70EFC0BB0BDE8F08300BF9C69000897
:100AC000003C01402DE9F04704468A46914698468D
:100AD000012582B005FA00F029469DF828709DF89E
:100AE0002C60FFF7B5FD04F580108030800205FA18
:100AF0000AF569468DF8059000958DF804808DF80B
:100B000006708DF80760FFF7ABFC02B0BDE8F08718
:100B10002DE9F04F4FF6FF7B1349DFF864A0DFF8B3
:100B20006490DFF86480DFF864E0104F104E114DE0
:100B3000114C0023DFF858C0104AA1F800B0AAF801
:100B400000300121A9F80030A8F80030AEF80030DC
:100B50003B7033702B7023801846BDE8F04FACF823
:100B60000030117000F068B9CC090020C8090020DD
:100B7000C5090020BC090020CE090020C4090020BE
:100B8000CA090020BE090020C6090020C0090020B3
:100B9000C209002070B5027888B00546431C002ABF
:100BA0003BD05A1B13F8011B0029FAD11A2A28BF7F
:100BB0001A22144601AE304620211B2201F0A4FB6C
:100BC0003CB1C4F11B00294606EB5000224601F05F
:100BD00025FB002000F030F9134800F099F800F0F0
:100BE0009DF804464FF6FF7000F07AF81F2000F0E1
:100BF00083F8002000F098F83146E08800F034F9DE
:100C0000E088400080B200F08FF8002000F074F817
:100C1000064800F07DF808B070BD01AE30462021D6
:100C20001B2201F071FBD4E72800002020000020E7
:100C300070B504460E46234B86B053F820000121C0
:100C4000FFF706FD4FF480400121FFF74FFD1E4BDB
:100C50001E4A33F8143006A9002552F8240041F842
:100C6000103D8DF80C508DF80F50FFF7F9FB012E59
:100C700001D006B070BD164A164B105D195DFFF726
:100C80005DFD154BAC4233F8143014BF0C22082222
:100C900004A88DF8152004938DF814508DF8166073
:100CA000FFF766FB0D4A0F23125D01A88DF8076060
:100CB0008DF804208DF805308DF80630FFF708FB1D
:100CC00006B070BD808D0008948D000838000020AB
:100CD000A08D00087C8D00088C8D00089C8D00087C
:100CE00082B0ADF80600BDF80630024A9BB2138010
:100CF00002B07047D409002082B0ADF80600BDF8FC
:100D00000630024A9BB2138002B0704744000020B4
:100D1000014B1860704700BFD0090020014B1868D4
:100D2000704700BFD00900203F4B2DE9F0471A68FB
:100D30009488B4F5A07F75DC40F23F1C3B4B8046A5
:100D4000A3FB0413DB088027DB00D2F80090D088D7
:100D50009F404FF0D043202121221980A3F8028028
:100D60001A80A3F802C0002834D04D4646464FF002
:100D7000000E4FF0D04322221A80D4B10C2C4FF039
:100D800000033ED82A8847FA03F1114218BF284AC7
:100D9000DFF8A0A014BF1288BAF8002003F1010305
:100DA0004FF0D04192B218BF4FF0D041A3424A80D9
:100DB000E8D101360EF1010E4FF0D043B6B220213A
:100DC00021228645198005F102055E801A80A3F86C
:100DD00002C0CED1C4EB0C0C1FFA8CFC0CF1010349
:100DE0009BB2A342B5DABDE8F0871AF0010F12D129
:100DF000104A4FF0D041128892B24A8001339C428F
:100E0000D7D02A8847FA03F1114242FA03FAECD00C
:100E10001A41D207ECD5064A4FF0D041128892B25F
:100E20004A80EBE7BDE8F087D0090020ABAAAAAA68
:100E3000D40900204400002070B440F23F144FF069
:100E4000D0422023002621252221138056804FF4F2
:100E500096331580548011804FF0D042013B508072
:100E6000FAD170BC704700BF2DE9F04F484A884660
:100E70000B78116883B001908D88002B65D0B5F593
:100E8000A07F62DC40F23F1C424A8027A2FB0502A1
:100E9000D208D200D1F80090C9889740A3F120046D
:100EA000E4B201FB04F4BDF804004FF0D043202667
:100EB00021221E80640058801A80A3F802C00029F5
:100EC00036D0019E4C444FF0000E4FF0D04322220A
:100ED0001A80D5B10C2D4FF0000346D8228847FA6E
:100EE00003FA1AEA020F18BF2B4A2C4814BF1288C3
:100EF000028803F101034FF0D04A92B218BF4FF0BD
:100F0000D04AAB42AAF80220E8D101360EF1010E18
:100F10004FF0D043B6B24FF0200A21228E45A3F8FD
:100F200000A004F102045E801A80A3F802C0CCD1B4
:100F3000C5EB0C0C1FFA8CFC0CF1010292B2AA4218
:100F400018F8013F01DB002BA8D103B0BDE8F08FFA
:100F50001BF0010F14D1114A4FF0D04A128892B2FF
:100F6000AAF8022001339D42CFD0228847FA03FA23
:100F70001AEA020F42FA03FBEAD01A41D207EAD575
:100F8000054A4FF0D04A128892B2AAF80220E9E747
:100F9000D0090020ABAAAAAAD4090020440000204E
:100FA00070B5782082B00121FFF752FB4CF233720A
:100FB000474C02230025204669468DF804308DF801
:100FC000053000928DF806508DF80750FFF748FA6B
:100FD000204629460C22FFF7E9FA204601210C227F
:100FE000FFF7E4FA204604210C22FFF7DFFA20463F
:100FF00005210C22FFF7DAFA204608210C22FFF720
:10100000D5FA204609210C22FFF7D0FA20460A2102
:101010000C22FFF7CBFA20460E210C22FFF7C6FA6E
:1010200020460C220F21FFF7C1FA4FF6807304F51A
:101030008064694620460093FFF712FA2046072194
:101040000C22FFF7B3FA204608210C22FFF7AEFA74
:10105000204609210C22FFF7A9FA20460A210C227A
:10106000FFF7A4FA20460B210C22FFF79FFA0C2170
:1010700020460A46FFF79AFA20460D210C22FFF778
:1010800095FA144E20460E210C22FFF78FFA2046C7
:101090000C220F21FFF78AFA01236946304600939C
:1010A00004F50064FFF7DCF9304629460C22FFF70F
:1010B0007DFA4FF48063694620460093FFF7D0F92C
:1010C00020460A210C22FFF771FA02B070BD00BF62
:1010D000000C0240001402402DE9F04F00249FB0A4
:1010E0000094FFF75DFF01200146FFF7D9FA0425C0
:1010F00008AB10214FF480520FA8032709261C9338
:101100001D931291189209940B940C940D940E94C3
:10111000109411941394149415941694179419948C
:101120001A941B9408970A960F9500F0C1FA284666
:10113000012100F0FDFBB44B01940193019B2BB105
:10114000019B013B0193019B002BF9D149F2203017
:101150004FF0D04300221A80598889B2009100993B
:10116000814200F0598149F225310098884205D02A
:10117000A64BA74A1A601FB0BDE8F08F41F2180CC9
:1011800040F2022601214FF4807B4FF0020A4FF417
:10119000E0694FF003084FF0040E9E481A800827BC
:1011A0005980092519800A24A3F802B00C21A3F85C
:1011B00000A04FF00D0BA3F802904FF00F0AA3F818
:1011C00000804FF01009A3F802C04FF01108A3F8F7
:1011D00000E04FF0120C4FF0130E5A801F805E801B
:1011E0001D805A801C805A8019805A80A3F800B054
:1011F0005A80A3F800A05A80A3F800905A80A3F860
:1012000000805A80A3F800C05A80A3F800E05A80FA
:1012100006920690069B2BB1069B013B0693069B0C
:10122000002BF9D141F2B07540F23710764A4FF0F9
:10123000D0431026112400211E805D801C80588020
:1012400007910792079B2BB1079B013B0793079BD5
:10125000002BF9D140F239106B4A4FF0D0431224E1
:1012600000211C80588008910892089B2BB1089B94
:10127000013B0893089B002BF9D163494FF0D04301
:1012800013224FF4E855292400201A805D801C8029
:101290005A800F900F910F9B2BB10F9B013B0F9327
:1012A0000F9B002BF9D140F2023840F2051940F2B1
:1012B000062E40F6080C40F2045640F23F1A41F266
:1012C000180540F233144FF0D0434FF0200BA3F831
:1012D00000B000220721212730204FF0310B5A8027
:1012E0001F805A803227188059803520A3F800B01B
:1012F000A3F802804FF0360B4FF037081F80A3F899
:10130000029038271880A3F802E03920A3F800B033
:10131000A3F802C04FF03C0BA3F800804FF03D084B
:10132000A3F802E01F804FF0500E5E805127188016
:10133000EF2659805220A3F800B0A3F802904FF096
:10134000530BA3F800804FF060094FF42748A3F82F
:1013500002C0A3F800E04FF0610C5A804FF0010E7C
:101360001F805E806A27188080265A808120A3F81B
:1013700000B0A3F802A04FF0820B4FF0830AA3F84D
:101380000090A3F802804FF084094FF08508A3F87D
:1013900000C0A3F802E04FF0900C1F804FF0100E39
:1013A0005A8092271E805A80932618805A800320E4
:1013B000A3F800B05A804FF0950BA3F800A05A8014
:1013C0004FF4887AA3F800905A804FF09709A3F859
:1013D00000804FF098085A80A3F800C0A3F802E0FC
:1013E0001F805A801E805880A3F800B0A3F802A086
:1013F000A3F800905A80A3F800805A8018805D807E
:1014000019805C80B4E600BF20A10700D00900204D
:101410003000002080841E0041F2300C40F2022691
:101420000121E5254FF400444FF4807B4FF0020A80
:101430004FF4E0694FF003084FF0040E9A481D8006
:1014400008275C8009251A800A2459801980A3F88E
:1014500002B00C21A3F800A04FF00D0BA3F80290EE
:101460004FF00F0AA3F800804FF01009A3F802C054
:101470004FF01108A3F800E04FF0120C4FF0130EDC
:101480005A801F805E801D805A801C805A8019807F
:101490005A80A3F800B05A80A3F800A05A80A3F89D
:1014A00000905A80A3F800805A80A3F800C05A80A8
:1014B000A3F800E05A8002920290029B2BB1029B9B
:1014C000013B0293029B002BF9D141F2B07540F22F
:1014D0003710764A4FF0D0431026112400211E8089
:1014E0005D801C80588003910392039B2BB1039B6A
:1014F000013B0393039B002BF9D140F239106B4A57
:101500004FF0D043122400211C8058800491049293
:10151000049B2BB1049B013B0493049B002BF9D14A
:1015200062494FF0D04313224FF4E855292400209C
:101530001A805D801C805A8005900591059B2BB117
:10154000059B013B0593059B002BF9D140F23F160B
:1015500041F2180540F273144FF0D04300220721E6
:1015600020204FF0210C4FF0300E31274FF0320B7E
:1015700018804FF0350A5A804FF4E060A3F800C09D
:101580004FF036095A804FF03708A3F800E04FF0CB
:10159000380C59804FF0390E1F8059803C27A3F832
:1015A00000B04FF03D0B5980A3F800A059804FF4D4
:1015B000F85AA3F8009059804FF05009A3F8008022
:1015C00058804FF05108A3F800C058804FF0EF0C3E
:1015D000A3F800E058804FF0520E1F805880532728
:1015E000A3F800B060204FF41C5BA3F802A0A3F89E
:1015F00000904FF0610A5A804FF00109A3F8008073
:10160000A3F802C04FF06A08A3F800E04FF0800C86
:101610005A804FF0810E1F805E80822783261880BB
:10162000A3F802B084204FF0850BA3F800A0A3F824
:1016300002904FF0900AA3F800804FF010095A80F2
:101640004FF09208A3F800C05A804FF0930CA3F813
:1016500000E05A804FF0030E1F805A8095271E80AD
:101660005A804FF4887618805A809720A3F800B0EB
:101670004FF0980B5A80A3F800A0A3F80290A3F8AB
:1016800000805A80A3F800C0A3F802E01F805E80AB
:1016900018805A80A3F800B05A80A3F800E05D805B
:1016A00019805C8064E500BF80841E0020A10700D3
:1016B000F8B50368044633F0060303D09A4897212F
:1016C000FFF796F8636833F0020303D09648982139
:1016D000FFF78EF8A36833F0040205D0082B03D07F
:1016E00091489921FFF784F8E36833F0100303D0A1
:1016F0008D489A21FFF77CF8236933F4807303D077
:1017000089489B21FFF774F8636933F4004303D0E1
:1017100085489C21FFF76CF8A36933F4007303D06C
:1017200081489D21FFF764F8E36933F4806303D0B7
:101730007D489E21FFF75CF8236A33F4006303D0F1
:1017400079489F21FFF754F8636A33F4805303D03C
:101750007548A021FFF74CF8A36A33F4005303D077
:101760007148A121FFF744F8E36A33F4804303D0C2
:101770006D48A221FFF73CF8236B33F4002303D01C
:101780006948A321FFF734F8636B1A680F2A73D8EE
:101790005A680F2A6AD89A68013AFE2A60D8DA682D
:1017A0000F2A57D81A690F2A4ED85A690F2A45D8D6
:1017B0009E6936F0405205D05B48AA21FFF718F821
:1017C000636B9E69A5686268E16845EA0200226968
:1017D000014360690A43A1691043E2690143206A39
:1017E0000A43616A1043A26A0143E76A20680A4318
:1017F000216B3A4380000A4300F12040082D02602B
:101800006ED09D68B7F5804F4FEA052193E824001C
:1018100041EA0511DD6841EA02011A6941EA054120
:101820005B6941EA025242EA036242EA060343600C
:1018300028D06FF07043C0F80431F8BD3A48A921B0
:10184000FEF7D6FF636BB3E73748A821FEF7D0FF5A
:10185000636BAAE73448A721FEF7CAFF636BA1E7D1
:101860003148A621FEF7C4FF636B98E72E48A521F7
:10187000FEF7BEFF636B8EE72B48A421FEF7B8FF8F
:10188000636B85E7A36B1A680F2A46D85A680F2A3C
:101890003DD89A68013AFE2A33D81A690F2A2AD805
:1018A0005A690F2A21D89D6935F0405205D01E484B
:1018B000D021FEF79DFFA36B9D69986859681A684F
:1018C000000240EA0111186911435A6941EA0053C4
:1018D00043EA02622168154B2A4343F82120F8BDF0
:1018E000026842F0400202608BE70F48CF21FEF70A
:1018F0007FFFA36BD7E70C48CE21FEF779FFA36BE0
:10190000CEE70948CD21FEF773FFA36BC5E7064874
:10191000CC21FEF76DFFA36BBBE70348CB21FEF79D
:1019200067FFA36BB2E700BFA48D0008040100A00D
:1019300038B530F0060304460D4604D00E484FF487
:101940008971FEF755FF012D0CD90B4840F2131198
:10195000FEF74EFFA40004F12044236843F0010386
:10196000236038BD002DF5D1A40004F12044226885
:10197000024B1340236038BDA48D0008FEFF0F000A
:1019800008B5FFF7A9FBFFF7C3F8BDE80840014819
:10199000FFF700B9C88D000808B54FF40040FEF706
:1019A0004DFDFFF799FBFFF7B3F8BDE8084001488C
:1019B000FFF7F0B8C88D0008104A114B12691B6977
:1019C00013F0010316D1520714D50E480E4A0F49E1
:1019D00003700B70136823F001031360536943F025
:1019E00004035361136843F004031360536943F025
:1019F00004035361044B01225A6170470000024006
:101A000000080240E5090020003C0140E4090020F4
:101A1000F8B5A24AA24BA34912691B690A7803F0E0
:101A20000103D8B2072A28D8DFE812F02B003800CB
:101A30004F006300AA00AE00CE0008009A4C226856
:101A400022F004022260964A126902F001029042DA
:101A500000F0C180914A944B12691A6822F0040286
:101A60001A605A6942F001025A611A6842F0010292
:101A70001A605A6942F001025A618B4B04225A6182
:101A8000F8BD8A488A4C0278A45C9C4200F03681FA
:101A900088490A68844B01320A60DEE7864A107082
:101AA000002B00F0C280854A85481368002401336A
:101AB00013600460834A844C002302202370087062
:101AC0001360794B04225A61F8BD002B40F0E3808B
:101AD000794B1B78002B00F0C380734B03209A686E
:101AE00022F004029A60DA6842F00402DA600870B8
:101AF000C3E7754C2378072B00F2B5802378002BC1
:101B000040F09B80714B72495A686D4D22F004027F
:101B10005A605A685A600B68032B00F0FC802B68EF
:101B200001216C4F052B396040F289806A4E6B4869
:101B300032684FF0010E02F1120150F821304FF0DF
:101B4000000C7344FF2B40F82130C5F800C0C7F8E3
:101B500000E008D1013202F0030202F1120150F854
:101B60002130FF2BF6D0013340F8213022B1920012
:101B70005B48002100F0C8FB0023336001215EE0D8
:101B8000002B42D0484B68E74F484E4C0278013258
:101B9000D2B20270226843EA420323600378082B22
:101BA0007FF46BAF4F4A2768136825684E4E484C48
:101BB00003F1010E0620C3F30803C2F800E046F863
:101BC00023702560087058E7002B33D0474A13680C
:101BD0000133136051E7314A126952073FF533AFC1
:101BE000394D3848304A01262E7003605369052468
:101BF00043F004030C705361136843F00403136053
:101C0000536943F00403536137E72E482E4C264AAC
:101C1000237003609368032023F004039360D36868
:101C200043F00403D360087027E7314A1368013397
:101C300013603FE707230B701FE7264B19682278D4
:101C40000123C2F1070293401942204B4FF00402D6
:101C500014BF1A835A8323780133DBB223700CE755
:101C600005230B7009E7104A0425D068174B20F0B4
:101C70000400D06090681F4C284390605A6822F09E
:101C800004025A605A682A435A601D8323680D7003
:101C900001332360F1E61849FBE600BF0000024073
:101CA00000080240E4090020003C0140E509002052
:101CB000A8000020D8090020DC090020F00900203D
:101CC000E009002000120020D60900200010024088
:101CD000F8090020B0000020F4090020480000208E
:101CE000900000200C120020FC09002004120020AB
:101CF000FC110020EC090020081200200132D2B2B1
:101D0000072A02707FF4B9AE074A012013680870F1
:101D100003441360B1E62B68044A03F11201013356
:101D200052F821102B60FCE6E80900204800002052
:101D300000B583B0FFF724FE02200121FEF778FFF3
:101D4000012302210A46009301930420FEF7BAFE04
:101D50000D4B04221A83022000210C22FEF75EFEA6
:101D6000082200200221FEF759FE084B5A6942F072
:101D700001025A611A6842F001021A605A6942F07F
:101D800001025A61FEE700BF00100240003C014022
:101D900081F0004102E000BF83F0004330B54FEA1C
:101DA00041044FEA430594EA050F08BF90EA020F89
:101DB0001FBF54EA000C55EA020C7FEA645C7FEA1C
:101DC000655C00F0E2804FEA5454D4EB5555B8BF3F
:101DD0006D420CDD2C4480EA020281EA030382EAB0
:101DE000000083EA010180EA020281EA0303362D42
:101DF00088BF30BD11F0004F4FEA01314FF4801C15
:101E00004CEA113102D0404261EB410113F0004F26
:101E10004FEA03334CEA133302D0524263EB4303DD
:101E200094EA050F00F0A780A4F10104D5F1200E7B
:101E30000DDB02FA0EFC22FA05F2801841F10001D6
:101E400003FA0EF2801843FA05F359410EE0A5F1AA
:101E500020050EF1200E012A03FA0EFC28BF4CF0DB
:101E6000020C43FA05F3C01851EBE37101F0004591
:101E700007D54FF0000EDCF1000C7EEB00006EEB9E
:101E80000101B1F5801F1BD3B1F5001F0CD3490828
:101E90005FEA30004FEA3C0C04F101044FEA44527F
:101EA00012F5800F80F09A80BCF1004F08BF5FEA06
:101EB000500C50F1000041EB045141EA050130BDE6
:101EC0005FEA4C0C404141EB010111F4801FA4F189
:101ED0000104E9D191F0000F04BF01460020B1FADE
:101EE00081F308BF2033A3F10B03B3F120020CDA16
:101EF0000C3208DD02F1140CC2F10C0201FA0CF0F4
:101F000021FA02F10CE002F11402D8BFC2F1200C58
:101F100001FA02F120FA0CFCDCBF41EA0C0190400E
:101F2000E41AA2BF01EB0451294330BD6FEA040457
:101F30001F3C1CDA0C340EDC04F11404C4F1200242
:101F400020FA04F001FA02F340EA030021FA04F354
:101F500045EA030130BDC4F10C04C4F1200220FAAB
:101F600002F001FA04F340EA0300294630BD21FAE9
:101F700004F0294630BD94F0000F83F4801306BFAF
:101F800081F480110134013D4EE77FEA645C18BFA3
:101F90007FEA655C29D094EA050F08BF90EA020F3A
:101FA00005D054EA000C04BF1946104630BD91EA32
:101FB000030F1EBF0021002030BD5FEA545C05D135
:101FC0004000494128BF41F0004130BD14F5800474
:101FD0003CBF01F5801130BD01F0004545F0FE41E8
:101FE00041F470014FF0000030BD7FEA645C1ABF1D
:101FF000194610467FEA655C1CBF0B46024650EA54
:10200000013406BF52EA033591EA030F41F400217F
:1020100030BD00BF90F0000F04BF0021704730B505
:102020004FF4806404F132044FF000054FF00001DA
:1020300050E700BF90F0000F04BF0021704730B59B
:102040004FF4806404F1320410F0004548BF404270
:102050004FF000013EE700BF42004FEAE2014FEAC5
:1020600031014FEA02701FBF12F07F4393F07F4FA0
:1020700081F06051704792F0000F14BF93F07F4FD2
:10208000704730B54FF4607401F0004521F0004115
:1020900020E700BF50EA010208BF704730B54FF09B
:1020A00000050AE050EA010208BF704730B511F0A0
:1020B000004502D5404261EB41014FF4806404F1D8
:1020C00032045FEA915C3FF4DCAE4FF003025FEA5A
:1020D000DC0C18BF03325FEADC0C18BF033202EBE2
:1020E000DC02C2F1200300FA03FC20FA02F001FA3C
:1020F00003FE40EA0E0021FA02F11444C1E600BFDB
:102100004FF0FF3C06E000BF4FF0010C02E000BFC3
:102110004FF0010C4DF804CD4FEA410C7FEA6C5CA6
:102120004FEA430C18BF7FEA6C5C1BD001B050EA49
:10213000410C0CBF52EA430C91EA030F02BF90EA34
:10214000020F0020704710F1000F91EA030F58BFF3
:10215000994208BF90422CBFD8176FEAE37040F055
:10216000010070474FEA410C7FEA6C5C02D150EAF3
:10217000013C07D14FEA430C7FEA6C5CD6D152EAAE
:10218000033CD3D05DF8040B704700BF8446104673
:1021900062468C461946634600E000BF01B5FFF772
:1021A000B7FF002848BF10F1000F01BD4DF808ED42
:1021B000FFF7F4FF0CBF012000205DF808FB00BF13
:1021C0004DF808EDFFF7EAFF34BF012000205DF86D
:1021D00008FB00BF4DF808EDFFF7E0FF94BF0120BA
:1021E00000205DF808FB00BF4DF808EDFFF7CEFFBB
:1021F00094BF012000205DF808FB00BF4DF808EDFA
:10220000FFF7C4FF34BF012000205DF808FB00BFCA
:10221000014B1868704700BFE0040020844641EA83
:10222000000313F0030349D1403A23D30B68036042
:102230004B6843608B688360CB68C3600B69036144
:102240004B6943618B698361CB69C3610B6A03622C
:102250004B6A43628B6A8362CB6AC3620B6B036314
:102260004B6B43638B6B8363CB6BC36340304031F9
:10227000403ADBD230320BD30B6803604B684360CB
:102280008B688360CB68C36010301031103AF3D292
:102290000C3205D351F8043B40F8043B043AF9D220
:1022A000043208D0D2071CBF11F8013B00F8013BF3
:1022B00001D30B8803806046704700BF082A13D300
:1022C0008B07B1D010F00303AED0C3F10403D21AD0
:1022D000DB071CBF11F8013B00F8013BA4D331F828
:1022E000023B20F8023B9FE7043AD9D3013A11F8A8
:1022F000013B00F8013BF9D20B7803704B78437037
:102300008B7883706046704770B4840746D0541E43
:10231000002A41D0CDB2034602E0621EE4B3144667
:1023200003F8015B9A07F8D1032C2ED9CDB245EA08
:1023300005250F2C45EA054519D9264603F110025B
:10234000103E0F2E42F8105C42F80C5C42F8085C1C
:1023500042F8045C02F11002F2D8A4F1100222F05B
:102360000F0204F00F041032032C13440DD91E4643
:102370002246043A032A46F8045BFAD8221F22F0C8
:1023800003020432134404F003042CB1C9B21C4408
:1023900003F8011BA342FBD170BC704714460346EF
:1023A000C2E700BF20F0030110F00300C0F10000FD
:1023B00051F8043B00F1040C4FEACC0C6FF0000222
:1023C0001CBF22FA0CF213434FF0010C4CEA0C2C08
:1023D0004CEA0C4CA3EB0C0222EA030212EACC12E8
:1023E00004BF51F8043B0430F4D0C2F1000102EA0A
:1023F0000102B2FA82F2C2F11F0200EBD200704772
:102400002DE9F04FC1B089460A920E93089002F070
:10241000A7FA036818461793FFF7C4FFB9F80C3002
:1024200018901C0604D5D9F81030002B01F0C2809A
:1024300030AF3C464E4600231393169319930B93EB
:10244000259324932397149315930A9D2B78002B9F
:1024500000F0A980252B02D1A5E0252B03D015F88B
:10246000013F002BF9D10A9BEB1A73B1249A2599ED
:1024700001320A981944072A84E809002591249218
:1024800072DC08340B9A1A440B922B78002B00F064
:10249000E28700231A46691C6D788DF86F300C9323
:1024A00007934FF0FF3A4B1CA5F12001582900F289
:1024B000EA83DFE811F06D02E803E803D102E803E4
:1024C000E803E803E803E803E803BC020D02E803BD
:1024D000F4011102E803D8027B027B027B027B023B
:1024E0007B027B027B027B027B02E803E803E803BA
:1024F000E803E803E803E803E803E803E8038A02E3
:10250000DF02E803DF02E803E803E803E803CB03A4
:10251000E803E8032F03E803E803E803E803E8031C
:102520004D03E803E8036703E803E803E803E8036F
:10253000E803E803E803E803E803E80382032B0267
:10254000DF02DF02DF02CA022B02E803E803B20265
:10255000E803D203FB0119037402E803A303E803B1
:102560007A00E803E80347020898314623AA079354
:1025700003F006F850B93C46079B83E708983146BC
:1025800023AA02F0FDFF002800F08581B146B9F8CA
:102590000C3013F0400F0B9B18BF4FF0FF33184661
:1025A00041B0BDE8F08F0A9D6FE70A93079B98063C
:1025B00040F1D7820E9B03F1070929F0070303F1CD
:1025C0000802D3E900890E92012300229446CDF837
:1025D00044A08DF86F20BAF1000F03DB079A22F0B8
:1025E0008002079258EA090240F06F83BAF1000FA7
:1025F00000F07484012B00F07283022B00F0C2847F
:1026000039464FEAD80242EA49724FEAD90008F047
:10261000070381469046303358EA090201F8013D2C
:10262000EFD1079A1091D20700F17F857B1A0D93A5
:102630000D9A53469245B8BF13460993002312934F
:10264000BCF1000F02D0099B01330993079B13F0E3
:1026500002030F9302D0099B02330993079B13F0E7
:10266000840940F02F830C9B099AC2EB0308B8F150
:10267000000F40F32783B8F1100F2599249ADFF853
:1026800070A529DD53464FF0100BC246A8461D46E3
:1026900006E0AAF1100ABAF1100F04F1080417DDE0
:1026A00001321031072A2591249284E82008F0DDB8
:1026B0000898314623AA02F063FF00287FF466AF32
:1026C000AAF1100ABAF1100F3C462599249AE7DCCA
:1026D0002B464546D0469A46013208EB010B072AA5
:1026E000CDF894B02492C4F800A0C4F8048000F39C
:1026F000DE829DF86FC00834BCF1000F0FD0249B20
:102700000BF1010B01330DF16F010122072BCDF805
:1027100094B0249384E8060000F3FD8308340F9BF3
:1027200073B1249B0BF1020B01331CA90222072B6E
:10273000CDF894B0249384E8060000F3F9830834BC
:10274000B9F1800F00F03483119B0D9AC2EB030A9C
:10275000BAF1000F3CDDBAF1100F249ADFF894941F
:102760002BDD49465B46A9464FF01008DDF820B046
:102770000D4606E0AAF1100ABAF1100F04F10804A0
:1027800017DD01321033072A2593249284E82001B3
:10279000F0DD5846314623AA02F0F2FE00287FF40D
:1027A000F5AEAAF1100ABAF1100F3C46259B249A07
:1027B000E7DC9B462B464D4699460132D344072A17
:1027C000CDF894B0249284E8000600F3988308348E
:1027D000079BD90500F18F82249B0D990133109A34
:1027E0008B44072BCDF894B022606160249300F3F2
:1027F000B8830834079B5A0741D50C9B099A9D1A48
:10280000002D3CDD102D249BDFF8E4A323DD4FF0E9
:1028100010085A46DDF8209004E0103D102D04F118
:10282000080417DD01331032072B25922493C4F8D6
:1028300000A0C4F80480F0DD4846314623AA02F027
:102840009FFE00287FF4A2AE103D102D3C46259A35
:10285000249BE7DC93460133AB44072BCDF894B0BF
:102860002493C4F800A0656009DD0898314623AAC6
:1028700002F086FE00287FF489AEDDF894B00B9B51
:10288000099A0C998A42ACBF9B185B180B93BBF159
:10289000000F7FF473AE002324933C46D5E5194620
:1028A000079840F0040007901D78FCE50A93079B09
:1028B00013F0200300F038810E9B03F1070929F083
:1028C000070303F10802D3E900890E9200237CE696
:1028D0001D7819462B22E6E51D78591C2A2D00F09B
:1028E000E587A5F1300009280B464FF0000A3FF6B6
:1028F000DBAD13F8015B0AEB8A0A00EB4A0AA5F18B
:1029000030000928F5D94AEAEA7ACDE50A93079B0F
:102910008DF86F20980662D50E9B03F1070929F008
:102920000709D9E9002309F10801904699460E915B
:10293000002A73F1000364DB9DF86FC0CDF844A05A
:10294000012348E60A93A74B8DF86F201693079B47
:102950009B0640F120810E9B03F1070929F0070334
:1029600003F108020E92D3E90089079BD90740F1D1
:10297000228158EA090300F01E81079A302342F0B1
:1029800002028DF870308DF87150079202231CE618
:10299000002A40F0E5841D781946202283E5079936
:1029A00041F0200107911D7819467CE5A5F1300022
:1029B000002113F8015B01EB810100EB4101A5F15E
:1029C00030000928F5D90C916EE50A93079B8DF824
:1029D0006F2043F010030793079B98069CD4079B36
:1029E000D90640F1C1840E9A13461B6804320E9238
:1029F0004FEAE3791A4698464B46002A73F10003E2
:102A00009ADA4FF02D0CD8F1000869EB49098DF8DE
:102A10006FC0CDF844A00123DDE51D7807996C2D2A
:102A200000F0258541F01001079119463BE50E9D08
:102A3000296808460C912946002801F10401C0F2DA
:102A40001D850E911D7819462DE5079941F040012D
:102A500007911D78194626E5079941F00101079174
:102A60001D7819461FE5079941F0800107911D78EF
:102A7000194618E50A93079B8DF86F2013F0080F8D
:102A80000E9BD34603F1070900F0378429F00703B2
:102A900003F108020E921A685B6814921593159957
:102AA000149802F02FFD01281599149840F00B841A
:102AB00000220023FFF784FB002840F039869DF8B0
:102AC0006FC0079B484A23F0800307931346DFF843
:102AD00028E10321472DD8BF7346002009911190AA
:102AE00010930D911290ABE50E9907980A9330233D
:102AF0000A688DF870303B4B782540F002000431B5
:102B0000169307900E9190464FF000098DF8715082
:102B100002235AE50A93079B43F010030793079B90
:102B200013F020037FF4C8AE079A12F0100240F0B1
:102B30000A83079B13F0400300F005830E991346A8
:102B40000A460432B1F800804FF000090E923CE5CD
:102B50000A93079B43F010030793079B98063FF5E2
:102B600029AD079BD90600F1F782079B5A0640F171
:102B7000F3820E9A4FF00009B2F80080043201236C
:102B80000E9222E50A93194B8DF86F201693079B3E
:102B90009B063FF5E0AE079BD80640F1BB830E9A3B
:102BA00013461B6804329846079B0E92D9074FF0D4
:102BB00000093FF5DEAE022307E50E980A9302688E
:102BC00000238DF89820024601219C4604328DF89E
:102BD0006F301193129326AB09910E920D911093C1
:102BE00034E500BF148E0008F48D0008008E000844
:102BF000E08D0008348E0008F08D00080E9A0A93CC
:102C000013684FF0000B10938DF86FB002F10409B8
:102C1000002B00F05885BAF1000F1098C0F2EA843A
:102C20005946524602F022F9002800F08985109B8F
:102C3000CDF844B0C31A0D93CDF8389023EAE3736E
:102C40000993CDF848B09DF86FC0F9E4079941F0B9
:102C5000080107911D78194625E40A93079B8DF812
:102C60006F209A0640F165830E9A134604330E9343
:102C70000B9B11684FEAE3791A4698464B46C1E927
:102C80000023FFF7E2BB0A938DF86F20002D00F0C0
:102C9000E283002301229C468DF86F30119312933A
:102CA00026AB09928DF898500D921093CEE40898B7
:102CB000314623AA02F064FC00287FF467AC3C464E
:102CC0009DF86FC0DDF894B016E5012B7FF495AC4C
:102CD000B9F1000F08BFB8F10A0F80F006820DF5B8
:102CE000807B08F130080BF8418DCBEB07030D9387
:102CF000CDF840B09CE4652D40F3A0801498159960
:102D000000220023FFF752FA002800F05481249B90
:102D1000C14901330BF1010B0122072BCDF894B00F
:102D2000249384E8060000F33E8308341D9B139A25
:102D3000934203DB079BDA077FF55CAD249B189970
:102D40000133179A8B44072BCDF894B02260616051
:102D5000249300F31A840834139B5D1E002D7FF723
:102D600049AD102D249BDFF8B49240F3EF804FF073
:102D700010085A46DDF820A004E00834103D102D5C
:102D800040F3E38001331032072B25922493C4F8DB
:102D90000090C4F80480F0DD5046314623AA02F0CA
:102DA000EFFB00287FF4F2AB3C46259A249BE5E735
:102DB0000C9B099AC2EB030ABAF1000F7FF7C4AC6F
:102DC000BAF1100F249ADFF854922BDD49465B4686
:102DD000A9464FF01008DDF820B00D4606E0AAF134
:102DE000100ABAF1100F04F1080417DD0132103394
:102DF000072A2593249284E82001F0DD58463146C5
:102E000023AA02F0BDFB00287FF4C0ABAAF1100A90
:102E1000BAF1100F3C46259B249AE7DC9B462B46D3
:102E20004D4699460132D344072ACDF894B02492F6
:102E300084E8000600F33A82083485E4139B249D5D
:102E4000012B40F3FC81013510990BF101030122A4
:102E5000072D259321602495626000F30E820834CB
:102E60001899013503EB010B179B072DCDF894B092
:102E700024952360616000F30C82083400231498C9
:102E800015990022FFF792F9139B002840F0E38088
:102E9000109A013B013501329B44072D2260249595
:102EA000CDF894B0636000F313810834199A0135AA
:102EB00093441FAB072DCDF894B024956260236036
:102EC0007FF797AC0898314623AA02F059FB0028F7
:102ED0007FF45CAB3C46DDF894B08BE4002B4CD126
:102EE000079BD80749D50DF5807B30230BF8413D72
:102EF000CBEB07030D93CDF840B0FFF799BB0898D3
:102F0000314623AA02F03CFB00287FF43FAB3C464D
:102F1000DDF894B05CE40898314623AA02F030FB57
:102F200000287FF433AB3C46DDF894B0FFF7F7BBE5
:102F30000898314623AA02F023FB00287FF426AB31
:102F40003C46DDF894B0FFF7FBBB93460133AB443E
:102F5000072BCDF894B02493C4F8009065607FF7F8
:102F600048AC0898314623AA02F00AFB00287FF4F7
:102F70000DABDDF894B03C463CE4CDF834A010979E
:102F8000FFF756BBBB4616984FEA181343EA09737E
:102F90004FEA191108F00F0289469846835C0BF836
:102FA000013D58EA0903EFD15B46CDF840B0FB1A6A
:102FB0000D93FFF73DBB1D9D002D40F30082139A3A
:102FC000129913468A42A8BF0B461D461099002D40
:102FD00001EB020A0CDD0A46249BAB440133072BAC
:102FE000CDF894B084E82400249300F34883083497
:102FF000129B002DA8BF5B1B002B1D4640F3C18018
:10300000102D249BDFF8149040F3C0815A464FF0F6
:103010001008DDF820B008E0308E0008348E00087B
:103020000834103D102D40F3B08101331032072BCE
:1030300025922493C4F80090C4F80480F0DD58462B
:10304000314623AA02F09CFA00287FF49FAA3C464E
:10305000259A249BE5E703F1FF38B8F1000F7FF7CD
:1030600025AFB8F1100FDFF8489525DD5B464FF02E
:10307000100ADDF820B006E0A8F11008B8F1100F32
:1030800004F1080417DD01351033072D259324952D
:1030900084E80006F0DD5846314623AA02F070FAB3
:1030A00000287FF473AAA8F11008B8F1100F3C466D
:1030B000259B249DE7DC9B460135C344072DCDF8B5
:1030C00094B02495C4F80090C4F804807FF7EDAE66
:1030D0000898314623AA02F053FA00287FF456AA32
:1030E000DDF894B0249D3C46E0E6BB46CDF824C014
:1030F000404649460A22002303F0A8F830324046F1
:1031000049460BF8012D00230A2203F09FF8804660
:10311000894658EA0903EBD15B46FB1ADDF824C067
:10312000CDF840B00D93FFF783BA302B109B3FF4DE
:103130003EAF013B1A461093BA1A30230D9201F8A4
:10314000013CFFF775BA0E994FF000090A68043187
:103150000E919046FFF739BA0E9901230A6804319F
:103160000E9190464FF00009FFF72FBA08983146AC
:1031700023AA02F005FA00287FF408AA3C46DDF8ED
:1031800094B0109A12991D9B0A449046139A934248
:1031900046DB079AD00743D4139AC8EB0A05D31A23
:1031A0009D42A8BF1D46002D0CDD249AAB44013280
:1031B000072ACDF894B0C4F800806560249200F32B
:1031C00096820834002DB4BF1D465D1B002D7FF78D
:1031D00011AB102D249BDFF8D8937FF7B7AE4FF0DB
:1031E00010085A46DDF820A004E00834103D102DE8
:1031F0007FF7ABAE01331032072B25922493C4F82E
:103200000090C4F80480F0DD5046314623AA02F055
:10321000B7F900287FF4BAA93C46259A249BE5E734
:10322000249A1898013217998344072ACDF894B04C
:1032300021606060249200F339820834ACE7079B78
:10324000D9073FF500AE0135109A0BF1010B0123B0
:10325000072DCDF894B02260249563607FF725AEEA
:103260000898314623AA02F08BF900287FF48EA932
:103270003C46DDF894B0249D18E60898314623AA10
:1032800002F07EF900287FF481A93C46259B249D0D
:10329000E6E50898314623AA02F072F900287FF487
:1032A00075A93C46DDF894B0249DE7E508983146C1
:1032B00023AA02F065F900287FF468A93C46DDF8EE
:1032C00094B0FFF741BA02F01DF9002840F0DD800C
:1032D000B44AB54B8646472DD8BF1A461190079879
:1032E000032120F0800009910790CDF848E010926A
:1032F0000D919DF86FC0FFF7A3B929F00709D9F820
:1033000000301493D9F80430159309F108030E9393
:10331000FFF7C5BB079B0E9A13F0400F13463FF40F
:1033200040AC0433B2F800804FF000090E93FFF771
:103330001CBB079BDB060BD4079B5D0608D50E9ACA
:10334000136804320E92BDF82C201A80FFF77DB866
:103350000E9A136804320E920B9A1A60FFF775B832
:1033600019461D78FFF79FB8079B0E9A13F0400F80
:1033700013463FF43AABB2F9008004334FEAE879E0
:103380000E9342464B46FFF7D3BA93460133AB4404
:10339000072BCDF894B02493C4F8009065603FF7F4
:1033A000E5AE0834EDE60898314623AA02F0E8F8C5
:1033B00000287FF4EBA83C46DDF894B0B6E4249BEB
:1033C0007A4901330BF1010B0122072BCDF894B0A0
:1033D000249384E8060000F3FD8008342DB9139B84
:1033E0001BB9079BDB077FF505AA249B18980133BF
:1033F000179A0BEB0001072B259122606060249344
:1034000000F3F48104F108026D42002D40F30781BE
:10341000102DDFF89C9140F33E811024DDF82080D0
:1034200004E00832103D102D40F335810133103196
:10343000072B25912493C2F800905460F1DD40469B
:10344000314623AA02F09CF800287FF49FA83A4650
:103450002599249BE6E7259BB146002B3FF497A8CE
:103460000898314623AA02F08BF8FFF790B841F094
:10347000200107915D78591CFFF715B80C980E9143
:1034800040420C901946FFF70BBA25F02003BAF121
:10349000FF3F0D9300F0AB80472B05D1BAF1000F31
:1034A00014BFD3464FF0010B079B43F48073119375
:1034B000159BB3F1000A149B0993B7BF5346002331
:1034C00003F1004A2D23662D0F9300F0B980462D9D
:1034D00000F0B6800D9B0220452B14BFD9460BF19E
:1034E00001091DA98DE8010202911EA821A90390DE
:1034F000099A53460491089800F0DEFA672D10905F
:1035000002D0472D40F0AC80079BDB0740F196814D
:10351000109B03EB09080998514600220023FEF78F
:1035200045FE002840F00A81219B984506D93021AC
:103530005A1C21921970219B9845F9D8109A9B1A10
:1035400013930D9B472B1D9B00F0EB80652D40F3E3
:103550000581662D129300F06481139B129A9342A9
:1035600000F35181079BD90700F1888122EAE273B9
:103570000D920F9A002A40F0C9800993119B9DF883
:103580006FC007931192FFF75BB80898314623AAE2
:1035900001F0F6FF00287EF4F9AF3C46DDF894B068
:1035A000FFF7DABBFC8D0008F88D0008308E0008AC
:1035B000348E00080898402101F0D6F9C9F80000BF
:1035C000C9F81000002800F086814023C9F81430A3
:1035D000FEF72EBF0898314623AA01F0D1FF00283C
:1035E0007EF4D4AF3C461D9DDDF894B0F6E64FF076
:1035F000060B59E7CDF844B0FEF7D4FECDF838906D
:103600000D900346FFF71ABB0898314623AA01F034
:10361000B7FF00287EF4BAAF3A462599249B139C45
:10362000013301EB040B1099072BCDF894B02493D0
:10363000116054603FF795AC02F10804FFF7DAB867
:1036400003201DA98DE8010802911EA821A903905D
:10365000099A53460491089800F02EFAD946109022
:10366000109B03EB09080D9B462B7FF454AF109B76
:103670001B78302B00F0E4801D9B98444BE70898A2
:10368000314623AA01F07CFF00287EF47FAF3C4640
:10369000DDF894B0ACE401332944072B2591249341
:1036A000C2F800905560AFDC0832B8E708983146A0
:1036B00023AA01F065FF00287EF468AF3C461D9BFD
:1036C000DDF894B068E55346062B28BF06230D931A
:1036D00023EAE373DDF840C00993844BCDF83890BA
:1036E000CDF844C0CDF848C01093FEF7A9BF0898A4
:1036F000314623AA01F044FF00287EF447AF1D9B0A
:10370000139ADDF894B0D31A3C465BE50993119BFC
:103710004FF02D0C079300238DF86FC01193FEF727
:1037200092BFDA1C19DB9B4517DB1293672514E760
:103730002D239C468DF86F30FFF7C3B94346FDE655
:103740002AEAEA731190CDF8389012909DF86FC074
:103750000993CDF834A0FEF773BF023D013B002B67
:103760001D93BABF5B422D222B22092B8DF87C5072
:103770008DF87D207ADD0DF18B0001465C4A82FBDD
:10378000032EDA17C2EBAE0E0EEB8E02A3EB420253
:1037900073463032092B01F8012DEFDC0A46303335
:1037A0005FFA83FE02F801ED904240F29B800DF13A
:1037B0007E020B4601E013F801EB834202F801EBB5
:1037C000F9D123AB5B1A0DF17E0213441FAA9B1A99
:1037D000139A1993012A13440D935EDD0D9B002269
:1037E00001330D93129223EAE373C2E6089831463F
:1037F00023AA01F0C5FE00287EF4C8AE3A461D9DFE
:103800002599249B00E6129B002BD8BFC3F1020828
:10381000139BC8BF4FF0010843440D9323EAE373A1
:10382000A7E6002B30DDBBF1000F17D1079BDB07AC
:1038300014D4129A22EAE2730D929AE6219B7DE655
:103840000998514600220023FEF7B0FC00287FF4BF
:1038500013AFC9F101031D9398445CE6129B0BF171
:10386000010843440D9323EAE37382E630333022A8
:103870008DF87F308DF87E2020ABA7E7129B0133B7
:103880000D9323EAE37374E6BBF1000F1DD1079B90
:10389000D8071AD401230D936BE6079B13F001039D
:1038A0009CD112930D9B23EAE37362E60E9D28469A
:1038B000D5F800A00430BAF1000F5D780E90BEF686
:1038C000F2AD4FF0FF3AFEF7EEBD0BF102030D93A0
:1038D00023EAE3734DE6089A0C2313604FF0FF30A0
:1038E000FEF75EBE0DF17E0370E700BF288E000874
:1038F0006766666670B5002A9AB005462DDB1446E9
:103900001A464FF4027300910491ADF80C304FF653
:10391000FF760FD0013C69461E9B02940594ADF8DA
:103920000E60FEF76DFD421C14DB009B00221A7036
:103930001AB070BD1E9B694602940594ADF80E60E6
:10394000FEF75EFD431C01DB1AB070BD8B232B60BC
:103950001AB070BD8B232B60E7E78B2303604FF019
:10396000FF30F1E730B50D461446054A83B00146F5
:10397000106800932A462346FFF7BCFF03B030BD12
:10398000E00400202DE9F04F03690F6983B09F42E6
:1039900000F38B80013F01F1140600F1140A56F880
:1039A00027305AF827200133B2FBF3F8BB0000930D
:1039B00006EB030953440193B8F1000F3DD00023F7
:1039C0001C46B446D6461A465CF804BBDEF80050E6
:1039D0001FFA8BF34FEA1B4B03FB08220BFB08F388
:1039E00003EB124392B2A41A1FFA83FBAAB2224439
:1039F000CBEB154404EB224492B242EA0442E14587
:103A00004EF8042B4FEA24444FEA1342DCD2009BC9
:103A10005AF803308BB9019C231F9A450CD254F8F5
:103A2000043C4BB9A4F1080302E01A68043B1AB93C
:103A30009A4507F1FF37F8D30761044601F078FC97
:103A400000282EDB00235546194608F1010856F8D8
:103A5000042B2B6890B2081A120C99B2C2EB1343D4
:103A6000421803EB224392B242EA0342B14545F8C1
:103A7000042B4FEA2341EAD25AF827200AEB8703A6
:103A80007AB91A1F92450BD253F8042C42B9083B5D
:103A900002E01A68043B1AB99A4507F1FF37F8D3D8
:103AA0002761404603B0BDE8F08F002003B0BDE8B9
:103AB000F08F00BF000000002DE9F04F016C99B0BD
:103AC0000446CDE90223259D41B1426C0123934078
:103AD0008B604A6001F040FA00232364DDE9022391
:103AE000002B994636DB00232B60A54B1A4609EACA
:103AF0000303934217D0DDE902670022002330461A
:103B00003946FEF753FB804600282BD0249A012328
:103B10001360269B002B00F0CB809A481860013878
:103B200019B0BDE8F08F42F20F73249A1360029B24
:103B3000002B00F0A6809448269B002BF0D0C37881
:103B4000002B00F0B78000F10803269A136019B02B
:103B5000BDE8F08F039A012322F000492B60CDF8D5
:103B60000C90C2E717AA16AB8DE80C00204632462F
:103B70003B4601F073FC5FEA1955834640F08A80AA
:103B8000DDF85880179D6FF4826345449D42C0F272
:103B900095827E4A05F21243521B09FA02F9029AF3
:103BA00022FA03F049EA0000FEF734FA0123013D4E
:103BB000A1F1F87112930022754BFEF7EDF86AA39C
:103BC000D3E9002302F008F969A3D3E90023FEF743
:103BD000E5F8064628460F46FEF72CFA66A3D3E919
:103BE000002302F0F9F802460B4630463946FEF74C
:103BF000D5F806460F4602F001FB39460590002233
:103C000030460023FEF7DCFA002840F0A481059B33
:103C1000162B00F29D81DDE9022305985D4901EB39
:103C2000C001D1E90001FEF7E9FA002800F0508256
:103C3000059B013B059300230C93C5EB0805B5F1EB
:103C4000010A00F19F8100230693059B002BC0F21F
:103C500090819A440B9300230993229B092B2BD824
:103C6000052B40F37786043B22930025229B023BE1
:103C7000032B00F25586DFE813F0CF03C103B00237
:103C80006A06414B444AC9F31300002814BF184682
:103C9000104651E7C7F3130343F07F51CDF8488036
:103CA0003046A5F2FF3541F44011DDF8588082E737
:103CB0003A4835E7C31C48E7002161642046229159
:103CC00001F022F94FF0FF33229A07930D9301235D
:103CD0000890239220640A93179B002BC0F2D08097
:103CE000059A0E2A00F3CC802A4B03EBC203D3E9DA
:103CF0000089239B002BC0F29283DDE902674246D4
:103D00004B463046394602F091F902F077FA824686
:103D1000FEF790F942464B4602F05EF802460B462B
:103D200030463946FEF738F8079E089F0AF13005FD
:103D3000012E3D7002460B4607F1010562D00022BC
:103D4000174B02F049F80022002306460F46FEF703
:103D50002DFA002840F08180CDF808B0DDF820A0D1
:103D6000DDF81CB006942AE061436F63A787D23F59
:103D7000B3C8608B288AC63FFB799F501344D33F5A
:103D80000000F07F318E0008508E00080EFCFFFF0F
:103D90000000F83F608E0008448E0008308E000856
:103DA000000024400022C84B02F016F80022002335
:103DB00006460F46FEF7FAF9002840F0E083424637
:103DC0004B463046394602F031F902F017FA044604
:103DD000FEF730F942464B4601F0FEFF02460B4625
:103DE00030463946FDF7D8FF04F1300605F8016B7F
:103DF000CAEB0506B34502460B46D3D1A246DDF811
:103E000008B0069C10461946FDF7C8FF06460F4647
:103E10004046494632463B46FEF7D2F948B940464D
:103E2000494632463B46FEF7C1F9B0B11AF0010FE0
:103E300013D015F8018C6B1E089904E08B4200F03A
:103E4000458413F8018DB8F1390F03F101051A46C5
:103E5000F4D008F10103DBB213702046594601F09B
:103E60007BF80022059B2A70249A01331360269B5D
:103E7000002B00F04A8308981D6019B0BDE8F08F50
:103E80000A9A002A00F08480229A012A40F30983CA
:103E9000079B5F1E099BBB42C0F2AF83DF1B079BE2
:103EA000002BC0F2A584069D079B069A20461A4463
:103EB000012106929A4401F0E9F8064665B1BAF18B
:103EC000000F09DDAA455346A8BF2B46069AED1AF6
:103ED000D21A0692C3EB0A0A099B002B1ADD0A9B31
:103EE000002B00F08383002F10DD31463A46204638
:103EF00001F076F906465A463146204601F0D0F8E0
:103F000080465946204601F027F8C346099BDA1B34
:103F100040F0A7822046012101F0B8F80B9B8046B3
:103F2000002B39DD01461A46204601F059F9229B43
:103F30008046012B40F39B824FF00009D8F81030E7
:103F400008EB8303186901F053F8C0F120002DE05D
:103F500001230C9371E60598FEF76CF832463B4658
:103F6000FEF724F900287FF452AE059B013B059330
:103F70004DE6069A059BD21A5B42099300230692EE
:103F80000B936AE6CAF1000306934FF0000A5CE661
:103F9000099F069D0A9E91E7229B012B40F3B88260
:103FA0004FF000090B9B002BC8D10120504410F0AA
:103FB0001F0000F08180C0F12003042B40F3C18476
:103FC000C0F11C00069B0544034406938244069BF3
:103FD000002B05DD59461A46204601F051F983466B
:103FE000BAF1000F05DD41465246204601F048F97E
:103FF00080460C9B002B40F06D82079B002B40F30A
:104000009B820A9B002B71D1DDF82090079F4D46C3
:1040100004E05946204600F0A9FF83465846414631
:10402000FFF7B0FC303005F8010BC9EB0503BB42CC
:104030004FF00A024FF00003EBDB089B079A84461F
:10404000012AACBF9B1801331D464FF0000A5946A8
:1040500001222046CDF808C001F012F941468346FE
:1040600001F066F90028DDF808C040F3FC8215F87D
:10407000012C6B1E089904E08B4200F0798213F842
:10408000012D392A03F10105F6D001321A7041469B
:10409000204600F061FF002E3FF4DFAEBAF1000FC2
:1040A00005D0B24503D05146204600F055FF3146B9
:1040B000204600F051FFD0E61C2083E7034B029A14
:1040C0005B1B02FA03F06FE500002440EEFBFFFFEC
:1040D0000C90B2E53146002320460A2200F046FF4C
:1040E0000D9B0646002B40F315840793002D05DD3C
:1040F00031462A46204601F0C3F80646B9F1000FC2
:1041000040F0EE82B146089A079B1746013BD31850
:104110000993029B03F001030A9341465846FFF7B7
:1041200031FC31460546584601F002F94A468246BE
:104130004146204601F020F9C268034605F1300CE3
:10414000002A40F0BD8119465846CDF81CC00693A0
:1041500001F0EEF8069B02901946204600F0FCFEA6
:10416000029ADDF81CC02AB9229B1BB90A9B002BBE
:1041700000F0B083BAF1000FC0F2578205D1229B44
:104180001BB90A9B002B00F05082002A00F3BC826E
:10419000099B07F1010A9F4287F800C0554600F0CD
:1041A000BF8259460A220023204600F0DFFE4E451A
:1041B0008346314620464FF00A024FF0000300F0DC
:1041C000798100F0D3FE494606460A2220460023A4
:1041D00000F0CCFE574681469FE701230A93239BBC
:1041E000002B40F319821F461E460D9307930021B2
:1041F000172F61640AD9012204235B0003F1140024
:104200008742114602F10102F7D26164204600F0B4
:104210007BFE0E2E089020643FF65EAD002D3FF42D
:104220005BADDDE902230599CDE90E23002940F3BA
:104230002682BA4B01F00F020D1103EBC203E9060F
:10424000D3E9006740F1E181DDE90E01B44B05F0EF
:104250000F05D3E9082301F0E9FECDE902014FF093
:1042600003088DB130463946DFF8B492EA0705D528
:10427000D9E9002301F0B0FD08F101086D1009F142
:104280000809F3D106460F46DDE9020132463B46F6
:1042900001F0CCFECDE902010C9B43B1DDE9020146
:1042A0000022A04BFDF78CFF002840F0B58240466D
:1042B000FDF7C0FEDDE9022301F08EFD9A4B0022DE
:1042C000FDF76CFD079B0646A1F15077002B00F02F
:1042D0006881059BDDF81CC013930A9B002B00F03E
:1042E00026828E4B002003EBCC0353E902238F4937
:1042F000CDF850C001F09AFE32463B46FDF74CFD2A
:10430000DDE90267CDE910013946304601F076FF5C
:104310000546FDF78FFE02460B4630463946FDF74F
:104320003BFDDDE9102330355FFA85F8089D064630
:1043300085F800800F460135FDF742FF002840F068
:10434000B98232463B4600207649FDF725FD0246FC
:104350000B46DDE91001FDF751FF002840F0B38264
:10436000DDF850C0BCF1010F40F33A81089BCDF855
:1043700050A0CDF808B003EB0C09DDE910ABA04666
:104380000FE032463B4600206649FDF705FD5246E8
:104390005B46FDF715FF002840F090824D4500F088
:1043A0001A81504659460022614B01F015FD00224A
:1043B0005F4B82468B463046394601F00DFD0F4675
:1043C000064601F01BFF0446FDF734FE02460B468D
:1043D00030463946FDF7E0FC3034E4B205F8014BD5
:1043E00052465B4606460F46FDF7EAFE0028C8D057
:1043F000139BDDF808B0444605932EE500230A938D
:10440000239B059A13440D930133002B079340F32C
:104410000A81079E3746EAE600230A93DFE6079BF8
:10442000002B3FF76AAC40F0668240460022414BC9
:10443000494601F0D1FCDDE90223FDF7D5FEDDF8A8
:104440001C804646002800F08B80239B089DDB43A0
:1044500005934146204600F07FFD002E7FF427AEF5
:10446000FBE45946204600F0BBFE834652E5029B22
:10447000002B7FF461AD039BC3F31303002B7FF488
:104480008FAD039B23F000473F0D3F05002F00F049
:104490001E82069B0AF1010A013306934FF00109BF
:1044A00080E5129A002A00F0A98103F23343099FA4
:1044B000069DFAE400F05AFD5746064681462CE672
:1044C00001462046CDF808C000F046FD0122DDF887
:1044D00008C04FE65846414600F02AFF0028BFF6C4
:1044E0008CAD059F5946002320460A22013F0597BF
:1044F00000F03CFD0A9B8346002B7FF4EBAD0D9B47
:10450000002B40F3FC8107937EE50898FFF708BB7A
:10451000029B002B7FF444ADADE700BF608E000826
:10452000288F00080000F03F00001C400000E03F22
:104530000000244000001440229B022B7FF761AD55
:10454000079B002B81D141460522204600F00EFD3D
:1045500080465846414600F0EBFE00287FF775AFD5
:10456000059A08993123013205920B704D1C70E7B2
:10457000059A312301320592089A137087E5DDF818
:1045800008B0069C69E44046FDF754FDDDE90223CE
:1045900001F022FC0022BE4BFDF700FC0646A1F113
:1045A0005077DDE902010022BA4BFDF7F5FB3246F8
:1045B0003B46CDE90201FDF721FE8046002840F090
:1045C000B280DDE90201324607F10043FDF7F8FD54
:1045D00030B1464639E74446DDF850A0DDF808B072
:1045E000DDE90E23CDE90223FFF776BB5946099A90
:1045F000204600F0F5FD83468CE4099B0B9AFB1ADC
:104600001A4409970B92002749E4DDE90E234FF085
:104610000208CDE9022324E6012623960D9607968B
:1046200000216164F2E51E46FAE7002A15DD5946CD
:1046300001222046CDF808C000F022FE4146834604
:1046400000F076FE0028DDF808C040F34D81BCF193
:10465000390F00F009810CF1010CB24687F800C057
:104660007D1C4E4613E504D11CF0010F01D0FEE481
:10467000154615F8013C6A1E302BF9D007E5059B5D
:104680005D42002D00F0C180DDE90E01824B05F096
:104690000F0203EBC203D3E9002301F09DFB2D11B0
:1046A000CDE9020100F030817C4E4FF00208EB07AB
:1046B00005D5D6E9002301F08FFB08F101086D1044
:1046C00006F10806F3D1CDE90201E5E5059A3023AC
:1046D00001320592089A137031231370FFF7BDBBA6
:1046E0007168204600F010FC0546336906F10C01A4
:1046F0009A1C92000C30FDF791FD204629460122BC
:1047000000F0BEFD8146FEE4BCF1390F00F0AC8044
:104710000CF1010CB24687F800C07D1C4E46B6E491
:10472000B2464E4693E44FF00008464618E75A4911
:104730000CF1FF3301EBC3013246D1E900011493C0
:104740003B46CDF854C001F047FBDDE90267CDE9F7
:1047500010013946304601F051FD0546FDF76AFC6F
:1047600002460B4630463946FDF716FBDDF854C0CD
:10477000089A3035BCF1010F157006460F4602F15C
:10478000010523D0089BCDF808A063445E469A46F5
:10479000AB460022424B01F01FFB8946804601F0E8
:1047A0002DFD0746FDF746FC303702460B464046D6
:1047B0004946FDF7F1FA0BF8017BD345E9D1B34641
:1047C0000F460646149BDDF808A01D440022354B19
:1047D000DDE91001FDF7E2FA32463B46FDF7F0FC59
:1047E000002848D0139B059315F8018CFFF723BBD5
:1047F000069B079A9D1A0023FFF757BB169B099F3C
:10480000C3F13603069DFFF750BBDDE90E234FF0E1
:104810000208CDE902233FE5079B002B3FF4B3AE2E
:104820000D9D002D7FF7DCAEDDE9020100221C4B5F
:1048300001F0D2FA06460F4608F10100CDE9026701
:10484000FDF7F8FB02460B463046394601F0C4FA44
:104850000F4B0022FDF7A2FA059B0646013B13937E
:10486000A1F15077AC4638E53922B2463A704E464F
:104870007D1CFFF7FEBBDDE9102300200949FDF791
:104880008BFA32463B46FDF7B9FC70B9A8E600BF8B
:1048900000001C4000001440608E0008288F0008B3
:1048A000000024400000E03F154615F8013C6A1E58
:1048B000302BF9D0139B0593FFF7CFBA4346A046A0
:1048C0001C46DDF808B0139B0593FFF7B4BAB94650
:1048D000FFF768BBBCF1390FC6D0BAF1000F7FF704
:1048E000BCAE05F1310CB8E67FF4B7AE1CF0010F99
:1048F0003FF4B3AEABE64FF000084646A5E5229B79
:10490000022B04DC0D9BFEE54FF00208C4E40D9B76
:10491000079315E6229B022BF9DC0D9BFFF7E5BB05
:10492000002565642946204600F0EEFA4FF0FF337B
:1049300007930D9301230890239520640A93FFF7B2
:10494000CBB93FF444ABC0F13C00FFF73BBB0123C4
:104950000A9355E50125FFF789B900BFAFF3008041
:1049600000487047E40400202DE9F04F01F10B05E9
:10497000162D83B0064627D935F0070500F1B6801D
:10498000A94200F2B38000F0BBFAB5F5FC7F22D259
:10499000BC4FE80807EBC003DC689C4200F0BD8117
:1049A0006368E16823F0030323445A68A56842F072
:1049B0000102E96030468D605A6000F0A3FA0834C5
:1049C000204603B0BDE8F08F102900F28F8000F080
:1049D00097FA1025DCE7680A00F08F80042800F2BF
:1049E0004781A80938304100A64F07EB8101CC6808
:1049F000A14206D10CE0002A80F28280E468A14244
:104A000006D0636823F003035A1B0F2AF3DD013835
:104A100001309C493C6901F1080E744500F0728137
:104A2000636823F003035A1B0F2A00F35881002AFE
:104A3000C1F814E0C1F810E066DAB3F5007F80F049
:104A40002D81DB0801EBC3084FEAA30C4A68012360
:104A500003FA0CF3D8F808C01343C4F808C0C4F82C
:104A60000C804B60C8F80840CCF80C408210012440
:104A700094409C4255D8234206D120F003006400A4
:104A8000234200F10400FAD007EBC008C446814677
:104A9000DCF80C309C4507D136E1002980F24681D4
:104AA000DB689C4500F030815A6822F00302511BFC
:104AB0000F29F2DD1C46DA6854F808CF45F00109E9
:104AC00041F001081D44C3F804903046CCF80C2096
:104AD000C2F808C07D613D61C5F80CE0C5F808E08A
:104AE000C5F80480695000F00DFA69E700242046FB
:104AF0000C23336003B0BDE8F08F7E213F2073E7C5
:104B000023445A68E16851E723445A68304642F02A
:104B100001025A60083400F0F5F9204603B0BDE800
:104B2000F08FBC68636823F00308454504D8C5EBE3
:104B300008030F2B00F38C80534BDFF85CA11A683D
:104B4000DAF800302A44013304EB080B00F05181FD
:104B500002F580520F3222F47F6222F00F021146DA
:104B60003046019200F0FAFCB0F1FF3F8146019A15
:104B700000F0F680834500F2F080444BCB45196885
:104B80001144196000F03E81DAF80000DFF808E116
:104B900001301BBFCBEB090B5944CEF800901960D4
:104BA00019F0070100F00881C1F10800C1F580513A
:104BB000814408314A44C2F30B02C2EB010A514658
:104BC0003046019300F0CAFC431C019B00F0288191
:104BD000C9EB0002524442F001021968BC42514440
:104BE000C7F808901960C9F80420DFF8A0A016D013
:104BF000B8F10F0F40F2E3806268A8F10C0323F0D4
:104C0000070302F00102E0184FF0050E1A430F2BC4
:104C10006260C0F804E0C0F808E000F205811C4BB7
:104C2000BC681A68914288BF19601A4B1A68914291
:104C3000626888BF196022F003029542A2EB050367
:104C400001D80F2B04DC304600F05CF90024B7E6F5
:104C500045F0010243F00103254462603046BD6027
:104C600008346B6000F04EF9204603B0BDE8F08FC9
:104C700014286AD9542800F29880280B6E3041001D
:104C8000B2E600BF1C050020181200201C120020F4
:104C90001412002010120020280900205A0A042AA9
:104CA00056D9142A00F2A7805B324FEA420C07EB78
:104CB0008C0CDCF80810DFF8B081614500F08580CD
:104CC0004A6822F00302934202D289688C45F7D1E8
:104CD000CA687B68E260A1609460CC60C6E645F07B
:104CE000010742F001032544676030464D610D61C4
:104CF000C5F80CE0C5F808E06B60AA50083400F075
:104D000001F95DE64B68B1E609F1010919F0030FFD
:104D10000CF1080C7FF4BCAE2BE004F108036469CD
:104D2000A34208BF02303FF474AE39E61C461A4471
:104D30005168DB6854F8085F41F00101516030466A
:104D4000EB609D6000F0DEF83AE65B3041004BE638
:104D50009A0938324FEA420CA9E7BC423FF40DAF42
:104D6000BC68626822F0030267E7D8F800809845C3
:104D700077D110F0030FA8F1080300F1FF30F4D150
:104D80007B6823EA04037B6064009C423FF6C9AE63
:104D9000002C3FF4C6AE234248467FF475AE640053
:104DA000234200F10400FAD06EE6B0F5AA7F18D8CD
:104DB000E80B7730410017E64FF48051FAE6012303
:104DC000C9F804304C46002237E7D8F80430921076
:104DD0004FF0010C0CFA02F21343C8F804300A46F3
:104DE00078E740F25453984217D8A80C7C30410021
:104DF000FAE51032B3E6542A1ED81A0B6E324FEA87
:104E0000420C54E7CBF30B0000287FF4BDAE4244C4
:104E1000BB6842F001025A6001E7FC217E20E3E515
:104E200001224FF0000AD8E604F10801304600F0F4
:104E3000A7FCDAF80010F2E6B2F5AA7F04D8DA0B84
:104E400077324FEA420C32E740F254518A4204D89A
:104E50009A0C7C324FEA420C29E74FF0FC0C7E2280
:104E600025E77B6890E700BF1C050020830770B42E
:104E7000C9B240D0541E002A3FD003788B4218BFDD
:104E8000431C05D11CE0ECB10278013C8A4217D0EA
:104E900013F0030F184603F10103F4D1032C14D8C7
:104EA00084B103788B420BD00519431C02E00278D1
:104EB0008A4205D0AB42184603F10103F7D1002026
:104EC00070BC7047204670BC7047024641EA01261C
:104ED00046EA0646136810467340A3F1013525EAF9
:104EE000030313F0803F02F10402D9D1043C032CE8
:104EF0001046EFD8D4E71446D0E71046E0E700BFED
:104F0000704700BF704700BFC26C70B505460C46C5
:104F100052B152F824308BB1196842F824100022A3
:104F200018461A61DA6070BD2122042100F0AAFB44
:104F3000E86402460028ECD1002070BD012101FA8E
:104F400004F6721D2846920000F09CFB03460028E0
:104F5000F2D044608660E2E731B1C36C4A6853F82E
:104F60002200086043F82210704700BFF0B50C46DD
:104F700005460E6983B001F1140E0027DEF800101B
:104F8000013788B2090C02FB003302FB01F198B231
:104F900001EB134300EB0341BE424EF8041B4FEA02
:104FA0001343EBDC3BB1A268964207DA04EB8602BE
:104FB000013653612661204603B0F0BD6168284682
:104FC00001310193FFF7A0FF0746226904F10C01AC
:104FD000023292000C30FDF721F9EA6C6168019B06
:104FE00052F82100206042F821403C46DEE700BF35
:104FF000030C1B04B3B90004102310F07F4F04BF4F
:105000000002083310F0704F04BF0001043310F0A9
:10501000404F04BF80000233002807DB420003D466
:10502000202070470023E8E7581C70471846704757
:10503000036813F0070207D0D90720D49A0720D4B9
:105040009B0803600220704799B209B91B0C10221B
:1050500013F0FF0F04BF1B0A0832190704BF1B0916
:105060000432990704BF9B080232D90704D45B08B5
:1050700001D12020704701320360104670470020A4
:1050800070475B0803600120704700BF10B50C46F5
:105090000121FFF739FF01224461026110BD00BF09
:1050A0002DE9F04F0E69156985B0AE420C46914668
:1050B000C0F292802B4635461E46A36805EB0608D3
:1050C00061689845C8BF0131FFF71EFF00F1140A5F
:1050D0000AEB880BDA45019005D25346002143F8CC
:1050E000041B9B45FBD809F1140909EB860304F165
:1050F0001402994502EB850C59D2CDF808B0CDF8D1
:105100000C809B46904659F8047B1FFA87FEBEF13F
:10511000000F1FD047465646002100E006463046A5
:1051200057F8045B3468ABB2A2B20EFB03222D0C1D
:10513000240C0EFB0544531804EB13419AB242EAC7
:105140000142BC454FEA114140F8042BE6D871609A
:1051500059F8047C3F0C22D0DAF800300022554682
:105160001E464046964600E025462C460288360CF0
:1051700007FB026699B206EB0E0241EA024344F8CD
:10518000043B50F8041B6E68090CB3B207FB0131F5
:10519000844501EB12434FEA134EE5D86B60CB45D3
:1051A0000AF1040AAFD8DDF808B0DDF80C80B8F1D8
:1051B000000F0BDD5BF8043CABF1040B1BB105E009
:1051C0005BF8043D13B9B8F10108F9D10198C0F8B2
:1051D000108005B0BDE8F08F144689466DE700BF2A
:1051E00012F003032DE9F041144607460E462DD177
:1051F000A4101CD0BD6C95B3E3074FF0000806D493
:10520000641014D02868A8B10546E307F8D53846DD
:1052100031462A46FFF744FFB6B17268FB6C641052
:1052200053F82210316043F822600646EAD1304636
:10523000BDE8F08129462A463846FFF731FF28604D
:10524000C0F800800546E0E70646D9E70B4A013B77
:1052500052F823200023FFF789FE0646C8E7012104
:105260003846FFF751FE40F27121012200234161CF
:1052700002610546B8640360BEE700BF508F0008B6
:105280002DE9F0470F694FEA62198B684F447D1C86
:105290009D420E4614468046496804DD5B009D42EF
:1052A00001F10101FADC4046FFF72EFEB9F1000FD3
:1052B00000F1140109DD00239E460A4601334B45E7
:1052C00042F804EBFAD101EB8301326906F11403D1
:1052D00003EB820E14F01F0222D0C2F120094FF01E
:1052E000000A1C688C4694404AEA040441F8044BC6
:1052F00053F8044B9E4524FA09FAF2D8CCF804A0DE
:10530000BAF1000F00D0BD1CD8F84C307268013DD6
:1053100053F822100561316043F82260BDE8F08740
:10532000043953F8042B9E4541F8042FF9D8EBE7D4
:1053300002690B69D21A13D19B001430143119443D
:1053400010B4034401E098420CD253F8044D51F8D4
:10535000042D9442F7D009D301205DF8044B704727
:105360001046704700205DF8044B70474FF0FF3047
:105370005DF8044B704700BF2DE9F0470C46054629
:10538000114620469146FFF7D3FF061E5DD056DB3F
:105390004FF0000A28466168FFF7B6FD09F11403D3
:1053A00080461E462769D9F8102004F1140E754670
:1053B000C0F80CA000F114040EEB870E03EB820C76
:1053C0004FF0000A55F8042B56F8041B90B200EB7E
:1053D0000A0388B2090C1B1AC1EB124202EB2342EA
:1053E0009BB243EA0243B44544F8043B4FEA224AE5
:1053F000A946E7D8AE45264615D959F8040B83B21D
:105400005344000C00EB23419BB243EA0143CE45D9
:1054100044F8043B4FEA214AEFD8ED43754425F0A8
:10542000030404343444043C23B954F8043D013FDC
:10543000002BFAD04046C8F81070BDE8F08723462C
:105440004FF0010A4C469946A4E728463146FFF73B
:105450005BFD012346610361BDE8F087F0B50121E2
:1054600083B01C46C3F30A551646FFF74DFDC4F33F
:10547000130407460DB144F48014019406B302A846
:1054800040F8086DFFF7D4FD002830D19DE80C00EE
:105490007A61002B14BF02240124BB613C61D5B9A1
:1054A000089A07EB8403A0F2324010601869FFF7F6
:1054B0009FFD099BC0EB44101860384603B0F0BD57
:1054C00001A8FFF7B5FD019B0122144620303A6187
:1054D0007B61002DE4D0A5F23343089A03441360A6
:1054E000099BC0F135001860384603B0F0BD019B40
:1054F000C0F12001009A03FA01F10A43C34001936D
:105500007A61C6E710B431F0004408D0114BA1F520
:1055100080129A4208D804205DF8044B704718B9ED
:1055200002205DF8044B704701F1FF41094B01F582
:10553000E0019942EFD9B4F5801F01D20320EBE7D7
:10554000054B9C4201D00020E6E7B0FA80F040090C
:10555000E2E700BFFFFFDF7F0000F07F38B5074CB8
:105560000023054608462360FBF71AF9431C00D0C8
:1055700038BD2368002BFBD02B6038BD44120020BF
:105580002DE9F04F936883B09146D2F80080002B4C
:1055900072D04FF0000B0D465C4607468B680868DA
:1055A000002C45D09C421E469A4648D3AB8913F442
:1055B000906F2DD06E69296906EB4606C1EB000A93
:1055C00006EBD676601C76105044864232463CBFCD
:1055D000064632465B0535D511463846FFF7C4F915
:1055E000002839D0524629690190FCF717FEAA8994
:1055F000019B22F4906242F08002AA81CAEB06026B
:1056000003EB0A006E61A24626462B612860AA6061
:105610005246594600F08CF9D9F80820AB68286842
:105620009B1B5044141BAB602860C9F808401CB396
:10563000D8F800B0D8F8044008F10808B0E72646CA
:10564000A246E5E7384600F0D7F903460028D5D151
:105650003846296900F094F80C233B60AB8900229E
:1056600043F040034FF0FF30AB81C9F80820C9F880
:10567000042003B0BDE8F08F0020C9F8040003B097
:10568000BDE8F08F10B502FB01F1FFF76DF904469C
:1056900068B150F8042C22F00302043A242A18D8E6
:1056A000132A06D8034600221A605A609A602046E0
:1056B00010BD00231B2A036043600FD9242A836096
:1056C000C36005BF0361436100F1100300F11803DB
:1056D000E9E70021FCF718FE204610BD00F10803A1
:1056E000E1E700BFF8B50C46224F0646FFF708FC7D
:1056F000BB685D6825F00305291B01F6EF7121F4F5
:105700007F6121F00F01A1F58054B4F5805F07DBC4
:1057100030460021FFF722FFBB682B44984204D09B
:105720003046FFF7EFFB0020F8BD30466142FFF73F
:1057300015FF01300DD0104BBA6819682D1B45F0CC
:1057400001053046091B55601960FFF7DBFB01209E
:10575000F8BD30460021FFF701FFBA68831A0F2B0E
:10576000DEDD064C0449246843F00103001B53604E
:105770000860D5E71C0500201C1200202809002025
:1057800000294ED02DE9F0410C468046FFF7B8FBCA
:1057900054F8047C6249A4F1080527F00102AB1813
:1057A0008E6858689E4220F003005AD0FE07586069
:1057B0000BD454F8087C01F1080EED1BAC683A4498
:1057C000744567D0EF68E760BC601C186468E40744
:1057D0000CD4544F9C680244BC427CD0D86842F040
:1057E0000103E06084606B60AA5003E042F00103B3
:1057F0006B60AA50B2F5007F14D2D20801EBC2034D
:1058000001244868921004FA02F29C681043AC60CC
:10581000EB6048609D60E5604046BDE8F041FFF701
:1058200071BB7047530A042B47D8930903F138041E
:10583000600001EB800083683949834243D0596896
:1058400021F00301914202D99B689842F7D1DA68AE
:10585000EA60AB6040469560DD60BDE8F041FFF76F
:1058600051BBFF07024407D454F8084C2D1BEB68CA
:10587000A8682244C36098602B4B42F001001B686B
:1058800068609A428D60C7D3284B40461968FFF77D
:1058900029FFC1E719184968C90709D4D968024422
:1058A0009B6842F00100D9608B606860AA50B3E742
:1058B00042F001036B60AA50AEE7142B14D803F139
:1058C0005B046000B5E74A68A4100120A0400243D1
:1058D0004A601A46BCE742F001034D610D61EC607D
:1058E000AC606B60AA5097E7542B04D8130B03F1FC
:1058F0006E0460009DE7B3F5AA7F04D8D30B03F1D3
:105900007704600095E740F25450834204D8930C2A
:1059100003F17C0460008CE7FC207E2489E700BF53
:105920001C05002024050020240900201812002056
:105930008842F0B50DD98B1898420AD28118002AF6
:1059400054D09A1A13F8014D934201F8014DF9D140
:10595000F0BD0F2A48D940EA01039B0747D11546FD
:1059600000F1100401F1100353F8106C103D44F8DD
:10597000106C53F80C6C0F2D44F80C6C53F8086C39
:1059800004F1100444F8186C53F8046C03F110038C
:1059900044F8146CE8D8A2F1100323F00F0302F0CE
:1059A0000F0E1033BEF1030F1944034421D90E46E4
:1059B00074461D1F56F8047B043C032C45F8047FF5
:1059C000F8D8AEF1040424F0030404342344214441
:1059D00002F0030252B1013B0A4411F8014B91421B
:1059E00003F8014FF9D1F0BD0346F3E7F0BD0346DC
:1059F000F1E77246EEE700BF2DE9F04F174683B09E
:105A00000D46002900F0E280814607F10B04FFF704
:105A100077FA55F8043C162C23F00306A5F1080884
:105A20004BD810221446A7424CD8964251DADFF8E0
:105A3000A4B308EB0601DBF80800884200F0D3802D
:105A4000486820F0010E8E44DEF804E01EF0010FDD
:105A500054D120F003003044904280F2BD80DB0737
:105A600000F1908055F8083CC3EB080ADAF80430DE
:105A700023F0030300EB030E964549DB5746CB6842
:105A80008968321FCB60996057F8081FDAF80C302C
:105A9000242ACB60996000F23381132A40F2FA8005
:105AA0002B681B2ACAF808306B68CAF80C3000F261
:105AB0003B8108350AF11003EDE024F00704002CC7
:105AC0002246B0DA0C230020C9F8003003B0BDE84C
:105AD000F08F2F46321B0F2A03F0010340D83343C7
